:020000040000FA
:0600000002113402073773
:03002B00020EDAE8
:03003300020CC9F3
:030053000206653D
:03006B00020CA0E4
:100083000206CC010101FF050301FC16FC16FC1658
:10009300FC16B215AC15FC16F72200000000BB23BA
:1000A300000000000C0000000C0001FFFF430101F1
:1000B30001002E050000008005E80364006400B819
:1000C30001020200080000050307051E02051E0ABF
:1000D30003B80B020102080802C409000096511874
:1000E3000002020612121153601D121180700519CD
:1000F3001919801A120FBC701F120FFBC37003E68D
:10010300673319191940071818182208080874FFCB
:10011300F618F618F618F622120FFB60171211BF25
:10012300702192F01211C97019501720F0140808A9
:1001330008090909E7F61819E7F61819E7F618196F
:10014300E7F6221211C960E6E869701F0808E62481
:1001530080F608E436F618547FB47F0CE6548060CA
:1001630007F6E418F618F622181822E9C6CC08C6D2
:10017300CD08C6CE08C6CFC0E0E8C0E0EAC0E0EBD9
:10018300C0E009E9F809E7FA09E7FBE6F918E6F838
:10019300C3EC98ED99EE9AEBC2E7F5F0EFC2E79561
:1001A300F0500E600CEBCFFBEACEFAE9CDF9E8CCC8
:1001B300F8EAA2E7D2E7FAEB33FB13F5F0EEA2E796
:1001C300D2E7FEEF33FFC5F013A2E730E601B31326
:1001D300C5F0C3C0E0C0F07F00C39BFB605B941815
:1001E300600C401AD0E023F9D0E0F80202C68AF08E
:1001F300E9486003D2F0E4AFF0FAF9F8803BEB3062
:10020300E40D89F0EA6003D2F0E4AFF0F9CAF8EB49
:1002130030E30D88F0EF6002D2F0AFF0E4CAC9F822
:10022300EB54076014FBC3EA13FAE913F9E813F874
:10023300EF135002D2E0FFDBEDD0E0C0E030E7394E
:10024300C3E49FFFF5F0EC98FC42F0ED99FD42F01A
:10025300EE9AFE42F0D0E0F9D0E0F8E5F0607AE9FA
:1002630023F9EE20E742D8028067C3EF33FFEC3374
:10027300FCED33FDEE33FE80EAEC28FCED39FDEEB8
:100283003AFED0E023F9D0E0F84002801BC3EE131E
:10029300FEED13FDEC13FCEF135002D2E0FF08B8A0
:1002A30000067F7F74FF802EEF3350178CF020F011
:1002B3000260100CBC000C0DBD00080EBE0004084B
:1002C300E860DFE933E813FFEE2313FE4F4D4C8064
:1002D30008E95480FFE4FEFDFCEE33EF33F47004D1
:1002E300FCFD7E80D0E0FBD0E0FAD0E0F8D0E0CF98
:1002F300C618CEC618CDC618CCC6F9221211537033
:100303000418181822121180700D74FFF61819F6CC
:100313001819F61819F622E7548066F61211C970F7
:100323000F1211BF70F014F608F608F608F680D124
:100333001211BF700CF608F608768008E6447F8039
:10034300EC120FFE700C120FBF60BFE65480F6E490
:1003530080BB120FBF700519191980A5E869700CCD
:10036300763F18768018F618F6E8F922E6CDC0E055
:1003730018ECC0E0E633CD33CDD313F6E719FCE731
:10038300191933CC33C3947F400ECD9D502408E616
:100393005480F6E418F6800FF4043D14501408E674
:1003A300447FF6187680E418F618F6D0E0FCD0E027
:1003B300FD22CCD313CCFD18E4C6CBC0E018E4C6B1
:1003C300CAC0E00808ED08C633E613F618E433C6DE
:1003D30075F003C3CA97CA09CB97CB199C40047D18
:1003E30008802EBD00030204A816B6FF0506060802
:1003F3001618C3CA33CACB33CB33CA27CA09CB3780
:10040300CB193CC37D08803E187D0820E75CC633CA
:10041300C6CA33CACB33CB33DDF1D5F0EB30E77B40
:10042300CA97CA09CB974ACB199C406F4B7025E6F4
:1004330020E0218066187D08C3CA97CA09CB97CBF1
:10044300199CD3C633C6CA33CACB33CB3350C9DDA9
:10045300E7D5F0E1D3E4C636C608C636C608C636C5
:10046300C608C636C61818188031C3CA97CA09CB3E
:1004730097CB199CB34097C633C6CA33CACB33CB89
:1004830033DD34D5F02EC6A2E0C640C8CA27CA0958
:10049300CB37194A70BECB3CB480B90808E63308A1
:1004A300E633601F181818D0E0FAD0E0FBD0E0FC68
:1004B300D0E0FD22187D08CA27CA09CB37CB193CE7
:1004C300D3808013F618E4B67F11F618B6FF0EF644
:1004D30018C60470D20808768080CAF618F618F693
:1004E30080C500121153604F1211806012E75480CF
:1004F30066F6120FBC70111211BF703B090909F4A3
:10050300F618F618F618F622120FFB70151211C919
:1005130008080860EAE6447FF618768018E4F618BF
:10052300F6221211C960161211BF7012E4F608F612
:1005330008F608E65480F609090918181822EAC0D3
:10054300E0EBC0E0ECC0E0EDC0E0E687F0A4FBAC7C
:10055300F008E687F0A42CFCE435F0FA1809E687E6
:10056300F0A42C4B60027401CA35F0FCE433FB09A0
:10057300E687F0D2F7A42CCB35F0FC1908E687F018
:10058300A42BCC35F0FBE433FD0819E687F0D2E762
:10059300A42C4ACB35F0CD3400FC09E687F0D2E732
:1005A300A42DCC35F0FDE433FA0918E687F0D2F731
:1005B300A42CCD35F0CA3400FC08E687F0D2E7D28C
:1005C300F7A42ACC35F07A7E20E70B0ACB33CBCDC8
:1005D30033CDCC33CC33CB3350147004ED30E00E39
:1005E300D2F1E4CD3DCDCC3CCC3B5005DA05C2F194
:1005F300EB547FC63308E63392F0FBE73309E73366
:10060300C39A502D2B70190C0D4C4D70151806E61E
:1006130008C333700D20F10AA2F013F6E418800B1F
:100623004024E4F630F002768018F618F618F680C7
:1006330024D33B14501074FFA2F013F6187680E411
:1006430018F618F6800FA2F013F618E63303F6181F
:10065300ECF618EDF6D0E0FDD0E0FCD0E0FBD0E006
:10066300FA22C0E074F2120A54A2AFE433FED2AF0E
:10067300E5A7FFE5A1F5085F54106006121DE675B6
:10068300A1EFE5085F54086008121DEC75A1F7801F
:100693002BEFA2E0C0D0E508A2E092F01210711592
:1006A3008182F05017906198E0F890065CE0C3985F
:1006B300A2D265D0335002E8F075A1FE751A00EEA0
:1006C300A2E092AF7F01020B10C0E074F2120A5451
:1006D300A2AFE433FED2AF9061A4E0F8759B00E5CE
:1006E3009158540860087591F7121E34802AE591D9
:1006F30058541060087591EF121E3A801BE8A2E06F
:10070300C0D0E591A2E092F0121071158182F050F1
:1007130007E0C2E0F0121F8A9061A3E0F8E5E95810
:100723005404600E121F6075E9FB906193E0A2E62A
:1007330040F28088C0E074F2120A54A2AFE433FEA0
:10074300D2AF9061A5E0F8E5BF585404600675BFC9
:10075300FB121FA20206BFC3E498F8E499F912073B
:100763009B8026C3E49AFAE49BFBE920E7E912079E
:100773009BE498F8E499F922C3E498F8E499F91210
:10078300079BE498F8E499F9C3E49AFAE49BFB2203
:10079300EB20E7CFE920E7E0B90010BB0008E88AC7
:1007A300F084F8AAF022E4FBC8FA22EB70227B1053
:1007B300C833C8C933C9335007C39AC3DBF28006B1
:1007C3009A50012ADBEAC833F4C8C933F4C9FA22C0
:1007D30075F008E4C833C8C933C933C99AC99B50F3
:1007E30004C92AC93BD5F0ECFBC833F4C8E4C9FA01
:1007F300228A088B098C0A8D0B780812083E20F098
:100803001430E72B74FFFCFBFA747F8022E4FCFBBB
:10081300FA7480801AB48008BC00F2BB00EF800F2A
:1008230050EBF9E4C39AFAE49BFBE49CFCE499C61D
:10083300CC18C6CB18C6CA18C6F922E4C9C608CA5A
:10084300C608CBC6D3330308CCC63392F0C3947F18
:10085300402E94184019C9B90704CACBCC2250259D
:10086300C309CA33CACB33CBCC33CC33D9F422F448
:10087300600DC9CCC313CB13CBCA13CAD9F6CC2290
:10088300E4FCFBFA2214FCFBFA22080808EAC0E0A5
:10089300EBC0E086F0E7A4FA180986F0E7A42AFA89
:1008A300180986F0E7A42AFA180986F0E7A42AFAB9
:1008B3001986F0E7A4FBE5F02AFA190886F0E7A405
:1008C3002BFBE5F03AFA190886F0E7A42BFBE5F0D9
:1008D3003AFA18180986F0E7A4C5F02BFBE43AFAB4
:1008E3001908E7C5F0C6A426F6E5F03BFBE43AFA9F
:1008F3001886F0E7A4F6E5F00826F6E43B08F6E4EC
:100903003A08F6D0E0FBD0E0FA22E4CFC0E0E4CE30
:10091300C0E0E4CDC0E0E4CCC0E075F020C3E63332
:10092300F608E633F608E633F608E633F618181841
:10093300EC33FCED33FDEE33FEEF33FFC3EC9709ED
:10094300ED9709EE9709EF97191919400FFFEC97E7
:10095300FC09ED97FD09EE97FE191906D5F0BEECDB
:10096300F709EDF709EEF709EFF7191919D0E0FCCC
:10097300D0E0FDD0E0FED0E0FF222518C582C0E024
:10098300E51934FFC583C0E0E518C3958224F81048
:10099300AF08858319858218800885831985821895
:1009A300D2AFCEF0A3E520F0A37808E608F0A3DEEB
:1009B300FAEFF0A3E58124FAF8E608F0A3E608F0DD
:1009C300A3E608F0A30808E608F0A3E608F0A315D9
:1009D300811581D0E0FED0E0F8158115811581E8FD
:1009E300C0E0EEC0E0221211B4B90003020A3EE4F3
:1009F300900301788B79098002F0A3D8FCD9FA78A7
:100A03001A9000867A01BA00028007E493A3F608DD
:100A1300DAF9900B8BAA82AB839000877862790115
:100A23008015E493A3AC82AD838A828B83F0A3AA5F
:100A330082AB838C828D83D8E9D9E775824675832F
:100A4300F87402120EBC7582607583227400120E54
:100A5300BCC0D02518C582C0E0E51934FFC583C0EA
:100A6300E0E518C3958224F310AF088583198582C6
:100A7300188008858319858218D2AFC8F0A3E9F0DE
:100A8300A3EAF0A3EBF0A37908E709F0A3D8FAEC03
:100A9300F0A3EDF0A3EEF0A3EFF0A3D0E0F0A3D02A
:100AA300E0F0A3D0E0F0A3E520F0A3E5F0F0A3226B
:100AB300E9799EC608CAC608CBC608CCC6C370204F
:100AC3007996CACBCC7019798ECBCC70137986CC3E
:100AD300700EF9802ACA33CACB33CBCC33CC33194B
:100AE30030E7F2CCCBCA3350147004EA30E00DE4A3
:100AF300CA3ACACB3BCBCC3CCC500209C3E913C6A0
:100B0300CC182313C6CB18C6CA18C6F92285198375
:100B1300851882E0C0E0A3E0F9A3E0FAA3E0FBA319
:100B23007808E0F608A3DFFAE0FCA3E0FDA3E0FE0B
:100B3300A3E0FFA3E0C0E0A3E0C0E0A3E0F5D0A3FF
:100B4300E0F520A3E0A3F5F010AF088583198582B3
:100B5300188008858319858218D2AFD082D083D0BC
:100B6300E0F8D0E03275F0108E218F228582268541
:100B73008325851882851983E0CEA3E0CF8526825D
:100B8300852583EBC9EAC8EDCBECCAC3E833C8E9D2
:100B930033C9EA33CAEB33CBC3EA9EF524EB9FF5A3
:100BA30023B35004AB23AA24EC33CCED33CDD5F0DF
:100BB300DAAE21AF2222121153601C12118060178A
:100BC3001211C970071211BF7001D322C0D01211C4
:100BD300BF7006D0D0B322C32233D0D0501430E03C
:100BE300F6C3E7960809E7960809E7960809E79622
:100BF300B32220E0D5E6970809E6970809E69708A7
:100C030009E697B322D083D082ECC0E0EDC0E0E4E4
:100C130093A3FCE493A3FDED4C600D120D73EC2440
:100C2300FFFCED34FFFD80EFE493A3FCE493A3FD0D
:100C3300ED4C600D120E10EC24FFFCED34FFFD8033
:100C4300EFD0E0FDD0E0FCE493A3C0E0E493C0E088
:100C530022121153601B12118060161211C9700702
:100C63001211BF600CB322C0D01211BF7005D0D0D7
:100C730022C32233D0D0501330E0EBC3E7960809E8
:100C8300E7960809E7960809E7962220E0E4E69745
:100C93000809E6970809E6970809E69722C0E07471
:100CA300F2120A54A2AFE433FED2AFE589A2E150B7
:100CB30003121CBA758900C2C5751A00EEA2E09230
:100CC300AF7F01020B10C0E074F2120A54A2AFE42A
:100CD30033FED2AFE58BA2E05003121CBA758B0032
:100CE300C2E880D5D083D082E9C0E0E493A3C38671
:100CF300F0C5F095F0F908E493A386F0C5F095F0FC
:100D0300700BE493A3C3994005E9048002A3E4753F
:100D1300F002A42582F582E5F03583F583D0E0F96E
:100D2300E493A3C0E0E493C0E0228519838518828D
:100D3300E0A3FEE0A3F5207808E0A3F608DFFAE0DD
:100D4300A3FFE0A3C0E0E0A3C0E0E0A3C0E0E0A312
:100D5300C0E0E0A3C0E010AF088582188583198046
:100D630008858218858319D2AFD083D082020EC240
:100D7300C0E0C3E49396087401939618400FE4937C
:100D830066700808740193661870007019A3A3C3F2
:100D9300E49396087401939618A3A3400DD0E0D072
:100DA300E0D0E0020C44A3A3A3A3A3A3D0E0227446
:100DB30004800474028000CCC0E0EDC0E0E518C3F9
:100DC3009CCCAD1950011D10AF068C188D198006EF
:100DD3008C188D19D2AF120E5DD0E0FDD0E0FC224D
:100DE30074028000CCC0E0EDC0E0E518C39CCCAD3C
:100DF3001950011D10AF068C188D1980068C188DA3
:100E030019D2AF120E3BD0E0FDD0E0FC22C0E0C00F
:100E1300F088F0E493667008087401936618700014
:100E2300A8F0A3A3700BD0F0D0E0D0E0D0E0020C88
:100E330044A3A3D0F0D0E022CAC0E0E493A3C582C8
:100E4300CCC582C583CDC583F0A3C582CCC582C57D
:100E530083CDC583DAE5D0E0CA22CAC0E0E0A3C5EA
:100E630082CCC582C583CDC583F0A3C582CCC582A0
:100E7300C583CDC583DAE6D0E0CA22700908080825
:100E8300226016181818C6C333C608C633C608C668
:100E930033C608C633C6D5E0EA22C008C3E096F5D8
:100EA3000808A3E096420808A3E096420808A3E0D6
:100EB3009645087001D3D00822C09FF59FE473D0F4
:100EC3009F22D083D082C09FE493C0E0740193C07B
:100ED300E0740293F59F22C0E0C0D0E8C0E0E5A82B
:100EE300D2AFC2C7751A00A2E792AFD0E0F8D0D054
:100EF300D0E0322518F58210AF08F5184002151915
:100F03008008F51840021519D2AF8519832274049D
:100F1300800A74038006740280027401C0E0F40442
:100F2300120EF6D0E012118F22C0D0251810AF0890
:100F3300F518500205198008F51850020519D2AFAB
:100F4300D0D022BB0102E722C082C08389828A8378
:100F5300BB0003E08002E493D083D08222601608B2
:100F63000808C6C313C618C613C618C613C618C6C0
:100F730013C6D5E0EA22C3E0C696F608A3E0C696F8
:100F8300F608A3E0C696F608A3E0C696F62225184F
:100F930010AF08F518400215198008F5184002151E
:100FA30019D2AF22E066701008A3E066700A08A3A6
:100FB300E066700408A3E06622181818E6084608DD
:100FC300700AE608C3337005E633F4220822E766A5
:100FD30070100809E766700A0809E76670040809D3
:100FE300E76622C3E09608A3E09608A3E09608A369
:100FF300E096A2D265D03322191919E7094709707F
:101003000AE709C3337005E733F4220922C3E697DD
:10101300F60809E697F60809E697F60809E697F64B
:1010230022C3E096F008A3E096F008A3E096F00848
:10103300A3E096F022E026F608A3E036F608A3E044
:1010430036F608A3E036F622E026F008A3E036F0F1
:1010530008A3E036F008A3E036F022E627F60809F5
:10106300E637F60809E637F60809E637F622C0E060
:10107300E8C0E0E58124FCF8E6A2E7D0E0F8D0E0A0
:1010830022E056F008A3E056F008A3E056F008A3C8
:10109300E056F022E056F608A3E056F608A3E05621
:1010A300F608A3E056F622E657F60809E657F608CF
:1010B30009E657F60809E657F622E647F60809E671
:1010C30047F60809E647F60809E647F622700422C0
:1010D300600D18C6C333C608C633C6D5E0F418225C
:1010E300E4C396F608E496F608E496F608E496F662
:1010F30022600D08C6A2E713C618C613C6D5E0F3CF
:1011030022C6F4C608C6F4C608C6F4C608C6F4C6A2
:1011130022C3E7960809E7960809E7960809E796C0
:1011230022C3E09608A3E09608A3E09608A3E096FE
:101133002275D000758140751801751903000209E5
:10114300E9E6F008A3E6F008A3E6F008A3E6F02238
:10115300E6084608C3134608336002E633F4226008
:101163000C08C6C313C618C613C6D5E0F422E0F6AE
:1011730008A3E0F608A3E0F608A3E0F622E7094790
:1011830009C3134709336002E733F422CAC0E0E618
:10119300F0A308DAFAD0E0FA22EAF0A3EBF0A3EC2A
:1011A300F0A3EDF022E0FAA3E0FBA3E0FCA3E0FD53
:1011B30022E5C754F84401F5C7790122E7C333197F
:1011C300471947194722E6C33318461846184622DB
:1011D3002518F582E43519F58322C2AF75D69F022F
:1011E300000022120EC5EA5D00120EC54B5E00120E
:1011F3000EC5D55E00120EC5795F00120EC5CD5F18
:1012030000120EC5E65F00120EC50C6000120EC57B
:10121300476000120EC58B6000120EC5B26000124B
:101223000EC5036100120EC5B36100120EC56B62D9
:1012330000120EC5336300120EC5106400120EC5F2
:10124300966400120EC5A56400120EC5B0640012A8
:101253000EC5B96500120EC5CA6500120EC54066FB
:1012630000120EC5D26600120EC52A6700120EC503
:10127300F06700120EC5216800120EC566680012E1
:101283000EC5736800120EC5076A00120EC56A6B9D
:1012930000120EC5866C00120EC5F06E00120EC54C
:1012A300FB6E00120EC5056F00120EC5106F001203
:1012B3000EC51A6F00120EC5246F00120EC52F6FD4
:1012C30000120EC53A6F00120EC56B6F00120EC5E9
:1012D3008F6F00120EC5B36F00120EC51870001287
:1012E3000EC55C7000120EC5787000120EC5EF704B
:1012F30000120EC5277100120EC5737100120EC5C0
:10130300D07100120EC5B27300120EC538740012EC
:101313000EC5097500120EC5197800120EC56E7838
:1013230000120EC59A7800120EC5E67900120EC59A
:10133300367A00120EC58B7A00120EC58C7B001212
:101343000EC5247C00120EC5A67C00120EC5467D78
:1013530000120EC5D12500120EC50A2600120EC5B5
:10136300E42700120EC5232800120EC56D280012B3
:101373000EC5122900120EC5712900120EC5A5292A
:1013830000120EC5122A00120EC52F2B00120EC515
:10139300372C00120EC5CD2C00120EC514300012CE
:1013A3000EC5BD3000120EC5993100120EC5FA31BB
:1013B30000120EC5173300120EC5413500120EC5BB
:1013C300F83500120EC5023600120EC5353600126E
:1013D3000EC5FC3600120EC5973700120EC5FC373A
:1013E30000120EC5253800120EC5473800120EC56F
:1013F300763A00120EC54D3B00120EC5913B00120A
:101403000EC5FE3B00120EC5B93C00120EC5EB3CE7
:1014130000120EC52F3D00120EC5623D00120EC50F
:10142300B73D00120EC50C3E00120EC5A03E0012C1
:101433000EC5023F00120EC56A3F00120EC51341CE
:1014430000120EC5FB4100120EC53D4300120EC52E
:101453006B4500120EC52B4600120EC55A480012EA
:101463000EC5FD4800120EC53B4900120EC5E74AE2
:1014730000120EC5FB4A00120EC5054B00120EC525
:101483002F4B00120EC53B4B00120EC55A4B0012D8
:101493000EC5114C00120EC5504C00120EC55A4C0D
:1014A30000120EC50E4D00120EC50D4E00120EC5D4
:1014B300064F00120EC5A34F00120EC54550001271
:1014C3000EC55C5000120EC5935000120EC5B150EC
:1014D30000120EC5F55000120EC51A5100120EC5AA
:1014E300005200120EC56C5200120EC5E6520012D5
:1014F3000EC5F55300120EC5345500120EC5965590
:1015030000120EC5505600120EC5735600120EC5BA
:10151300475700120EC5925700120EC5D45700123A
:101523000EC52B5800120EC5625800120EC59058F6
:1015330000120EC5C95800120EC5EE5800120EC592
:10154300765900120EC5995B00120EC5F85B0012A6
:101553000EC58C5C00120EC5F85C00120EC54C5D06
:1015630000120EC5908A03120EC5CF8A03120EC550
:101573001FB401120EC579B401120EC5D5B4011200
:101583000EC521B501120EC53CB501120EC56DB5D0
:1015930001120EC58AB501120EC596B501120EC50C
:1015A3000AB701120EC523B701120EC58AB701127D
:1015B3000EC59DB701120EC5ABB701120EC55FB8BC
:1015C30001120EC543B901120EC549BA01120EC567
:1015D300CFBA01120EC5D9BA01120EC546BB01120C
:1015E3000EC55DBB01120EC58FBB01120EC5C8BB74
:1015F30001120EC5F2BB01120EC553BC01120EC57A
:1016030073BC01120EC591BC01120EC5D7BC0112E9
:101613000EC5FDBD01120EC54ABE01120EC579BE2F
:1016230001120EC5EFBE01120EC517BF01120EC582
:1016330050BF01120EC55EBF01120EC5B6BF011227
:101643000EC505C001120EC544C001120EC574C0FB
:1016530001120EC5A0C001120EC5ABC001120EC50A
:10166300C9C001120EC58BC101120EC595C101126D
:101673000EC5D0C101120EC5E6C101120EC5EFC1E0
:1016830001120EC544C201120EC558C201120EC585
:1016930066C301120EC579C301120EC590C30112B0
:1016A3000EC5A5C301120EC547C401120EC5CAC497
:1016B30001120EC588C501120EC593C501120EC5D0
:1016C300B9C601120EC5D5C601120EC527C7011230
:1016D3000EC566C701120EC57BC701120EC5BDC775
:1016E30001120EC50ACA01120EC588CA01120EC51F
:1016F300FBCA01120EC51DCD01120EC535CD011257
:101703000EC538CD01120EC544CD01120EC558CDFC
:1017130001120EC560CD01120EC593CD01120EC587
:1017230043CE01120EC5B9CE01120EC52CCF011244
:101733000EC5E0CF01120EC595D001120EC5B4D06F
:1017430001120EC554D101120EC560D101120EC58E
:101753008BD101120EC58ED101120EC5BDD101125E
:101763000EC5D2D101120EC53CD201120EC564D3EF
:1017730001120EC53CD401120EC5C7D401120EC509
:10178300E0D501120EC59DD601120EC5D6D60112A3
:101793000EC507D701120EC5A7D701120EC5D7D79D
:1017A30001120EC5B2D801120EC54BD901120EC5D6
:1017B300D6D901120EC587DA01120EC509DB011253
:1017C3000EC53BDB01120EC57CDB01120EC5B1DB7E
:1017D30001120EC5C1AF02120EC526B002120EC50C
:1017E30063B002120EC5B2B002120EC5C8B2021225
:1017F3000EC5ABB402120EC515B802120EC550B811
:1018030002120EC572B802120EC5D5B802120EC569
:1018130009B902120EC52CB902120EC559B902122A
:101823000EC5B5B902120EC59B8D02120EC5198ED7
:1018330002120EC54F8E02120EC5BB8E02120EC5CA
:101843002E9002120EC54A9002120EC58F900212FC
:101853000EC51D9102120EC5769102120EC5A392FA
:1018630002120EC5B59302120EC5129402120EC5D2
:101873007E9402120EC5DF9402120EC52095021249
:101883000EC5CD9502120EC5DF9602120EC50A973C
:1018930002120EC5559702120EC59C9702120EC571
:1018A3002E9802120EC5E99802120EC53DC302120C
:1018B3000EC589C302120EC5F7C302120EC518C4A2
:1018C30002120EC5C8C402120EC5D1C402120EC53F
:1018D30024C502120EC54DC502120EC5B4C50212AF
:1018E3000EC545C602120EC587C602120EC5D1C665
:1018F30002120EC530C702120EC5C1C702120EC5B1
:1019030000C802120EC53FC802120EC574C80212E7
:101913000EC586C802120EC598C802120EC5B7C8F6
:1019230002120EC5C0C802120EC595C902120EC519
:10193300C38503120EC514F602120EC54AF602122F
:101943000EC593F602120EC5E3F702120EC50FDCA5
:1019530001120EC552AA01120EC58ADD01120EC56F
:1019630049DF01120EC572DF01120EC505E2011235
:101973000EC549E201120EC5D2E301120EC56AE497
:1019830001120EC5D2E401120EC573E501120EC594
:10199300B5E501120EC5F5E501120EC580E701128A
:1019A3000EC5F0E801120EC515EB01120EC543EB8F
:1019B30001120EC56AEB01120EC573EB01120EC5BF
:1019C300FAEB01120EC518EF01120EC5985D001255
:1019D3000EC5588A03120EC5678A03120EC5D98A2B
:1019E30003120EC539DC02120EC54CDC02120EC501
:1019F300E9DC02120EC525DD02120EC53CDD021222
:101A03000EC561DD02120EC5A3DD02120EC5D4DDC3
:101A130002120EC50FDE02120EC589DF02120EC5B9
:101A2300CADF02120EC5618703120EC59787031220
:101A33000EC5B38703120EC5F58703120EC50588BD
:101A430003120EC50F8803120EC55BE902120EC501
:101A53008DE902120EC501EA02120EC51BEB02123A
:101A63000EC5E7EB02120EC5609902120EC5CA9AA3
:101A730002120EC5169C02120EC5549C02120EC50C
:101A8300329E02120EC59D9E02120EC599EF0112DF
:101A93000EC5EEEF01120EC5A6F001120EC541F1FF
:101AA30001120EC58BF101120EC59FF101120EC575
:101AB300EEF301120EC569F401120EC593F401127F
:101AC3000EC522F601120EC53DF601120EC58CF6A7
:101AD30001120EC5A2F601120EC5AFF601120EC514
:101AE300E3F601120EC5F9F601120EC5AFF70112A6
:101AF3000EC509F801120EC557F801120EC561F99A
:101B030001120EC5E0FB01120EC57AFC01120EC5CF
:101B1300BCFC01120EC551FD01120EC56EFD011272
:101B23000EC571FD01120EC574FD01120EC5E7FD50
:101B330001120EC502FE01120EC52EFE01120EC5C4
:101B430069FE01120EC56CFE01120EC562890312F5
:101B53000EC56E8903120EC5A88903120EC5008037
:101B630002120EC52B8002120EC5048102120EC58D
:101B7300898102120EC5F28102120EC53E82021243
:101B83000EC5BD8202120EC54F8302120EC5DB8342
:101B930002120EC51D8402120EC5668802120EC5FE
:101BA300E68902120EC53D8B02120EC5C98B0212C5
:101BB3000EC501A502120EC5BBA502120EC52DA6A8
:101BC30002120EC5C9A602120EC539A702120EC50E
:101BD3006DA802120EC549A902120EC5BAA90212B6
:101BE3000EC537AB02120EC5F9AB02120EC510AD0E
:101BF30002120EC5AFAD02120EC56CAE02120EC5B7
:101C030022EC02120EC576EC02120EC5CEEC0212C5
:101C13000EC519ED02120EC57BED02120EC514EEB0
:101C230002120EC57CEE02120EC588EE02120EC51C
:101C3300F97D00120EC52A7E00120EC5E47E001245
:101C43000EC54A7F00120EC5C5F802120EC5968650
:101C530003120EC5A78603120EC5478703120EC5CE
:101C630051FA02120EC55FFA02120EC5D37F00129B
:101C73000EC5C78803120EC5D78803120EC5EF8899
:101C830003120EC55C8903120EC5C18403120EC56F
:101C9300468503120EC5AA8503120EC5BCFD0212AA
:101CA3000EC5DEFD02120EC544FE02120EC564FE11
:101CB30002120EC5AAFE02120EC505FF02120EC5C0
:101CC3003CFF02120EC53FFF02120EC5A5FE011214
:101CD3000EC5BAFE01120EC52EFF01120EC548FF36
:101CE30001120EC55BFF01120EC569FF01120EC57D
:101CF30083FF01120EC5A3FF01120EC544D80212C1
:101D03000EC552D802120EC5CCD802120EC5B0D9D8
:101D130002120EC569DB02120EC5CEDB02120EC51E
:101D230025DC02120EC5F87F00120EC56AE6021208
:101D33000EC58CE602120EC5D2E802120EC558E992
:101D430002120EC509FC02120EC515FC02120EC5C5
:101D530033FC02120EC544FC02120EC562FC0212D1
:101D63000EC589FC02120EC5ACFC02120EC5E4FCC2
:101D730002120EC5FDFC02120EC53CFD02120EC579
:101D8300D5CE02120EC52ACF02120EC526D10212DB
:101D93000EC558D102120EC57AD102120EC593D1C7
:101DA30002120EC5ACD102120EC5B6D202120EC576
:101DB30051D302120EC5008003120EC524800312F4
:101DC3000EC53D8003120EC5708003120EC5A1809F
:101DD30003120EC5CF8003120EC5D98003120EC5A0
:101DE3003B8103120EC54A8103120EC554810312AF
:101DF3000EC5618103120EC5C3EE02120EC5E9EED4
:101E030002120EC526EF02120EC535EF02120EC5E1
:101E130054EF02120EC5BCEF02120EC5C5EF02123B
:101E23000EC524F002120EC548F002120EC507F1CA
:101E330002120EC514F102120EC525F102120EC5CF
:101E43001F8B03120EC53C8B03120EC5F6C902127B
:101E53000EC554CB02120EC561CB02120EC574CB54
:101E630002120EC593CB02120EC5A9CB02120EC5E8
:101E7300BDCB02120EC532CC02120EC597CC021294
:101E83000EC51FCD02120EC5A8CD02120EC57DCE02
:101E930002120EC58DCE02120EC59CCE02120EC5C5
:101EA3002E8803120EC5528803120EC57A880312B8
:101EB3000EC5A28803120EC553F102120EC57AF1A4
:101EC30002120EC59BF102120EC500F202120EC5DC
:101ED300B9F302120EC5D2F302120EC5DEF30212DB
:101EE3000EC5F2F302120EC510F402120EC51AF457
:101EF30002120EC524F402120EC537F402120EC5E7
:101F03008AF402120EC5C1F402120EC5F0F40212D5
:101F13000EC53EF502120EC58DF502120EC5A8F5CB
:101F230002120EC5B2F502120EC5C3F502120EC59A
:101F330009F602120EC5E58903120EC5368A03128D
:101F43000EC501BA02120EC52BBA02120EC547BA4C
:101F530002120EC55ABA02120EC570BA02120EC58B
:101F6300CDBA02120EC500BB02120EC53CBF02124F
:101F73000EC562C002120EC595C002120EC5E1C0A5
:101F830002120EC50DC202120EC535C202120EC5D3
:101F93004AC202120EC55AC202120EC59EC20212D4
:101FA3000EC5FFC202120EC50FC302120EC56B810E
:101FB30003120EC5868103120EC5AF8103120EC52F
:101FC300C98103120EC5EE8103120EC50D820312E1
:101FD3000EC5258203120EC5538203120EC56D82F0
:101FE30003120EC548FF02120EC58CFF02120EC566
:101FF300D7DF02120EC5DEDF02120EC5EAE00212BF
:102003000EC51AE102120EC540E102120EC563E1CC
:1020130002120EC585E102120EC5BFE102120EC502
:1020230025E202120EC55EE202120EC5AAE20212F8
:102033000EC5D7E202120EC5F7E202120EC5B18336
:1020430003120EC5C38303120EC5A58403120EC566
:10205300BE8403120EC59E8203120EC510830312A3
:102063000EC54E8303120EC58F8303120EC557E3AD
:1020730002120EC573E302120EC5C2E302120EC5AD
:10208300DEE302120EC50FE402120EC51FE40212B4
:102093000EC50BE502120EC515E502120EC522E5AB
:1020A30002120EC532E602120EC546E602120EC534
:1020B3004FE602120EC590D302120EC5D5D70212F7
:1020C3000EC5DAD702120EC55B8B03120EC5C5A966
:1020D30001120EC5B8A901120EC5C6A601120EC57E
:1020E30018A401120EC5ECA201120EC540A20112E2
:1020F3000EC591A001120EC54C9E01120EC5D39DB3
:1021030001120EC5865D00120EC5D6B201120EC5B0
:102113007A9D01120EC50E9D01120EC5B8B20112B1
:102123000EC56DB101120EC5E59C01120EC5D89AFC
:1021330001120EC5A49A01120EC5719A01120EC5A1
:10214300559A01120EC57B9901120EC533990112DE
:102153000EC5689701120EC5E89601120EC5E596E5
:1021630001120EC5EC9501120EC5BA9501120EC5EA
:10217300F79401120EC5229301120EC5B3920112F8
:102183000EC5859201120EC5829201120EC56F9281
:1021930001120EC5079201120EC5F69101120EC56A
:1021A300D79001120EC5CAB001120EC577AF011246
:1021B3000EC528AD01120EC531AC01120EC515AC0A
:1021C30001120EC5A19001120EC5649001120EC535
:1021D300059001120EC5D48F01120EC5A5AB0112D5
:1021E3000EC58F8C01120EC5808B01120EC50F8B8D
:1021F30001120EC5D48A01120EC55CAB01120EC5C5
:10220300428A03120EC59F8A01120EC5938A0112D8
:102213000EC5F38901120EC53A8901120EC50D8749
:1022230001120EC5998401120EC5578401120EC501
:10223300228301120EC5D78201120EC50982011233
:102243000EC5608101120EC5368101120EC514AB95
:1022530001120EC5FC8001120EC54EDD0100000007
:1022630080FBE47300013636010100010201000125
:102273000301000104010606050200000701003402
:102283000801000F090401010D0100FF0E08000001
:1022930017020000190100FF1A0100011B0100FED3
:1022A3001C0100081D0200001F01000120010001A4
:1022B300210200002301000F240200002601000177
:1022C30027010008280200FF2A0100072B01024012
:1022D3002C0100002D0100012E0100012F0100FF40
:1022E30030010B1C310800003A0100083B01000FCC
:1022F3002F01000003007100300160001100700025
:10230300310220035004800010006100000014001B
:1023130063007300720062004300000013000600B4
:102323000000000004001200000000000000000094
:1023330004000400370037003C02440000000000A2
:10234300000000006500000035008100000005006A
:1023530000008300000003027102300160021102D9
:1023630070020102020202028002100261023A00BC
:10237300410063027302720262024302000213020B
:1023830038000002000204021202000200020002EE
:10239300000204020402370037003C024402000238
:1023A30039000002000265020002350281020002C8
:1023B3000502820283020002010371030103010388
:1023C30001030103010322030203010310030003BA
:1023D30000030003000300030003000342030003A0
:1023E300240306030003000304031203250323034A
:1023F300250323030403040300030003000344032E
:102403000003000323030003650321003503810355
:10241300000305030003000300030101710101012F
:1024230001011101010131010101010180011001CB
:1024330061013B00140063017301720162014301F6
:102443000001130106013D013500040112010001E1
:1024530000010001000104010401330133013C01C7
:10246300440132013600000100016501000135001D
:102473008101000105018201830100013600010091
:10248300060000000F000000000000000000000034
:10249300000003FFFF00000403FFFF0000FFFF0F26
:1024A300F4010005C4040320000100000B00000038
:1024B300000000000003010F03EAF5E5D5D5C5B51B
:1024C300A5959585857575656555554545353525B9
:1024D300251515050100CA1B0200761B03007C1B92
:1024E3000400821B0500881B0600941BFFFF0000ED
:1024F3000C163C161216181636162A1624164216F1
:1025030048164E165A161E16061600160AD8130239
:10251300A21305B41307A8130C84130D9613FF001D
:102523000000160F00000B150B020002220F3200F1
:102533000006FC160E171417D6151A17D015DC153E
:10254300681786178C176E177A1774170C0E020B01
:10255300040B0A0708000F303016181920231A1C21
:102563001E3000011916181616152303000003491F
:1025730048424D181725050200383C3E363B3B3593
:102583002B432C303017181921301B1D1F305017C7
:102593002017261732172C1730165416801760167B
:1025A3006616020402010101010902000000000095
:1025B3000000BE040A0E00E80304002100280008FE
:1025C300040C05030908FF1E1E0A0421100C74F7EE
:1025D30012097DE99003B0F0900365E4F012203E08
:1025E3009003B5E4F0A3F09003B1F0A3F01215103B
:1025F300122044900334E4F0A3F09025CE93FA79AB
:10260300021220A402526774F212097DEAFEEBFF64
:10261300548060699003B0E0F91218DC8A088B09D2
:10262300EA4509604F7C0080010CEC75F003A4F8C7
:10263300A9F0740F28F582742539F583E493F460C7
:102643002CE493F88508828B83E06870DCAA08EC9D
:1026530075F003A4F8741028F582742539F583E422
:1026630093C0E0740193F583D082122265AA08AB6C
:10267300091218D0EEFAEF6480FB0227D7EF54203B
:10268300601D1214328A088B09EA4509600A121385
:1026930096AA08AB091218D0EEFAEF642080DAEE9E
:1026A300A2E0501A90036AE0640F700B79001213D2
:1026B30060E960031227DAEE6401FAEF80BB54206D
:1026C30070030227A5750C00123CAC8B09EA45097F
:1026D30070107C027D007A207B009003B0E0F91239
:1026E3001A027C0079047A007B0012140E8A088B8C
:1026F300098018850882850983A3A3A3A3A3A3A3A1
:10270300A3A37401F0850A08850B09E50845096050
:102713006D7C007904AA08AB0912140E8A0A8B0B8C
:10272300750C01E5082404F8E509123A5024FFF07A
:10273300A3E034FF125D4370CC850882850983A32F
:10274300A3A3A3A3A3A3A3A3A3E0640170A58508E4
:1027530082850983A3A3A3A3A3A3E0540470948550
:102763000882850983A3A3A3A3A3A3A3A3A3740696
:10277300F07AB785088285098312290680871213A8
:10278300DE7C0079017A007B0012140E8B09EA4586
:10279300097009E50C70057A20124C06EE642002DC
:1027A30026BDEF5402600B12150AEEFAEF64020223
:1027B300267CEF54046019124D9D124CBD79019093
:1027C30003631250211212A6EEFAEF640402267C70
:1027D3007A007B00022A0D900BC01230A4121378EA
:1027E30022C082C08374EA120F91851882851983EF
:1027F300AA82AB83794B12207A74081211D3740224
:10280300F074091211D3AA82AB83795012207A741F
:10281300131211D3E41251F012209874160241CA14
:1028230074F712097D74E1120F91EAFEEBFFEE4F8C
:102833006033851882851983AC82AD831214567474
:10284300061211D3E0601E74171211D3E0FD740158
:102853001211D3E0FCEEFAEFFB790012211CE960C0
:102863000479A48002790002526274F612097DEAA7
:10287300FEEBFF8E828F83A3A3A3A3A3A3E0544005
:10288300601B1256DF1229D460067AFF7BFF801A81
:102893008E828F83123E56FAA3E0FB800312147AD2
:1028A30074FE6A700374FF6B60411256DF124C4A68
:1028B3001214CEE98E828F8360061228FFE480050E
:1028C3001228FF7401F07C667D138E828F83125071
:1028D3002112209EE9F5087015EE4F60097901EE8B
:1028E300FAEFFB1213EAA908024C7B7508CDAA087C
:1028F3008E828F83122906E960DF80EAE0240D12BD
:10290300432522E0240C124325E0F91213722274AA
:10291300F612097DE9FEEAFF7A0F7B001218CAEA74
:102923004B60198A828B83740CF0EEA3A3F0EF8AB9
:10293300828B83A3F0124CA67900802FEEF9121438
:10294300148A088B09A808A909E849601C888289A8
:1029530083A3A3A3A3A3A3A3A3A3740612596AE007
:10296300F912132AEEF91213F07910024C7BC0828C
:10297300C08390036AE0640F7014EA4B6010900305
:1029830065E064086005E064047003122994024161
:10299300F4EAFCEBFD7A017B009003B0E0F9121935
:1029A300FC22C082C0837900EA241DF582EB123E2B
:1029B3005324FD600B14600824FD600424FD7001A2
:1029C300090241F48E828F83A3A3A3A3A3A3A3A38A
:1029D300A31229D822123E9BFB1214CEE9228E8227
:1029E3008F83A3A3A3A3A3A3A3A3A31229D864029E
:1029F300228E828F83A3A3A3A3A3A3A3A3A3124182
:102A0300EB900356E06822120F2C7F06020D2D7403
:102A1300F412097D74FD120F918A088B098A828B47
:102A230083A3A3E0F91214148A0A8B0BAE0AAF0B2B
:102A3300EE4F7003022B19850882850983A3E06496
:102A4300F16030850882850983A3E064CD60248525
:102A53000882850983A3E0641A60188508828509C2
:102A630083A3E064E9600C850882850983A3E0649D
:102A7300E1700879001213EAE9706C850882850910
:102A830083A3E0C0E074021211D3D0E01241CFEE71
:102A9300F0A3EF1234FA851882851983AA82AB83D7
:102AA300700512128E80031214B674021211D3E051
:102AB30064E970338E828F83122B25750A01780A9D
:102AC300120F1D750AE9780A120F1DE508240CF58B
:102AD30082E509122FEC1234D7FCA3E0FD8A828B26
:102AE300831234F1120F2C8E828F83A3A3A3A3A38B
:102AF300A3A3A3A3E0640270108E828F83A3A3A376
:102B0300A3A3A3A3A3A37406F0850882850983A3C3
:102B1300A3E0F91213F01213DE900BC41227DD02A7
:102B230030A9E0F8A3E0F9E8FAE9FB2274F412090A
:102B33007DEAFEEBFF7508008E828F83A3A3A3A318
:102B4300A3E060427508088E828F83A3A3A3A3A387
:102B5300A3A3A31240FE8B0BEA450B601075082C50
:102B63008E828F83A3A3A3A3A3E0D2E0F08E828FF0
:102B730083A3A3A3A3A3E0540364016003022C185B
:102B8300430811022C18EE24181230B66033EE24D9
:102B93001A1230B6700F1229F47003A3E06970752E
:102BA3007508228070EE241BF582EF122C1D241A67
:102BB300F582EF123502EE241912571312131880FF
:102BC300541229E170037508011229F47003A3E07C
:102BD300697006E508D2E1F508E50860158E828F75
:102BE30083A3A3E07006E508D2E58004E508D2E6F6
:102BF300F5081229C764017006E508D2E0F5088ECE
:102C0300828F83A3A3E0600D122C2B64016006E581
:102C130008C2E0F508A9080230AE123E41122C2486
:102C230022E0FCA3E0FDEE22123E3B123E73F912BA
:102C330014BCE922C082C08379018A828B83A3A357
:102C4300E0C394024001198A828B83A3A3A3A3E068
:102C5300C39402400279008A828B83A3A3A3A3A314
:102C6300A3A3A3A3E064F87003A3E0F460458A82FE
:102C73008B83A3A3A3A3A3A3A3A3A3E064F97003D8
:102C8300A3E0F4602E8A828B83A3A3A3A3A3A3A3AD
:102C9300A3A3E064FA7003A3E0F460178A828B8332
:102CA300A3A3A3A3A3A3A3A3A3E064FB7003A3E031
:102CB300F4700279008A828B83A3A3A3E0F89003C4
:102CC30053E068600279000241F474F012097D74E4
:102CD300DE120F91EAFEEBFF8E828F83A3A3A3A3E1
:102CE300E0600E900BC2124C726006900BC212276A
:102CF300DD74031211D3AC82AD838E828F83A3A3C1
:102D0300A3124CF412552DE9600F74031211D3AAC8
:102D130082AB83121390E970087901122050022FBD
:102D2300E1EE241B123E4674101211D3124CBD74F3
:102D3300091211D3E06021741A1211D3E0FD740457
:102D43001211D3E0FC8E828F8312501F790112215E
:102D53001CE96004790280C374031211D3AA82AB05
:102D63008312138AE9F50A74091211D3E0702A90C9
:102D7300034DE060247422550A6422601C7442559A
:102D83000A644270CF74201211D3122FFF600A74A9
:102D9300201211D3122FF870BBE9A2E6504174033D
:102DA3001211D3AA82AB8312137EE97003022D1C86
:102DB30074201211D3123E566403700F7420121143
:102DC300D3A3124C64A3E0640D601474031211D3F3
:102DD300AA82AB831214E0E964017003022FE1EECF
:102DE300242C122FE912330D7003A3E069701C75B4
:102DF30008007808120F1D7808120F1DEE242E12FA
:102E030057131230051234F1120F2C74091211D317
:102E1300E07003022EBE1230051250211215348ABF
:102E2300088B09EA45097003022F5B74041211D35E
:102E3300E0F88E828F83A3A3E028F8A3E03400F99F
:102E4300E8240D122FF08A828B83A3A3A3E068608A
:102E53001CE88A828B83A3A3A3F090808B1211A812
:102E6300850882850983A3A3A3A312119C7904E98E
:102E73001211D312550A2AF8A3E034008882F5838D
:102E8300A3AA82AB831218BE8A0C8B0D8C0E8D0FF6
:102E9300850882850983A3A3A3A3780C120E9D4002
:102EA30003022FE19080C3780C12103885088285C5
:102EB3000983A3A3A3A3780C121144900365E064D0
:102EC300046008E064096003022FE1E50AA2E5401B
:102ED30003022F99EE242E1230B6851882851983AA
:102EE300F0EE242F1230B6C0E074011211D3D0E0FB
:102EF300F0EE24301230B6C0E074021211D3D0E0E9
:102F0300F074141211D3E064017027740E1211D3FC
:102F1300123E4CEE24121230B6687003A3E06970BF
:102F230011740C1211D31229EE700774141211D3F9
:102F3300E4F0EE2424122FE9120DB274041211D31B
:102F4300AC82AD8374071211D3AA82AB831212949D
:102F53007404120F2C022FE19003AAE064016003B2
:102F6300022EBE74201211D3122FFF7009E50AA29C
:102F7300E65003022EBE74101211D3E0F47003A3C3
:102F8300E0F4605AEEFCEFFD74031211D3AA82AB96
:102F93008312139C8048A2E6504474201211D3126A
:102FA3005030701A741A1211D3E064027030740333
:102FB3001211D3AA82AB8379001214AA8020742041
:102FC3001211D3122FF87016741A1211D3E064047D
:102FD300700C74031211D3AA82AB831214A474224B
:102FE3000253DCEE240BF582EF123E4122F582E917
:102FF300124CD6F8221256F1E0640722123E736493
:103003000622EE242A123E3E122C242412123E3EA5
:103013002274F412097DEAFEEBFF8C088D099005FA
:10302300DDE0600F1229F47003A3E0697005121349
:1030330006804F79001250141213368A828B83E56F
:103043008245836035A3A3A3A3A3A3E05418602AF6
:10305300E508241BF582E509122FEC120DB6123692
:10306300EA122FEC120DB6EE241812571312308702
:103073001213487404120F2C80087900123087123F
:10308300130C80278E828F83A3A3A3A3A3A3A3A33D
:10309300A3122C24240BF582EF1230A0223400F566
:1030A30083123E9BFB227403120F2C7F04020D2D0F
:1030B300EE2417F582EF124CD62274F712097D74B1
:1030C300F7120F91EAFEEBFF900365E06403600DD6
:1030D300E064016008E0640960030231878E828F37
:1030E30083A3E0707E7C007D007A027B0012204A7D
:1030F300EE2402FAEF123A57123E4C900356124C4A
:10310300BD7953122080790012318CE06409600389
:1031130012351F8518828519837401124C9390030D
:10312300657404F074011211D3AA82AB83794A1235
:10313300207A74011211D3AC82AD837A5B7B0312C4
:1031430020689003561255237A03123529900350B1
:10315300E0A2E35004D2F08002C2F0124C801227A6
:10316300DA801E8E828F83A3AE82AF83FC7D007ACA
:10317300037B1012204A8E828F83E0F912318CE494
:10318300F01213C674090252649003631230A4123E
:1031930012A690036522C082C083900334124C723E
:1031A300701F900365E014600924FC600A14600C2E
:1031B300800F90033C8032900338802D90033A8037
:1031C30028E84960089003351234D1700C8A828B49
:1031D30083A3E0F912129A801B900335123786708D
:1031E300051214FE800E9003D2124C726006124C2C
:1031F300641222650241F474F412097D74FB120F08
:10320300918A088B097A0F7B001218CA8A0A8B0BE2
:10321300AE0AAF0BEE4F70030233018E828F83121F
:1032230051EE795012207A850882850983A3E060E4
:10323300030232E9900363E0F47003A3E0F4603423
:10324300900363E064FE7003A3E0F46027851882B3
:1032530085198312330D7003A3E069601785088213
:10326300850983A374EA1235077A637B03795012C5
:10327300208080728518828519831256D2124CBD24
:103283007A567B03795312207A900356124CEE122E
:103293004CBD7A597B03794B12207A7A587B037998
:1032A300E112207A90036AE0C3940F5021900358EF
:1032B300E0C0E074021211D3D0E0F074041211D311
:1032C3007401F0041211D3AA82AB83122092750AFF
:1032D30000780A120F1D780A120F1D900BEAE0F90D
:1032E3001234E8120F2C850882850983123306A352
:1032F300F09003657403F0EEFAEFFB124CA674052D
:103303000230ABA3E08E828F83221256D6E068226E
:1033130012432C2274F512097D74D8120F918A0876
:103323008B098A828B83A3A3A3123E78741512118F
:10333300D3AC82AD838A828B83A3A3A3A3A3A3A3CA
:10334300A31234D7FAA3E0FB1213CC74151211D3D2
:10335300E0706B850882850983A3A3A3A3A3A3A31A
:10336300A3E0C3940B40578E828F83A3A3A3A3A38D
:10337300A3A3A3E064027046EE240B1230B6F470EC
:103383003D900365E06402603AE0640660359003B3
:1033930034124C7260051234D1604F900365E064BF
:1033A300086005E06404701674171211D3E0F97411
:1033B3001C1211D3AC82AD831250141213D2742891
:1033C300025BF0900334124C72701F75080078088A
:1033D300120F1D7808120F1DEE2410122FE9125739
:1033E3002B123B3F1234F1120F2C8E828F83124F1C
:1033F30090123A69123E4C74021211D3124CBDEE74
:10340300240D1230B6C0E074041211D3D0E012348C
:10341300FAF508A3E0F509740F7808121162740530
:103423001211D3E508F074191211D3E0C0E0740649
:103433001211D3D0E0F0741B1211D3E0C0E0740773
:103443001211D3D0E0F074161211D3E0C0E0740966
:103453001211D3D0E0F074171211D3E0C0E0740856
:103463001211D3D0E0F0EE24101230B6C0E0740A8B
:103473001211D3D0E0F0741A1211D3E0C0E0740B30
:103483001211D3D0E0F074271211D3E0C0E0740C12
:103493001211D3D0E0F0741C1211D3A982AA83892C
:1034A300088A09750A007808120F157C087D0074D4
:1034B300101211D3AA82AB83124821120F2C851844
:1034C30082851983AA82AB831212A00233C11237F9
:1034D3008C640122E0F98A828B83A3A3A3A3A3A311
:1034E300A3A3A3E02290036312552790035912303C
:1034F300A412148C740222F0EE240B124CD3221269
:103503004CD6FA22F07A567B0379531235122212E3
:1035130020807A597B03794B122080229003631217
:1035230030A412152E227B0012204A900359125503
:10353300277A047B0012204A22F01257362274F2B3
:1035430012097D74F8120F91EAFEEBFF8C0A8D0BC2
:10355300890C851882851983AC82AD837583807548
:10356300824D7408120E5DF50DEEFCEFFD85188299
:10357300851983AA82AB83124EF17003750D0190F6
:1035830003B1803BEEFCEFFDE508240BFAE50934BB
:1035930000124EF0601E850882850983A3A3E065AF
:1035A3000C7011850882850983E0650A7004A3E025
:1035B300650B6038E5082414F582E509122FEC1237
:1035C3003A61E50845096024E50DA2E040B68508A7
:1035D30082850983E0650A7004A3E0650B70D585D5
:1035E3000882850983A3A3E0650C70C8AA08AB0908
:1035F3007408022A0AC082C0839003B10241F174A5
:10360300F712097D9003B1123E9B8012EA2414F550
:1036130082EB122FEC123E78121948EEFAEFFBEA16
:103623004B70E99003B1E4F0A3F00252677F070205
:103633000D2D74F112097DEAFEEBFF890A8C088DCA
:10364300098E828F83E08C828D83124108AE82AF14
:1036530083E01248E1124852C41248E11236F3E003
:1036630054038C828D83124850A2E2E4338C828D02
:103673008312484F131313541F1248E112484EA2EA
:10368300E7E4338C828D83A3A3A3A31236F38E0CBA
:103693008F0D750E00780C120F157C087D00E50860
:1036A3002407125496120F2C1255018E0C8F0D788D
:1036B3000C120F157C037D00E508240F125496129B
:1036C3000F2CE50AC3940F40148E828F83A3A3A308
:1036D300E0C0E01236EA122FECD0E080061236EAA0
:1036E30012595EF0023630E5082412F582E509220C
:1036F300A3A312410C0EAF832274F412097D74F953
:10370300120F91EAFEEBFF8908900334124C7260AA
:103713000E1237867009EEFAEFFB1214F8805F90F1
:103723000363E06E7003A3E06F7053740165086078
:10373300097A777B03124EF170447A007B02123CC4
:10374300B08B0BEA450B70369003661211A88518EF
:103753008285198312119C90036CE0C0E0740412FB
:1037630011D3D0E0F074051211D37401F074061272
:1037730011D31251EE12126AE9609B121270740790
:103783000230AB12378C6402221256F2A3A3A3A316
:10379300A3A3E02274F512097D8A088B098A828B20
:1037A30083A3AE82AF83E0F91212BE8E828F83E0D1
:1037B30064EB600C850882850983A3E064E17009EA
:1037C300850882850983A3E4F01227DA750A017854
:1037D3000A120F1D850882850983A3E0F50878087E
:1037E300120F1D79001234E8120F2C1213DE025B44
:1037F300F3EAF0A3EBF00241F474F612097D9003AF
:10380300B4E0701B7C0079017A007B0012140EEA8D
:103813004B600C8A828B83124C72600312136C020E
:103823004C7BC082C083123C98401079FF1214086D
:10383300E9F89025D0E493C3985004790180027984
:10384300000241F474F012097D8A088B09890B7513
:103853000C008A828B83A3A3A3A3A3A3A3A3E0F94E
:103863001214148A0E8B0FAE0EAF0F750A01EE4FB2
:103873006003023925850882850983A3A3A3A3A333
:10388300A3125523850882850983A3A3A3A3A3A316
:10389300A31246211250211213FC8A0C8B0DAE0C7D
:1038A300AF0DEE4F7003023A488E828F83A3A3A31A
:1038B300A3E4F0A3F0E508240B123A54E0C0E012AD
:1038C3002FE6D0E0F01214D4EE240CF582EF124C64
:1038D30046E508240EF582E509123E49EE240EF56D
:1038E30082EF124CBA750C01EE2406F8EF123A502F
:1038F300547FF0A3E054FC125788E05404600302A1
:1039030039AB900BC8124612740778081210D08E88
:10391300828F83A3A3A3A3A3A3E04508F0A3E04559
:1039230009F08E828F83A3A3A3A3123A5F7407784F
:1039330008121162E5085407F508E50B607A8E82D8
:103943008F83A3A3A3A3A3A3A3A3A3740212485384
:10395300240D124321E0A2E2500B900351124CEECE
:10396300A3A3124CBDE5087003023A1DEE2406F82A
:10397300EF3400F9E8FAE9FB8A828B83E0547FFC99
:10398300A3E054FCFDE50824FFF508E434FFF50942
:10399300740778081210D0EC4508F8ED4509F98A48
:1039A300828B83124CBD80728E828F83A3A3A3A3C9
:1039B300A3A3E04480023924E5087005750A00805A
:1039C300598E828F83A3A3A3A3A3A3E054206012E1
:1039D3001218C4EA547F245F8E828F83A3A3A3A308
:1039E30080238E828F83A3A3A3A3A3A3E054106099
:1039F3000A1218C4EA540F240A80DD8E828F83A32F
:103A0300A3A3A37401F0A3E4123A697404123CA7BC
:103A13008B09EA45097003124C39E50CA2E05028E2
:103A23008E828F83A3A3A3A3125254F9EEFAEFFB62
:103A3300121402E96012124C686003123E31EEFA6E
:103A4300EFFB121948750A00A90A0253DF124DB1A0
:103A530022FAE5093400FB8A828B8322A3A3E0F5D3
:103A630008A3E0F50922123A6D221254B2A3A3A3CC
:103A7300A3A32274F412097D74F7120F917E00122E
:103A83001414EA4B7003023B388A828B83A3A3A3EB
:103A9300A3A3A3A3A3A3E064066003023B388A8223
:103AA3008B83A3A3A3A3A3A3A3E0FF8A828B831285
:103AB3004334E0C0E074081211D3D0E0123E6C121C
:103AC3004EF7124CBD121426EF5408606685188217
:103AD3008519831255237A007B001213F68B0BEAA8
:103AE300450B704F900363123F5C1220AA7C007D4C
:103AF300007A007B0080288E828F83123E56F470FA
:103B030003A3E0F4602D900363123B3F1250211294
:103B13001D86E9641A601C7C007D00EEFAEFFB123F
:103B230013F68A0A8B0BAE0AAF0BEE4F70C97900FE
:103B33001220B07E01EEF974090230AB123B43222E
:103B4300E0FCA3E0FD8E828F8322C082C083EA4B18
:103B530070059003B580068A828B83A3A3123D5C14
:103B630060258A828B83A3A3A3A3A3A3A3E0540802
:103B730060E5EC4D60158A828B83123E566C7003B0
:103B8300A3E06D70D280047A007B000241F474F2EA
:103B930012097DEAFEEBFF890A8C088D097A107BF6
:103BA30000121942EA4B603F8A828B83A3A3A3A32B
:103BB300A3A3A3A3A3E4123E5AA3E50A1256F8A3B0
:103BC300123BF48A828B83A3A3A3A3E4F0A3123E44
:103BD30066A3F012558CEA240CF582EB1240F8121E
:103BE3003BEDA3A3F0A3F0022A0DA3F08A828B83FB
:103BF30022A3A3E508F0A3E509F02274F412097DDA
:103C0300EAFEEBFF89088C0A8D0BEE4F60557401B9
:103C1300650870147901121408E9F89025C8E49333
:103C2300C398500F7911806A74046508702F123C91
:103C33009840F18E828F83A3A3A3A3A3A3A3A3A3DB
:103C4300E508124108A3125C7D8E828F83A3A3E44F
:103C5300F0A3F09003B5124C726021800D740265DD
:103C63000860D079C1802BE0F8A3124CE7A3A3121C
:103C73003D5C88828983A3A370ED80039003B5EE36
:103C8300F0A3EF123CA78B0BEA450B7003124C39E0
:103C930079000230AE7904121408E9F89025C5E4DE
:103CA30093C39822F0123CAC227A207B009003B09D
:103CB300E0F9121A0E22C082C083E9F8790090035A
:103CC300B5801D8A828B83A3A3A3A3A3A3A3A3A3CA
:103CD300E068600574FF687001098A828B83A3A37F
:103CE300123D5C70DE0241F474F712097DEA4B70F9
:103CF300059003B580068A828B83A3A3123D5C6083
:103D0300248A828B83A3A3A3A3A3A3A3A3A3E0696E
:103D130070E4EC60148A828B83E0240D125514A2A4
:103D2300E240D380047A007B00025267C082C083E2
:103D33009003B580068A828B83A3A3123D5C601235
:103D43008A828B83A3A3A3A3A3A3A3A3E06970E5A0
:103D530080047A007B000241F41230A4EA4B2274FF
:103D6300F212097D8A0A8B0B8C0C8D0D7508007578
:103D73000900EA450B602E9003B580068E828F837F
:103D8300A3A3123DAF601EAC0CAD0DEEFAEFFB85A5
:103D93000A82850B83122265E9640170DFEEF8EF76
:103DA300F988088909AA08AB09022A0DE0FEA3E0F5
:103DB300FFEE4F2274F712097D9003B5123E4C7C3F
:103DC300007D00800DE8FCE9FD88828983A3A312AE
:103DD3003E4CE8496030EA687002EB6970E7900393
:103DE300B5125021E86A7002E96B88828983A3A324
:103DF3007008123E4C9003B58009123E4C8C828DA4
:103E030083A3A3124CBD02526774F712097DEAFE25
:103E1300EBFFEE4F6015121420123E7E124C6860C9
:103E230003123E31EEFAEFFB121948025267EE24F9
:103E33000C123E3E123E9322EE241DF582EF340017
:103E4300F58322F582EF123E411241EB22F582EF18
:103E5300123E41123E7322123E5E22125700A3A36A
:103E6300A3A322123E5EA3A322123BEE123E7322B1
:103E73001256EBE022E0FEA3E0FF228E828F83E066
:103E8300241C124325123E938E828F83123E93226B
:103E9300123E9BFB12194822E0FAA3E022C082C023
:103EA30083EAFCEBFDEC4D700479058044EC24FBC4
:103EB300F582ED34FF124C707007123EF7E0F460A8
:103EC300051218D080E39003B0E0C0E0123EF7D0B3
:103ED300E0F09025CCE493F97AB77B031218FAE962
:103EE3006401700B7A007B20124C3D7900800279CB
:103EF300040241F4EC24FFF582ED34FFF5832274D0
:103F0300F412097DA2AFE433F508C2AF9003B712F0
:103F13003DAF6038EE24FBF582EF34FF124C707A2C
:103F2300007B209003B06005124C408005E0F9123D
:103F33001906E4F50AF50B780A120F19EEFCEFFDEA
:103F43007AB77B031218F47402120F2CE508A2E06F
:103F530092AFEEFAEFFB0230AE1255278518828539
:103F63001983AA82AB832274F212097D74FC120FA7
:103F730091EAFEEBFF750AFE750BFF1213E4E9608D
:103F83000579110240EDEE24151230B66037900B1F
:103F9300DCE0C43354E0F8E0333354FC48C0E0EED3
:103FA3002415122FE9D0E01241081240FE8B09EAD2
:103FB30045096011750AFFEE240F1230B64404124E
:103FC3004CCBD2E0F08E828F831229D26006EE248E
:103FD300121240F5EE24131230B670109025CBE484
:103FE30093C0E0EE2413122FE9D0E0F08E828F838A
:103FF300E0A2E750045403801CEE24141230B67080
:1040030015900342E0C0E0EE2414122FE9D0E0F053
:10401300900342E004F0EE24111230B664017016EE
:104023009005D4E0600D90034DE0700A8E828F837B
:10403300E070031240F28E828F83E064017013EE0E
:10404300240B123E5064027009EE240F1230B64462
:1040530040F0851882851983AC82AD83EEFAEFFBBD
:1040630012144A8A088B0974FE650A700374FFF4FC
:1040730070098E828F83A3A31254A2EA4509606656
:104083008E828F83E0C0E074011211D3D0E0F0740C
:10409300021211D312559074011211D385820C852B
:1040A300830D780C120F19EE240F122FE9120DB69F
:1040B300EE240E1230B6F50C780C120F1D90035639
:1040C300120DB674071211D3E0F9AC0AAD0B12143A
:1040D300447407120F2CE9FE74106E700BAA08AB20
:1040E3000912194880027E10EEF97404022A0AEEBE
:1040F3002411F582EF123E41E4F022A31230A47999
:10410300FF12224E2212410C22F08E828F83A322B1
:10411300C082C08374DE120F918A828B83A3A3A310
:10412300A3123E4C740E1211D3E8F0A3E91241E23C
:10413300740C1211D31241DB240DF582EB1230B94A
:10414300C0E0741A1211D3D0E0F01253EFEB123E19
:104153004974201211D31241DB2415F582EB12307E
:10416300B9C0E074081211D3D0E0F0EA241CF58240
:10417300EB123E4974121211D31241DB2411F58262
:10418300EB1230B9C0E074091211D3D0E01241CF61
:1041930074FFF074011211D374FFF074021211D37F
:1041A30074FFF090808B120DB274041211D3AC82A1
:1041B300AD8374071211D3AA82AB831212947404D1
:1041C300120F2C79007422120F2C80251241D32256
:1041D300F085188285198322E8F0A3E9F0EA221218
:1041E3003BEEA31241EA22A3E0F8A3E0F922125026
:1041F30021D083D082020EC274EC12097D74EE12B8
:104203000F918A128B13ECFEEDFF890974261211AC
:10421300D31254A274281211D3E0F5107429121189
:10422300D3124316742B1211D3E0F50EA3E0F50F4E
:104233007508107A1E7B0012194274021211D312F0
:104243004C4A74021211D3124C72700302430F854D
:104253001882851983AA82AB837950124B25125099
:104263002174021211D3124334A3124C4A74101254
:1042730011D3125C7F74021211D3E0240B12432179
:104283007402F01211D31243347402F01211D312D8
:1042930056E312559074021211D3125036E509F009
:1042A30074021211D3E0240C124321E510F07402BE
:1042B3001211D312431EE512F0A3E513F074081292
:1042C30011D3E50CF0A3E50DF0740A1211D3E51038
:1042D300F0850E82850F83C082C083740D1211D3C3
:1042E300AC82AD83D083D0827403120E5DF9740265
:1042F3001211D3AA82AB831213EAE9640170057524
:104303000800800874021211D3123E37A9087412F0
:104313000254B9E0F50CA3E0F50D22E0241C12438E
:104323002522F8A3E012432C223400F988828983E2
:1043330022125029A3A3A3A3A32274EE12097DEA98
:10434300FEEBFF8C088D098E828F83A37408124DB8
:1043530006E060088E828F83A37410F01230B3607E
:10436300098E828F83A3E02408F0EE24151230B661
:1043730060088E828F83A3E004F08E828F83A3A3D1
:10438300A3A3A3A3E060198E828F83A3A3A3A3A3F4
:10439300A3A3E0C3332402F88E828F83A3E028F023
:1043A300EE24111230B66005750B0E8003750B00F9
:1043B3008E828F83A3C082C083EE240D1230B6D0C9
:1043C30083D082F8E028250B8C828D83F0EE2411B4
:1043D3001230B6600512483128F0850882850983BA
:1043E300E0C39475400975080075090002451FE094
:1043F300FA7B0012563E700302451FEEFAEFFB12E2
:104403001450EA850882850983124C4BEE2402F886
:10441300EF12331312461912455BF0EE2404080819
:10442300EF123313124A5BA312455BA3A3F0EE24EE
:1044330013124541F0EE2414124541A3F0750A0806
:10444300EE24161230B66010EE2418125520E5083B
:104453002408125721750A101230B36016EE241A7D
:10446300125520850A0CE508250C125721740825DE
:104473000AF50A8E828F83A3A3A3A3A3A3E06059A3
:10448300EE2407F510EF3400F511851082F583E073
:10449300C0E0124528122FECD0E012454BE0C0E0FB
:1044A300124528122FECD0E012454BA312453412CB
:1044B3000F15851082851183E0C333FCE433FD853A
:1044C3000A0CE508250C125496120F2C85108285D0
:1044D3001183E0C333250AF50AEE24151230B660C2
:1044E3000BC0E0124528122FECD0E0F0122FE61299
:1044F3004534120F15EE240D1230B6FC7D00850BEA
:104503000A8E828F83A3E0F8E50828F8E5093400D2
:10451300F9E8250AFAE9125499120F2CAA08AB09F3
:104523007F0A020D2D850A0CE508250CF582E509A5
:1045330022E0F50CA3E0F50D750E00780C22123E77
:104543003E124565A3A3A322F0050A8E828F83A39F
:10455300A3A3A3A3A3A3A322A3A312578CA312458C
:104563006522124A5FA3A32274F612097D8A828B05
:1045730083E0FC900353124612740278081210D0A1
:10458300EC4508FCAD09EA241212460C74067808BF
:104593001210D0EC4508FCED4509FDEA2415F5821F
:1045A300EB1230B96004780180027800E4C8F9EDB9
:1045B30049FDEA2411F582EB1230B9F50888097434
:1045C3000978081210D0ED4509FDEA241612460CAD
:1045D300740B78081210D0ED4509FDEA2417124632
:1045E3000C740C78081210D0ED4509FD8A828B8378
:1045F300A3A3A3A3A3A3124612740A78081210D08C
:10460300ECFAED4509FB024C7BF582EB123E41E0EF
:10461300F50875090022E085088285098322A3E055
:10462300F98508828509832274EE12097D8A0A8B33
:104633000BECFEEDFF750F01E9C3940850057900FB
:1046430002481E8E828F83E9F0124A84E960037563
:104653000F00124A688E828F83124AB2EE1253F011
:10466300EF124AA7C0E0EE2411122FE9D0E0124A5C
:104673009FC0E0EE2412122FE9D0E0124108740823
:104683001254AAA3A3A3E06015124A50EE2413F513
:1046930082EF124CBA8E828F83A3E02408F08E82BD
:1046A3008F83A3A3A3A3A3A3A3A3E060218E828FDD
:1046B30083A3858208858309124A93EE2415F58224
:1046C300EF124CBA850882850983E02408F08E82B4
:1046D3008F83A3A3A3A3A3E0601A8E828F83A385F2
:1046E3008208858309124A778E828F83A3A3A3A3AB
:1046F300A3124843EE24191240F5EE241B1240F591
:10470300A3124CFEE070030247B2EE2419F8EF3413
:1047130000F98E828F83A3858208858309E0FAE5F9
:104723000A2AF582E50B1230B9888289831248433D
:10473300FAE50A2AF582E50B1230B9C0E0EE241A35
:10474300122FE9D0E012484388828983E06059F848
:104753009025C4E493C398500575110C8008EE248A
:10476300191230B6F5118E828F83A3E0F8E50A287B
:10477300F50CE50B124827120F15E511C333FCE4C2
:1047830033FD7A8F7B0A124821120F2CEE241B1261
:104793002FE9748FF0A3740AF0E511C333F8850889
:1047A30082850983E0288006EE241812595BF08E77
:1047B300828F83A3E0F88E828F83E0C39850030235
:1047C3004641A3E0FA8A08E50A2508F8E50B340018
:1047D300F9EE241DF582EF124DC6124853C39AC059
:1047E300E0EE2417122FE9D0E0124CC3602BEE2425
:1047F30017F8EF3400F9880889098882F583E024E3
:10480300F2124DA7240EFAA3E03400FB88828983B9
:10481300124C4A124831C398F0A90F0245231218CB
:10482300AC7403223400F50D750E00780C2290034E
:104833004EE0F912210AE9F8850882850983E0220E
:10484300F0850882850983E004F022A3A3A3A3A330
:10485300F08E828F83E02274F412097D8A088B091B
:10486300EA1248E8F0EA1313543F1248E1A3A3A362
:10487300F0EAC413131248E8A3A3F0EB1248DA12C8
:1048830048F27409780A1211621248D81248F17476
:104893000A780A121162E50A5401C0E0EC2418F503
:1048A30082ED122FECD0E01248F7740B780A121144
:1048B300621248D8A31248F1740C780A12116212DA
:1048C30048D8A3A3A3A3A3A3A3A3F0740D780812AA
:1048D3001162022C18E50A54018C828D8322540F35
:1048E3008C828D832254038C828D83A3A322A3A362
:1048F300A3A3A3A3F08A0A8B0B22C082C0837900EF
:104903008A828B83A3A3A3A3A3A3E090034D600F89
:10491300E070228A828B83A3A3E07019098016E0DA
:1049230060138A828B83125018900356E06A7003D7
:10493300A3E06B70E70241F474F012097D8A0A8BDD
:104943000B890C8C088D09124A84124A68850882E7
:10495300850983124AB2E5081253F0E509124AA702
:10496300C0E0E5082411F582E509122FECD0E0122E
:104973004A9FC0E01236EA122FECD0E0124DCE74FB
:1049830008124DE76011124A50E5082413124DC274
:10499300124DCEE02408F0850882850983A3A3A3E2
:1049A300A3A3A3A3A3E06017850882850983A312A9
:1049B3004A8FE5082415124DC21248532408F08586
:1049C3000882850983A3A3A3A3A3E06019850882B2
:1049D300850983A3AE82AF83124A7785088285094E
:1049E3008312484E04F0AA08AB09121462E9F50DCC
:1049F3007056850882850983A3A3A3A3A3A3124AA0
:104A03005B7014E0FA8A0EE50A250EF8E50B124CEA
:104A1300AFE50CC39A8021124A8FE8240EF8E912FD
:104A23004CAF90034EE0F912210A8E828F83E0F897
:104A3300E50CC39824F2C399C0E0E5082417F58276
:104A4300E509122FECD0E0F0A90D0253DFE50A24AB
:104A530008F8E50B3400F922124A5F22E085088248
:104A6300850983A322850A82850B83A3A3124AC8DF
:104A7300E0F9EA22E0F8E50A28F582E50B124CD6C4
:104A8300228A828B831253E412145C22AE82AF8398
:104A9300E0F8E50A28F8E50B3400F922124ADBA313
:104AA300A3A3E022123E41E8124AD4A3A3E022A327
:104AB300A3A3A3A3A3A3A3A3124AD4124AC8A3A341
:104AC300E0F9EAF822E0FA850A82850B83A3A3A31F
:104AD30022F0A3E9124ADB22F0850A82850B83A325
:104AE300A3A3A322C082C0837AC57B0379E21220E9
:104AF3007A7AC57B030241F4C082C08390035602D5
:104B030041F1C082C08374FE120F9185188285190A
:104B130083AA82AB83794B124B2512502174020274
:104B230041CA12207A85188285198322C082C083E4
:104B3300794A12207A0241F474F612097D9003CD6A
:104B4300E0FE04F0EEF91214148B09EA450970ED46
:104B5300EE60EAF9024C7B74F012097DEAFEEBFF8A
:104B63008C088D09890A74101211D3E0F50B7411A6
:104B73001211D3E0F50C121534EA4B7013E50C70E7
:104B830042A90AAC08AD09EEFAEFFB12154C806E90
:104B9300E50A6021EA2402F582EB1230B9850A089E
:104BA3002508F8E4340013E813F070098A828B8334
:104BB300A3A37401F0E50C6045E50B70068A828BB4
:104BC30083E4F07401650C7035E50B9003D4700435
:104BD300E4F0802AE004F0900BC9E0F89003D4E0FD
:104BE300C398401AE4F0900359E06E7003A3E06F9A
:104BF300700CEEFAEFFB79011212B8124C04025357
:104C0300DF7A017B009003B0E0F9121A0822C08218
:104C1300C08374016A7001EB70077A01124C3B8008
:104C230012900BC0124C4AEA4B6005122994800380
:104C3300124C040241F47A207B009003B0E0F91295
:104C43001900223400F583EAF0A3EBF022C082C0FE
:104C530083900BC20237F4C082C083900BC4023727
:104C6300F41256F222EE240CF582EF3400F583128F
:104C730041EBE84922120F2C7F02020D2DA2F0E432
:104C830033851882851983124C9C79521220802215
:104C9300124C9C794212208022F0AA82AB8322AA72
:104CA30008AB099003B0E0F91218D6223400F9E5F5
:104CB30008241DF582E509123E41E8F0A3E9F0223C
:104CC3001254AEA3A3E022A3F0EE2415124CD32278
:104CD300F582EF3400F583E022124CE0223400F534
:104CE30083E0F8A3E0F98882898322E0F8124CF488
:104CF30022A3E0F98E828F83A3A322F0EE2418125D
:104D03003E3E22F0EE2416123E3E2274F412097D3A
:104D1300EAFEEBFF7A007B04124C08124D9D124C05
:104D2300BD9003657409F012146E8A088B09AC08F0
:104D3300AD09EE2413122FE9125021124EF1640132
:104D430070487A0F124D9060418A828B83740212ED
:104D53004DA7FAA3E0FB8A828B83A3E0FC8A828BB4
:104D630083A3A3E0FBEC850882850983A3A3124CEC
:104D73004B88828983125025124619124CCAFAA312
:104D8300E0FB794A122080124CA20230AE7B001263
:104D930018CA8A088B09EA4509229003361241EBA7
:104DA300900BC422F0EE241DF8EF124DB1221243F2
:104DB3002CE022124DBA223400F5837401F022F55F
:104DC30082E509123E41E8F0A3E922124DD22212F4
:104DD3004DD622F0850882850983A322124DD6A3DE
:104DE300A3A3A322124DDFA3A3E0221251F81214AE
:104DF300C222EE2417F582EF124DBA12146EEE247E
:104E03001A123E3EEAF0A3EBF02274F412097D7409
:104E1300F3120F918908EAFEEBFF7C0D7D00790008
:104E2300851882851983AA82AB831218B8EE241DD4
:104E3300122FE91256E3A3E0F8741F58600A7901B0
:104E43001220507900024EE8E8A2E55008740C12D3
:104E530011D37401F0E8A2E75008740B1211D37454
:104E630001F0E8A2E6740A50081211D37401F0802D
:104E7300081211D3E064017005EE24138003EE24BD
:104E83001512552074021211D3AA82AB8312206823
:104E9300122FE6124EF6124CBD740A1211D3E064BF
:104EA3000170331229C7703B12147A8A0A8B0BA83C
:104EB3000AA90BEE240B1230B6687003A3E06970E5
:104EC3002212146EEAFCEBFD74021211D3AA82AB18
:104ED30083124EF1600D851882851983AA82AB83F4
:104EE3001212B2A908740D0230ABEEFAEFFB1220D6
:104EF30062E922E0124EFB22F8A3E0F985188285CD
:104F030019832274F612097D74F3120F918A088BA8
:104F130009ECFEEDFF7C0D7D007900851882851973
:104F230083AA82AB83125888A3A3A3A3A3A3A3A397
:104F3300A3124F90124F99F8A2E55008740B121167
:104F4300D37401F0E8A2E75008740A1211D3740174
:104F5300F0E8A2E6EE500424138002241512552033
:104F630074021211D3124F82A3A3E0C0E0740C1297
:104F730011D3D0E01251F01212AC740D024C78AA86
:104F830082AB8312206885088285098322E0124E52
:104F9300FBE8F0A3E922F0123E3B1256E7A3E0221E
:104FA30074F712097D74E1120F91EAFEEBFF8E8212
:104FB3008F83125025A3A3A3E0A2E050518E828FCA
:104FC30083122B278A828B83A3A3A3A3A3A3E054D7
:104FD300FE12503D8A828B83125036E0F98A828B0F
:104FE30083E0241CFAA3E0123A57125021121468EA
:104FF300E9701B741D1211D3125030701185188281
:10500300851983AC82AD83EEFAEFFB1214B0025222
:10501300628E828F83A3A3A3A3A3A3A3A3A312300C
:10502300A422125029221256EBA3A3A322123E73E9
:10503300640422E0241B124325221241D3AC82AD27
:105043008322E9F87900740468600A740A686005C9
:10505300740368700109020EC274F612097D8A8214
:105063008B837420F0A3A37401F012125E8A088B61
:1050730009AE08AF09EE4F60108E828F837401F082
:105083009003A3E07003124DF5EEFAEFFB024C7BA5
:10509300C082C0839003B97401F0E9A2E3500374A2
:1050A30003F0E9A2E15004E0D2E2F00241F474F625
:1050B30012097D79007C008A088B097808120CE7B5
:1050C300F8FF07E450E250E250E250E250DB50DFD9
:1050D30050E450D8500C80097C0480050C80F67C89
:1050E300089003B9E05C6003098003EC60010902E6
:1050F3004C7B74F612097D8A828B83E07012A312B3
:105103004C72600C8A828B831250201221A080047F
:105113007A007B00024C7B74F512097D74F3120F45
:10512300918A088B09ECFEEDFF750A12EA450970B6
:105133000579000251E9900356E065087004A3E085
:105143006509701412146EEAFCEBFD124EED700546
:10515300750A018003750A00851882851983E4F0B6
:10516300041211D3E508F0A3E5091251F01212223B
:10517300E9602774031211D3AA82AB83121204E9E4
:1051830064017016750A0174031211D3AC82AD83E6
:10519300124EED6021750A00801C7412650A7016A8
:1051A3009003A2E06402700EEEFCEFFDAA08AB09C7
:1051B30012123AE970DFEEFCEFFDAA08AB091215F3
:1051C3003AE9F8740A687005750A01801774A068D3
:1051D3007012EEFCEFFDAA08AB09121546AA08AB44
:1051E30009121558A90A740D025BF074021251F4E6
:1051F300221251F8221241D3AA82AB832274F712EE
:10520300097DEAFEEBFF8E828F83A3A3A3A3A3A34F
:10521300A3A3E06015EE2415122FE91230941214A3
:10522300DAE964017004790180258E828F83A3A358
:10523300A3A3A3A3A3E06015EE2413122FE9125234
:1052430054FAA3E0FB1214DAE9640160D97900800F
:1052530013123B43A3A3A3A3A3A3A3A3A3E0227477
:105263001F120F2C7F01020D2D74F012097D74FDA6
:10527300120F918A088B09ECFEEDFF890B74131250
:1052830011D3E0F50C750A0174011211D3740412E1
:10529300571B6048E50C601DEA2417F582EB125991
:1052A3005E1257098A828B83E0D2E7F0EA2414F571
:1052B30082EB1240F81253EFEB124CDC7403125CD6
:1052C30081EE88828983A3A3F0EF88828983A3A3D5
:1052D300123BED123BF4121258E9F50AA90A7403C2
:1052E3000253DC74EC12097D74F5120F918A0A8B58
:1052F3000B890C8C0E8D0F741F1211D3E0F50D74F6
:10530300201211D3E0F510A3E0F5117E01EE121186
:10531300D3740AF0E97007E50DC333240AF012547D
:10532300C170030253C31254D67409F0A3E50CC42D
:105333003354E0450D1254E8E50C702D7C008023B6
:10534300ECC333F8E433F9E51028F8E51139F988AB
:105353008289831253D088828983123306F0A30E85
:10536300AF830CECC3950D40D7E5082417F582E510
:1053730009124DB612146EE508241AF582E50912D6
:105383004C4674031211D3AC82AD83AA0AAB0B1241
:10539300120AE96019E5082416F582E5091253CAD1
:1053A3001211D3A882A983E5082418124CB68508E4
:1053B30082850983125C7DAA08AB09121258E9FEA3
:1053C300EEF9740B0254B9124DBA740322E08E82C3
:1053D3008F83F0A3AE82AF8322120F2C7F08020DBE
:1053E3002D123E9BF9EA2400E439FB22EA240BF553
:1053F300822274EE12097D8A0C8B0D890E8C088D26
:105403000974121211D3E0F50F74131211D312544D
:10541300A2900542124C726077E50FC333F8E43370
:10542300F9E8240EFAE93400FB1218CA8A108B112A
:10543300AE10AF11EE4F60588E828F8374D4F0A3F9
:10544300A3E50CF0A3E50D1254AAE50EF0AC08ADEC
:1054530009EE2405FAEF125724EE240D122FE9E585
:105463000FF0850A08850B09750A007808120F15D5
:10547300E50FC333FCE433FDEE240EFAEF12549927
:10548300120F2CEEFAEFFB9005421256E31222653F
:10549300024523FAE5093400FB1218AC740322E039
:1054A300F50AA3E0F50B221254AE221254B22212D3
:1054B300410CA3A3A322120F2C7F0C020D2D8518E0
:1054C30082851983AA82AB831214C28A088B09EAE4
:1054D300450922EA240BF582EB124CD6FEA3E0FF2A
:1054E3008E828F8322F0A3AE82AF83AC0EAD0FEE1C
:1054F300FAEFFB1254FA2212206812550122EE240D
:1055030008FEEF3400FF22E0FA8E828F83A3A3E02C
:1055130022FEA3E03400FF8E828F83E022123E3E00
:1055230012552722E0FCA3E0FD221230A4121456E8
:105533002274F612097DEAFEEBFF9003BA8013880A
:10554300828983E06E7003A3E06F603A8882898367
:10555300A3A3124C7270E87A047B001219428A08E2
:105563008B09A808A909E849601C88828983125518
:10557300909003BA12502188828983A3A3124C4AC4
:105583009003BA124CBD024C7B8A828B83EEF0A34C
:10559300EFF02274F412097D7E009003BA80070EA7
:1055A30088828983A3A3124C7270F4EEC333FAE4A6
:1055B30033FB12563E607E7F009003BA80248882BC
:1055C3008983125523EFC333FAE433FBE5082AF545
:1055D30082E5093BF583ECF0A3EDF00F8882898324
:1055E300A3A3124C7270D79003AB122A017003A3CA
:1055F300E06978087019120F19EEF50A780A120F8C
:105603001D7C777D0379009003AB125649801A12F3
:105613000F19EEF50A780A120F1D7C777D037900C6
:105623009003AB1250211214EC7403120F2CAA082E
:10563300AB091219481212700230AE1219428A08CD
:105643008B09EA4509221230A41214F222C082C047
:105653008380128A828B83A3A3123E4C9003BA12D7
:105663004CBD1219489003BA123D5C70E60241F436
:1056730074F612097D900363123E789003CE12569E
:10568300D2124CBD7ACE7B0379501220809003CE88
:10569300122C20FAEFFB1215529003CE123E789093
:1056A3000544124C7260257A067B001218CAEA4B35
:1056B300601A8A828B8374D5F0A3A3E41256F8048C
:1056C3001257099005441256E3122265024C7B12CD
:1056D30056D622E0F8A3E0F9900363228E828F83EB
:1056E3001256E7221256EB22E0F81256F122A3E0FB
:1056F300F5838882221256FC2212570022F08A82F6
:105703008B83A3A3A3221256FCA3EEF0A3EFF022F4
:10571300F582EF124CD6F922124DEEEA4B22FAE54E
:10572300093400FB12206822124CF5A3A3A3A3A300
:10573300A3A3229025C6E4932401F8E43400F97A64
:10574300027B002274F712097D7E008004125D340F
:105753000E12585840F77E00EE12577374FEF0A3F2
:1057630004125788E4F00EEEC3940340EB02526731
:1057730075F003A4F8A9F074BC28F8740339F98808
:10578300828983A32212578C22F088828983227410
:10579300F712097D7F0080010F9025C3E493F8EF92
:1057A300C3985026EF1259446A7003A3E06B70E864
:1057B300125CE16C7003A3E06D600A74FF6C70030C
:1057C30074FF6D70D312584F80047A007B0002522D
:1057D3006774F612097D7CFF7DFF7AFE7BFF12154D
:1057E30016EA4B70407508008036E50875F017A47B
:1057F300F8A9F0742A28F5827409125956600C74BA
:105803002928F58274091259567013741B28FE74E3
:105813000939FF8E828F83125963EEFAEFFB050875
:105823001258BE40C5024C7B74F412097D8A088B62
:1058330009ECFEEDFF800B121528EEFCEFFDAA0824
:10584300AB09121516EA4B70EE0230AE741B28FA40
:10585300740939FB229025C3E493F8EEC3982274AC
:10586300F712097DEAFEEBFFEE4F601012588274C7
:10587300FEF0A304125C8714F0A304F00252677CC9
:10588300177D0079001218B88E828F832274F71265
:10589300097DEAFEEBFF7508008018E50875F0172F
:1058A300A4F8A9F0125CEC7003A3E06F6003125D2F
:1058B3003C05081258BE40E30252679025C3E493A7
:1058C300F8E508C3982274F612097D1215168A08A2
:1058D3008B09A808A909E849600AE8240DFAE93404
:1058E30000FB80047A007B00024C7B74F412097D78
:1058F3008A0A8B0BECFEEDFF750800750900802EFC
:10590300E50975F017A4F8A9F0125D27601EE509F3
:10591300125944650A7004A3E0650B700375080A05
:10592300EEFCEFFD125BE360034308A0050990253D
:10593300C3E493F8E509C3985004E50860C2022C58
:105943001875F017A4F8A9F012594F22741B28F503
:1059530082740939F583E022F582EF123E41E42295
:105963001230A412134E2212578CA3A3A3A3A3A3F2
:10597300A3A32274F212097D8A088B09ECFEEDFFC2
:10598300740E1211D31254A2750C007C007D018099
:10599300101218C4E50CF5F0EA84ACF0750C007D28
:1059A30000780079008003125B20125B7C400302C5
:1059B3005A42E8FAE9FBEA75F017A4FA85F00D7587
:1059C300F017EBA4250D125B587003A3E0F460D726
:1059D300125B3665087004A3E0650960CA125B3682
:1059E3006E7003A3E06F60BF125B36650A7004A399
:1059F300E0650B60B2E8FAE9FBEA75F017A4FA7503
:105A0300F017EBA4250DFB74292AF5827409125BA8
:105A130017509474016D050C608DE50CC39C408791
:105A2300E875F017A4F8AAF075F017E9A42AF97439
:105A33001B28F582740939F583125021025B14780F
:105A43000079008003125B20125B894003025AFB3A
:105A5300E8FAE9FBEA75F012A4FA85F00D125B6827
:105A630064FE7003A3E0F460DC125B5E65087004FF
:105A7300A3E0650960CF125B5E6E7003A3E06F6005
:105A8300C4125B5E650A7004A3E0650B60B7E8FAB5
:105A9300E9FBEA75F012A4FA75F012EBA4250DFBED
:105AA30074D22AF5827406125B175099E8FAE9FB5F
:105AB300EA75F012A4FA75F012EBA4250D125B2916
:105AC30064016081E064027003025A4874016D0549
:105AD3000C7003025A48E50CC39C5003025A48E871
:105AE30075F012A4F8AAF075F012E9A42AF974C9A2
:105AF30028F5827406025A39E50C6011EC700E74B5
:105B030001650C60030259947C0102599F7AFE7B64
:105B1300FF022A0D3BF583E014C3940622E8240117
:105B230008E93400F922FB74CD2AF58274063BF5AB
:105B330083E022E8FAE9FBEA75F017A4FA75F01797
