:020000040000FA
:0600000002115602073751
:03002B00020EFCC6
:03003300020CC9F3
:030053000206653D
:03006B00020CA0E4
:100083000206CC010101FF05030118171817181701
:100093001817CE15C8151817E92300000000872389
:1000A300000000000C0000000C0001FFFF430101F1
:1000B30001002F050000008105E80364006400B817
:1000C30001020200080000050307051E02051E0ABF
:1000D30003B80B0201022222028813000096511872
:1000E3000002020612121175601D1211A270051989
:1000F3001919801A120FDE701F121008C37003E65D
:10010300673319191940071818182208080874FFCB
:10011300F618F618F618F62212100860171211E1F5
:10012300702192F01211EB7019501720F014080887
:1001330008090909E7F61819E7F61819E7F618196F
:10014300E7F6221211EB60E6E869701F0808E6245F
:1001530080F608E436F618547FB47F0CE6548060CA
:1001630007F6E418F618F622181822E9C6CC08C6D2
:10017300CD08C6CE08C6CFC0E0E8C0E0EAC0E0EBD9
:10018300C0E009E9F809E7FA09E7FBE6F918E6F838
:10019300C3EC98ED99EE9AEBC2E7F5F0EFC2E79561
:1001A300F0500E600CEBCFFBEACEFAE9CDF9E8CCC8
:1001B300F8EAA2E7D2E7FAEB33FB13F5F0EEA2E796
:1001C300D2E7FEEF33FFC5F013A2E730E601B31326
:1001D300C5F0C3C0E0C0F07F00C39BFB605B941815
:1001E300600C401AD0E023F9D0E0F80202C68AF08E
:1001F300E9486003D2F0E4AFF0FAF9F8803BEB3062
:10020300E40D89F0EA6003D2F0E4AFF0F9CAF8EB49
:1002130030E30D88F0EF6002D2F0AFF0E4CAC9F822
:10022300EB54076014FBC3EA13FAE913F9E813F874
:10023300EF135002D2E0FFDBEDD0E0C0E030E7394E
:10024300C3E49FFFF5F0EC98FC42F0ED99FD42F01A
:10025300EE9AFE42F0D0E0F9D0E0F8E5F0607AE9FA
:1002630023F9EE20E742D8028067C3EF33FFEC3374
:10027300FCED33FDEE33FE80EAEC28FCED39FDEEB8
:100283003AFED0E023F9D0E0F84002801BC3EE131E
:10029300FEED13FDEC13FCEF135002D2E0FF08B8A0
:1002A30000067F7F74FF802EEF3350178CF020F011
:1002B3000260100CBC000C0DBD00080EBE0004084B
:1002C300E860DFE933E813FFEE2313FE4F4D4C8064
:1002D30008E95480FFE4FEFDFCEE33EF33F47004D1
:1002E300FCFD7E80D0E0FBD0E0FAD0E0F8D0E0CF98
:1002F300C618CEC618CDC618CCC6F9221211757011
:1003030004181818221211A2700D74FFF61819F6AA
:100313001819F61819F622E7548066F61211EB70D5
:100323000F1211E170F014F608F608F608F680D102
:100333001211E1700CF608F608768008E6447F8017
:10034300EC12100B700C120FE160BFE65480F6E460
:1003530080BB120FE1700519191980A5E869700CAB
:10036300763F18768018F618F6E8F922E6CDC0E055
:1003730018ECC0E0E633CD33CDD313F6E719FCE731
:10038300191933CC33C3947F400ECD9D502408E616
:100393005480F6E418F6800FF4043D14501408E674
:1003A300447FF6187680E418F618F6D0E0FCD0E027
:1003B300FD22CCD313CCFD18E4C6CBC0E018E4C6B1
:1003C300CAC0E00808ED08C633E613F618E433C6DE
:1003D30075F003C3CA97CA09CB97CB199C40047D18
:1003E30008802EBD00030204A816B6FF0506060802
:1003F3001618C3CA33CACB33CB33CA27CA09CB3780
:10040300CB193CC37D08803E187D0820E75CC633CA
:10041300C6CA33CACB33CB33DDF1D5F0EB30E77B40
:10042300CA97CA09CB974ACB199C406F4B7025E6F4
:1004330020E0218066187D08C3CA97CA09CB97CBF1
:10044300199CD3C633C6CA33CACB33CB3350C9DDA9
:10045300E7D5F0E1D3E4C636C608C636C608C636C5
:10046300C608C636C61818188031C3CA97CA09CB3E
:1004730097CB199CB34097C633C6CA33CACB33CB89
:1004830033DD34D5F02EC6A2E0C640C8CA27CA0958
:10049300CB37194A70BECB3CB480B90808E63308A1
:1004A300E633601F181818D0E0FAD0E0FBD0E0FC68
:1004B300D0E0FD22187D08CA27CA09CB37CB193CE7
:1004C300D3808013F618E4B67F11F618B6FF0EF644
:1004D30018C60470D20808768080CAF618F618F693
:1004E30080C500121175604F1211A26012E754808B
:1004F30066F6120FDE70111211E1703B090909F45F
:10050300F618F618F618F62212100870151211EBE9
:1005130008080860EAE6447FF618768018E4F618BF
:10052300F6221211EB60161211E17012E4F608F6CE
:1005330008F608E65480F609090918181822EAC0D3
:10054300E0EBC0E0ECC0E0EDC0E0E687F0A4FBAC7C
:10055300F008E687F0A42CFCE435F0FA1809E687E6
:10056300F0A42C4B60027401CA35F0FCE433FB09A0
:10057300E687F0D2F7A42CCB35F0FC1908E687F018
:10058300A42BCC35F0FBE433FD0819E687F0D2E762
:10059300A42C4ACB35F0CD3400FC09E687F0D2E732
:1005A300A42DCC35F0FDE433FA0918E687F0D2F731
:1005B300A42CCD35F0CA3400FC08E687F0D2E7D28C
:1005C300F7A42ACC35F07A7E20E70B0ACB33CBCDC8
:1005D30033CDCC33CC33CB3350147004ED30E00E39
:1005E300D2F1E4CD3DCDCC3CCC3B5005DA05C2F194
:1005F300EB547FC63308E63392F0FBE73309E73366
:10060300C39A502D2B70190C0D4C4D70151806E61E
:1006130008C333700D20F10AA2F013F6E418800B1F
:100623004024E4F630F002768018F618F618F680C7
:1006330024D33B14501074FFA2F013F6187680E411
:1006430018F618F6800FA2F013F618E63303F6181F
:10065300ECF618EDF6D0E0FDD0E0FCD0E0FBD0E006
:10066300FA22C0E074F2120A54A2AFE433FED2AF0E
:10067300E5A7FFE5A1F5085F54106006121E027599
:10068300A1EFE5085F54086008121E0875A1F78002
:100693002BEFA2E0C0D0E508A2E092F01210DF1524
:1006A3008182F05017906198E0F890065CE0C3985F
:1006B300A2D265D0335002E8F075A1FE751A00EEA0
:1006C300A2E092AF7F01020B10C0E074F2120A5451
:1006D300A2AFE433FED2AF9061A4E0F8759B00E5CE
:1006E3009158540860087591F7121E50802AE591BD
:1006F30058541060087591EF121E56801BE8A2E053
:10070300C0D0E591A2E092F01210DF158182F05083
:1007130007E0C2E0F0121FB29061A3E0F8E5E958E8
:100723005404600E121F8875E9FB906193E0A2E602
:1007330040F28088C0E074F2120A54A2AFE433FEA0
:10074300D2AF9061A5E0F8E5BF585404600675BFC9
:10075300FB121FCA0206BFC3E498F8E499F9120713
:100763009B8026C3E49AFAE49BFBE920E7E912079E
:100773009BE498F8E499F922C3E498F8E499F91210
:10078300079BE498F8E499F9C3E49AFAE49BFB2203
:10079300EB20E7CFE920E7E0B90010BB0008E88AC7
:1007A300F084F8AAF022E4FBC8FA22EB70227B1053
:1007B300C833C8C933C9335007C39AC3DBF28006B1
:1007C3009A50012ADBEAC833F4C8C933F4C9FA22C0
:1007D30075F008E4C833C8C933C933C99AC99B50F3
:1007E30004C92AC93BD5F0ECFBC833F4C8E4C9FA01
:1007F300228A088B098C0A8D0B780812083E20F098
:100803001430E72B74FFFCFBFA747F8022E4FCFBBB
:10081300FA7480801AB48008BC00F2BB00EF800F2A
:1008230050EBF9E4C39AFAE49BFBE49CFCE499C61D
:10083300CC18C6CB18C6CA18C6F922E4C9C608CA5A
:10084300C608CBC6D3330308CCC63392F0C3947F18
:10085300402E94184019C9B90704CACBCC2250259D
:10086300C309CA33CACB33CBCC33CC33D9F422F448
:10087300600DC9CCC313CB13CBCA13CAD9F6CC2290
:10088300E4FCFBFA2214FCFBFA22080808EAC0E0A5
:10089300EBC0E086F0E7A4FA180986F0E7A42AFA89
:1008A300180986F0E7A42AFA180986F0E7A42AFAB9
:1008B3001986F0E7A4FBE5F02AFA190886F0E7A405
:1008C3002BFBE5F03AFA190886F0E7A42BFBE5F0D9
:1008D3003AFA18180986F0E7A4C5F02BFBE43AFAB4
:1008E3001908E7C5F0C6A426F6E5F03BFBE43AFA9F
:1008F3001886F0E7A4F6E5F00826F6E43B08F6E4EC
:100903003A08F6D0E0FBD0E0FA22E4CFC0E0E4CE30
:10091300C0E0E4CDC0E0E4CCC0E075F020C3E63332
:10092300F608E633F608E633F608E633F618181841
:10093300EC33FCED33FDEE33FEEF33FFC3EC9709ED
:10094300ED9709EE9709EF97191919400FFFEC97E7
:10095300FC09ED97FD09EE97FE191906D5F0BEECDB
:10096300F709EDF709EEF709EFF7191919D0E0FCCC
:10097300D0E0FDD0E0FED0E0FF222518C582C0E024
:10098300E51934FFC583C0E0E518C3958224F81048
:10099300AF08858319858218800885831985821895
:1009A300D2AFCEF0A3E520F0A37808E608F0A3DEEB
:1009B300FAEFF0A3E58124FAF8E608F0A3E608F0DD
:1009C300A3E608F0A30808E608F0A3E608F0A315D9
:1009D300811581D0E0FED0E0F8158115811581E8FD
:1009E300C0E0EEC0E0221211D6B90003020A3EE4D1
:1009F300900301788C79098002F0A3D8FCD9FA78A6
:100A03001A9000867A01BA00028007E493A3F608DD
:100A1300DAF9900B8CAA82AB839000877862790114
:100A23008015E493A3AC82AD838A828B83F0A3AA5F
:100A330082AB838C828D83D8E9D9E775827F7583F6
:100A4300F87402120EDE75828E7583227400120E04
:100A5300DEC0D02518C582C0E0E51934FFC583C0C8
:100A6300E0E518C3958224F310AF088583198582C6
:100A7300188008858319858218D2AFC8F0A3E9F0DE
:100A8300A3EAF0A3EBF0A37908E709F0A3D8FAEC03
:100A9300F0A3EDF0A3EEF0A3EFF0A3D0E0F0A3D02A
:100AA300E0F0A3D0E0F0A3E520F0A3E5F0F0A3226B
:100AB300E9799EC608CAC608CBC608CCC6C370204F
:100AC3007996CACBCC7019798ECBCC70137986CC3E
:100AD300700EF9802ACA33CACB33CBCC33CC33194B
:100AE30030E7F2CCCBCA3350147004EA30E00DE4A3
:100AF300CA3ACACB3BCBCC3CCC500209C3E913C6A0
:100B0300CC182313C6CB18C6CA18C6F92285198375
:100B1300851882E0C0E0A3E0F9A3E0FAA3E0FBA319
:100B23007808E0F608A3DFFAE0FCA3E0FDA3E0FE0B
:100B3300A3E0FFA3E0C0E0A3E0C0E0A3E0F5D0A3FF
:100B4300E0F520A3E0A3F5F010AF088583198582B3
:100B5300188008858319858218D2AFD082D083D0BC
:100B6300E0F8D0E03275F0108E218F228582268541
:100B73008325851882851983E0CEA3E0CF8526825D
:100B8300852583EBC9EAC8EDCBECCAC3E833C8E9D2
:100B930033C9EA33CAEB33CBC3EA9EF524EB9FF5A3
:100BA30023B35004AB23AA24EC33CCED33CDD5F0DF
:100BB300DAAE21AF2222121175601C1211A2601746
:100BC3001211EB70071211E17001D322C0D0121180
:100BD300E17006D0D0B322C32233D0D0501430E01A
:100BE300F6C3E7960809E7960809E7960809E79622
:100BF300B32220E0D5E6970809E6970809E69708A7
:100C030009E697B322121175601B1211A260161226
:100C130011EB70071211E1600CB322C0D01211E185
:100C23007005D0D022C32233D0D0501330E0EBC3B1
:100C3300E7960809E7960809E7960809E796222048
:100C4300E0E4E6970809E6970809E6970809E697B6
:100C530022D083D082ECC0E0EDC0E0E493A3FCE4B7
:100C630093A3FDED4C600D120D73EC24FFFCED34EA
:100C7300FFFD80EFE493A3FCE493A3FDED4C600D33
:100C8300120E10EC24FFFCED34FFFD80EFD0E0FDED
:100C9300D0E0FCE493A3C0E0E493C0E022C0E0749E
:100CA300F2120A54A2AFE433FED2AFE589A2E150B7
:100CB30003121CD6758900C2C5751A00EEA2E09214
:100CC300AF7F01020B10C0E074F2120A54A2AFE42A
:100CD30033FED2AFE58BA2E05003121CD6758B0016
:100CE300C2E880D5851983851882E0A3FEE0A3F5C9
:100CF300207808E0A3F608DFFAE0A3FFE0A3C0E052
:100D0300E0A3C0E0E0A3C0E0E0A3C0E0E0A3C0E054
:100D130010AF08858218858319800885821885831A
:100D230019D2AFD083D082020EE4D083D082E9C03F
:100D3300E0E493A3C386F0C5F095F0F908E493A328
:100D430086F0C5F095F0700BE493A3C3994005E9D1
:100D5300048002A3E475F002A42582F582E5F03550
:100D630083F583D0E0F9E493A3C0E0E493C0E022E9
:100D7300C0E0C3E49396087401939618400FE4937C
:100D830066700808740193661870007019A3A3C3F2
:100D9300E49396087401939618A3A3400DD0E0D072
:100DA300E0D0E0020C90A3A3A3A3A3A3D0E02274FA
:100DB30004800474028000CCC0E0EDC0E0E518C3F9
:100DC3009CCCAD1950011D10AF068C188D198006EF
:100DD3008C188D19D2AF120E7FD0E0FDD0E0FC222B
:100DE30074028000CCC0E0EDC0E0E518C39CCCAD3C
:100DF3001950011D10AF068C188D1980068C188DA3
:100E030019D2AF120E3BD0E0FDD0E0FC22C0E0C00F
:100E1300F088F0E493667008087401936618700014
:100E2300A8F0A3A3700BD0F0D0E0D0E0D0E0020C88
:100E330090A3A3D0F0D0E022CAC0E0E493A3C5827C
:100E4300CCC582C583CDC583F0A3C582CCC582C57D
:100E530083CDC583DAE5D0E0CA22A2E792D6500259
:100E6300F40430F70663F0FF05F0B3400384800316
:100E730084F40430D60563F0FF05F022CAC0E0E035
:100E8300A3C582CCC582C583CDC583F0A3C582CC5F
:100E9300C582C583CDC583DAE6D0E0CA22700908CE
:100EA3000808226016181818C6C333C608C633C606
:100EB30008C633C608C633C6D5E0EA22C008C3E075
:100EC30096F50808A3E096420808A3E096420808AE
:100ED300A3E09645087001D3D00822C09FF59FE494
:100EE30073D09F22D083D082C09FE493C0E074016B
:100EF30093C0E0740293F59F22C0E0C0D0E8C0E045
:100F0300E5A8D2AFC2C7751A00A2E792AFD0E0F846
:100F1300D0D0D0E0322518F58210AF08F518400282
:100F230015198008F51840021519D2AF85198322C7
:100F33007404800A74038006740280027401C0E0A2
:100F4300F404120F18D0E01211B122C0D0251810EA
:100F5300AF08F518500205198008F5185002051955
:100F6300D2AFD0D022BB0102E722C082C0838982E4
:100F73008A83BB0003E08002E493D083D0822260A3
:100F830016080808C6C313C618C613C618C613C660
:100F930018C613C6D5E0EA22C3E0C696F608A3E056
:100FA300C696F608A3E0C696F608A3E0C696F62210
:100FB300251810AF08F518400215198008F51840D8
:100FC300021519D2AF22E76670100809E766700AA6
:100FD3000809E76670040809E76622181818E60886
:100FE3004608700AE608C3337005E633F422082284
:100FF300C3E09608A3E09608A3E09608A3E096A2B0
:10100300D265D03322191919E7094709700AE7098C
:10101300C3337005E733F4220922E066701008A396
:10102300E066700A08A3E066700408A3E06622C3C2
:10103300E697F60809E697F60809E697F60809E63B
:1010430097F622C3E096F008A3E096F008A3E09693
:10105300F008A3E096F022E647F60809E647F6080B
:1010630009E647F60809E647F622700422600D18E0
:10107300C6C333C608C633C6D5E0F41822E627F63E
:101083000809E637F60809E637F60809E637F622CF
:10109300E026F008A3E036F008A3E036F008A3E06A
:1010A30036F022E026F608A3E036F608A3E036F68B
:1010B30008A3E036F622E056F608A3E056F608A3A6
:1010C300E056F608A3E056F622E056F008A3E056F1
:1010D300F008A3E056F008A3E056F022C0E0E8C011
:1010E300E0E58124FCF8E6A2E7D0E0F8D0E022E6D0
:1010F30057F60809E657F60809E657F60809E657CA
:10110300F622E4C396F608E496F608E496F608E4B5
:1011130096F622600D08C6A2E713C618C613C6D5F5
:10112300E0F322C6F4C608C6F4C608C6F4C608C669
:10113300F4C622C3E7960809E7960809E796080963
:10114300E79622C3E09608A3E09608A3E09608A3D7
:10115300E0962275D000758140751801751903005A
:101163000209E9E6F008A3E6F008A3E6F008A3E61F
:10117300F022E6084608C3134608336002E633F458
:1011830022600C08C6C313C618C613C6D5E0F422E2
:10119300E0F608A3E0F608A3E0F608A3E0F622E7EA
:1011A300094709C3134709336002E733F422CAC06E
:1011B300E0E6F0A308DAFAD0E0FA22EAF0A3EBF0D3
:1011C300A3ECF0A3EDF022E0FAA3E0FBA3E0FCA381
:1011D300E0FD22E5C754F84401F5C7790122E7C3CE
:1011E3003319471947194722E6C3331846184618D7
:1011F30046222518F582E43519F58322C2AF75D648
:101203009F02000022120EE76E5E00120EE7F85EE8
:1012130000120EE79C5F00120EE7F05F00120EE76C
:10122300096000120EE72F6000120EE76A600012D9
:101233000EE7AE6000120EE7D56000120EE72661DE
:1012430000120EE7D66100120EE78E6200120EE75F
:10125300566300120EE7336400120EE7B9640012FE
:101263000EE7C86400120EE7D36400120EE7DC65D4
:1012730000120EE7ED6500120EE7636600120EE73B
:10128300F56600120EE74D6700120EE713680012B1
:101293000EE7446800120EE7896800120EE79668AD
:1012A30000120EE72A6A00120EE78D6B00120EE79A
:1012B300A96C00120EE7136F00120EE71E6F0012E7
:1012C3000EE7286F00120EE7336F00120EE73D6F33
:1012D30000120EE7476F00120EE7526F00120EE77F
:1012E3005D6F00120EE78E6F00120EE7B26F0012F1
:1012F3000EE7D66F00120EE73B7000120EE77F7009
:1013030000120EE79B7000120EE7127100120EE737
:101313004A7100120EE7967100120EE7F371001284
:101323000EE7D57300120EE75B7400120EE72C75FF
:1013330000120EE73C7800120EE7917800120EE7D8
:10134300BD7800120EE7097A00120EE7597A0012EF
:101353000EE7AE7A00120EE7AF7B00120EE7477C72
:1013630000120EE7C97C00120EE7697D00120EE73A
:10137300F42500120EE72D2600120EE707280012AF
:101383000EE7462800120EE7902800120EE73529D3
:1013930000120EE7942900120EE7C82900120EE787
:1013A300352A00120EE7522B00120EE75A2C0012B8
:1013B3000EE7F02C00120EE7373000120EE7E03094
:1013C30000120EE7BC3100120EE71D3200120EE7C9
:1013D3003A3300120EE7643500120EE71B36001293
:1013E3000EE7253600120EE7583600120EE71F37B8
:1013F30000120EE7BA3700120EE71F3800120EE78D
:10140300483800120EE76A3800120EE7993A0012C4
:101413000EE7703B00120EE7B43B00120EE7213CCF
:1014230000120EE7DC3C00120EE70E3D00120EE741
:10143300523D00120EE7853D00120EE7DA3D001221
:101443000EE72F3E00120EE7C33E00120EE7253FC4
:1014530000120EE78D3F00120EE7364100120EE731
:101463001E4200120EE7604300120EE78E45001283
:101473000EE74E4600120EE77D4800120EE72049A4
:1014830000120EE75E4900120EE70A4B00120EE748
:101493001E4B00120EE7284B00120EE7524B0012B0
:1014A3000EE75E4B00120EE77D4B00120EE7344C45
:1014B30000120EE7734C00120EE77D4C00120EE78C
:1014C300314D00120EE7304E00120EE7294F001285
:1014D3000EE7C64F00120EE7685000120EE77F506A
:1014E30000120EE7B65000120EE7D45000120EE7BA
:1014F300185100120EE73D5100120EE7235200125D
:101503000EE78F5200120EE7095300120EE718542C
:1015130000120EE7575500120EE7B95500120EE7F9
:10152300735600120EE7965600120EE76A57001222
:101533000EE7B55700120EE7F75700120EE74E58A5
:1015430000120EE7855800120EE7B35800120EE79B
:10155300EC5800120EE7115900120EE799590012C8
:101563000EE7BC5B00120EE71B5C00120EE7AF5CDC
:1015730000120EE71B5D00120EE76F5D00120EE70F
:10158300BA8A03120EE7F98A03120EE723B4011293
:101593000EE77DB401120EE7D9B401120EE725B5AB
:1015A30001120EE740B501120EE771B501120EE705
:1015B3008EB501120EE79AB501120EE70EB70112AE
:1015C3000EE727B701120EE78EB701120EE7A1B798
:1015D30001120EE7AFB701120EE763B801120EE76F
:1015E30047B901120EE74DBA01120EE7D3BA011241
:1015F3000EE7DDBA01120EE74ABB01120EE761BB2B
:1016030001120EE793BB01120EE7CCBB01120EE7EA
:10161300F6BB01120EE757BC01120EE777BC0112AD
:101623000EE795BC01120EE7DBBC01120EE701BE0B
:1016330001120EE74EBE01120EE77DBE01120EE748
:10164300F3BE01120EE71BBF01120EE754BF0112D6
:101653000EE762BF01120EE7BABF01120EE709C01F
:1016630001120EE748C001120EE778C001120EE71F
:10167300A4C001120EE7AFC001120EE7CDC00112E4
:101683000EE78FC101120EE799C101120EE7D4C113
:1016930001120EE7EAC101120EE7F3C101120EE7D0
:1016A30048C201120EE75CC201120EE76AC30112BF
:1016B3000EE77DC301120EE794C301120EE7A9C31F
:1016C30001120EE74BC401120EE7CEC401120EE75E
:1016D3008CC501120EE797C501120EE7BDC60112B4
:1016E3000EE7D9C601120EE72BC701120EE76AC730
:1016F30001120EE77FC701120EE7C1C701120EE701
:101703000ECA01120EE78CCA01120EE7FFCA0112BC
:101713000EE721CD01120EE739CD01120EE73CCDC4
:1017230001120EE748CD01120EE75CCD01120EE760
:1017330064CD01120EE797CD01120EE747CE0112D9
:101743000EE7BDCE01120EE730CF01120EE7E4CF54
:1017530001120EE799D001120EE7B8D001120EE77D
:1017630058D101120EE764D101120EE78FD1011295
:101773000EE792D101120EE7C1D101120EE7D6D1C5
:1017830001120EE740D201120EE768D301120EE7F1
:1017930040D401120EE7CBD401120EE7E4D50112B7
:1017A3000EE7A1D601120EE7DAD601120EE70BD728
:1017B30001120EE7ABD701120EE7DBD701120EE7DA
:1017C300B6D801120EE74FD901120EE7DAD901128A
:1017D3000EE78BDA01120EE70DDB01120EE73FDB9A
:1017E30001120EE780DB01120EE7B5DB01120EE7F3
:1017F300E0AF02120EE745B002120EE782B002120A
:101803000EE7D1B002120EE7E7B202120EE7CAB436
:1018130002120EE734B802120EE76FB802120EE797
:1018230091B802120EE7F4B802120EE728B90212B9
:101833000EE74BB902120EE778B902120EE7D4B9DC
:1018430002120EE79B8D02120EE7198E02120EE7AB
:101853004F8E02120EE7BB8E02120EE72E9002127B
:101863000EE74A9002120EE78F9002120EE71D91C7
:1018730002120EE7769102120EE7A39202120EE70E
:10188300B59302120EE7129402120EE77E9402122F
:101893000EE7DF9402120EE7209502120EE7CD95B4
:1018A30002120EE7DF9602120EE70A9702120EE704
:1018B300559702120EE79C9702120EE72E9802121A
:1018C3000EE7E99802120EE777C302120EE7C3C3CD
:1018D30002120EE731C402120EE752C402120EE7DF
:1018E30002C502120EE70BC502120EE75EC5021215
:1018F3000EE787C502120EE7EEC502120EE77FC69A
:1019030002120EE7C1C602120EE70BC702120EE760
:101913006AC702120EE7FBC702120EE73AC80212A9
:101923000EE779C802120EE7AEC802120EE7C0C86E
:1019330002120EE7D2C802120EE7F1C802120EE736
:10194300FAC802120EE7CFC902120EE7C3850312CB
:101953000EE74DF602120EE783F602120EE7CCF6FF
:1019630002120EE71CF802120EE713DC01120EE757
:1019730052DD01120EE718AB01120EE74DDF011223
:101983000EE776DF01120EE709E201120EE74DE2E0
:1019930001120EE7D6E301120EE76EE401120EE721
:1019A300D6E401120EE777E501120EE7B9E501125D
:1019B3000EE7F9E501120EE784E701120EE7F4E8FA
:1019C30001120EE719EB01120EE747EB01120EE7C6
:1019D3006EEB01120EE777EB01120EE7FEEB01123D
:1019E3000EE71CEF01120EE76C8A03120EE7828AE0
:1019F30003120EE70D5E00120EE7038B03120EE7D0
:101A030054DC02120EE767DC02120EE704DD021259
:101A13000EE740DD02120EE757DD02120EE77CDD12
:101A230002120EE7BEDD02120EE7EFDD02120EE731
:101A33002ADE02120EE7A4DF02120EE7E5DF02122E
:101A43000EE7618703120EE7978703120EE7B3874A
:101A530003120EE7F58703120EE7058803120EE75C
:101A63000F8803120EE776E902120EE7A8E90212C5
:101A73000EE71CEA02120EE736EB02120EE702EC47
:101A830002120EE7609902120EE7DC9A02120EE7C9
:101A9300359C02120EE7739C02120EE7519E02124E
:101AA3000EE7BC9E02120EE79DEF01120EE7F2EF66
:101AB30001120EE7AAF001120EE745F101120EE73B
:101AC3008FF101120EE7A3F101120EE701F40112E7
:101AD3000EE77CF401120EE7A6F401120EE735F6C9
:101AE30001120EE750F601120EE79FF601120EE700
:101AF300B5F601120EE7C2F601120EE7F6F6011271
:101B03000EE70CF701120EE7C2F701120EE71CF8FD
:101B130001120EE76AF801120EE774F901120EE7DB
:101B2300F3FB01120EE78DFC01120EE7CFFC01124D
:101B33000EE764FD01120EE781FD01120EE784FD3D
:101B430001120EE787FD01120EE7FAFD01120EE7FF
:101B530015FE01120EE741FE01120EE77CFE011293
:101B63000EE77FFE01120EE7E98903120EE7F589FE
:101B730003120EE72F8A03120EE7008002120EE70C
:101B83002B8002120EE7048102120EE789810212F2
:101B93000EE7F28102120EE73E8202120EE7BD82C9
:101BA30002120EE74F8302120EE7DB8302120EE7E7
:101BB3001D8402120EE7668802120EE7E6890212FE
:101BC3000EE73D8B02120EE7C98B02120EE720A52A
:101BD30002120EE7DAA502120EE74CA602120EE776
:101BE300E8A602120EE758A702120EE78CA802120B
:101BF3000EE768A902120EE7D9A902120EE756AB47
:101C030002120EE718AC02120EE72FAD02120EE716
:101C1300CEAD02120EE78BAE02120EE73DEC0212BE
:101C23000EE791EC02120EE7E9EC02120EE734ED37
:101C330002120EE796ED02120EE72FEE02120EE7E6
:101C430097EE02120EE7A3EE02120EE71C7E0012BD
:101C53000EE74D7E00120EE7077F00120EE76D7F41
:101C630000120EE7F5F802120EE7968603120EE74E
:101C7300A78603120EE7478703120EE7C0FD021281
:101C83000EE7CEFD02120EE7EBFF01120EE7C78847
:101C930003120EE7D78803120EE7EF8803120EE74D
:101CA3005C8903120EE7C18403120EE74685031213
:101CB3000EE7AA8503120EE734FC02120EE756FC68
:101CC30002120EE7BCFC02120EE7DCFC02120EE766
:101CD30022FD02120EE77DFD02120EE7B4FD021291
:101CE3000EE7B7FD02120EE7B8FE01120EE7CDFEB6
:101CF30001120EE741FF01120EE75BFF01120EE72F
:101D03006EFF01120EE77CFF01120EE796FF011230
:101D13000EE7B6FF01120EE778D802120EE786D857
:101D230002120EE700D902120EE7E4D902120EE7FF
:101D33009DDB02120EE702DC02120EE741DC021207
:101D43000EE7F87F00120EE785E602120EE7A7E61C
:101D530002120EE7EDE802120EE773E902120EE734
:101D630081FA02120EE78DFA02120EE7ABFA0212A3
:101D73000EE7BCFA02120EE7DAFA02120EE701FBD3
:101D830002120EE724FB02120EE75CFB02120EE7BF
:101D930075FB02120EE7B4FB02120EE709CF021223
:101DA3000EE75ECF02120EE75AD102120EE78CD174
:101DB30002120EE7AED102120EE7C7D102120EE7EE
:101DC300E0D102120EE7EAD202120EE785D3021225
:101DD3000EE7008003120EE7248003120EE73D8016
:101DE30003120EE7708003120EE7A18003120EE7C1
:101DF300CF8003120EE7D98003120EE73B81031253
:101E03000EE74A8103120EE7548103120EE7618144
:101E130003120EE7DEEE02120EE704EF02120EE7E4
:101E230041EF02120EE750EF02120EE76FEF0212BC
:101E33000EE7D7EF02120EE7E0EF02120EE73FF0D4
:101E430002120EE763F002120EE722F102120EE70E
:101E53002FF102120EE740F102120EE7498B031233
:101E63000EE7668B03120EE730CA02120EE788CB29
:101E730002120EE795CB02120EE7A8CB02120EE771
:101E8300C7CB02120EE7DDCB02120EE7F1CB021233
:101E93000EE766CC02120EE7CBCC02120EE753CD4F
:101EA30002120EE7DCCD02120EE7B1CE02120EE7EC
:101EB300C1CE02120EE7D0CE02120EE72E88031215
:101EC3000EE7528803120EE77A8803120EE7A28800
:101ED30003120EE7EEF302120EE715F402120EE7F9
:101EE30036F402120EE79BF402120EE76EF10212B1
:101EF3000EE787F102120EE793F102120EE7A7F144
:101F030002120EE7C5F102120EE7CFF102120EE73D
:101F1300D9F102120EE7ECF102120EE74EF20212B1
:101F23000EE785F202120EE7B4F202120EE702F395
:101F330002120EE751F302120EE76CF302120EE7E0
:101F430076F302120EE79DF302120EE7E3F3021299
:101F53000EE7628903120EE77E8903120EE7DD891D
:101F630003120EE7B28B03120EE720BA02120EE73A
:101F73004ABA02120EE766BA02120EE779BA0212E1
:101F83000EE78FBA02120EE7ECBA02120EE71FBB7E
:101F930002120EE760BF02120EE786C002120EE7BE
:101FA300B9C002120EE705C102120EE747C20212C0
:101FB3000EE76FC202120EE784C202120EE794C24A
:101FC30002120EE7D8C202120EE739C302120EE75D
:101FD30049C302120EE76B8103120EE786810312D7
:101FE3000EE7AF8103120EE7C98103120EE7EE81FC
:101FF30003120EE70D8203120EE7258203120EE78A
:10200300538203120EE76D8203120EE749FF021299
:102013000EE78DFF02120EE7F2DF02120EE7F9DF81
:1020230002120EE705E102120EE735E102120EE796
:102033005BE102120EE77EE102120EE7A0E102125B
:102043000EE7DAE102120EE740E202120EE779E24E
:1020530002120EE7C5E202120EE7F2E202120EE7E7
:1020630012E302120EE7B18303120EE7C3830312D6
:102073000EE7A58403120EE7BE8403120EE79E82C9
:1020830003120EE7108303120EE74E8303120EE7CB
:102093008F8303120EE772E302120EE78EE302123E
:1020A3000EE7DDE302120EE7F9E302120EE72AE47C
:1020B30002120EE73AE402120EE726E502120EE7D9
:1020C30030E502120EE73DE502120EE74DE602127D
:1020D3000EE761E602120EE76AE602120EE7C4D3C8
:1020E30002120EE709D802120EE70ED802120EE70B
:1020F300858B03120EE756AA01120EE7C9A9011236
:102103000EE7BCA901120EE7CAA601120EE71CA432
:1021130001120EE7F0A201120EE744A201120EE72C
:1021230095A001120EE7509E01120EE7D79D0112F2
:102133000EE7BB5D00120EE7A95D00120EE77E9D60
:1021430001120EE7129D01120EE7DAB201120EE739
:10215300BCB201120EE7E99C01120EE7DC9A0112F0
:102163000EE7A89A01120EE7759A01120EE7599A23
:1021730001120EE77F9901120EE7379901120EE75C
:102183006C9701120EE7EC9601120EE7E996011225
:102193000EE7F09501120EE7BE9501120EE7FB94D0
:1021A30001120EE7269301120EE7B79201120EE712
:1021B300899201120EE7869201120EE773920112C1
:1021C3000EE70B9201120EE7FA9101120EE7DB9074
:1021D30001120EE771B101120EE7CEB001120EE744
:1021E3007BAF01120EE72CAD01120EE735AC0112E5
:1021F3000EE7A59001120EE7689001120EE7099011
:1022030001120EE7D88F01120EE719AC01120EE787
:10221300938C01120EE7848B01120EE7138B0112CC
:102223000EE7D88A01120EE7A9AB01120EE7918AD5
:1022330003120EE7A38A01120EE7978A01120EE733
:10224300F78901120EE73E8901120EE71187011289
:102253000EE79D8401120EE75B8401120EE72683CD
:1022630001120EE7DB8201120EE70D8201120EE767
:10227300648101120EE73A8101120EE760AB01128D
:102283000EE7008101120EE78EDD0100000080FBE6
:10229300E47300013636010100010201000103016C
:1022A30000010401060605020000070100340801CD
:1022B300000F090401010D0100FF0E0800001702C1
:1022C3000000190100FF1A0100011B0100FE1C019F
:1022D30000081D0200001F0100012001000121026E
:1022E30000002301000F2402000026010001270142
:1022F3000008280200FF2A0100072B0102402C01DD
:1023030000002D0100012E0100012F0100FF30010B
:102313000B1C310800003A0100083B01000F2F019C
:1023230000000101710101010101110101013101EC
:10233300010101018001100161013B0014006301EF
:1023430073017201620143010001130106013D01A2
:102353003500040112010001000100010001040124
:102363000401330133013C01440132013600000111
:1023730000016501000135008101000105018201B1
:10238300830100010103710301030103010301033D
:1023930001032203020301031003000300030003EC
:1023A30000030003000300034203000324030603A6
:1023B300000300030403120325032303250323035C
:1023C30004030403000300030003440300030003A6
:1023D3002303000365032100350381030003050381
:1023E30000030003000303007100300160001100CB
:1023F30070003102200350048000100061000000CF
:1024030014006300730072006200430000001300B5
:10241300060000000000040012000000000000009D
:10242300000004000400370037003C0244000000B1
:10243300000000000000650000003500810000007E
:1024430005000000830000000302710230016002F6
:1024530011027002010202020202800210026102F2
:102463003A004100630273027202620243020002F5
:1024730013023800000200020402120200020002EA
:102483000002000204020402370037003C02440247
:1024930000023900000200026502000235028102D7
:1024A30000020502820283020002360001000600D8
:1024B30000000F000000000000000000000000000A
:1024C30003FFFF00000403FFFF0000FFFF0FF40101
:1024D3000005C4040320000100140B0000000000E9
:1024E30000000003010F281658162E163416521634
:1024F300461640165E1664166A1676163A162216A5
:102503001C160100E61B0200921B0300981B04002B
:102513009E1B0500A41B0600B01BFFFF00000AF46E
:102523001302BE1305D01307C4130CA0130DB2136B
:10253300FF000000160F00000B150B020002220F14
:102543003200000618172A173017F2153617EC1544
:10255300F815140AE5D5C5B5A5A5958585756584D2
:1025630017A217A8178A17961790170C0E020B04B9
:102573000B0A0708000F303017181921301B1D1FD5
:1025830030000119161816161523030000034948D5
:10259300424D1817250502303016181920231A1C2E
:1025A3001E3000383C3E363B3B352B432C6C173CEE
:1025B3001742174E1748174C1670169C177C168235
:1025C30016020402010101010902000000000000DB
:1025D30000BE040A552521000E000400FA06E80394
:1025E300280008040C0A03090CFF1E1E080421100E
:1025F3000574F712097DE99003B0F0900365E4F0E8
:102603001220669003B5E4F0A3F09003B1F0A3F0B9
:1026130012152C12206C900334E4F0A3F09025F1F2
:1026230093FA79021220CC02528A74F212097DEADB
:10263300FEEBFF548060699003B0E0F91218F88A4A
:10264300088B09EA4509604F7C0080010CEC75F0AA
:1026530003A4F8A9F0742128F582742539F583E4DD
:1026630093F4602CE493F88508828B83E06870DC34
:10267300AA08EC75F003A4F8742228F582742539AE
:10268300F583E493C0E0740193F583D0821222931F
:10269300AA08AB091218ECEEFAEF6480FB0227FAE2
:1026A300EF5420601D12144E8A088B09EA45096015
:1026B3000A1213B2AA08AB091218ECEEFAEF64205F
:1026C30080DAEEA2E0501A90036AE0640F700B798F
:1026D3000012137CE960031227FDEE6401FAEF8018
:1026E300BB542070030227C8750C00123CCF8B0922
:1026F300EA450970107C027D007A207B009003B0CC
:10270300E0F9121A1E7C0079047A007B0012142A65
:102713008A088B098018850882850983A3A3A3A34C
:10272300A3A3A3A3A37401F0850A08850B09E508F5
:102733004509606D7C007904AA08AB0912142A8A42
:102743000A8B0B750C01E5082404F8E509123A73AA
:1027530024FFF0A3E034FF125D6670CC8508828508
:102763000983A3A3A3A3A3A3A3A3A3A3E0640170C7
:10277300A5850882850983A3A3A3A3A3A3E0540487
:102783007094850882850983A3A3A3A3A3A3A3A30A
:10279300A37406F07AB785088285098312292980F4
:1027A300871213FA7C0079017A007B0012142A8BBA
:1027B30009EA45097009E50C70057A20124C29EEE7
:1027C30064200226E0EF5402600B121526EEFAEFA6
:1027D300640202269FEF54046019124DC0124CE0AC
:1027E30079019003631250441212C2EEFAEF6404AB
:1027F30002269F7A007B00022A30900BC11230C759
:1028030012139422C082C08374EA120FB385188214
:10281300851983AA82AB83794B1220A27408121103
:10282300F57402F074091211F5AA82AB8379501280
:1028330020A274131211F5E41252131220C074165D
:102843000241ED74F712097D74E1120FB3EAFEEB56
:10285300FFEE4F6033851882851983AC82AD8312F6
:10286300147274061211F5E0601E74171211F5E06C
:10287300FD74011211F5E0FCEEFAEFFB7900122171
:1028830050E9600479A48002790002528574F6123B
:10289300097DEAFEEBFF8E828F83A3A3A3A3A3A3E9
:1028A300E05440601B1257021229F760067AFF7B3F
:1028B300FF801A8E828F83123E79FAA3E0FB800396
:1028C30012149674FE6A700374FF6B604112570210
:1028D300124C6D1214EAE98E828F8360061229224C
:1028E300E480051229227401F07C827D138E828F8D
:1028F300831250441220C6E9F5087015EE4F6009A3
:102903007901EEFAEFFB121406A908024C9E750832
:10291300CDAA088E828F83122929E960DF80EAE03D
:10292300240D12434822E0240C124348E0F9121309
:102933008E2274F612097DE9FEEAFF7A0F7B0012FC
:1029430018E6EA4B60198A828B83740CF0EEA3A31A
:10295300F0EF8A828B83A3F0124CC97900802FEEAB
:10296300F91214308A088B09A808A909E849601CE0
:1029730088828983A3A3A3A3A3A3A3A3A3740612F7
:10298300598DE0F9121346EEF912140C7910024C2A
:102993009EC082C08390036AE0640F7014EA4B60A8
:1029A30010900365E064086005E064047003122975
:1029B300B7024217EAFCEBFD7A017B009003B0E01B
:1029C300F9121A1822C082C0837900EA241DF58205
:1029D300EB123E7624FD600B14600824FD60042492
:1029E300FD7001090242178E828F83A3A3A3A3A3C1
:1029F300A3A3A3A31229FB22123EBEFB1214EAE9EE
:102A0300228E828F83A3A3A3A3A3A3A3A3A3122989
:102A1300FB6402228E828F83A3A3A3A3A3A3A3A3F6
:102A2300A312420E900356E06822120F4E7F060255
:102A33000CE774F412097D74FD120FB38A088B0935
:102A43008A828B83A3A3E0F91214308A0A8B0BAE1C
:102A53000AAF0BEE4F7003022B3C85088285098376
:102A6300A3E064F16030850882850983A3E064CD27
:102A73006024850882850983A3E0641A60188508A9
:102A830082850983A3E064E9600C85088285098354
:102A9300A3E064E170087900121406E9706C8508FC
:102AA30082850983A3E0C0E074021211F5D0E0121D
:102AB30041F2EEF0A3EF12351D851882851983AA22
:102AC30082AB8370051212AA80031214D27402120D
:102AD30011F5E064E970338E828F83122B48750AF7
:102AE30001780A120F3F750AE9780A120F3FE508C9
:102AF300240CF582E50912300F1234FAFCA3E0FD31
:102B03008A828B83123514120F4E8E828F83A3A376
:102B1300A3A3A3A3A3A3A3E0640270108E828F8355
:102B2300A3A3A3A3A3A3A3A3A37406F085088285E9
:102B33000983A3A3E0F912140C1213FA900BC51224
:102B430028000230CCE0F8A3E0F9E8FAE9FB2274AC
:102B5300F412097DEAFEEBFF7508008E828F83A3D2
:102B6300A3A3A3A3E060427508088E828F83A3A367
:102B7300A3A3A3A3A3A31241218B0BEA450B6010CC
:102B830075082C8E828F83A3A3A3A3A3E0D2E0F0C6
:102B93008E828F83A3A3A3A3A3E0540364016003E2
:102BA300022C3B430811022C3BEE24181230D9604F
:102BB30033EE241A1230D9700F122A177003A3E0D0
:102BC3006970757508228070EE241BF582EF122C54
:102BD30040241AF582EF123525EE241912573612C6
:102BE30013348054122A047003750801122A1770D3
:102BF30003A3E0697006E508D2E1F508E50860156E
:102C03008E828F83A3A3E07006E508D2E58004E5F6
:102C130008D2E6F5081229EA64017006E508D2E055
:102C2300F5088E828F83A3A3E0600D122C4E6401FE
:102C33006006E508C2E0F508A9080230D1123E6437
:102C4300122C4722E0FCA3E0FDEE22123E5E123E70
:102C530096F91214D8E922C082C08379018A828B43
:102C630083A3A3E0C394024001198A828B83A3A3A5
:102C7300A3A3E0C39402400279008A828B83A3A3B7
:102C8300A3A3A3A3A3A3A3E064F87003A3E0F46046
:102C9300458A828B83A3A3A3A3A3A3A3A3A3E064D3
:102CA300F97003A3E0F4602E8A828B83A3A3A3A30A
:102CB300A3A3A3A3A3E064FA7003A3E0F460178AB9
:102CC300828B83A3A3A3A3A3A3A3A3A3E064FB7007
:102CD30003A3E0F4700279008A828B83A3A3A3E0A9
:102CE300F8900353E0686002790002421774F0120F
:102CF300097D74DE120FB3EAFEEBFF8E828F83A38E
:102D0300A3A3A3E0600E900BC3124C956006900B37
:102D1300C312280074031211F5AC82AD838E828F27
:102D230083A3A3A3124D17125550E9600F74031226
:102D330011F5AA82AB831213ACE970087901122052
:102D430078023004EE241B123E6974101211F5123E
:102D53004CE074091211F5E06021741A1211F5E0C8
:102D6300FD74041211F5E0FC8E828F8312504279B8
:102D730001122150E96004790280C374031211F532
:102D8300AA82AB831213A6E9F50A74091211F5E0BE
:102D9300702A90034DE060247422550A6422601C5B
:102DA3007442550A644270CF74201211F512302216
:102DB300600A74201211F512301B70BBE9A2E650B1
:102DC3004174031211F5AA82AB8312139AE97003BB
:102DD300022D3F74201211F5123E796403700F74B3
:102DE300201211F5A3124C87A3E0640D6014740341
:102DF3001211F5AA82AB831214FCE9640170030279
:102E03003004EE242C12300C1233307003A3E0692B
:102E1300701C7508007808120F3F7808120F3FEEF8
:102E2300242E125736123028123514120F4E7409FD
:102E33001211F5E07003022EE112302812504412F1
:102E430015508A088B09EA45097003022F7E740422
:102E53001211F5E0F88E828F83A3A3E028F8A3E094
:102E63003400F9E8240D1230138A828B83A3A3A3C1
:102E7300E068601CE88A828B83A3A3A3F090808B15
:102E83001211CA850882850983A3A3A3A31211BEC5
:102E93007904E91211F512552D2AF8A3E0340088BC
:102EA30082F583A3AA82AB831218DA8A0C8B0D8C6A
:102EB3000E8D0F850882850983A3A3A3A3780C1223
:102EC3000EBF40030230049080C7780C1210A68511
:102ED3000882850983A3A3A3A3780C121166900328
:102EE30065E064046008E064096003023004E50AF5
:102EF300A2E54003022FBCEE242E1230D98518829E
:102F0300851983F0EE242F1230D9C0E07401121119
:102F1300F5D0E0F0EE24301230D9C0E07402121183
:102F2300F5D0E0F074141211F5E064017027740E0B
:102F33001211F5123E6FEE24121230D9687003A3FA
:102F4300E0697011740C1211F5122A1170077414D0
:102F53001211F5E4F0EE242412300C120DB27404B5
:102F63001211F5AC82AD8374071211F5AA82AB83FB
:102F73001212B07404120F4E0230049003AAE064DC
:102F8300016003022EE174201211F5123022700940
:102F9300E50AA2E65003022EE174101211F5E0F4E3
:102FA3007003A3E0F4605AEEFCEFFD74031211F515
:102FB300AA82AB831213B88048A2E650447420124D
:102FC30011F5125053701A741A1211F5E06402705D
:102FD3003074031211F5AA82AB8379001214C680F0
:102FE3002074201211F512301B7016741A1211F589
:102FF300E06404700C74031211F5AA82AB831214FB
:10300300C074220253FFEE240BF582EF123E6422BA
:10301300F582E9124CF9F822125714E064072212E0
:103023003E96640622EE242A123E61122C47241295
:10303300123E612274F412097DEAFEEBFF8C088DC7
:10304300099005DEE0600F122A177003A3E0697090
:1030530005121322804F79001250371213528A82BD
:103063008B83E58245836035A3A3A3A3A3A3E05485
:1030730018602AE508241BF582E50912300F120DAA
:10308300B612370D12300F120DB6EE241812573642
:103093001230AA1213647404120F4E8008790012BE
:1030A30030AA12132880278E828F83A3A3A3A3A3FE
:1030B300A3A3A3A3122C47240BF582EF1230C32240
:1030C3003400F583123EBEFB227403120F4E7F04BD
:1030D300020CE7EE2417F582EF124CF92274F71273
:1030E300097D74F7120FB3EAFEEBFF900365E0640A
:1030F30003600DE064016008E0640960030231AA23
:103103008E828F83A3E0707E7C007D007A027B0039
:10311300122072EE2402FAEF123A7A123E6F9003F3
:1031230056124CE079531220A879001231AFE064B3
:103133000960031235428518828519837401124C84
:10314300B69003657404F074011211F5AA82AB837F
:10315300794A1220A274011211F5AC82AD837A5B15
:103163007B031220909003561255467A0312354C76
:10317300900350E0A2E35004D2F08002C2F0124C5C
:10318300A31227FD801E8E828F83A3AE82AF83FCA2
:103193007D007A037B101220728E828F83E0F912F6
:1031A30031AFE4F01213E274090252879003631201
:1031B30030C71212C290036522C082C083900334C9
:1031C300124C95701F900365E014600924FC600A9B
:1031D30014600C800F90033C8032900338802D9054
:1031E300033A8028E84960089003351234F4700CE0
:1031F3008A828B83A3E0F91212B6801B90033512E7
:1032030037A9700512151A800E9003D2124C9560DF
:1032130006124C8712229302421774F412097D742A
:10322300FB120FB38A088B097A0F7B001218E68A08
:103233000A8B0BAE0AAF0BEE4F70030233248E8260
:103243008F8312521179501220A285088285098337
:10325300A3E0600302330C900363E0F47003A3E084
:10326300F46034900363E064FE7003A3E0F460272A
:103273008518828519831233307003A3E0696017C0
:10328300850882850983A374EA12352A7A637B034E
:1032930079501220A880728518828519831256F5F9
:1032A300124CE07A567B0379531220A290035612F4
:1032B3004D11124CE07A597B03794B1220A27A58B4
:1032C3007B0379E11220A290036AE0C3940F50219B
:1032D300900358E0C0E074021211F5D0E0F07404DA
:1032E3001211F57401F0041211F5AA82AB831220B6
:1032F300BA750A00780A120F3F780A120F3F900B33
:10330300EBE0F912350B120F4E8508828509831203
:103313003329A3F09003657403F0EEFAEFFB124C2C
:10332300C974050230CEA3E08E828F83221256F930
:10333300E0682212434F2274F512097D74D8120FEC
:10334300B38A088B098A828B83A3A3A3123E9B743F
:10335300151211F5AC82AD838A828B83A3A3A3A339
:10336300A3A3A3A31234FAFAA3E0FB1213E8741580
:103373001211F5E0706B850882850983A3A3A3A3CB
:10338300A3A3A3A3E0C3940B40578E828F83A3A36D
:10339300A3A3A3A3A3A3E064027046EE240B1230FD
:1033A300D9F4703D900365E06402603AE06406601E
:1033B30035900334124C9560051234F4604F90033A
:1033C30065E064086005E06404701674171211F573
:1033D300E0F9741C1211F5AC82AD8312503712134D
:1033E300EE7428025C13900334124C95701F750819
:1033F300007808120F3F7808120F3FEE24101230A6
:103403000C12574E123B62123514120F4E8E828FDE
:1034130083124FB3123A8C123E6F74021211F512DB
:103423004CE0EE240D1230D9C0E074041211F5D033
:10343300E012351DF508A3E0F509740F78081211A1
:103443008474051211F5E508F074191211F5E0C042
:10345300E074061211F5D0E0F0741B1211F5E0C010
:10346300E074071211F5D0E0F074161211F5E0C004
:10347300E074091211F5D0E0F074171211F5E0C0F1
:10348300E074081211F5D0E0F0EE24101230D9C028
:10349300E0740A1211F5D0E0F0741A1211F5E0C0CD
:1034A300E0740B1211F5D0E0F074271211F5E0C0AF
:1034B300E0740C1211F5D0E0F0741C1211F5A9821E
:1034C300AA8389088A09750A007808120F377C08CD
:1034D3007D0074101211F5AA82AB83124844120FB7
:1034E3004E851882851983AA82AB831212BC0233DC
:1034F300E41237AF640122E0F98A828B83A3A3A38A
:10350300A3A3A3A3A3A3E02290036312554A9003AA
:10351300591230C71214A8740222F0EE240B124C75
:10352300F622124CF9FA22F07A567B0379531235BC
:1035330035221220A87A597B03794B1220A82290B6
:1035430003631230C712154A227B001220729003C4
:103553005912554A7A047B0012207222F0125759ED
:103563002274F212097D74F8120FB3EAFEEBFF8C9A
:103573000A8D0B890C851882851983AC82AD8375FE
:10358300838075824D7408120E7FF50DEEFCEFFDFE
:10359300851882851983AA82AB83124F1470037531
:1035A3000D019003B1803BEEFCEFFDE508240BFA1F
:1035B300E5093400124F13601E850882850983A331
:1035C300A3E0650C7011850882850983E0650A70A4
:1035D30004A3E0650B6038E5082414F582E50912BD
:1035E300300F123A84E50845096024E50DA2E04056
:1035F300B6850882850983E0650A7004A3E0650B3C
:1036030070D5850882850983A3A3E0650C70C8AAD9
:1036130008AB097408022A2DC082C0839003B1024B
:10362300421474F712097D9003B1123EBE8012EA70
:103633002414F582EB12300F123E9B121964EEFA3A
:10364300EFFBEA4B70E99003B1E4F0A3F002528A76
:103653007F07020CE774F112097DEAFEEBFF890A8A
:103663008C088D098E828F83E08C828D8312412B8F
:10367300AE82AF83E0124904124875C412490412A2
:103683003716E054038C828D83124873A2E2E4332D
:103693008C828D83124872131313541F1249041220
:1036A3004871A2E7E4338C828D83A3A3A3A31237CB
:1036B300168E0C8F0D750E00780C120F377C087D5B
:1036C30000E50824071254B9120F4E1255248E0C2C
:1036D3008F0D780C120F377C037D00E508240F1241
:1036E30054B9120F4EE50AC3940F40148E828F8390
:1036F300A3A3A3E0C0E012370D12300FD0E0800681
:1037030012370D125981F0023653E5082412F5825F
:10371300E50922A3A312412F0EAF832274F41209E9
:103723007D74F9120FB3EAFEEBFF8908900334129C
:103733004C95600E1237A97009EEFAEFFB121514BF
:10374300805F900363E06E7003A3E06F70537401B6
:10375300650860097A777B03124F1470447A007B03
:1037630002123CD38B0BEA450B70369003661211A1
:10377300CA8518828519831211BE90036CE0C0E0DC
:1037830074041211F5D0E0F074051211F57401F010
:1037930074061211F5125211121286E9609B12126D
:1037A3008C74070230CE1237AF640222125715A36E
:1037B300A3A3A3A3A3E02274F512097D8A088B09AE
:1037C3008A828B83A3AE82AF83E0F91212DA8E82F0
:1037D3008F83E064EB600C850882850983A3E06432
:1037E300E17009850882850983A3E4F01227FD753A
:1037F3000A01780A120F3F850882850983A3E0F541
:10380300087808120F3F790012350B120F4E12136E
:10381300FA025C16EAF0A3EBF002421774F61209FF
:103823007D9003B4E0701B7C0079017A007B001269
:10383300142AEA4B600C8A828B83124C9560031224
:103843001388024C9EC082C083123CBB401079FF98
:10385300121424E9F89025EBE493C39850047901FA
:103863008002790002421774F012097D8A088B09DD
:10387300890B750C008A828B83A3A3A3A3A3A3A3A1
:10388300A3E0F91214308A0E8B0FAE0EAF0F750A38
:1038930001EE4F6003023948850882850983A3A39B
:1038A300A3A3A3A3125546850882850983A3A3A3D3
:1038B300A3A3A3A31246441250441214188A0C8BD8
:1038C3000DAE0CAF0DEE4F7003023A6B8E828F83F9
:1038D300A3A3A3A3E4F0A3F0E508240B123A77E033
:1038E300C0E0123009D0E0F01214F0EE240CF5829F
:1038F300EF124C69E508240EF582E509123E6CEEE1
:10390300240EF582EF124CDD750C01EE2406F8EF60
:10391300123A73547FF0A3E054FC1257ABE0540403
:1039230060030239CE900BC912463574077808122A
:10393300106D8E828F83A3A3A3A3A3A3E04508F0F6
:10394300A3E04509F08E828F83A3A3A3A3123A8237
:1039530074077808121184E5085407F508E50B602D
:103963007A8E828F83A3A3A3A3A3A3A3A3A3740287
:10397300124876240D124344E0A2E2500B90035107
:10398300124D11A3A3124CE0E5087003023A40EE76
:103993002406F8EF3400F9E8FAE9FB8A828B83E026
:1039A300547FFCA3E054FCFDE50824FFF508E43450
:1039B300FFF5097407780812106DEC4508F8ED451A
:1039C30009F98A828B83124CE080728E828F83A3E3
:1039D300A3A3A3A3A3E04480023947E508700575B8
:1039E3000A0080598E828F83A3A3A3A3A3A3E054C9
:1039F3002060121218E0EA547F245F8E828F83A323
:103A0300A3A3A380238E828F83A3A3A3A3A3A3E053
:103A13005410600A1218E0EA540F240A80DD8E82E3
:103A23008F83A3A3A3A37401F0A3E4123A8C7404B9
:103A3300123CCA8B09EA45097003124C5CE50CA2DF
:103A4300E050288E828F83A3A3A3A3125277F9EEAB
:103A5300FAEFFB12141EE96012124C8B6003123E44
:103A630054EEFAEFFB121964750A00A90A02540214
:103A7300124DD422FAE5093400FB8A828B8322A3F8
:103A8300A3E0F508A3E0F50922123A90221254D5D7
:103A9300A3A3A3A3A32274F412097D74F7120FB393
:103AA3007E00121430EA4B7003023B5B8A828B83E5
:103AB300A3A3A3A3A3A3A3A3A3E064066003023B5E
:103AC3005B8A828B83A3A3A3A3A3A3A3E0FF8A821E
:103AD3008B83124357E0C0E074081211F5D0E01253
:103AE3003E8F124F1A124CE0121442EF54086066D4
:103AF3008518828519831255467A007B00121412A9
:103B03008B0BEA450B704F900363123F7F1220D259
:103B13007C007D007A007B0080288E828F83123E9A
:103B230079F47003A3E0F4602D900363123B6212F7
:103B33005044121DA2E9641A601C7C007D00EEFA59
:103B4300EFFB1214128A0A8B0BAE0AAF0BEE4F7007
:103B5300C979001220D87E01EEF974090230CE1221
:103B63003B6622E0FCA3E0FD8E828F8322C082C0ED
:103B730083EA4B70059003B580068A828B83A3A3E7
:103B8300123D7F60258A828B83A3A3A3A3A3A3A350
:103B9300E0540860E5EC4D60158A828B83123E7910
:103BA3006C7003A3E06D70D280047A007B00024244
:103BB3001774F212097DEAFEEBFF890A8C088D095E
:103BC3007A107B0012195EEA4B603F8A828B83A3D3
:103BD300A3A3A3A3A3A3A3A3E4123E7DA3E50A1275
:103BE300571BA3123C178A828B83A3A3A3A3E4F0DE
:103BF300A3123E89A3F01255AFEA240CF582EB120F
:103C0300411B123C10A3A3F0A3F0022A30A3F08AB5
:103C1300828B8322A3A3E508F0A3E509F02274F4C1
:103C230012097DEAFEEBFF89088C0A8D0BEE4F60CB
:103C3300557401650870147901121424E9F890256C
:103C4300EFE493C398500F7911806A740465087088
:103C53002F123CBB40F18E828F83A3A3A3A3A3A304
:103C6300A3A3A3E50812412BA3125CA08E828F832A
:103C7300A3A3E4F0A3F09003B5124C956021800D4B
:103C83007402650860D079C1802BE0F8A3124D0A55
:103C9300A3A3123D7F88828983A3A370ED80039041
:103CA30003B5EEF0A3EF123CCA8B0BEA450B70038E
:103CB300124C5C79000230D17904121424E9F89093
:103CC30025F3E493C39822F0123CCF227A207B00A1
:103CD3009003B0E0F9121A2A22C082C083E9F8796E
:103CE300009003B5801D8A828B83A3A3A3A3A3A300
:103CF300A3A3A3E068600574FF687001098A828B3F
:103D030083A3A3123D7F70DE02421774F712097D6D
:103D1300EA4B70059003B580068A828B83A3A312B6
:103D23003D7F60248A828B83A3A3A3A3A3A3A3A31E
:103D3300A3E06970E4EC60148A828B83E0240D12A3
:103D43005537A2E240D380047A007B0002528AC036
:103D530082C0839003B580068A828B83A3A3123D1E
:103D63007F60128A828B83A3A3A3A3A3A3A3A3E04D
:103D73006970E580047A007B000242171230C7EABB
:103D83004B2274F212097D8A0A8B0B8C0C8D0D75F4
:103D93000800750900EA450B602E9003B580068E76
:103DA300828F83A3A3123DD2601EAC0CAD0DEEFA3D
:103DB300EFFB850A82850B83122293E9640170DF8E
:103DC300EEF8EFF988088909AA08AB09022A30E05E
:103DD300FEA3E0FFEE4F2274F712097D9003B512A4
:103DE3003E6F7C007D00800DE8FCE9FD88828983BD
:103DF300A3A3123E6FE8496030EA687002EB697072
:103E0300E79003B5125044E86A7002E96B8882892F
:103E130083A3A37008123E6F9003B58009123E6F0F
:103E23008C828D83A3A3124CE002528A74F7120989
:103E33007DEAFEEBFFEE4F601512143C123EA11219
:103E43004C8B6003123E54EEFAEFFB1219640252DC
:103E53008AEE240C123E61123EB622EE241DF58238
:103E6300EF3400F58322F582EF123E6412420E22F4
:103E7300F582EF123E64123E9622123E81221257C1
:103E830023A3A3A3A322123E81A3A322123C1112B4
:103E93003E962212570EE022E0FEA3E0FF228E821E
:103EA3008F83E0241C124348123EB68E828F831206
:103EB3003EB622123EBEFB12196422E0FAA3E022B0
:103EC300C082C083EAFCEBFDEC4D700479058044AD
:103ED300EC24FBF582ED34FF124C937007123F1A6A
:103EE300E0F460051218EC80E39003B0E0C0E01248
:103EF3003F1AD0E0F09025E8E493F97AB77B0312F8
:103F03001916E96401700B7A007B20124C6079006A
:103F130080027904024217EC24FFF582ED34FFF5A9
:103F2300832274F412097DA2AFE433F508C2AF9083
:103F330003B7123DD26038EE24FBF582EF34FF1253
:103F43004C937A007B209003B06005124C6380058C
:103F5300E0F9121922E4F50AF50B780A120F3BEE89
:103F6300FCEFFD7AB77B031219107402120F4EE5B2
:103F730008A2E092AFEEFAEFFB0230D112554A8568
:103F83001882851983AA82AB832274F212097D7485
:103F9300FC120FB3EAFEEBFF750AFE750BFF12145A
:103FA30000E960057911024110EE24151230D96041
:103FB30037900BDDE0C43354E0F8E0333354FC486E
:103FC300C0E0EE241512300CD0E012412B12412137
:103FD3008B09EA45096011750AFFEE240F1230D9E7
:103FE3004404124CEED2E0F08E828F831229F560E6
:103FF30006EE2412124118EE24131230D9701090D9
:1040030025EEE493C0E0EE241312300CD0E0F08EE2
:10401300828F83E0A2E750045403801CEE24141221
:1040230030D97015900342E0C0E0EE241412300C36
:10403300D0E0F0900342E004F0EE24111230D96492
:104043000170169005D5E0600D90034DE0700A8E67
:10405300828F83E070031241158E828F83E06401A7
:104063007013EE240B123E7364027009EE240F12D8
:1040730030D94440F0851882851983AC82AD83EE34
:10408300FAEFFB1214668A088B0974FE650A700343
:1040930074FFF470098E828F83A3A31254C5EA457B
:1040A3000960668E828F83E0C0E074011211F5D03F
:1040B300E0F074021211F51255B374011211F58573
:1040C300820C85830D780C120F3BEE240F12300CFB
:1040D300120DB6EE240E1230D9F50C780C120F3FE8
:1040E300900356120DB674071211F5E0F9AC0AAD40
:1040F3000B1214607407120F4EE9FE74106E700BEE
:10410300AA08AB0912196480027E10EEF974040246
:104113002A2DEE2411F582EF123E64E4F022A3125D
:1041230030C779FF1219762212412F22F08E828F27
:1041330083A322C082C08374DE120FB38A828B836F
:10414300A3A3A3A3123E6F740E1211F5E8F0A3E923
:10415300124205740C1211F51241FE240DF582EB87
:104163001230DCC0E0741A1211F5D0E0F0125412D0
:10417300EB123E6C74201211F51241FE2415F582E8
:10418300EB1230DCC0E074081211F5D0E0F0EA2441
:104193001CF582EB123E6C74121211F51241FE24CF
:1041A30011F582EB1230DCC0E074091211F5D0E096
:1041B3001241F274FFF074011211F574FFF07402EE
:1041C3001211F574FFF090808B120DB2740412116A
:1041D300F5AC82AD8374071211F5AA82AB83121278
:1041E300B07404120F4E79007422120F4E80251200
:1041F30041F622F085188285198322E8F0A3E9F0BD
:10420300EA22123C11A312420D22A3E0F8A3E0F923
:1042130022125044D083D082020EE474EC12097D42
:1042230074EE120FB38A128B13ECFEEDFF8909743F
:10423300261211F51254C574281211F5E0F5107405
:10424300291211F5124339742B1211F5E0F50EA35F
:10425300E0F50F7508107A1E7B0012195E740212C6
:1042630011F5124C6D74021211F5124C9570030284
:104273004332851882851983AA82AB837950124B06
:104283004812504474021211F5124357A3124C6D95
:1042930074101211F5125CA274021211F5E0240BD2
:1042A3001243447402F01211F51243577402F012D0
:1042B30011F51257061255B374021211F512505923
:1042C300E509F074021211F5E0240C124344E510E1
:1042D300F074021211F5124341E512F0A3E513F055
:1042E30074081211F5E50CF0A3E50DF0740A121130
:1042F300F5E510F0850E82850F83C082C083740DAF
:104303001211F5AC82AD83D083D0827403120E7F79
:10431300F974021211F5AA82AB83121406E964013F
:104323007005750800800874021211F5123E5AA92F
:104333000874120254DCE0F50CA3E0F50D22E0242E
:104343001C12434822F8A3E012434F223400F98899
:104353008289832212504CA3A3A3A3A32274EE1237
:10436300097DEAFEEBFF8C088D098E828F83A3748F
:1043730008124D29E060088E828F83A37410F01217
:1043830030D660098E828F83A3E02408F0EE2415D3
:104393001230D960088E828F83A3E004F08E828F5F
:1043A30083A3A3A3A3A3A3E060198E828F83A3A3F4
:1043B300A3A3A3A3A3E0C3332402F88E828F83A312
:1043C300E028F0EE24111230D96005750B0E80033E
:1043D300750B008E828F83A3C082C083EE240D12DF
:1043E30030D9D083D082F8E028250B8C828D83F0DE
:1043F300EE24111230D9600512485428F085088242
:10440300850983E0C39475400975080075090002A6
:104413004542E0FA7B001256617003024542EEFA10
:10442300EFFB12146CEA850882850983124C6EEE49
:104433002402F8EF12333612463C12457EF0EE2486
:10444300040808EF123336124A7EA312457EA3A353
:10445300F0EE2413124564F0EE2414124564A3F025
:10446300750A08EE24161230D96010EE241812557E
:1044730043E5082408125744750A101230D6601613
:10448300EE241A125543850A0CE508250C125744ED
:104493007408250AF50A8E828F83A3A3A3A3A3A37B
:1044A300E06059EE2407F510EF3400F51185108212
:1044B300F583E0C0E012454B12300FD0E012456E99
:1044C300E0C0E012454B12300FD0E012456EA3124C
:1044D3004557120F37851082851183E0C333FCE4FF
:1044E30033FD850A0CE508250C1254B9120F4E85CD
:1044F3001082851183E0C333250AF50AEE241512D1
:1045030030D9600BC0E012454B12300FD0E0F012EF
:104513003009124557120F37EE240D1230D9FC7DA6
:1045230000850B0A8E828F83A3E0F8E50828F8E55F
:10453300093400F9E8250AFAE91254BC120F4EAA0D
:1045430008AB097F0A020CE7850A0CE508250CF580
:1045530082E50922E0F50CA3E0F50D750E00780C59
:1045630022123E61124588A3A3A322F0050A8E827C
:104573008F83A3A3A3A3A3A3A3A322A3A31257AF8E
:10458300A312458822124A82A3A32274F612097D3C
:104593008A828B83E0FC90035312463574027808B9
:1045A30012106DEC4508FCAD09EA241212462F7473
:1045B30006780812106DEC4508FCED4509FDEA2468
:1045C30015F582EB1230DC6004780180027800E498
:1045D300C8F9ED49FDEA2411F582EB1230DCF50848
:1045E30088097409780812106DED4509FDEA24164F
:1045F30012462F740B780812106DED4509FDEA245D
:104603001712462F740C780812106DED4509FD8AB8
:10461300828B83A3A3A3A3A3A3124635740A7808AA
:1046230012106DECFAED4509FB024C9EF582EB127C
:104633003E64E0F50875090022E085088285098358
:1046430022A3E0F98508828509832274EE12097D8D
:104653008A0A8B0BECFEEDFF750F01E9C39408503A
:104663000579000248418E828F83E9F0124AA7E957
:104673006003750F00124A8B8E828F83124AD5EE28
:10468300125413EF124ACAC0E0EE241112300CD0B8
:10469300E0124AC2C0E0EE241212300CD0E0124104
:1046A3002B74081254CDA3A3A3E06015124A73EE32
:1046B3002413F582EF124CDD8E828F83A3E024084E
:1046C300F08E828F83A3A3A3A3A3A3A3A3E060215C
:1046D3008E828F83A3858208858309124AB6EE24CE
:1046E30015F582EF124CDD850882850983E02408E5
:1046F300F08E828F83A3A3A3A3A3E0601A8E828F7D
:1047030083A3858208858309124A9A8E828F83A3A5
:10471300A3A3A3A3124866EE2419124118EE241B87
:10472300124118A3124D21E070030247D5EE24195C
:10473300F8EF3400F98E828F83A38582088583097D
:10474300E0FAE50A2AF582E50B1230DC88828983D8
:10475300124866FAE50A2AF582E50B1230DCC0E05E
:10476300EE241A12300CD0E012486688828983E066
:104773006059F89025E7E493C398500575110C80B0
:1047830008EE24191230D9F5118E828F83A3E0F835
:10479300E50A28F50CE50B12484A120F37E511C359
:1047A30033FCE433FD7A907B0A124844120F4EEE39
:1047B300241B12300C7490F0A3740AF0E511C33378
:1047C300F8850882850983E0288006EE24181259AB
:1047D3007EF08E828F83A3E0F88E828F83E0C3986E
:1047E3005003024664A3E0FA8A08E50A2508F8E5BF
:1047F3000B3400F9EE241DF582EF124DE9124876D1
:10480300C39AC0E0EE241712300CD0E0124CE660DD
:104813002BEE2417F8EF3400F9880889098882F50C
:1048230083E024F2124DCA240EFAA3E03400FB887D
:10483300828983124C6D124854C398F0A90F024524
:10484300461218C87403223400F50D750E00780C57
:104853002290034EE0F912214AE9F885088285097E
:1048630083E022F0850882850983E004F022A3A374
:10487300A3A3A3F08E828F83E02274F412097D8AAE
:10488300088B09EA12490BF0EA1313543F12490447
:10489300A3A3A3F0EAC4131312490BA3A3F0EB12CF
:1048A30048FD1249157409780A1211841248FB1243
:1048B3004914740A780A121184E50A5401C0E0EC21
:1048C3002418F582ED12300FD0E012491A740B78D8
:1048D3000A1211841248FBA3124914740C780A12A9
:1048E30011841248FBA3A3A3A3A3A3A3A3F0740D52
:1048F3007808121184022C3BE50A54018C828D83C3
:1049030022540F8C828D832254038C828D83A3A324
:1049130022A3A3A3A3A3A3F08A0A8B0B22C082C062
:104923008379008A828B83A3A3A3A3A3A3E0900329
:104933004D600FE070228A828B83A3A3E070190974
:104943008016E060138A828B8312503B900356E0FB
:104953006A7003A3E06B70E702421774F012097DDB
:104963008A0A8B0B890C8C088D09124AA7124A8B71
:10497300850882850983124AD5E508125413E5098F
:10498300124ACAC0E0E5082411F582E50912300F86
:10499300D0E0124AC2C0E012370D12300FD0E0123D
:1049A3004DF17408124E0A6011124A73E50824137C
:1049B300124DE5124DF1E02408F085088285098344
:1049C300A3A3A3A3A3A3A3A3E060178508828509D8
:1049D30083A3124AB2E5082415124DE51248762442
:1049E30008F0850882850983A3A3A3A3A3E0601924
:1049F300850882850983A3AE82AF83124A9A85080C
:104A03008285098312487104F0AA08AB0912147E47
:104A1300E9F50D7056850882850983A3A3A3A3A393
:104A2300A3124A7E7014E0FA8A0EE50A250EF8E511
:104A33000B124CD2E50CC39A8021124AB2E8240E21
:104A4300F8E9124CD290034EE0F912214A8E828F7C
:104A530083E0F8E50CC39824F2C399C0E0E5082489
:104A630017F582E50912300FD0E0F0A90D025402C8
:104A7300E50A2408F8E50B3400F922124A8222E001
:104A8300850882850983A322850A82850B83A3A3D4
:104A9300124AEBE0F9EA22E0F8E50A28F582E50B91
:104AA300124CF9228A828B8312540712147822AE95
:104AB30082AF83E0F8E50A28F8E50B3400F9221207
:104AC3004AFEA3A3A3E022123E64E8124AF7A3A37B
:104AD300E022A3A3A3A3A3A3A3A3A3124AF7124A67
:104AE300EBA3A3E0F9EAF822E0FA850A82850B83B7
:104AF300A3A3A322F0A3E9124AFE22F0850A82852A
:104B03000B83A3A3A3A322C082C0837AC57B0379AB
:104B1300E21220A27AC57B03024217C082C08390AF
:104B23000356024214C082C08374FE120FB3851869
:104B330082851983AA82AB83794B124B4812504466
:104B430074020241ED1220A285188285198322C0C6
:104B530082C083794A1220A202421774F612097D99
:104B63009003CDE0FE04F0EEF91214308B09EA4510
:104B73000970EDEE60EAF9024C9E74F012097DEAC9
:104B8300FEEBFF8C088D09890A74101211F5E0F50C
:104B93000B74111211F5E0F50C121550EA4B70135A
:104BA300E50C7042A90AAC08AD09EEFAEFFB121549
:104BB30068806EE50A6021EA2402F582EB1230DC9C
:104BC300850A082508F8E4340013E813F070098A0D
:104BD300828B83A3A37401F0E50C6045E50B70069B
:104BE3008A828B83E4F07401650C7035E50B9003C6
:104BF300D47004E4F0802AE004F0900BCAE0F8904B
:104C030003D4E0C398401AE4F0900359E06E7003B4
:104C1300A3E06F700CEEFAEFFB79011212D4124C81
:104C2300270254027A017B009003B0E0F9121A24A0
:104C330022C082C08374016A7001EB70077A01128B
:104C43004C5E8012900BC1124C6DEA4B6005122929
:104C5300B78003124C270242177A207B009003B0DF
:104C6300E0F912191C223400F583EAF0A3EBF022D9
:104C7300C082C083900BC3023817C082C083900BDD
:104C8300C502381712571522EE240CF582EF3400B3
:104C9300F58312420EE84922120F4E7F02020CE7FF
:104CA300A2F0E433851882851983124CBF7952121E
:104CB30020A822124CBF79421220A822F0AA82AB6C
:104CC3008322AA08AB099003B0E0F91218F2223448
:104CD30000F9E508241DF582E509123E64E8F0A316
:104CE300E9F0221254D1A3A3E022A3F0EE2415127B
:104CF3004CF622F582EF3400F583E022124D0322B5
:104D03003400F583E0F8A3E0F98882898322E0F890
:104D1300124D1722A3E0F98E828F83A3A322F0EE14
:104D23002418123E6122F0EE2416123E612274F41E
:104D330012097DEAFEEBFF7A007B04124C2B124D25
:104D4300C0124CE09003657409F012148A8A088B30
:104D530009AC08AD09EE241312300C125044124F63
:104D630014640170487A0F124DB360418A828B83B9
:104D73007402124DCAFAA3E0FB8A828B83A3E0FC80
:104D83008A828B83A3A3E0FBEC850882850983A336
:104D9300A3124C6E8882898312504812463C124CEF
:104DA300EDFAA3E0FB794A1220A8124CC50230D1D8
:104DB3007B001218E68A088B09EA4509229003361C
:104DC30012420E900BC522F0EE241DF8EF124DD4C3
:104DD3002212434FE022124DDD223400F583740189
:104DE300F022F582E509123E64E8F0A3E922124DB0
:104DF300F522124DF922F0850882850983A3221238
:104E03004DF9A3A3A3A322124E02A3A3E02212529D
:104E13001B1214DE22EE2417F582EF124DDD12145D
:104E23008AEE241A123E61EAF0A3EBF02274F41224
:104E3300097D74F3120FB38908EAFEEBFF7C0D7D45
:104E4300007900851882851983AA82AB831218D44E
:104E5300EE241D12300C125706A3E0F8741F58609D
:104E63000A79011220787900024F0BE8A2E5500875
:104E7300740C1211F57401F0E8A2E75008740B12D8
:104E830011F57401F0E8A2E6740A50081211F574E2
:104E930001F080081211F5E064017005EE2413801F
:104EA30003EE241512554374021211F5AA82AB8343
:104EB300122090123009124F19124CE0740A121189
:104EC300F5E0640170331229EA703B1214968A0AE2
:104ED3008B0BA80AA90BEE240B1230D9687003A31D
:104EE300E069702212148AEAFCEBFD74021211F5D8
:104EF300AA82AB83124F14600D851882851983AA89
:104F030082AB831212CEA908740D0230CEEEFAEFF3
:104F1300FB12208AE922E0124F1E22F8A3E0F98552
:104F230018828519832274F612097D74F3120FB364
:104F33008A088B09ECFEEDFF7C0D7D007900851856
:104F430082851983AA82AB831258ABA3A3A3A3A31D
:104F5300A3A3A3A3124FB3124FBCF8A2E550087446
:104F63000B1211F57401F0E8A2E75008740A12114C
:104F7300F57401F0E8A2E6EE500424138002241530
:104F830012554374021211F5124FA5A3A3E0C0E01A
:104F9300740C1211F5D0E01252131212C8740D02E0
:104FA3004C9BAA82AB8312209085088285098322B9
:104FB300E0124F1EE8F0A3E922F0123E5E12570AF8
:104FC300A3E02274F712097D74E1120FB3EAFEEB3A
:104FD300FF8E828F83125048A3A3A3E0A2E0505117
:104FE3008E828F83122B4A8A828B83A3A3A3A3A3CC
:104FF300A3E054FE1250608A828B83125059E0F969
:105003008A828B83E0241CFAA3E0123A7A1250447A
:10501300121484E9701B741D1211F5125053701190
:10502300851882851983AC82AD83EEFAEFFB1214E7
:10503300CC0252858E828F83A3A3A3A3A3A3A3A38E
:10504300A31230C72212504C2212570EA3A3A3223D
:10505300123E96640422E0241B124348221241F6B6
:10506300AC82AD8322E9F87900740468600A740A9B
:10507300686005740368700109020EE474F612098E
:105083007D8A828B837420F0A3A37401F012127AB9
:105093008A088B09AE08AF09EE4F60108E828F83AA
:1050A3007401F09003A3E07003124E18EEFAEFFBC5
:1050B300024C9EC082C0839003B97401F0E9A2E35D
:1050C30050037403F0E9A2E15004E0D2E2F002429B
:1050D3001774F612097D79007C008A088B09780819
:1050E300120D2DF8FF0707510551055105510551C3
:1050F300FE5002510751FB500C80097C0480050CC3
:1051030080F67C089003B9E05C6003098003EC60DF
:105113000109024C9E74F612097D8A828B83E0702A
:1051230012A3124C95600C8A828B83125043122176
:10513300CE80047A007B00024C9E74F512097D74C4
:10514300F3120FB38A088B09ECFEEDFF750A12EA1E
:1051530045097005790002520C900356E06508700A
:1051630004A3E06509701412148AEAFCEBFD124FE4
:10517300107005750A018003750A00851882851968
:1051830083E4F0041211F5E508F0A3E509125213C4
:1051930012123EE9602774031211F5AA82AB83123F
:1051A3001220E964017016750A0174031211F5AC3B
:1051B30082AD83124F106021750A00801C74126542
:1051C3000A70169003A2E06402700EEEFCEFFDAAD3
:1051D30008AB09121256E970DFEEFCEFFDAA08AB2B
:1051E30009121556E9F8740A687005750A018017E3
:1051F30074A0687012EEFCEFFDAA08AB09121562E9
:10520300AA08AB09121574A90A740D025C1374027F
:105213001252172212521B221241F6AA82AB832288
:1052230074F712097DEAFEEBFF8E828F83A3A3A39B
:10523300A3A3A3A3A3E06015EE241512300C123030
:10524300B71214F6E964017004790180258E828F08
:1052530083A3A3A3A3A3A3A3E06015EE2413123097
:105263000C125277FAA3E0FB1214F6E9640160D939
:1052730079008013123B66A3A3A3A3A3A3A3A3A3B1
:10528300E022741F120F4E7F01020CE774F0120923
:105293007D74FD120FB38A088B09ECFEEDFF890BB9
:1052A30074131211F5E0F50C750A0174011211F56E
:1052B300740412573E6048E50C601DEA2417F5821A
:1052C300EB12598112572C8A828B83E0D2E7F0EAE2
:1052D3002414F582EB12411B125412EB124CFF748F
:1052E30003125CA4EE88828983A3A3F0EF888289EA
:1052F30083A3A3123C10123C17121274E9F50AA9F6
:105303000A74030253FF74EC12097D74F5120FB390
:105313008A0A8B0B890C8C0E8D0F741F1211F5E00A
:10532300F50D74201211F5E0F510A3E0F5117E01DF
:10533300EE1211F5740AF0E97007E50DC333240A80
:10534300F01254E470030253E61254F97409F0A303
:10535300E50CC43354E0450D12550BE50C702D7C60
:10536300008023ECC333F8E433F9E51028F8E511A2
:1053730039F9888289831253F38882898312332906
:10538300F0A30EAF830CECC3950D40D7E5082417AB
:10539300F582E509124DD912148AE508241AF5821B
:1053A300E509124C6974031211F5AC82AD83AA0AA4
:1053B300AB0B121226E96019E5082416F582E509FC
:1053C3001253ED1211F5A882A983E5082418124C93
:1053D300D9850882850983125CA0AA08AB09121239
:1053E30074E9FEEEF9740B0254DC124DDD740322F2
:1053F300E08E828F83F0A3AE82AF8322120F4E7FA3
:1054030008020CE7123EBEF9EA2400E439FB22EA63
:10541300240BF5822274EE12097D8A0C8B0D890E02
:105423008C088D0974121211F5E0F50F7413121123
:10543300F51254C5900543124C956077E50FC333BD
:10544300F8E433F9E8240EFAE93400FB1218E68A8B
:10545300108B11AE10AF11EE4F60588E828F837494
:10546300D4F0A3A3E50CF0A3E50D1254CDE50EF0A3
:10547300AC08AD09EE2405FAEF125747EE240D12DE
:10548300300CE50FF0850A08850B09750A007808CA
:10549300120F37E50FC333FCE433FDEE240EFAEFAE
:1054A3001254BC120F4EEEFAEFFB9005431257064F
:1054B300122293024546FAE5093400FB1218C87418
:1054C3000322E0F50AA3E0F50B221254D122125471
:1054D300D52212412FA3A3A322120F4E7F0C020C3D
:1054E300E7851882851983AA82AB831214DE8A08A2
:1054F3008B09EA450922EA240BF582EB124CF9FEEB
:10550300A3E0FF8E828F8322F0A3AE82AF83AC0E23
:10551300AD0FEEFAEFFB12551D2212209012552407
:1055230022EE2408FEEF3400FF22E0FA8E828F83FE
:10553300A3A3E022FEA3E03400FF8E828F83E02248
:10554300123E6112554A22E0FCA3E0FD221230C74D
:105553001214722274F612097DEAFEEBFF9003BA6D
:10556300801388828983E06E7003A3E06F603A88BA
:10557300828983A3A3124C9570E87A047B001219E5
:105583005E8A088B09A808A909E849601C888289F2
:10559300831255B39003BA12504488828983A3A31C
:1055A300124C6D9003BA124CE0024C9E8A828B839C
:1055B300EEF0A3EFF02274F412097D7E009003BA9B
:1055C30080070E88828983A3A3124C9570F4EEC3DF
:1055D30033FAE433FB125661607E7F009003BA8096
:1055E3002488828983125546EFC333FAE433FBE5FB
:1055F300082AF582E5093BF583ECF0A3EDF00F886B
:10560300828983A3A3124C9570D79003AB122A24EB
:105613007003A3E06978087019120F3BEEF50A785E
:105623000A120F3F7C777D0379009003AB12566C0F
:10563300801A120F3BEEF50A780A120F3F7C777D32
:105643000379009003AB1250441215087403120F30
:105653004EAA08AB0912196412128C0230D1121926
:105663005E8A088B09EA4509221230C712150E22F9
:10567300C082C08380128A828B83A3A3123E6F9061
:1056830003BA124CE01219649003BA123D7F70E61C
:1056930002421774F612097D900363123E9B900336
:1056A300CE1256F5124CE07ACE7B0379501220A825
:1056B3009003CE122C43FAEFFB12156E9003CE1219
:1056C3003E9B900545124C9560257A067B00121887
:1056D300E6EA4B601A8A828B8374D5F0A3A3E412A3
:1056E300571B0412572C900545125706122293029A
:1056F3004C9E1256F922E0F8A3E0F9900363228E40
:10570300828F8312570A2212570E22E0F81257147F
:1057130022A3E0F58388822212571F2212572322E5
:10572300F08A828B83A3A3A32212571FA3EEF0A3B5
:10573300EFF022F582EF124CF9F922124E11EA4BE7
:1057430022FAE5093400FB12209022124D18A3A37C
:10575300A3A3A3A3A3229025E9E4932401F8E434AB
:1057630000F97A027B002274F712097D7E0080041F
:10577300125D570E12587B40F77E00EE1257967457
:10578300FEF0A3041257ABE4F00EEEC3940340EB18
:1057930002528A75F003A4F8A9F074BC28F87403C4
:1057A30039F988828983A3221257AF22F08882892C
:1057B300832274F712097D7F0080010F9025E6E4B0
:1057C30093F8EFC3985026EF1259676A7003A3E06A
:1057D3006B70E8125D046C7003A3E06D600A74FFE4
:1057E3006C700374FF6D70D312587280047A007B5F
:1057F3000002528A74F612097D7CFF7DFF7AFE7BDC
:10580300FF121532EA4B70407508008036E50875C3
:10581300F017A4F8A9F0742B28F5827409125979AA
:10582300600C742A28F58274091259797013741C58
:1058330028FE740939FF8E828F83125986EEFAEFA0
:10584300FB05081258E140C5024C9E74F412097D11
:105853008A088B09ECFEEDFF800B121544EEFCEF7A
:10586300FDAA08AB09121532EA4B70EE0230D1746F
:105873001C28FA740939FB229025E6E493F8EEC359
:10588300982274F712097DEAFEEBFFEE4F601012C7
:1058930058A574FEF0A304125CAA14F0A304F0024A
:1058A300528A7C177D0079001218D48E828F83224E
:1058B30074F712097DEAFEEBFF7508008018E5080E
:1058C30075F017A4F8A9F0125D0F7003A3E06F60E1
:1058D30003125D5F05081258E140E302528A9025E6
:1058E300E6E493F8E508C3982274F612097D1215CD
:1058F300328A088B09A808A909E849600AE8240D37
:10590300FAE93400FB80047A007B00024C9E74F4B5
:1059130012097D8A0A8B0BECFEEDFF7508007509F1
:1059230000802EE50975F017A4F8A9F0125D4A600E
:105933001EE509125967650A7004A3E0650B70033D
:1059430075080AEEFCEFFD125C0660034308A00530
:10595300099025E6E493F8E509C3985004E5086047
:10596300C2022C3B75F017A4F8A9F01259722274E5
:105973001C28F582740939F583E022F582EF123E83
:1059830064E4221230C712136A221257AFA3A3A3EF
:10599300A3A3A3A3A32274F212097D8A088B09ECA3
:1059A300FEEDFF740E1211F51254C5750C007C0048
:1059B3007D0180101218E0E50CF5F0EA84ACF07577
:1059C3000C007D00780079008003125B43125B9F1B
:1059D3004003025A65E8FAE9FBEA75F017A4FA8571
:1059E300F00D75F017EBA4250D125B7B7003A3E09C
:1059F300F460D7125B5965087004A3E0650960CAB7
:105A0300125B596E7003A3E06F60BF125B59650AA6
:105A13007004A3E0650B60B2E8FAE9FBEA75F017DE
:105A2300A4FA75F017EBA4250DFB742A2AF58274EA
:105A330009125B3A509474016D050C608DE50CC33B
:105A43009C4087E875F017A4F8AAF075F017E9A44D
:105A53002AF9741C28F582740939F583125044021B
:105A63005B37780079008003125B43125BAC400321
:105A7300025B1EE8FAE9FBEA75F012A4FA85F00D61
:105A8300125B8B64FE7003A3E0F460DC125B816540
:105A9300087004A3E0650960CF125B816E7003A3F5
:105AA300E06F60C4125B81650A7004A3E0650B605C
:105AB300B7E8FAE9FBEA75F012A4FA75F012EBA461
:105AC300250DFB74D32AF5827406125B3A5099E8CC
:105AD300FAE9FBEA75F012A4FA75F012EBA4250DAE
:105AE300125B4C64016081E064027003025A6B74C0
:105AF300016D050C7003025A6BE50CC39C50030245
:105B03005A6BE875F012A4F8AAF075F012E9A42A0A
:105B1300F974CA28F5827406025A5CE50C6011EC2C
:105B2300700E7401650C60030259B77C010259C2FF
:105B33007AFE7BFF022A303BF583E014C3940622EE
