:020000040000FA
:0600000002115602073751
:03002B00020EFCC6
:03003300020CC9F3
:030053000206653D
:03006B00020CA0E4
:100083000206CC010101FF05030118171817181701
:100093001817CE15C81518170124000000009F2358
:1000A300000000000C0000000C0001FFFF430101F1
:1000B30001002F050000008105E80364006400B817
:1000C30001020200080000050307051E02051E0ABF
:1000D30003B80B0201022222028813000096511872
:1000E3000002020612121175601D1211A270051989
:1000F3001919801A120FDE701F121008C37003E65D
:10010300673319191940071818182208080874FFCB
:10011300F618F618F618F62212100860171211E1F5
:10012300702192F01211EB7019501720F014080887
:1001330008090909E7F61819E7F61819E7F618196F
:10014300E7F6221211EB60E6E869701F0808E6245F
:1001530080F608E436F618547FB47F0CE6548060CA
:1001630007F6E418F618F622181822E9C6CC08C6D2
:10017300CD08C6CE08C6CFC0E0E8C0E0EAC0E0EBD9
:10018300C0E009E9F809E7FA09E7FBE6F918E6F838
:10019300C3EC98ED99EE9AEBC2E7F5F0EFC2E79561
:1001A300F0500E600CEBCFFBEACEFAE9CDF9E8CCC8
:1001B300F8EAA2E7D2E7FAEB33FB13F5F0EEA2E796
:1001C300D2E7FEEF33FFC5F013A2E730E601B31326
:1001D300C5F0C3C0E0C0F07F00C39BFB605B941815
:1001E300600C401AD0E023F9D0E0F80202C68AF08E
:1001F300E9486003D2F0E4AFF0FAF9F8803BEB3062
:10020300E40D89F0EA6003D2F0E4AFF0F9CAF8EB49
:1002130030E30D88F0EF6002D2F0AFF0E4CAC9F822
:10022300EB54076014FBC3EA13FAE913F9E813F874
:10023300EF135002D2E0FFDBEDD0E0C0E030E7394E
:10024300C3E49FFFF5F0EC98FC42F0ED99FD42F01A
:10025300EE9AFE42F0D0E0F9D0E0F8E5F0607AE9FA
:1002630023F9EE20E742D8028067C3EF33FFEC3374
:10027300FCED33FDEE33FE80EAEC28FCED39FDEEB8
:100283003AFED0E023F9D0E0F84002801BC3EE131E
:10029300FEED13FDEC13FCEF135002D2E0FF08B8A0
:1002A30000067F7F74FF802EEF3350178CF020F011
:1002B3000260100CBC000C0DBD00080EBE0004084B
:1002C300E860DFE933E813FFEE2313FE4F4D4C8064
:1002D30008E95480FFE4FEFDFCEE33EF33F47004D1
:1002E300FCFD7E80D0E0FBD0E0FAD0E0F8D0E0CF98
:1002F300C618CEC618CDC618CCC6F9221211757011
:1003030004181818221211A2700D74FFF61819F6AA
:100313001819F61819F622E7548066F61211EB70D5
:100323000F1211E170F014F608F608F608F680D102
:100333001211E1700CF608F608768008E6447F8017
:10034300EC12100B700C120FE160BFE65480F6E460
:1003530080BB120FE1700519191980A5E869700CAB
:10036300763F18768018F618F6E8F922E6CDC0E055
:1003730018ECC0E0E633CD33CDD313F6E719FCE731
:10038300191933CC33C3947F400ECD9D502408E616
:100393005480F6E418F6800FF4043D14501408E674
:1003A300447FF6187680E418F618F6D0E0FCD0E027
:1003B300FD22CCD313CCFD18E4C6CBC0E018E4C6B1
:1003C300CAC0E00808ED08C633E613F618E433C6DE
:1003D30075F003C3CA97CA09CB97CB199C40047D18
:1003E30008802EBD00030204A816B6FF0506060802
:1003F3001618C3CA33CACB33CB33CA27CA09CB3780
:10040300CB193CC37D08803E187D0820E75CC633CA
:10041300C6CA33CACB33CB33DDF1D5F0EB30E77B40
:10042300CA97CA09CB974ACB199C406F4B7025E6F4
:1004330020E0218066187D08C3CA97CA09CB97CBF1
:10044300199CD3C633C6CA33CACB33CB3350C9DDA9
:10045300E7D5F0E1D3E4C636C608C636C608C636C5
:10046300C608C636C61818188031C3CA97CA09CB3E
:1004730097CB199CB34097C633C6CA33CACB33CB89
:1004830033DD34D5F02EC6A2E0C640C8CA27CA0958
:10049300CB37194A70BECB3CB480B90808E63308A1
:1004A300E633601F181818D0E0FAD0E0FBD0E0FC68
:1004B300D0E0FD22187D08CA27CA09CB37CB193CE7
:1004C300D3808013F618E4B67F11F618B6FF0EF644
:1004D30018C60470D20808768080CAF618F618F693
:1004E30080C500121175604F1211A26012E754808B
:1004F30066F6120FDE70111211E1703B090909F45F
:10050300F618F618F618F62212100870151211EBE9
:1005130008080860EAE6447FF618768018E4F618BF
:10052300F6221211EB60161211E17012E4F608F6CE
:1005330008F608E65480F609090918181822EAC0D3
:10054300E0EBC0E0ECC0E0EDC0E0E687F0A4FBAC7C
:10055300F008E687F0A42CFCE435F0FA1809E687E6
:10056300F0A42C4B60027401CA35F0FCE433FB09A0
:10057300E687F0D2F7A42CCB35F0FC1908E687F018
:10058300A42BCC35F0FBE433FD0819E687F0D2E762
:10059300A42C4ACB35F0CD3400FC09E687F0D2E732
:1005A300A42DCC35F0FDE433FA0918E687F0D2F731
:1005B300A42CCD35F0CA3400FC08E687F0D2E7D28C
:1005C300F7A42ACC35F07A7E20E70B0ACB33CBCDC8
:1005D30033CDCC33CC33CB3350147004ED30E00E39
:1005E300D2F1E4CD3DCDCC3CCC3B5005DA05C2F194
:1005F300EB547FC63308E63392F0FBE73309E73366
:10060300C39A502D2B70190C0D4C4D70151806E61E
:1006130008C333700D20F10AA2F013F6E418800B1F
:100623004024E4F630F002768018F618F618F680C7
:1006330024D33B14501074FFA2F013F6187680E411
:1006430018F618F6800FA2F013F618E63303F6181F
:10065300ECF618EDF6D0E0FDD0E0FCD0E0FBD0E006
:10066300FA22C0E074F2120A54A2AFE433FED2AF0E
:10067300E5A7FFE5A1F5085F54106006121E1A7581
:10068300A1EFE5085F54086008121E2075A1F780EA
:100693002BEFA2E0C0D0E508A2E092F01210DF1524
:1006A3008182F05017906198E0F890065CE0C3985F
:1006B300A2D265D0335002E8F075A1FE751A00EEA0
:1006C300A2E092AF7F01020B10C0E074F2120A5451
:1006D300A2AFE433FED2AF9061A4E0F8759B00E5CE
:1006E3009158540860087591F7121E68802AE591A5
:1006F30058541060087591EF121E6E801BE8A2E03B
:10070300C0D0E591A2E092F01210DF158182F05083
:1007130007E0C2E0F0121FCA9061A3E0F8E5E958D0
:100723005404600E121FA075E9FB906193E0A2E6EA
:1007330040F28088C0E074F2120A54A2AFE433FEA0
:10074300D2AF9061A5E0F8E5BF585404600675BFC9
:10075300FB121FE20206BFC3E498F8E499F91207FB
:100763009B8026C3E49AFAE49BFBE920E7E912079E
:100773009BE498F8E499F922C3E498F8E499F91210
:10078300079BE498F8E499F9C3E49AFAE49BFB2203
:10079300EB20E7CFE920E7E0B90010BB0008E88AC7
:1007A300F084F8AAF022E4FBC8FA22EB70227B1053
:1007B300C833C8C933C9335007C39AC3DBF28006B1
:1007C3009A50012ADBEAC833F4C8C933F4C9FA22C0
:1007D30075F008E4C833C8C933C933C99AC99B50F3
:1007E30004C92AC93BD5F0ECFBC833F4C8E4C9FA01
:1007F300228A088B098C0A8D0B780812083E20F098
:100803001430E72B74FFFCFBFA747F8022E4FCFBBB
:10081300FA7480801AB48008BC00F2BB00EF800F2A
:1008230050EBF9E4C39AFAE49BFBE49CFCE499C61D
:10083300CC18C6CB18C6CA18C6F922E4C9C608CA5A
:10084300C608CBC6D3330308CCC63392F0C3947F18
:10085300402E94184019C9B90704CACBCC2250259D
:10086300C309CA33CACB33CBCC33CC33D9F422F448
:10087300600DC9CCC313CB13CBCA13CAD9F6CC2290
:10088300E4FCFBFA2214FCFBFA22080808EAC0E0A5
:10089300EBC0E086F0E7A4FA180986F0E7A42AFA89
:1008A300180986F0E7A42AFA180986F0E7A42AFAB9
:1008B3001986F0E7A4FBE5F02AFA190886F0E7A405
:1008C3002BFBE5F03AFA190886F0E7A42BFBE5F0D9
:1008D3003AFA18180986F0E7A4C5F02BFBE43AFAB4
:1008E3001908E7C5F0C6A426F6E5F03BFBE43AFA9F
:1008F3001886F0E7A4F6E5F00826F6E43B08F6E4EC
:100903003A08F6D0E0FBD0E0FA22E4CFC0E0E4CE30
:10091300C0E0E4CDC0E0E4CCC0E075F020C3E63332
:10092300F608E633F608E633F608E633F618181841
:10093300EC33FCED33FDEE33FEEF33FFC3EC9709ED
:10094300ED9709EE9709EF97191919400FFFEC97E7
:10095300FC09ED97FD09EE97FE191906D5F0BEECDB
:10096300F709EDF709EEF709EFF7191919D0E0FCCC
:10097300D0E0FDD0E0FED0E0FF222518C582C0E024
:10098300E51934FFC583C0E0E518C3958224F81048
:10099300AF08858319858218800885831985821895
:1009A300D2AFCEF0A3E520F0A37808E608F0A3DEEB
:1009B300FAEFF0A3E58124FAF8E608F0A3E608F0DD
:1009C300A3E608F0A30808E608F0A3E608F0A315D9
:1009D300811581D0E0FED0E0F8158115811581E8FD
:1009E300C0E0EEC0E0221211D6B90003020A3EE4D1
:1009F300900301788C79098002F0A3D8FCD9FA78A6
:100A03001A9000867A01BA00028007E493A3F608DD
:100A1300DAF9900B8CAA82AB839000877862790114
:100A23008015E493A3AC82AD838A828B83F0A3AA5F
:100A330082AB838C828D83D8E9D9E7758223758352
:100A4300F97402120EDE7582A67583227400120EEB
:100A5300DEC0D02518C582C0E0E51934FFC583C0C8
:100A6300E0E518C3958224F310AF088583198582C6
:100A7300188008858319858218D2AFC8F0A3E9F0DE
:100A8300A3EAF0A3EBF0A37908E709F0A3D8FAEC03
:100A9300F0A3EDF0A3EEF0A3EFF0A3D0E0F0A3D02A
:100AA300E0F0A3D0E0F0A3E520F0A3E5F0F0A3226B
:100AB300E9799EC608CAC608CBC608CCC6C370204F
:100AC3007996CACBCC7019798ECBCC70137986CC3E
:100AD300700EF9802ACA33CACB33CBCC33CC33194B
:100AE30030E7F2CCCBCA3350147004EA30E00DE4A3
:100AF300CA3ACACB3BCBCC3CCC500209C3E913C6A0
:100B0300CC182313C6CB18C6CA18C6F92285198375
:100B1300851882E0C0E0A3E0F9A3E0FAA3E0FBA319
:100B23007808E0F608A3DFFAE0FCA3E0FDA3E0FE0B
:100B3300A3E0FFA3E0C0E0A3E0C0E0A3E0F5D0A3FF
:100B4300E0F520A3E0A3F5F010AF088583198582B3
:100B5300188008858319858218D2AFD082D083D0BC
:100B6300E0F8D0E03275F0108E218F228582268541
:100B73008325851882851983E0CEA3E0CF8526825D
:100B8300852583EBC9EAC8EDCBECCAC3E833C8E9D2
:100B930033C9EA33CAEB33CBC3EA9EF524EB9FF5A3
:100BA30023B35004AB23AA24EC33CCED33CDD5F0DF
:100BB300DAAE21AF2222121175601C1211A2601746
:100BC3001211EB70071211E17001D322C0D0121180
:100BD300E17006D0D0B322C32233D0D0501430E01A
:100BE300F6C3E7960809E7960809E7960809E79622
:100BF300B32220E0D5E6970809E6970809E69708A7
:100C030009E697B322121175601B1211A260161226
:100C130011EB70071211E1600CB322C0D01211E185
:100C23007005D0D022C32233D0D0501330E0EBC3B1
:100C3300E7960809E7960809E7960809E796222048
:100C4300E0E4E6970809E6970809E6970809E697B6
:100C530022D083D082ECC0E0EDC0E0E493A3FCE4B7
:100C630093A3FDED4C600D120D73EC24FFFCED34EA
:100C7300FFFD80EFE493A3FCE493A3FDED4C600D33
:100C8300120E10EC24FFFCED34FFFD80EFD0E0FDED
:100C9300D0E0FCE493A3C0E0E493C0E022C0E0749E
:100CA300F2120A54A2AFE433FED2AFE589A2E150B7
:100CB30003121CEE758900C2C5751A00EEA2E092FC
:100CC300AF7F01020B10C0E074F2120A54A2AFE42A
:100CD30033FED2AFE58BA2E05003121CEE758B00FE
:100CE300C2E880D5851983851882E0A3FEE0A3F5C9
:100CF300207808E0A3F608DFFAE0A3FFE0A3C0E052
:100D0300E0A3C0E0E0A3C0E0E0A3C0E0E0A3C0E054
:100D130010AF08858218858319800885821885831A
:100D230019D2AFD083D082020EE4D083D082E9C03F
:100D3300E0E493A3C386F0C5F095F0F908E493A328
:100D430086F0C5F095F0700BE493A3C3994005E9D1
:100D5300048002A3E475F002A42582F582E5F03550
:100D630083F583D0E0F9E493A3C0E0E493C0E022E9
:100D7300C0E0C3E49396087401939618400FE4937C
:100D830066700808740193661870007019A3A3C3F2
:100D9300E49396087401939618A3A3400DD0E0D072
:100DA300E0D0E0020C90A3A3A3A3A3A3D0E02274FA
:100DB30004800474028000CCC0E0EDC0E0E518C3F9
:100DC3009CCCAD1950011D10AF068C188D198006EF
:100DD3008C188D19D2AF120E7FD0E0FDD0E0FC222B
:100DE30074028000CCC0E0EDC0E0E518C39CCCAD3C
:100DF3001950011D10AF068C188D1980068C188DA3
:100E030019D2AF120E3BD0E0FDD0E0FC22C0E0C00F
:100E1300F088F0E493667008087401936618700014
:100E2300A8F0A3A3700BD0F0D0E0D0E0D0E0020C88
:100E330090A3A3D0F0D0E022CAC0E0E493A3C5827C
:100E4300CCC582C583CDC583F0A3C582CCC582C57D
:100E530083CDC583DAE5D0E0CA22A2E792D6500259
:100E6300F40430F70663F0FF05F0B3400384800316
:100E730084F40430D60563F0FF05F022CAC0E0E035
:100E8300A3C582CCC582C583CDC583F0A3C582CC5F
:100E9300C582C583CDC583DAE6D0E0CA22700908CE
:100EA3000808226016181818C6C333C608C633C606
:100EB30008C633C608C633C6D5E0EA22C008C3E075
:100EC30096F50808A3E096420808A3E096420808AE
:100ED300A3E09645087001D3D00822C09FF59FE494
:100EE30073D09F22D083D082C09FE493C0E074016B
:100EF30093C0E0740293F59F22C0E0C0D0E8C0E045
:100F0300E5A8D2AFC2C7751A00A2E792AFD0E0F846
:100F1300D0D0D0E0322518F58210AF08F518400282
:100F230015198008F51840021519D2AF85198322C7
:100F33007404800A74038006740280027401C0E0A2
:100F4300F404120F18D0E01211B122C0D0251810EA
:100F5300AF08F518500205198008F5185002051955
:100F6300D2AFD0D022BB0102E722C082C0838982E4
:100F73008A83BB0003E08002E493D083D0822260A3
:100F830016080808C6C313C618C613C618C613C660
:100F930018C613C6D5E0EA22C3E0C696F608A3E056
:100FA300C696F608A3E0C696F608A3E0C696F62210
:100FB300251810AF08F518400215198008F51840D8
:100FC300021519D2AF22E76670100809E766700AA6
:100FD3000809E76670040809E76622181818E60886
:100FE3004608700AE608C3337005E633F422082284
:100FF300C3E09608A3E09608A3E09608A3E096A2B0
:10100300D265D03322191919E7094709700AE7098C
:10101300C3337005E733F4220922E066701008A396
:10102300E066700A08A3E066700408A3E06622C3C2
:10103300E697F60809E697F60809E697F60809E63B
:1010430097F622C3E096F008A3E096F008A3E09693
:10105300F008A3E096F022E647F60809E647F6080B
:1010630009E647F60809E647F622700422600D18E0
:10107300C6C333C608C633C6D5E0F41822E627F63E
:101083000809E637F60809E637F60809E637F622CF
:10109300E026F008A3E036F008A3E036F008A3E06A
:1010A30036F022E026F608A3E036F608A3E036F68B
:1010B30008A3E036F622E056F608A3E056F608A3A6
:1010C300E056F608A3E056F622E056F008A3E056F1
:1010D300F008A3E056F008A3E056F022C0E0E8C011
:1010E300E0E58124FCF8E6A2E7D0E0F8D0E022E6D0
:1010F30057F60809E657F60809E657F60809E657CA
:10110300F622E4C396F608E496F608E496F608E4B5
:1011130096F622600D08C6A2E713C618C613C6D5F5
:10112300E0F322C6F4C608C6F4C608C6F4C608C669
:10113300F4C622C3E7960809E7960809E796080963
:10114300E79622C3E09608A3E09608A3E09608A3D7
:10115300E0962275D000758140751801751903005A
:101163000209E9E6F008A3E6F008A3E6F008A3E61F
:10117300F022E6084608C3134608336002E633F458
:1011830022600C08C6C313C618C613C6D5E0F422E2
:10119300E0F608A3E0F608A3E0F608A3E0F622E7EA
:1011A300094709C3134709336002E733F422CAC06E
:1011B300E0E6F0A308DAFAD0E0FA22EAF0A3EBF0D3
:1011C300A3ECF0A3EDF022E0FAA3E0FBA3E0FCA381
:1011D300E0FD22E5C754F84401F5C7790122E7C3CE
:1011E3003319471947194722E6C3331846184618D7
:1011F30046222518F582E43519F58322C2AF75D648
:101203009F02000022120EE7865E00120EE7105FB7
:1012130000120EE7B45F00120EE7086000120EE73B
:10122300216000120EE7476000120EE78260001291
:101233000EE7C66000120EE7ED6000120EE73E6196
:1012430000120EE7EE6100120EE7A66200120EE72F
:101253006E6300120EE74B6400120EE7D1640012B6
:101263000EE7E06400120EE7EB6400120EE7F4658C
:1012730000120EE7056600120EE77B6600120EE70A
:101283000D6700120EE7656700120EE72B68001268
:101293000EE75C6800120EE7A16800120EE7AE6865
:1012A30000120EE7426A00120EE7A56B00120EE76A
:1012B300C16C00120EE72B6F00120EE7366F00129F
:1012C3000EE7406F00120EE74B6F00120EE7556FEB
:1012D30000120EE75F6F00120EE76A6F00120EE74F
:1012E300756F00120EE7A66F00120EE7CA6F0012A9
:1012F3000EE7EE6F00120EE7537000120EE79770C1
:1013030000120EE7B37000120EE72A7100120EE707
:10131300627100120EE7AE7100120EE70B7200123B
:101323000EE7ED7300120EE7737400120EE74475B7
:1013330000120EE7547800120EE7A97800120EE7A8
:10134300D57800120EE7217A00120EE7717A0012A7
:101353000EE7C67A00120EE7C77B00120EE75F7C2A
:1013630000120EE7E17C00120EE7817D00120EE70A
:101373000C2600120EE7452600120EE71F28001266
:101383000EE75E2800120EE7A82800120EE74D298B
:1013930000120EE7AC2900120EE7E02900120EE757
:1013A3004D2A00120EE76A2B00120EE7722C001270
:1013B3000EE7082D00120EE74F3000120EE7F8304B
:1013C30000120EE7D43100120EE7353200120EE799
:1013D300523300120EE77C3500120EE7333600124B
:1013E3000EE73D3600120EE7703600120EE7373770
:1013F30000120EE7D23700120EE7373800120EE75D
:10140300603800120EE7823800120EE7B13A00127C
:101413000EE7883B00120EE7CC3B00120EE7393C87
:1014230000120EE7F43C00120EE7263D00120EE711
:101433006A3D00120EE79D3D00120EE7F23D0012D9
:101443000EE7473E00120EE7DB3E00120EE73D3F7C
:1014530000120EE7A53F00120EE74E4100120EE701
:10146300364200120EE7784300120EE7A64500123B
:101473000EE7664600120EE7954800120EE738495C
:1014830000120EE7764900120EE7224B00120EE718
:10149300364B00120EE7404B00120EE76A4B001268
:1014A3000EE7764B00120EE7954B00120EE74C4CFD
:1014B30000120EE78B4C00120EE7954C00120EE75C
:1014C300494D00120EE7484E00120EE7414F00123D
:1014D3000EE7DE4F00120EE7805000120EE7975022
:1014E30000120EE7CE5000120EE7EC5000120EE78A
:1014F300305100120EE7555100120EE73B52001215
:101503000EE7A75200120EE7215300120EE73054E4
:1015130000120EE76F5500120EE7D15500120EE7C9
:101523008B5600120EE7AE5600120EE782570012DA
:101533000EE7CD5700120EE70F5800120EE766585C
:1015430000120EE79D5800120EE7CB5800120EE76B
:10155300045900120EE7295900120EE7B15900127F
:101563000EE7D45B00120EE7335C00120EE7C75C94
:1015730000120EE7335D00120EE7875D00120EE7DF
:101583008A8B03120EE7C98B03120EE723B40112F1
:101593000EE77DB401120EE7D9B401120EE725B5AB
:1015A30001120EE740B501120EE771B501120EE705
:1015B3008EB501120EE79AB501120EE70EB70112AE
:1015C3000EE727B701120EE78EB701120EE7A1B798
:1015D30001120EE7AFB701120EE763B801120EE76F
:1015E30047B901120EE74DBA01120EE7D3BA011241
:1015F3000EE7DDBA01120EE74ABB01120EE761BB2B
:1016030001120EE793BB01120EE7CCBB01120EE7EA
:10161300F6BB01120EE757BC01120EE777BC0112AD
:101623000EE795BC01120EE7DBBC01120EE701BE0B
:1016330001120EE74EBE01120EE77DBE01120EE748
:10164300F3BE01120EE71BBF01120EE754BF0112D6
:101653000EE762BF01120EE7BABF01120EE709C01F
:1016630001120EE748C001120EE778C001120EE71F
:10167300A4C001120EE7AFC001120EE7CDC00112E4
:101683000EE78FC101120EE799C101120EE7D4C113
:1016930001120EE7EAC101120EE7F3C101120EE7D0
:1016A30048C201120EE75CC201120EE76AC30112BF
:1016B3000EE77DC301120EE794C301120EE7A9C31F
:1016C30001120EE74BC401120EE7CEC401120EE75E
:1016D3008CC501120EE797C501120EE7BDC60112B4
:1016E3000EE7D9C601120EE72BC701120EE76AC730
:1016F30001120EE77FC701120EE7C1C701120EE701
:101703000ECA01120EE78CCA01120EE7FFCA0112BC
:101713000EE721CD01120EE739CD01120EE73CCDC4
:1017230001120EE748CD01120EE75CCD01120EE760
:1017330064CD01120EE797CD01120EE747CE0112D9
:101743000EE7BDCE01120EE730CF01120EE7E4CF54
:1017530001120EE799D001120EE7B8D001120EE77D
:1017630058D101120EE764D101120EE78FD1011295
:101773000EE792D101120EE7C1D101120EE7D6D1C5
:1017830001120EE740D201120EE768D301120EE7F1
:1017930040D401120EE7CBD401120EE7E4D50112B7
:1017A3000EE7A1D601120EE7DAD601120EE70BD728
:1017B30001120EE7ABD701120EE7DBD701120EE7DA
:1017C300B6D801120EE74FD901120EE7DAD901128A
:1017D3000EE78BDA01120EE70DDB01120EE73FDB9A
:1017E30001120EE780DB01120EE7B5DB01120EE7F3
:1017F30098B002120EE7FDB002120EE73AB10212E0
:101803000EE789B102120EE79FB302120EE782B50B
:1018130002120EE7ECB802120EE727B902120EE726
:1018230049B902120EE7ACB902120EE7E0B902128F
:101833000EE703BA02120EE730BA02120EE78CBAB1
:1018430002120EE7139A02120EE7919A02120EE7A2
:10185300C79A02120EE7339B02120EE7A69C0212EE
:101863000EE7C29C02120EE7079D02120EE7959D3A
:1018730002120EE7EE9D02120EE71B9F02120EE705
:101883002DA002120EE78AA002120EE7F6A00212A2
:101893000EE757A102120EE798A102120EE745A226
:1018A30002120EE757A302120EE782A302120EE7FB
:1018B300CDA302120EE714A402120EE7A6A402128D
:1018C3000EE761A502120EE72FC402120EE77BC4D6
:1018D30002120EE7E9C402120EE70AC502120EE76E
:1018E300BAC502120EE7C3C502120EE716C60212EC
:1018F3000EE73FC602120EE7A6C602120EE737C76F
:1019030002120EE779C702120EE7C3C702120EE7EF
:1019130022C802120EE7B3C802120EE7F2C802127F
:101923000EE731C902120EE766C902120EE778C943
:1019330002120EE78AC902120EE7A9C902120EE7C4
:10194300B2C902120EE787CA02120EE7E18503123B
:101953000EE7F1F602120EE727F702120EE770F711
:1019630002120EE7C0F802120EE713DC01120EE7B3
:1019730052DD01120EE78EDD01120EE74DDF01127B
:101983000EE718AB01120EE709E201120EE74DE272
:1019930001120EE7D6E301120EE76EE401120EE721
:1019A300D6E401120EE777E501120EE7B9E501125D
:1019B3000EE7F9E501120EE784E701120EE7F4E8FA
:1019C30001120EE719EB01120EE747EB01120EE7C6
:1019D3006EEB01120EE777EB01120EE7FEEB01123D
:1019E3000EE71CEF01120EE73C8B03120EE7528B3E
:1019F30003120EE7618B03120EE7D38B03120EE77C
:101A0300255E00120EE71FDD02120EE7BCDD021297
:101A13000EE7F8DD02120EE70FDE02120EE734DEE8
:101A230002120EE776DE02120EE7A7DE02120EE7BF
:101A3300E2DE02120EE75CE002120EE79DE0021204
:101A43000EE77F8703120EE7B58703120EE7D187F0
:101A530003120EE7138803120EE7238803120EE71F
:101A63002D8803120EE71AEA02120EE74CEA02125D
:101A73000EE7C0EA02120EE7DAEB02120EE7A6EC5B
:101A830002120EE79B8D02120EE79E8E02120EE7E4
:101A9300628F02120EE7BB9002120EE7D29002127F
:101AA3000EE7049102120EE7289102120EE76691E7
:101AB30002120EE7449302120EE7AF9302120EE7EF
:101AC3009DEF01120EE7F2EF01120EE7AAF00112E9
:101AD3000EE745F101120EE78FF101120EE7A3F1B4
:101AE30001120EE70AF401120EE785F401120EE764
:101AF300AFF401120EE73EF601120EE759F601129A
:101B03000EE7A8F601120EE7BEF601120EE7CBF6BA
:101B130001120EE7FFF601120EE715F701120EE7A9
:101B2300CBF701120EE725F801120EE773F8011245
:101B33000EE77DF901120EE7FCFB01120EE796FC9E
:101B430001120EE7D8FC01120EE76DFD01120EE73C
:101B53008AFD01120EE78DFD01120EE790FD0112C1
:101B63000EE703FE01120EE71EFE01120EE74AFE08
:101B730001120EE785FE01120EE788FE01120EE741
:101B8300B98A03120EE7C58A03120EE7FF8A03120E
:101B93000EE7008002120EE72B8002120EE704818B
:101BA30002120EE7898102120EE7F28102120EE79A
:101BB3003E8202120EE7BD8202120EE74F8302122B
:101BC3000EE7DB8302120EE71D8402120EE766881E
:101BD30002120EE7E68902120EE73D8B02120EE7B0
:101BE300C98B02120EE7D8A502120EE792A60212C3
:101BF3000EE704A702120EE7A0A702120EE710A831
:101C030002120EE744A902120EE720AA02120EE7FF
:101C130091AA02120EE70EAC02120EE7D0AC02122A
:101C23000EE7E7AD02120EE786AE02120EE743AFF0
:101C330002120EE7E1EC02120EE735ED02120EE797
:101C43008DED02120EE7D8ED02120EE73AEE021204
:101C53000EE7D3EE02120EE73BEF02120EE747EF59
:101C630002120EE725FB02120EE756FB02120EE7E5
:101C730010FC02120EE776FC02120EE799F902122B
:101C83000EE7B48603120EE7C58603120EE76587D7
:101C930003120EE7008003120EE70E8003120EE715
:101CA300E77F00120EE7978903120EE7A789031255
:101CB3000EE7BF8903120EE72C8A03120EE7DF84B7
:101CC30003120EE7648503120EE7C88503120EE7BD
:101CD300FFFC02120EE721FD02120EE787FD02123E
:101CE3000EE7A7FD02120EE7EDFD02120EE748FE16
:101CF30002120EE77FFE02120EE782FE02120EE7C9
:101D0300C1FE01120EE7D6FE01120EE74AFF0112D1
:101D13000EE764FF01120EE777FF01120EE785FF5E
:101D230001120EE79FFF01120EE7BFFF01120EE73C
:101D330030D902120EE73ED902120EE7B8D90212C9
:101D43000EE79CDA02120EE755DC02120EE7BADC4C
:101D530002120EE7F9DC02120EE7F87F00120EE71B
:101D63003DE702120EE75FE702120EE791E9021266
:101D73000EE717EA02120EE7347E00120EE7407EEA
:101D830000120EE75E7E00120EE76F7E00120EE772
:101D93008D7E00120EE7B47E00120EE7D77E00128E
:101DA3000EE70F7F00120EE7287F00120EE7677F12
:101DB30000120EE7C1CF02120EE716D002120EE791
:101DC30012D202120EE744D202120EE766D20212B8
:101DD3000EE77FD202120EE798D202120EE7A2D3C9
:101DE30002120EE73DD402120EE78BFE02120EE73B
:101DF300AFFE02120EE7C8FE02120EE7FBFE02124E
:101E03000EE72CFF02120EE75AFF02120EE764FFE1
:101E130002120EE7C6FF02120EE7D5FF02120EE70B
:101E2300DFFF02120EE7ECFF02120EE782EF02124F
:101E33000EE7A8EF02120EE7E5EF02120EE7F4EF4A
:101E430002120EE713F002120EE77BF002120EE706
:101E530084F002120EE7E3F002120EE707F102121A
:101E63000EE7C6F102120EE7D3F102120EE7E4F118
:101E730002120EE7198C03120EE7368C03120EE7DB
:101E8300E8CA02120EE740CC02120EE74DCC021252
:101E93000EE760CC02120EE77FCC02120EE795CC60
:101EA30002120EE7A9CC02120EE71ECD02120EE7B4
:101EB30083CD02120EE70BCE02120EE794CE02126E
:101EC3000EE769CF02120EE779CF02120EE788CF31
:101ED30002120EE7FE8803120EE7228903120EE7B1
:101EE3004A8903120EE7728903120EE792F4021273
:101EF3000EE7B9F402120EE7DAF402120EE73FF529
:101F030002120EE712F202120EE72BF202120EE792
:101F130037F202120EE74BF202120EE769F20212D7
:101F23000EE773F202120EE77DF202120EE790F251
:101F330002120EE7F2F202120EE729F302120EE783
:101F430058F302120EE7A6F302120EE7F5F302129C
:101F53000EE710F402120EE71AF402120EE741F430
:101F630002120EE787F402120EE7328A03120EE71B
:101F73004E8A03120EE7AD8A03120EE7828C031218
:101F83000EE7D8BA02120EE702BB02120EE71EBB1F
:101F930002120EE731BB02120EE747BB02120EE735
:101FA300A4BB02120EE7D7BB02120EE718C002123F
:101FB3000EE73EC102120EE771C102120EE7BDC168
:101FC30002120EE7FFC202120EE727C302120EE748
:101FD3003CC302120EE74CC302120EE790C3021277
:101FE3000EE7F1C302120EE701C402120EE7898164
:101FF30003120EE7A48103120EE7CD8103120EE74D
:10200300E78103120EE70C8203120EE72B82031201
:102013000EE7438203120EE7718203120EE78B82EF
:1020230003120EE7458803120EE7898803120EE7B1
:10203300AAE002120EE7B1E002120EE7BDE10212BE
:102043000EE7EDE102120EE713E202120EE736E2AB
:1020530002120EE758E202120EE792E202120EE7B4
:10206300F8E202120EE731E302120EE77DE30212F9
:102073000EE7AAE302120EE7CAE302120EE7CF83CA
:1020830003120EE7E18303120EE7C38403120EE784
:10209300DC8403120EE7BC8203120EE72E830312C5
:1020A3000EE76C8303120EE7AD8303120EE72AE4F7
:1020B30002120EE746E402120EE795E402120EE75F
:1020C300B1E402120EE7E2E402120EE7F2E40212B6
:1020D3000EE7DEE502120EE7E8E502120EE7F5E58C
:1020E30002120EE705E702120EE719E702120EE7E6
:1020F30022E702120EE77CD402120EE7C1D80212C5
:102103000EE7C6D802120EE7558C03120EE756AA45
:1021130001120EE7C9A901120EE7BCA901120EE7CD
:10212300CAA601120EE71CA401120EE7F0A20112C7
:102133000EE744A201120EE795A001120EE7509E8E
:1021430001120EE7D79D01120EE7D35D00120EE7D1
:10215300C15D00120EE77E9D01120EE7129D011272
:102163000EE7DAB201120EE7BCB201120EE7E99CE8
:1021730001120EE7DC9A01120EE7A89A01120EE78C
:10218300759A01120EE7599A01120EE77F9901120F
:102193000EE7379901120EE76C9701120EE7EC96E2
:1021A30001120EE7E99601120EE7F09501120EE710
:1021B300BE9501120EE7FB9401120EE7269301125E
:1021C3000EE7B79201120EE7899201120EE786928B
:1021D30001120EE7739201120EE70B9201120EE742
:1021E300FA9101120EE7DB9001120EE771B10112B1
:1021F3000EE7CEB001120EE77BAF01120EE72CAD56
:1022030001120EE735AC01120EE7A59001120EE79D
:10221300689001120EE7099001120EE7D88F0112A0
:102223000EE719AC01120EE7938C01120EE7848BB3
:1022330001120EE7138B01120EE7D88A01120EE783
:10224300A9AB01120EE70CDD02120EE7A38A0112FD
:102253000EE7978A01120EE7F78901120EE73E890E
:1022630001120EE7118701120EE79D8401120EE79A
:102273005B8401120EE7268301120EE7DB82011253
:102283000EE70D8201120EE7648101120EE73A8117
:1022930001120EE760AB01120EE7008101120EE797
:1022A30076DF0100000080FBE47300013636010194
:1022B30000010201000103010001040106060502F9
:1022C3000000070100340801000F090401010D019A
:1022D30000FF0E08000017020000190100FF1A0199
:1022E30000011B0100FE1C0100081D0200001F016C
:1022F300000120010001210200002301000F24023C
:1023030000002601000127010008280200FF2A011E
:1023130000072B0102402C0100002D0100012E01BA
:1023230000012F0100FF30010B1C310800003A01AE
:1023330000083B01000F2F010000010171010101A1
:1023430001011101010131010101010180011001AC
:1023530061013B00140063017301720162014301D7
:102363000001130106013D013500040112010001C2
:1023730000010001000104010401330133013C01A8
:1023830044013201360000010001650100013500FE
:102393008101000105018201830100010103710331
:1023A30001030103010301030103220302030103E8
:1023B30010030003000300030003000300030003F2
:1023C3004203000324030603000300030403120370
:1023D300250323032503230304030403000300034A
:1023E30000034403000300032303000365032100E8
:1023F3003503810300030503000300030003030007
:10240300710030016000110070003102200350049C
:10241300800010006100000014006300730072006C
:1024230062004300000013000600000000000400E7
:102433001200000000000000000004000400370048
:1024430037003C024400000000000000000065006B
:10245300000035008100000005000000830000003B
:1024630003027102300160021102700201020202D2
:1024730002028002100261023A0041006302730209
:1024830072026202430200021302380000020002D9
:10249300040212020002000200020002040204020B
:1024A300370037003C0244020002390000020002F8
:1024B30065020002350281020002050282028302E4
:1024C300000236000100060000000F0000000000BB
:1024D300000000000000000003FFFF00000403FFF2
:1024E300FF0000FFFF0FF4010005C40403200001F7
:1024F30000140B000000000000000003010F281669
:1025030058162E1634165216461640165E166416C4
:102513006A1676163A1622161C160100FE1B0200D6
:10252300AA1B0300B01B0400B61B0500BC1B06005E
:10253300C81BFFFF00000AF41302BE1305D01307E4
:10254300C4130CA0130DB213FF000000160F0000FC
:102553000B150B020002220F3200000618172A1770
:102563003017F2153617EC15F815140AE5D5C5B56D
:10257300A5A595858575658417A217A8178A17964B
:102583001790170C0E020B040B0A0708000F3030CC
:1025930017181921301B1D1F3000011916181616A4
:1025A3001523030000034948424D1817250502303F
:1025B3003016181920231A1C1E3000383C3E363BB7
:1025C3003B352B432C6C173C1742174E1748174CBF
:1025D3001670169C177C1682160204020101010173
:1025E300090200000000000000BE040A6D2521005E
:1025F3000E000400FA06E803280008040C0A030985
:102603000CFF1E1E080421100574F712097DE990C2
:1026130003B0F0900365E4F012207E9003B5E4F07C
:10262300A3F09003B1F0A3F012152C1220849003B1
:1026330034E4F0A3F090260993FA79021220E4021D
:1026430052A274F212097DEAFEEBFF548060699096
:1026530003B0E0F91218F88A088B09EA4509604FBC
:102663007C0080010CEC75F003A4F8A9F074392800
:10267300F582742539F583E493F4602CE493F885AB
:1026830008828B83E06870DCAA08EC75F003A4F879
:10269300743A28F582742539F583E493C0E0740114
:1026A30093F583D0821222ABAA08AB091218ECEE81
:1026B300FAEF6480FB022812EF5420601D12144EBF
:1026C3008A088B09EA4509600A1213B2AA08AB0902
:1026D3001218ECEEFAEF642080DAEEA2E0501A90C2
:1026E300036AE0640F700B790012137CE960031234
:1026F3002815EE6401FAEF80BB542070030227E033
:10270300750C00123CE78B09EA450970107C027DC9
:10271300007A207B009003B0E0F9121A1E7C007946
:10272300047A007B0012142A8A088B098018850812
:1027330082850983A3A3A3A3A3A3A3A3A37401F0E3
:10274300850A08850B09E5084509606D7C00790455
:10275300AA08AB0912142A8A0A8B0B750C01E50827
:102763002404F8E509123A8B24FFF0A3E034FF12A6
:102773005D7E70CC850882850983A3A3A3A3A3A34D
:10278300A3A3A3A3E0640170A5850882850983A39D
:10279300A3A3A3A3A3E054047094850882850983AB
:1027A300A3A3A3A3A3A3A3A3A37406F07AB7850843
:1027B3008285098312294180871213FA7C007901EB
:1027C3007A007B0012142A8B09EA45097009E50C8B
:1027D30070057A20124C41EE64200226F8EF540271
:1027E300600B121526EEFAEF64020226B7EF5404CB
:1027F3006019124DD8124CF8790190036312505CA2
:102803001212C2EEFAEF64040226B77A007B0002CA
:102813002A48900BC11230DF12139422C082C08366
:1028230074EA120FB3851882851983AA82AB837960
:102833004B1220BA74081211F57402F074091211C4
:10284300F5AA82AB8379501220BA74131211F5E4FE
:1028530012522B1220D8741602420574F712097D06
:1028630074E1120FB3EAFEEBFFEE4F60338518827B
:10287300851983AC82AD8312147274061211F5E0CC
:10288300601E74171211F5E0FD74011211F5E0FCDE
:10289300EEFAEFFB7900122168E9600479A4800263
:1028A300790002529D74F612097DEAFEEBFF8E82D7
:1028B3008F83A3A3A3A3A3A3E05440601B12571ABF
:1028C300122A0F60067AFF7BFF801A8E828F831293
:1028D3003E91FAA3E0FB800312149674FE6A700320
:1028E30074FF6B604112571A124C851214EAE98E79
:1028F300828F83600612293AE4800512293A740113
:10290300F07C827D138E828F8312505C1220DEE96D
:10291300F5087015EE4F60097901EEFAEFFB12141A
:1029230006A908024CB67508CDAA088E828F8312B9
:102933002941E960DF80EAE0240D12436022E024AC
:102943000C124360E0F912138E2274F612097DE92A
:10295300FEEAFF7A0F7B001218E6EA4B60198A82BF
:102963008B83740CF0EEA3A3F0EF8A828B83A3F026
:10297300124CE17900802FEEF91214308A088B098A
:10298300A808A909E849601C88828983A3A3A3A393
:10299300A3A3A3A3A374061259A5E0F9121346EE49
:1029A300F912140C7910024CB6C082C08390036AEA
:1029B300E0640F7014EA4B6010900365E0640860F4
:1029C30005E0640470031229CF02422FEAFCEBFDF9
:1029D3007A017B009003B0E0F9121A1822C082C07A
:1029E300837900EA241DF582EB123E8E24FD600BF1
:1029F30014600824FD600424FD70010902422F8E37
:102A0300828F83A3A3A3A3A3A3A3A3A3122A132203
:102A1300123ED6FB1214EAE9228E828F83A3A3A36C
:102A2300A3A3A3A3A3A3122A136402228E828F83D8
:102A3300A3A3A3A3A3A3A3A3A3124226900356E095
:102A43006822120F4E7F06020CE774F412097D749C
:102A5300FD120FB38A088B098A828B83A3A3E0F943
:102A63001214308A0A8B0BAE0AAF0BEE4F700302BF
:102A73002B54850882850983A3E064F160308508BF
:102A830082850983A3E064CD602485088285098358
:102A9300A3E0641A6018850882850983A3E064E9CA
:102AA300600C850882850983A3E064E170087900DE
:102AB300121406E9706C850882850983A3E0C0E0DF
:102AC30074021211F5D0E012420AEEF0A3EF1235B0
:102AD30035851882851983AA82AB8370051212AAE1
:102AE30080031214D274021211F5E064E970338E7C
:102AF300828F83122B60750A01780A120F3F750AC1
:102B0300E9780A120F3FE508240CF582E509123033
:102B130027123512FCA3E0FD8A828B8312352C1217
:102B23000F4E8E828F83A3A3A3A3A3A3A3A3A3E088
:102B3300640270108E828F83A3A3A3A3A3A3A3A372
:102B4300A37406F0850882850983A3A3E0F9121410
:102B53000C1213FA900BC51228180230E4E0F8A304
:102B6300E0F9E8FAE9FB2274F412097DEAFEEBFFCF
:102B73007508008E828F83A3A3A3A3A3E06042758D
:102B830008088E828F83A3A3A3A3A3A3A3A31241A5
:102B9300398B0BEA450B601075082C8E828F83A34B
:102BA300A3A3A3A3E0D2E0F08E828F83A3A3A3A366
:102BB300A3E0540364016003022C53430811022C65
:102BC30053EE24181230F16033EE241A1230F170F0
:102BD3000F122A2F7003A3E06970757508228070A5
:102BE300EE241BF582EF122C58241AF582EF1235CE
:102BF3003DEE241912574E1213348054122A1C70BE
:102C030003750801122A2F7003A3E0697006E50813
:102C1300D2E1F508E50860158E828F83A3A3E070E7
:102C230006E508D2E58004E508D2E6F508122A0293
:102C330064017006E508D2E0F5088E828F83A3A3B2
:102C4300E0600D122C6664016006E508C2E0F50839
:102C5300A9080230E9123E7C122C5F22E0FCA3E0BB
:102C6300FDEE22123E76123EAEF91214D8E922C0CE
:102C730082C08379018A828B83A3A3E0C394024039
:102C830001198A828B83A3A3A3A3E0C39402400206
:102C930079008A828B83A3A3A3A3A3A3A3A3A3E003
:102CA30064F87003A3E0F460458A828B83A3A3A333
:102CB300A3A3A3A3A3A3E064F97003A3E0F4602E8A
:102CC3008A828B83A3A3A3A3A3A3A3A3A3E064FAEE
:102CD3007003A3E0F460178A828B83A3A3A3A3A347
:102CE300A3A3A3A3E064FB7003A3E0F47002790041
:102CF3008A828B83A3A3A3E0F8900353E068600266
:102D0300790002422F74F012097D74DE120FB3EAC8
:102D1300FEEBFF8E828F83A3A3A3A3E0600E900B31
:102D2300C3124CAD6006900BC31228187403121122
:102D3300F5AC82AD838E828F83A3A3A3124D2F1292
:102D43005568E9600F74031211F5AA82AB8312135D
:102D5300ACE97008790112209002301CEE241B129A
:102D63003E8174101211F5124CF874091211F5E03A
:102D73006021741A1211F5E0FD74041211F5E0FCE0
:102D83008E828F8312505A7901122168E960047987
:102D93000280C374031211F5AA82AB831213A6E94E
:102DA300F50A74091211F5E0702A90034DE06024CE
:102DB3007422550A6422601C7442550A644270CF1F
:102DC30074201211F512303A600A74201211F512B0
:102DD300303370BBE9A2E6504174031211F5AA82A5
:102DE300AB8312139AE97003022D5774201211F565
:102DF300123E916403700F74201211F5A3124C9FBD
:102E0300A3E0640D601474031211F5AA82AB83125C
:102E130014FCE96401700302301CEE242C123024EC
:102E23001233487003A3E069701C75080078081218
:102E33000F3F7808120F3FEE242E12574E123040E8
:102E430012352C120F4E74091211F5E07003022E85
:102E5300F912304012505C1215508A088B09EA456A
:102E6300097003022F9674041211F5E0F88E828F15
:102E730083A3A3E028F8A3E03400F9E8240D12307B
:102E83002B8A828B83A3A3A3E068601CE88A828BCE
:102E930083A3A3A3F090808B1211CA8508828509AE
:102EA30083A3A3A3A31211BE7904E91211F512554A
:102EB300452AF8A3E034008882F583A3AA82AB8372
:102EC3001218DA8A0C8B0D8C0E8D0F8508828509FA
:102ED30083A3A3A3A3780C120EBF400302301C905C
:102EE30080C7780C1210A6850882850983A3A3A343
:102EF300A3780C121166900365E064046008E06433
:102F030009600302301CE50AA2E54003022FD4EE58
:102F1300242E1230F1851882851983F0EE242F12A6
:102F230030F1C0E074011211F5D0E0F0EE2430125C
:102F330030F1C0E074021211F5D0E0F074141211F4
:102F4300F5E064017027740E1211F5123E87EE242A
:102F5300121230F1687003A3E0697011740C12113E
:102F6300F5122A29700774141211F5E4F0EE2424E3
:102F7300123024120DB274041211F5AC82AD8374B5
:102F8300071211F5AA82AB831212B07404120F4E0A
:102F930002301C9003AAE064016003022EF974203E
:102FA3001211F512303A7009E50AA2E65003022E17
:102FB300F974101211F5E0F47003A3E0F4605AEE13
:102FC300FCEFFD74031211F5AA82AB831213B880D0
:102FD30048A2E6504474201211F512506B701A7413
:102FE3001A1211F5E06402703074031211F5AA820B
:102FF300AB8379001214C6802074201211F51230AD
:10300300337016741A1211F5E06404700C74031211
:1030130011F5AA82AB831214C07422025417EE2452
:103023000BF582EF123E7C22F582E9124D11F82254
:1030330012572CE0640722123EAE640622EE242AC5
:10304300123E79122C5F2412123E792274F4120973
:103053007DEAFEEBFF8C088D099005DEE0600F1220
:103063002A2F7003A3E0697005121322804F7900A1
:1030730012504F1213528A828B83E5824583603547
:10308300A3A3A3A3A3A3E05418602AE508241BF574
:1030930082E509123027120DB61237251230271296
:1030A3000DB6EE241812574E1230C2121364740474
:1030B300120F4E800879001230C212132880278E17
:1030C300828F83A3A3A3A3A3A3A3A3A3122C5F24ED
:1030D3000BF582EF1230DB223400F583123ED6FB70
:1030E300227403120F4E7F04020CE7EE2417F582BD
:1030F300EF124D112274F712097D74F7120FB3EA20
:10310300FEEBFF900365E06403600DE0640160087B
:10311300E0640960030231C28E828F83A3E0707E74
:103123007C007D007A027B0012208AEE2402FAEFF3
:10313300123A92123E87900356124CF8795312209A
:10314300C079001231C7E06409600312355A85184B
:10315300828519837401124CCE9003657404F07454
:10316300011211F5AA82AB83794A1220BA740112B3
:1031730011F5AC82AD837A5B7B031220A8900356D2
:1031830012555E7A03123564900350E0A2E35004B3
:10319300D2F08002C2F0124CBB122815801E8E8220
:1031A3008F83A3AE82AF83FC7D007A037B10122052
:1031B3008A8E828F83E0F91231C7E4F01213E2742E
:1031C3000902529F9003631230DF1212C29003650B
:1031D30022C082C083900334124CAD701F900365EC
:1031E300E014600924FC600A14600C800F90033C17
:1031F3008032900338802D90033A8028E849600894
:1032030090033512350C700C8A828B83A3E0F9127C
:1032130012B6801B9003351237C1700512151A8040
:103223000E9003D2124CAD6006124C9F1222AB02D9
:10323300422F74F412097D74FB120FB38A088B09B1
:103243007A0F7B001218E68A0A8B0BAE0AAF0BEEDD
:103253004F700302333C8E828F83125229795012AE
:1032630020BA850882850983A3E060030233249092
:103273000363E0F47003A3E0F46034900363E06459
:10328300FE7003A3E0F46027851882851983123347
:10329300487003A3E0696017850882850983A374D6
:1032A300EA1235427A637B0379501220C08072851B
:1032B300188285198312570D124CF87A567B0379BD
:1032C300531220BA900356124D29124CF87A597BA7
:1032D30003794B1220BA7A587B0379E11220BA9012
:1032E300036AE0C3940F5021900358E0C0E07402D6
:1032F3001211F5D0E0F074041211F57401F0041208
:1033030011F5AA82AB831220D2750A00780A120F34
:103313003F780A120F3F900BEBE0F9123523120F9F
:103323004E850882850983123341A3F090036574A7
:1033330003F0EEFAEFFB124CE174050230E6A3E072
:103343008E828F8322125711E06822124367227400
:10335300F512097D74D8120FB38A088B098A828B00
:1033630083A3A3A3123EB374151211F5AC82AD83EC
:103373008A828B83A3A3A3A3A3A3A3A3123512FAC5
:10338300A3E0FB1213E874151211F5E0706B8508C6
:1033930082850983A3A3A3A3A3A3A3A3E0C3940B3D
:1033A30040578E828F83A3A3A3A3A3A3A3A3E06405
:1033B300027046EE240B1230F1F4703D900365E089
:1033C3006402603AE064066035900334124CAD60E9
:1033D3000512350C604F900365E064086005E064F6
:1033E30004701674171211F5E0F9741C1211F5AC80
:1033F30082AD8312504F1213EE7428025C2B90039C
:1034030034124CAD701F7508007808120F3F78080E
:10341300120F3FEE2410123024125766123B7A1219
:10342300352C120F4E8E828F83124FCB123AA41279
:103433003E8774021211F5124CF8EE240D1230F18E
:10344300C0E074041211F5D0E0123535F508A3E09D
:10345300F509740F780812118474051211F5E50843
:10346300F074191211F5E0C0E074061211F5D0E002
:10347300F0741B1211F5E0C0E074071211F5D0E0EF
:10348300F074161211F5E0C0E074091211F5D0E0E2
:10349300F074171211F5E0C0E074081211F5D0E0D2
:1034A300F0EE24101230F1C0E0740A1211F5D0E0EE
:1034B300F0741A1211F5E0C0E0740B1211F5D0E0AC
:1034C300F074271211F5E0C0E0740C1211F5D0E08E
:1034D300F0741C1211F5A982AA8389088A09750A56
:1034E300007808120F377C087D0074101211F5AABA
:1034F30082AB8312485C120F4E851882851983AA0A
:1035030082AB831212BC0233FC1237C7640122E080
:10351300F98A828B83A3A3A3A3A3A3A3A3A3E022D8
:103523009003631255629003591230DF1214A8748A
:103533000222F0EE240B124D0E22124D11FA22F04C
:103543007A567B03795312354D221220C07A597B68
:1035530003794B1220C0229003631230DF12154A05
:10356300227B0012208A9003591255627A047B0051
:1035730012208A22F01257712274F212097D74F814
:10358300120FB3EAFEEBFF8C0A8D0B890C851882B0
:10359300851983AC82AD8375838075824D7408125F
:1035A3000E7FF50DEEFCEFFD851882851983AA8247
:1035B300AB83124F2C7003750D019003B1803BEE6A
:1035C300FCEFFDE508240BFAE5093400124F2B60EC
:1035D3001E850882850983A3A3E0650C7011850805
:1035E30082850983E0650A7004A3E0650B6038E512
:1035F300082414F582E509123027123A9CE50845A0
:10360300096024E50DA2E040B6850882850983E0C0
:10361300650A7004A3E0650B70D58508828509836C
:10362300A3A3E0650C70C8AA08AB097408022A4575
:10363300C082C0839003B102422C74F712097D90BB
:1036430003B1123ED68012EA2414F582EB1230271E
:10365300123EB3121964EEFAEFFBEA4B70E99003E2
:10366300B1E4F0A3F00252A27F07020CE774F11257
:10367300097DEAFEEBFF890A8C088D098E828F8310
:10368300E08C828D83124143AE82AF83E012491CEA
:1036930012488DC412491C12372EE054038C828DBC
:1036A3008312488BA2E2E4338C828D8312488A13FF
:1036B3001313541F12491C124889A2E7E4338C8266
:1036C3008D83A3A3A3A312372E8E0C8F0D750E002B
:1036D300780C120F377C087D00E50824071254D1BB
:1036E300120F4E12553C8E0C8F0D780C120F377C37
:1036F300037D00E508240F1254D1120F4EE50AC3CF
:10370300940F40148E828F83A3A3A3E0C0E01237EB
:1037130025123027D0E08006123725125999F0027E
:10372300366BE5082412F582E50922A3A31241476B
:103733000EAF832274F412097D74F9120FB3EAFEFB
:10374300EBFF8908900334124CAD600E1237C17041
:1037530009EEFAEFFB121514805F900363E06E70BD
:1037630003A3E06F70537401650860097A777B03E4
:10377300124F2C70447A007B02123CEB8B0BEA4510
:103783000B70369003661211CA851882851983124D
:1037930011BE90036CE0C0E074041211F5D0E0F0A8
:1037A30074051211F57401F074061211F512522901
:1037B300121286E9609B12128C74070230E61237EC
:1037C300C764022212572DA3A3A3A3A3A3E02274C9
:1037D300F512097D8A088B098A828B83A3AE82AF97
:1037E30083E0F91212DA8E828F83E064EB600C853A
:1037F3000882850983A3E064E1700985088285094D
:1038030083A3E4F0122815750A01780A120F3F8585
:103813000882850983A3E0F5087808120F3F790031
:10382300123523120F4E1213FA025C2EEAF0A3EBA9
:10383300F002422F74F612097D9003B4E0701B7CF2
:103843000079017A007B0012142AEA4B600C8A8209
:103853008B83124CAD6003121388024CB6C082C036
:1038630083123CD3401079FF121424E9F890260305
:10387300E493C398500479018002790002422F74C3
:10388300F012097D8A088B09890B750C008A828BDB
:1038930083A3A3A3A3A3A3A3A3E0F91214308A0EC3
:1038A3008B0FAE0EAF0F750A01EE4F600302396046
:1038B300850882850983A3A3A3A3A3A312555E85C9
:1038C3000882850983A3A3A3A3A3A3A312465C121F
:1038D300505C1214188A0C8B0DAE0CAF0DEE4F70AA
:1038E30003023A838E828F83A3A3A3A3E4F0A3F0FE
:1038F300E508240B123A8FE0C0E0123021D0E0F04B
:103903001214F0EE240CF582EF124C81E508240E1C
:10391300F582E509123E84EE240EF582EF124CF592
:10392300750C01EE2406F8EF123A8B547FF0A3E0F6
:1039330054FC1257C3E0540460030239E6900BC9E8
:1039430012464D7407780812106D8E828F83A3A3DD
:10395300A3A3A3A3E04508F0A3E04509F08E828F5B
:1039630083A3A3A3A3123A9A74077808121184E5D8
:10397300085407F508E50B607A8E828F83A3A3A30F
:10398300A3A3A3A3A3A3740212488E240D12435C22
:10399300E0A2E2500B900351124D29A3A3124CF85D
:1039A300E5087003023A58EE2406F8EF3400F9E80C
:1039B300FAE9FB8A828B83E0547FFCA3E054FCFD8D
:1039C300E50824FFF508E434FFF5097407780812C5
:1039D300106DEC4508F8ED4509F98A828B83124C8A
:1039E300F880728E828F83A3A3A3A3A3A3E0448052
:1039F30002395FE5087005750A0080598E828F834E
:103A0300A3A3A3A3A3A3E0542060121218E0EA54D3
:103A13007F245F8E828F83A3A3A3A380238E828FB1
:103A230083A3A3A3A3A3A3E05410600A1218E0EA9C
:103A3300540F240A80DD8E828F83A3A3A3A3740172
:103A4300F0A3E4123AA47404123CE28B09EA450998
:103A53007003124C74E50CA2E050288E828F83A36E
:103A6300A3A3A312528FF9EEFAEFFB12141EE9601F
:103A730012124CA36003123E6CEEFAEFFB121964B0
:103A8300750A00A90A02541A124DEC22FAE5093408
:103A930000FB8A828B8322A3A3E0F508A3E0F50948
:103AA30022123AA8221254EDA3A3A3A3A32274F4CF
:103AB30012097D74F7120FB37E00121430EA4B70B3
:103AC30003023B738A828B83A3A3A3A3A3A3A3A30E
:103AD300A3E064066003023B738A828B83A3A3A3E0
:103AE300A3A3A3A3E0FF8A828B8312436FE0C0E00A
:103AF30074081211F5D0E0123EA7124F32124CF89F
:103B0300121442EF54086066851882851983125592
:103B13005E7A007B001214128B0BEA450B704F90F8
:103B23000363123F971220EA7C007D007A007B003A
:103B330080288E828F83123E91F47003A3E0F46099
:103B43002D900363123B7A12505C121DBAE9641A7A
:103B5300601C7C007D00EEFAEFFB1214128A0A8BC4
:103B63000BAE0AAF0BEE4F70C979001220F07E0145
:103B7300EEF974090230E6123B7E22E0FCA3E0FD7D
:103B83008E828F8322C082C083EA4B70059003B577
:103B930080068A828B83A3A3123D9760258A828B3A
:103BA30083A3A3A3A3A3A3A3E0540860E5EC4D6000
:103BB300158A828B83123E916C7003A3E06D70D2E1
:103BC30080047A007B0002422F74F212097DEAFE20
:103BD300EBFF890A8C088D097A107B0012195EEAC3
:103BE3004B603F8A828B83A3A3A3A3A3A3A3A3A313
:103BF300E4123E95A3E50A125733A3123C2F8A829F
:103C03008B83A3A3A3A3E4F0A3123EA1A3F01255B5
:103C1300C7EA240CF582EB124133123C28A3A3F02C
:103C2300A3F0022A48A3F08A828B8322A3A3E50888
:103C3300F0A3E509F02274F412097DEAFEEBFF8993
:103C4300088C0A8D0BEE4F6055740165087014796A
:103C530001121424E9F8902607E493C398500F79CE
:103C630011806A74046508702F123CD340F18E8270
:103C73008F83A3A3A3A3A3A3A3A3A3E508124143F1
:103C8300A3125CB88E828F83A3A3E4F0A3F0900306
:103C9300B5124CAD6021800D7402650860D079C106
:103CA300802BE0F8A3124D22A3A3123D97888289AB
:103CB30083A3A370ED80039003B5EEF0A3EF123C52
:103CC300E28B0BEA450B7003124C7479000230E966
:103CD3007904121424E9F890260BE493C39822F094
:103CE300123CE7227A207B009003B0E0F9121A2AF3
:103CF30022C082C083E9F879009003B5801D8A82CF
:103D03008B83A3A3A3A3A3A3A3A3A3E068600574C6
:103D1300FF687001098A828B83A3A3123D9770DE2B
:103D230002422F74F712097DEA4B70059003B580A8
:103D3300068A828B83A3A3123D9760248A828B8396
:103D4300A3A3A3A3A3A3A3A3A3E06970E4EC6014B8
:103D53008A828B83E0240D12554FA2E240D3800464
:103D63007A007B000252A2C082C0839003B5800612
:103D73008A828B83A3A3123D9760128A828B83A3CB
:103D8300A3A3A3A3A3A3A3E06970E580047A007BA4
:103D93000002422F1230DFEA4B2274F212097D8AAD
:103DA3000A8B0B8C0C8D0D750800750900EA450B09
:103DB300602E9003B580068E828F83A3A3123DEA03
:103DC300601EAC0CAD0DEEFAEFFB850A82850B830A
:103DD3001222ABE9640170DFEEF8EFF98808890974
:103DE300AA08AB09022A48E0FEA3E0FFEE4F2274C3
:103DF300F712097D9003B5123E877C007D00800D8C
:103E0300E8FCE9FD88828983A3A3123E87E8496021
:103E130030EA687002EB6970E79003B512505CE812
:103E23006A7002E96B88828983A3A37008123E87B4
:103E33009003B58009123E878C828D83A3A3124C15
:103E4300F80252A274F712097DEAFEEBFFEE4F600F
:103E53001512143C123EB9124CA36003123E6CEED1
:103E6300FAEFFB1219640252A2EE240C123E7912ED
:103E73003ECE22EE241DF582EF3400F58322F58237
:103E8300EF123E7C12422622F582EF123E7C123E56
:103E9300AE22123E992212573BA3A3A3A322123EA2
:103EA30099A3A322123C29123EAE22125726E022E6
:103EB300E0FEA3E0FF228E828F83E0241C12436086
:103EC300123ECE8E828F83123ECE22123ED6FB123C
:103ED300196422E0FAA3E022C082C083EAFCEBFD6E
:103EE300EC4D700479058044EC24FBF582ED34FF3E
:103EF300124CAB7007123F32E0F460051218EC80ED
:103F0300E39003B0E0C0E0123F32D0E0F09026002F
:103F1300E493F97AB77B03121916E96401700B7AFB
:103F2300007B20124C7879008002790402422FEC46
:103F330024FFF582ED34FFF5832274F412097DA288
:103F4300AFE433F508C2AF9003B7123DEA6038EE31
:103F530024FBF582EF34FF124CAB7A007B209003F5
:103F6300B06005124C7B8005E0F9121922E4F50AD2
:103F7300F50B780A120F3BEEFCEFFD7AB77B0312C9
:103F830019107402120F4EE508A2E092AFEEFAEF99
:103F9300FB0230E9125562851882851983AA82AB28
:103FA300832274F212097D74FC120FB3EAFEEBFF55
:103FB300750AFE750BFF121400E9600579110241C1
:103FC30028EE24151230F16037900BDDE0C4335432
:103FD300E0F8E0333354FC48C0E0EE2415123024FB
:103FE300D0E01241431241398B09EA45096011754A
:103FF3000AFFEE240F1230F14404124D06D2E0F012
:104003008E828F83122A0D6006EE2412124130EE47
:1040130024131230F17010902606E493C0E0EE24CE
:1040230013123024D0E0F08E828F83E0A2E7500495
:104033005403801CEE24141230F17015900342E0F7
:10404300C0E0EE2414123024D0E0F0900342E004E8
:10405300F0EE24111230F1640170169005D5E06082
:104063000D90034DE0700A8E828F83E0700312413E
:104073002D8E828F83E064017013EE240B123E8B2E
:1040830064027009EE240F1230F14440F085188267
:10409300851983AC82AD83EEFAEFFB1214668A08AE
:1040A3008B0974FE650A700374FFF470098E828FA6
:1040B30083A3A31254DDEA450960668E828F83E0F1
:1040C300C0E074011211F5D0E0F074021211F51280
:1040D30055CB74011211F585820C85830D780C1272
:1040E3000F3BEE240F123024120DB6EE240E1230C5
:1040F300F1F50C780C120F3F900356120DB67407AE
:104103001211F5E0F9AC0AAD0B1214607407120F2B
:104113004EE9FE74106E700BAA08AB091219648085
:10412300027E10EEF97404022A45EE2411F582EFA3
:10413300123E7CE4F022A31230DF79FF12198222AF
:1041430012414722F08E828F83A322C082C08374E0
:10415300DE120FB38A828B83A3A3A3A3123E8774B9
:104163000E1211F5E8F0A3E912421D740C1211F5B9
:10417300124216240DF582EB1230F4C0E0741A12C9
:1041830011F5D0E0F012542AEB123E847420121180
:10419300F51242162415F582EB1230F4C0E07408D0
:1041A3001211F5D0E0F0EA241CF582EB123E847480
:1041B300121211F51242162411F582EB1230F4C0DB
:1041C300E074091211F5D0E012420A74FFF0740191
:1041D3001211F574FFF074021211F574FFF0908060
:1041E3008B120DB274041211F5AC82AD83740712F5
:1041F30011F5AA82AB831212B07404120F4E790028
:104203007422120F4E802512420E22F085188285E9
:10421300198322E8F0A3E9F0EA22123C29A312420F
:104223002522A3E0F8A3E0F92212505CD083D082C8
:10423300020EE474EC12097D74EE120FB38A128B32
:1042430013ECFEEDFF890974261211F51254DD7487
:10425300281211F5E0F51074291211F51243517467
:104263002B1211F5E0F50EA3E0F50F7508107A1E79
:104273007B0012195E74021211F5124C857402123E
:1042830011F5124CAD700302434A851882851983D8
:10429300AA82AB837950124B6012505C74021211E4
:1042A300F512436FA3124C8574101211F5125CBA08
:1042B30074021211F5E0240B12435C7402F0121124
:1042C300F512436F7402F01211F512571E1255CBFB
:1042D30074021211F5125071E509F074021211F50E
:1042E300E0240C12435CE510F074021211F5124342
:1042F30059E512F0A3E513F074081211F5E50CF07B
:10430300A3E50DF0740A1211F5E510F0850E828510
:104313000F83C082C083740D1211F5AC82AD83D0BC
:1043230083D0827403120E7FF974021211F5AA82EC
:10433300AB83121406E964017005750800800874E4
:10434300021211F5123E72A90874120254F4E0F538
:104353000CA3E0F50D22E0241C12436022F8A3E035
:10436300124367223400F98882898322125064A39E
:10437300A3A3A3A32274EE12097DEAFEEBFF8C082C
:104383008D098E828F83A37408124D41E060088EDD
:10439300828F83A37410F01230EE60098E828F83B4
:1043A300A3E02408F0EE24151230F160088E828F0A
:1043B30083A3E004F08E828F83A3A3A3A3A3A3E02C
:1043C30060198E828F83A3A3A3A3A3A3A3E0C33304
:1043D3002402F88E828F83A3E028F0EE241112309A
:1043E300F16005750B0E8003750B008E828F83A31E
:1043F300C082C083EE240D1230F1D083D082F8E066
:1044030028250B8C828D83F0EE24111230F1600588
:1044130012486C28F0850882850983E0C3947540AF
:104423000975080075090002455AE0FA7B00125627
:1044330079700302455AEEFAEFFB12146CEA850811
:1044430082850983124C86EE2402F8EF12334E1252
:104453004654124596F0EE24040808EF12334E1228
:104463004A96A3124596A3A3F0EE241312457CF0BB
:10447300EE241412457CA3F0750A08EE24161230BC
:10448300F16010EE241812555BE508240812575CFE
:10449300750A101230EE6016EE241A12555B850A67
:1044A3000CE508250C12575C7408250AF50A8E8260
:1044B3008F83A3A3A3A3A3A3E06059EE2407F5105E
:1044C300EF3400F511851082F583E0C0E0124563F7
:1044D300123027D0E0124586E0C0E0124563123067
:1044E30027D0E0124586A312456F120F378510823D
:1044F300851183E0C333FCE433FD850A0CE508250D
:104503000C1254D1120F4E851082851183E0C333F0
:10451300250AF50AEE24151230F1600BC0E01245AE
:1045230063123027D0E0F012302112456F120F379B
:10453300EE240D1230F1FC7D00850B0A8E828F83F1
:10454300A3E0F8E50828F8E5093400F9E8250AFAB4
:10455300E91254D4120F4EAA08AB097F0A020CE7E2
:10456300850A0CE508250CF582E50922E0F50CA384
:10457300E0F50D750E00780C22123E791245A0A3CA
:10458300A3A322F0050A8E828F83A3A3A3A3A3A3CD
:10459300A3A322A3A31257C7A31245A022124A9A88
:1045A300A3A32274F612097D8A828B83E0FC900315
:1045B3005312464D7402780812106DEC4508FCAD99
:1045C30009EA24121246477406780812106DEC4566
:1045D30008FCED4509FDEA2415F582EB1230F46081
:1045E30004780180027800E4C8F9ED49FDEA24115A
:1045F300F582EB1230F4F508880974097808121073
:104603006DED4509FDEA2416124647740B7808122E
:10461300106DED4509FDEA2417124647740C78081E
:1046230012106DED4509FD8A828B83A3A3A3A3A377
:10463300A312464D740A780812106DECFAED450981
:10464300FB024CB6F582EB123E7CE0F508750900DF
:1046530022E085088285098322A3E0F98508828503
:1046630009832274EE12097D8A0A8B0BECFEEDFF9F
:10467300750F01E9C39408500579000248598E82E9
:104683008F83E9F0124ABFE96003750F00124AA352
:104693008E828F83124AEDEE12542BEF124AE2C040
:1046A300E0EE2411123024D0E0124ADAC0E0EE2406
:1046B30012123024D0E012414374081254E5A3A32C
:1046C300A3E06015124A8BEE2413F582EF124CF52A
:1046D3008E828F83A3E02408F08E828F83A3A3A30B
:1046E300A3A3A3A3A3E060218E828F83A385820863
:1046F300858309124ACEEE2415F582EF124CF58517
:104703000882850983E02408F08E828F83A3A3A304
:10471300A3A3E0601A8E828F83A385820885830911
:10472300124AB28E828F83A3A3A3A3A312487EEE61
:104733002419124130EE241B124130A3124D39E0EB
:1047430070030247EDEE2419F8EF3400F98E828FDF
:1047530083A3858208858309E0FAE50A2AF582E5C1
:104763000B1230F48882898312487EFAE50A2AF50F
:1047730082E50B1230F4C0E0EE241A123024D0E0AC
:1047830012487E88828983E06059F89025FFE4937C
:10479300C398500575110C8008EE24191230F1F5F9
:1047A300118E828F83A3E0F8E50A28F50CE50B123E
:1047B3004862120F37E511C333FCE433FD7A907B73
:1047C3000A12485C120F4EEE241B1230247490F030
:1047D300A3740AF0E511C333F8850882850983E0E1
:1047E300288006EE2418125996F08E828F83A3E058
:1047F300F88E828F83E0C398500302467CA3E0FACD
:104803008A08E50A2508F8E50B3400F9EE241DF5BE
:1048130082EF124E0112488EC39AC0E0EE241712A3
:104823003024D0E0124CFE602BEE2417F8EF340056
:10483300F9880889098882F583E024F2124DE2247D
:104843000EFAA3E03400FB88828983124C85124858
:104853006CC398F0A90F02455E1218C87403223482
:1048630000F50D750E00780C2290034EE0F912212D
:1048730062E9F8850882850983E022F0850882854C
:104883000983E004F022A3A3A3A3A3F08E828F8362
:10489300E02274F412097D8A088B09EA124923F095
:1048A300EA1313543F12491CA3A3A3F0EAC413133E
:1048B300124923A3A3F0EB12491512492D74097869
:1048C3000A12118412491312492C740A780A12111C
:1048D30084E50A5401C0E0EC2418F582ED12302778
:1048E300D0E0124932740B780A121184124913A3CF
:1048F30012492C740C780A121184124913A3A3A32E
:10490300A3A3A3A3A3F0740D7808121184022C535C
:10491300E50A54018C828D8322540F8C828D83226D
:1049230054038C828D83A3A322A3A3A3A3A3A3F0E5
:104933008A0A8B0B22C082C08379008A828B83A36D
:10494300A3A3A3A3A3E090034D600FE070228A8288
:104953008B83A3A3E07019098016E060138A828B0E
:1049630083125053900356E06A7003A3E06B70E721
:1049730002422F74F012097D8A0A8B0B890C8C0872
:104983008D09124ABF124AA3850882850983124AF8
:10499300EDE50812542BE509124AE2C0E0E50824CC
:1049A30011F582E509123027D0E0124ADAC0E0128D
:1049B3003725123027D0E0124E097408124E2260B8
:1049C30011124A8BE5082413124DFD124E09E024FF
:1049D30008F0850882850983A3A3A3A3A3A3A3A3A4
:1049E300E06017850882850983A3124ACAE5082473
:1049F30015124DFD12488E2408F08508828509831F
:104A0300A3A3A3A3A3E06019850882850983A3AEAA
:104A130082AF83124AB285088285098312488904CA
:104A2300F0AA08AB0912147EE9F50D7056850882C9
:104A3300850983A3A3A3A3A3A3124A967014E0FA40
:104A43008A0EE50A250EF8E50B124CEAE50CC39A2B
:104A53008021124ACAE8240EF8E9124CEA90034E68
:104A6300E0F91221628E828F83E0F8E50CC398246B
:104A7300F2C399C0E0E5082417F582E5091230274F
:104A8300D0E0F0A90D02541AE50A2408F8E50B3426
:104A930000F922124A9A22E0850882850983A3221B
:104AA300850A82850B83A3A3124B03E0F9EA22E074
:104AB300F8E50A28F582E50B124D11228A828B83D1
:104AC30012541F12147822AE82AF83E0F8E50A284D
:104AD300F8E50B3400F922124B16A3A3A3E022122C
:104AE3003E7CE8124B0FA3A3E022A3A3A3A3A3A39B
:104AF300A3A3A3124B0F124B03A3A3E0F9EAF822DB
:104B0300E0FA850A82850B83A3A3A322F0A3E9120B
:104B13004B1622F0850A82850B83A3A3A3A322C08D
:104B230082C0837AC57B0379E21220BA7AC57B03FC
:104B330002422FC082C08390035602422CC082C01F
:104B43008374FE120FB3851882851983AA82AB83FF
:104B5300794B124B6012505C74020242051220BA68
:104B630085188285198322C082C083794A1220BAAC
:104B730002422F74F612097D9003CDE0FE04F0EE9D
:104B8300F91214308B09EA450970EDEE60EAF90277
:104B93004CB674F012097DEAFEEBFF8C088D09898F
:104BA3000A74101211F5E0F50B74111211F5E0F50A
:104BB3000C121550EA4B7013E50C7042A90AAC08AD
:104BC300AD09EEFAEFFB121568806EE50A6021EA83
:104BD3002402F582EB1230F4850A082508F8E43440
:104BE3000013E813F070098A828B83A3A37401F086
:104BF300E50C6045E50B70068A828B83E4F0740153
:104C0300650C7035E50B9003D47004E4F0802AE062
:104C130004F0900BCAE0F89003D4E0C398401AE480
:104C2300F0900359E06E7003A3E06F700CEEFAEF9F
:104C3300FB79011212D4124C3F02541A7A017B0001
:104C43009003B0E0F9121A2422C082C08374016A6F
:104C53007001EB70077A01124C768012900BC1122F
:104C63004C85EA4B60051229CF8003124C3F024268
:104C73002F7A207B009003B0E0F912191C22340034
:104C8300F583EAF0A3EBF022C082C083900BC3024A
:104C9300382FC082C083900BC502382F12572D22A4
:104CA300EE240CF582EF3400F583124226E8492204
:104CB300120F4E7F02020CE7A2F0E43385188285BF
:104CC3001983124CD779521220C022124CD7794241
:104CD3001220C022F0AA82AB8322AA08AB09900358
:104CE300B0E0F91218F2223400F9E508241DF58228
:104CF300E509123E7CE8F0A3E9F0221254E9A3A3EC
:104D0300E022A3F0EE2415124D0E22F582EF3400BB
:104D1300F583E022124D1B223400F583E0F8A3E073
:104D2300F98882898322E0F8124D2F22A3E0F98EBD
:104D3300828F83A3A322F0EE2418123E7922F0EE91
:104D43002416123E792274F412097DEAFEEBFF7AEF
:104D5300007B04124C43124DD8124CF89003657437
:104D630009F012148A8A088B09AC08AD09EE2413E2
:104D730012302412505C124F2C640170487A0F12C7
:104D83004DCB60418A828B837402124DE2FAA3E019
:104D9300FB8A828B83A3E0FC8A828B83A3A3E0FB41
:104DA300EC850882850983A3A3124C8688828983B4
:104DB300125060124654124D05FAA3E0FB794A12D1
:104DC30020C0124CDD0230E97B001218E68A088B02
:104DD30009EA450922900336124226900BC522F0B8
:104DE300EE241DF8EF124DEC22124367E022124D20
:104DF300F5223400F5837401F022F582E509123EB1
:104E03007CE8F0A3E922124E0D22124E1122F08506
:104E13000882850983A322124E11A3A3A3A32212FE
:104E23004E1AA3A3E0221252331214DE22EE2417E9
:104E3300F582EF124DF512148AEE241A123E79EA26
:104E4300F0A3EBF02274F412097D74F3120FB3890B
:104E530008EAFEEBFF7C0D7D007900851882851939
:104E630083AA82AB831218D4EE241D123024125766
:104E73001EA3E0F8741F58600A790112209079008C
:104E8300024F23E8A2E55008740C1211F57401F0E7
:104E9300E8A2E75008740B1211F57401F0E8A2E6DA
:104EA300740A50081211F57401F080081211F5E02C
:104EB30064017005EE24138003EE241512555B7410
:104EC300021211F5AA82AB831220A8123021124FCD
:104ED30031124CF8740A1211F5E064017033122A8E
:104EE30002703B1214968A0A8B0BA80AA90BEE24B4
:104EF3000B1230F1687003A3E069702212148AEA7E
:104F0300FCEBFD74021211F5AA82AB83124F2C60E5
:104F13000D851882851983AA82AB831212CEA90844
:104F2300740D0230E6EEFAEFFB1220A2E922E01242
:104F33004F3622F8A3E0F98518828519832274F687
:104F430012097D74F3120FB38A088B09ECFEEDFF8F
:104F53007C0D7D007900851882851983AA82AB8335
:104F63001258C3A3A3A3A3A3A3A3A3A3124FCB1218
:104F73004FD4F8A2E55008740B1211F57401F0E850
:104F8300A2E75008740A1211F57401F0E8A2E6EEE4
:104F9300500424138002241512555B74021211F578
:104FA300124FBDA3A3E0C0E0740C1211F5D0E012C0
:104FB300522B1212C8740D024CB3AA82AB83122077
:104FC300A885088285098322E0124F36E8F0A3E919
:104FD30022F0123E76125722A3E02274F712097DC3
:104FE30074E1120FB3EAFEEBFF8E828F83125060DF
:104FF300A3A3A3E0A2E050518E828F83122B628A77
:10500300828B83A3A3A3A3A3A3E054FE1250788AA5
:10501300828B83125071E0F98A828B83E0241CFA1D
:10502300A3E0123A9212505C121484E9701B741DAF
:105033001211F512506B7011851882851983AC8299
:10504300AD83EEFAEFFB1214CC02529D8E828F8356
:10505300A3A3A3A3A3A3A3A3A31230DF2212506489
:1050630022125726A3A3A322123EAE640422E024F5
:105073001B1243602212420EAC82AD8322E9F879FF
:1050830000740468600A740A686005740368700138
:1050930009020EE474F612097D8A828B837420F070
:1050A300A3A37401F012127A8A088B09AE08AF0920
:1050B300EE4F60108E828F837401F09003A3E07033
:1050C30003124E30EEFAEFFB024CB6C082C083905F
:1050D30003B97401F0E9A2E350037403F0E9A2E118
:1050E3005004E0D2E2F002422F74F612097D7900F7
:1050F3007C008A088B097808120D2DF8FF071F51D1
:105103001D511D511D511D5116511A511F5113513E
:105113000C80097C0480050C80F67C089003B9E0C0
:105123005C6003098003EC600109024CB674F6125B
:10513300097D8A828B83E07012A3124CAD600C8AC6
:10514300828B8312505B1221E680047A007B00027B
:105153004CB674F512097D74F3120FB38A088B09E8
:10516300ECFEEDFF750A12EA45097005790002525B
:1051730024900356E065087004A3E06509701412D7
:10518300148AEAFCEBFD124F287005750A018003AF
:10519300750A00851882851983E4F0041211F5E578
:1051A30008F0A3E50912522B12123EE9602774039B
:1051B3001211F5AA82AB83121220E96401701675ED
:1051C3000A0174031211F5AC82AD83124F286021DA
:1051D300750A00801C7412650A70169003A2E064BD
:1051E30002700EEEFCEFFDAA08AB09121256E9702D
:1051F300DFEEFCEFFDAA08AB09121556E9F8740AB5
:10520300687005750A01801774A0687012EEFCEFD0
:10521300FDAA08AB09121562AA08AB09121574A9F5
:105223000A740D025C2B740212522F221252332283
:1052330012420EAA82AB832274F712097DEAFEEBB7
:10524300FF8E828F83A3A3A3A3A3A3A3A3E06015CD
:10525300EE24151230241230CF1214F6E9640170D3
:1052630004790180258E828F83A3A3A3A3A3A3A381
:10527300E06015EE241312302412528FFAA3E0FBE0
:105283001214F6E9640160D979008013123B7EA3FE
:10529300A3A3A3A3A3A3A3A3E022741F120F4E7F70
:1052A30001020CE774F012097D74FD120FB38A0832
:1052B3008B09ECFEEDFF890B74131211F5E0F50C6D
:1052C300750A0174011211F574041257566048E50A
:1052D3000C601DEA2417F582EB1259991257448A80
:1052E300828B83E0D2E7F0EA2414F582EB12413398
:1052F30012542AEB124D177403125CBCEE88828998
:1053030083A3A3F0EF88828983A3A3123C28123CD2
:105313002F121274E9F50AA90A740302541774ECE4
:1053230012097D74F5120FB38A0A8B0B890C8C0E4C
:105333008D0F741F1211F5E0F50D74201211F5E0B5
:10534300F510A3E0F5117E01EE1211F5740AF0E9F0
:105353007007E50DC333240AF01254FC70030253A3
:10536300FE1255117409F0A3E50CC43354E0450D46
:10537300125523E50C702D7C008023ECC333F8E435
:1053830033F9E51028F8E51139F988828983125435
:105393000B88828983123341F0A30EAF830CECC3D5
:1053A300950D40D7E5082417F582E509124DF11252
:1053B300148AE508241AF582E509124C8174031254
:1053C30011F5AC82AD83AA0AAB0B121226E9601960
:1053D300E5082416F582E5091254051211F5A88291
:1053E300A983E5082418124CF185088285098312E4
:1053F3005CB8AA08AB09121274E9FEEEF9740B0249
:1054030054F4124DF5740322E08E828F83F0A3AE21
:1054130082AF8322120F4E7F08020CE7123ED6F9A9
:10542300EA2400E439FB22EA240BF5822274EE120B
:10543300097D8A0C8B0D890E8C088D09741212114B
:10544300F5E0F50F74131211F51254DD90054312B4
:105453004CAD6077E50FC333F8E433F9E8240EFA73
:10546300E93400FB1218E68A108B11AE10AF11EE6F
:105473004F60588E828F8374D4F0A3A3E50CF0A3FE
:10548300E50D1254E5E50EF0AC08AD09EE2405FA7E
:10549300EF12575FEE240D123024E50FF0850A0852
:1054A300850B09750A007808120F37E50FC333FC23
:1054B300E433FDEE240EFAEF1254D4120F4EEEFA3B
:1054C300EFFB90054312571E1222AB02455EFAE52D
:1054D300093400FB1218C8740322E0F50AA3E0F5AF
:1054E3000B221254E9221254ED22124147A3A3A323
:1054F30022120F4E7F0C020CE7851882851983AAAE
:1055030082AB831214DE8A088B09EA450922EA2456
:105513000BF582EB124D11FEA3E0FF8E828F8322E7
:10552300F0A3AE82AF83AC0EAD0FEEFAEFFB1255D4
:1055330035221220A812553C22EE2408FEEF340037
:10554300FF22E0FA8E828F83A3A3E022FEA3E0343E
:1055530000FF8E828F83E022123E7912556222E091
:10556300FCA3E0FD221230DF1214722274F612093A
:105573007DEAFEEBFF9003BA801388828983E06E95
:105583007003A3E06F603A88828983A3A3124CADB2
:1055930070E87A047B0012195E8A088B09A808A9AF
:1055A30009E849601C888289831255CB9003BA129B
:1055B300505C88828983A3A3124C859003BA124C52
:1055C300F8024CB68A828B83EEF0A3EFF02274F4D8
:1055D30012097D7E009003BA80070E88828983A317
:1055E300A3124CAD70F4EEC333FAE433FB125679D5
:1055F300607E7F009003BA80248882898312555E7F
:10560300EFC333FAE433FBE5082AF582E5093BF5FA
:1056130083ECF0A3EDF00F88828983A3A3124CAD32
:1056230070D79003AB122A3C7003A3E0697808702B
:1056330019120F3BEEF50A780A120F3F7C777D03B0
:1056430079009003AB125684801A120F3BEEF50AD1
:10565300780A120F3F7C777D0379009003AB1250D9
:105663005C1215087403120F4EAA08AB09121964D1
:1056730012128C0230E912195E8A088B09EA450975
:10568300221230DF12150E22C082C08380128A825A
:105693008B83A3A3123E879003BA124CF8121964AA
:1056A3009003BA123D9770E602422F74F612097DF9
:1056B300900363123EB39003CE12570D124CF87A47
:1056C300CE7B0379501220C09003CE122C5BFAEFED
:1056D300FB12156E9003CE123EB3900545124CADEE
:1056E30060257A067B001218E6EA4B601A8A828BE1
:1056F3008374D5F0A3A3E4125733041257449005DF
:105703004512571E1222AB024CB612571122E0F873
:10571300A3E0F9900363228E828F83125722221211
:10572300572622E0F812572C22A3E0F58388822221
:105733001257372212573B22F08A828B83A3A3A3EB
:1057430022125737A3EEF0A3EFF022F582EF124DAA
:1057530011F922124E29EA4B22FAE5093400FB1211
:1057630020A822124D30A3A3A3A3A3A3A322902670
:1057730001E4932401F8E43400F97A027B002274F3
:10578300F712097D7E008004125D6F0E125893405C
:10579300F77E00EE1257AE74FEF0A3041257C3E473
:1057A300F00EEEC3940340EB0252A275F003A4F88B
:1057B300A9F074BC28F8740339F988828983A32279
:1057C3001257C722F0888289832274F712097D7FDA
:1057D3000080010F9025FEE493F8EFC3985026EF65
:1057E30012597F6A7003A3E06B70E8125D1C6C7042
:1057F30003A3E06D600A74FF6C700374FF6D70D3D4
:1058030012588A80047A007B000252A274F61209AD
:105813007D7CFF7DFF7AFE7BFF121532EA4B7040E1
:105823007508008036E50875F017A4F8A9F0742B05
:1058330028F5827409125991600C742A28F5827430
:10584300091259917013741C28FE740939FF8E8252
:105853008F8312599EEEFAEFFB05081258F940C5E3
:10586300024CB674F412097D8A088B09ECFEEDFF35
:10587300800B121544EEFCEFFDAA08AB091215329A
:10588300EA4B70EE0230E9741C28FA740939FB22E2
:105893009025FEE493F8EEC3982274F712097DEA8B
:1058A300FEEBFFEE4F60101258BD74FEF0A304121E
:1058B3005CC214F0A304F00252A27C177D007900AD
:1058C3001218D48E828F832274F712097DEAFEEBBD
:1058D300FF7508008018E50875F017A4F8A9F01201
:1058E3005D277003A3E06F6003125D77050812580C
:1058F300F940E30252A29025FEE493F8E508C39829
:105903002274F612097D1215328A088B09A808A998
:1059130009E849600AE8240DFAE93400FB80047AB7
:10592300007B00024CB674F412097D8A0A8B0BECDF
:10593300FEEDFF750800750900802EE50975F01767
:10594300A4F8A9F0125D62601EE50912597F650A89
:105953007004A3E0650B700375080AEEFCEFFD12FB
:105963005C1E60034308A005099025FEE493F8E557
:1059730009C3985004E50860C2022C5375F017A4BC
:10598300F8A9F012598A22741C28F582740939F592
:1059930083E022F582EF123E7CE4221230DF121301
:1059A3006A221257C7A3A3A3A3A3A3A3A32274F298
:1059B30012097D8A088B09ECFEEDFF740E1211F5B6
:1059C3001254DD750C007C007D0180101218E0E597
:1059D3000CF5F0EA84ACF0750C007D0078007900DA
:1059E3008003125B5B125BB74003025A7DE8FAE95E
:1059F300FBEA75F017A4FA85F00D75F017EBA425F3
:105A03000D125B937003A3E0F460D7125B7165081A
:105A13007004A3E0650960CA125B716E7003A3E0B2
:105A23006F60BF125B71650A7004A3E0650B60B21F
:105A3300E8FAE9FBEA75F017A4FA75F017EBA42569
:105A43000DFB742A2AF5827409125B525094740177
:105A53006D050C608DE50CC39C4087E875F017A4B9
:105A6300F8AAF075F017E9A42AF9741C28F58274D2
:105A73000939F58312505C025B4F7800790080038B
:105A8300125B5B125BC44003025B36E8FAE9FBEA94
:105A930075F012A4FA85F00D125BA364FE7003A3E4
:105AA300E0F460DC125B9965087004A3E0650960AB
:105AB300CF125B996E7003A3E06F60C4125B9965AC
:105AC3000A7004A3E0650B60B7E8FAE9FBEA75F036
:105AD30012A4FA75F012EBA4250DFB74D32AF582F8
:105AE3007406125B525099E8FAE9FBEA75F012A4C6
:105AF300FA75F012EBA4250D125B6464016081E07A
:105B030064027003025A8374016D050C7003025A18
:105B130083E50CC39C5003025A83E875F012A4F882
:105B2300AAF075F012E9A42AF974CA28F58274065A
:105B3300025A74E50C6011EC700E7401650C60037D
