:020000040000FA
:06000000020A670201BACA
:03002B0002088E3A
:030033000206338F
:030043000207436E
:030053000200EBBD
:03006B0002060D7D
:1000830002014F0101FF01010503010F10FEFFEB08
:1000930012EB12EB12EB12A711A111EB12C220000B
:1000A3000000006020000000000C0000000C0001B4
:1000B300FFFF80EE36004301010200FE0500000051
:1000C30071066400020200080000050307051E0212
:1000D300051E0A0A03B80B02803E0102222214966F
:1000E3005118000202200006C0E074F21203D3A2EA
:1000F300AFE433FED2AFE5A7FFE5A1F5085F5410E7
:100103006006121A5975A1EFE5085F5408600812DA
:100113001A5F75A1F7802BEFA2E0C0D0E508A2E03B
:1001230092F01209A4158182F05017906198E0F8BB
:10013300900B50E0C398A2D265D0335002E8F0751B
:10014300A1FEEEA2E092AF7F01020432C0E074F29E
:100153001203D3A2AFE433FED2AF9061A4E0F875EB
:100163009B00E59158540860087591F7121AA7800F
:100173002AE59158541060087591EF121AAD801B4F
:10018300E8A2E0C0D0E591A2E092F01209A41581A3
:1001930082F05007E0C2E0F0121BFD9061A3E0F88B
:1001A300E5E9585404600E121BD375E9FB90619383
:1001B300E0A2E640F2808BC0E074F21203D3A2AF58
:1001C300E433FED2AF9061A5E0F8E5BF5854046074
:1001D3000675BFFB121C15020145C3E498F8E499A8
:1001E300F912021E8026C3E49AFAE49BFBE920E796
:1001F300E912021EE498F8E499F922C3E498F8E4BA
:1002030099F912021EE498F8E499F9C3E49AFAE41E
:100213009BFB22EB20E7CFE920E7E0B90010BB000E
:1002230008E88AF084F8AAF022E4FBC8FA22EB700B
:10023300227B10C833C8C933C9335007C39AC3DB01
:10024300F280069A50012ADBEAC833F4C8C933F4B2
:10025300C9FA2275F008E4C833C8C933C933C99A47
:10026300C99B5004C92AC93BD5F0ECFBC833F4C879
:10027300E4C9FA22080808EAC0E0EBC0E086F0E728
:10028300A4FA180986F0E7A42AFA180986F0E7A465
:100293002AFA180986F0E7A42AFA1986F0E7A4FBDC
:1002A300E5F02AFA190886F0E7A42BFBE5F03AFA01
:1002B300190886F0E7A42BFBE5F03AFA181809862B
:1002C300F0E7A4C5F02BFBE43AFA1908E7C5F0C63A
:1002D300A426F6E5F03BFBE43AFA1886F0E7A4F629
:1002E300E5F00826F6E43B08F6E43A08F6D0E0FB2E
:1002F300D0E0FA22E4CFC0E0E4CEC0E0E4CDC0E039
:10030300E4CCC0E075F020C3E633F608E633F60824
:10031300E633F608E633F6181818EC33FCED33FD34
:10032300EE33FEEF33FFC3EC9709ED9709EE970920
:10033300EF97191919400FFFEC97FC09ED97FD0989
:10034300EE97FE191906D5F0BEECF709EDF709EEA5
:10035300F709EFF7191919D0E0FCD0E0FDD0E0FE62
:10036300D0E0FF222518C582C0E0E51934FFC5831C
:10037300C0E0E518C3958224F810AF08858319857A
:1003830082188008858319858218D2AFCEF0A3E541
:1003930020F0A37808E608F0A3DEFAEFF0A3E581E6
:1003A30024FAF8E608F0A3E608F0A3E608F0A308A9
:1003B30008E608F0A3E608F0A315811581D0E0FE56
:1003C300D0E0F8158115811581E8C0E0EEC0E02288
:1003D300C0D02518C582C0E0E51934FFC583C0E04D
:1003E300E518C3958224F310AF0885831985821815
:1003F3008008858319858218D2AFC8F0A3E9F0A3DA
:10040300EAF0A3EBF0A37908E709F0A3D8FAECF03C
:10041300A3EDF0A3EEF0A3EFF0A3D0E0F0A3D0E0C0
:10042300F0A3D0E0F0A3E520F0A3E5F0F0A322854C
:100433001983851882E0C0E0A3E0F9A3E0FAA3E002
:10044300FBA37808E0F608A3DFFAE0FCA3E0FDA332
:10045300E0FEA3E0FFA3E0C0E0A3E0C0E0A3E0F57B
:10046300D0A3E0F520A3E0A3F5F010AF088583192E
:100473008582188008858319858218D2AFD082D0EF
:1004830083D0E0F8D0E032120AC9B900030204CCE9
:10049300E49003017899790E8002F0A3D8FCD9FA8D
:1004A300901099AA82AB83900086786679018015B3
:1004B300E493A3AC82AD838A828B83F0A3AA82AB3D
:1004C300838C828D83D8E9D9E775827A7583E27448
:1004D300031208067582A375831E74001208062191
:1004E3000075F0108E1A8F1B85821F85831E851859
:1004F30082851983E0CEA3E0CF851F82851E83EB1F
:10050300C9EAC8EDCBECCAC3E833C8E933C9EA3357
:10051300CAEB33CBC3EA9EF51DEB9FF51CB3500426
:10052300AB1CAA1DEC33CCED33CDD5F0DAAE1AAF4C
:100533001B22D083D082ECC0E0EDC0E0E493A3FCA7
:10054300E493A3FDED4C600D120651EC24FFFCED8A
:1005530034FFFD80EFE493A3FCE493A3FDED4C6033
:100563000D1206EEEC24FFFCED34FFFD80EFD0E02E
:10057300FDD0E0FCE493A3C0E0E493C0E02285193E
:1005830083851882E0A3FEE0A3F5207808E0A3F6B4
:1005930008DFFAE0A3FFE0A3C0E0E0A3C0E0E0A32C
:1005A300C0E0E0A3C0E0E0A3C0E010AF088582187C
:1005B3008583198008858218858319D2AFD083D0AB
:1005C3008202080CD083D082E9C0E0E493A3C386FF
:1005D300F0C5F095F0F908E493A386F0C5F095F023
:1005E300700BE493A3C3994005E9048002A3E47567
:1005F300F002A42582F582E5F03583F583D0E0F996
:10060300E493A3C0E0E493C0E022C0E074F21203D9
:10061300D3A2AFE433FED2AFE589A2E150031219AE
:1006230057758900C2C5EEA2E092AF7F0102043282
:10063300C0E074F21203D3A2AFE433FED2AFE58B72
:10064300A2E05003121957758B00C2E880D8C0E0AE
:10065300C3E49396087401939618400FE49366706D
:100663000808740193661870007019A3A3C3E49378
:1006730096087401939618A3A3400DD0E0D0E0D060
:10068300E0020571A3A3A3A3A3A3D0E02274048073
:100693000474028000CCC0E0EDC0E0E518C39CCC3C
:1006A300AD1950011D10AF068C188D1980068C18DA
:1006B3008D19D2AF120788D0E0FDD0E0FC2274027E
:1006C3008000CCC0E0EDC0E0E518C39CCCAD195070
:1006D300011D10AF068C188D1980068C188D19D248
:1006E300AF120766D0E0FDD0E0FC22C0E0C0F08886
:1006F300F0E4936670080874019366187000A8F01C
:10070300A3A3700BD0F0D0E0D0E0D0E0020571A33A
:10071300A3D0F0D0E022D083D082CCC0E0E493A376
:1007230060061207C81470FAE493A360061208D88F
:100733001470FAD0E0FCE493A3C0E0E493C0E02299
:10074300C0E074F21203D3A2AFE433FED2AFC2C04F
:10075300E5D1A2E450031219CFEEA2E092AF7F01DC
:10076300020432CAC0E0E493A3C582CCC582C58328
:10077300CDC583F0A3C582CCC582C583CDC583DA3D
:10078300E5D0E0CA22CAC0E0E0A3C582CCC582C5D9
:1007930083CDC583F0A3C582CCC582C583CDC58374
:1007A300DAE6D0E0CA227009080808226016181891
:1007B30018C6C333C608C633C608C633C608C6330D
:1007C300C6D5E0EA22C0E0E493A3D39C5010E4939F
:1007D300A3C39C400AD0E0D0E0D0E0020736A3A335
:1007E300A3D0E022C008C3E096F50808A3E0964230
:1007F3000808A3E096420808A3E09645087001D3D1
:10080300D00822C09FF59FE473D09F22D083D0826B
:10081300C09FE493C0E0740193C0E0740293F59F1A
:10082300227404800A74038006740280027401C077
:10083300E0F40412083FD0E0120AA4222518F5823E
:1008430010AF08F518400215198008F51840021575
:1008530019D2AF85198322BB0102E722C082C0836C
:1008630089828A83BB0003E08002E493D083D08231
:1008730022C0D0251810AF08F518500205198008BA
:10088300F51850020519D2AFD0D022C0E0C0D0E88D
:10089300C0E0E5A8D2AFC2C7A2E792AFD0E0F8D0DC
:1008A300D0D0E0326016080808C6C313C618C613B2
:1008B300C618C613C618C613C6D5E0EA22C3E0C6D7
:1008C30096F608A3E0C696F608A3E0C696F608A334
:1008D300E0C696F622C0E0E493A36C7009D0E0D0A2
:1008E300E0D0E0020736A3A3D0E022251810AF081A
:1008F300F518400215198008F51840021519D2AFF2
:1009030022C3E09608A3E09608A3E09608A3E09626
:10091300A2D265D03322E066701008A3E066700AA5
:1009230008A3E066700408A3E06622E76670100877
:1009330009E766700A0809E76670040809E7662292
:10094300C3E697F60809E697F60809E697F6080955
:10095300E697F622C3E096F008A3E096F008A3E03A
:1009630096F008A3E096F022E627F60809E637F6A4
:100973000809E637F60809E637F622E026F608A363
:10098300E036F608A3E036F608A3E036F622E026C2
:10099300F008A3E036F008A3E036F008A3E036F051
:1009A30022C0E0E8C0E0E58124FCF8E6A2E7D0E05D
:1009B300F8D0E022700422600D18C6C333C608C6FF
:1009C30033C6D5E0F41822E657F60809E657F608C9
:1009D30009E657F60809E657F622E056F608A3E0BB
:1009E30056F608A3E056F608A3E056F622E056F0C2
:1009F30008A3E056F008A3E056F008A3E056F0225F
:100A0300E647F60809E647F60809E647F60809E661
:100A130047F622E4C396F608E496F608E496F60849
:100A2300E496F622C3E7960809E7960809E79608CD
:100A330009E79622C6F4C608C6F4C608C6F4C60873
:100A4300C6F4C622600D08C6A2E713C618C613C6AD
:100A5300D5E0F322C3E09608A3E09608A3E0960846
:100A6300A3E0962275D000758140751801751903AE
:100A73000002048AE0F608A3E0F608A3E0F608A360
:100A8300E0F622600C08C6C313C618C613C6D5E029
:100A9300F422E6F008A3E6F008A3E6F008A3E6F0E4
:100AA30022CAC0E0E6F0A308DAFAD0E0FA22E0FABC
:100AB300A3E0FBA3E0FCA3E0FD22EAF0A3EBF0A399
:100AC300ECF0A3EDF022E5C754F84401F5C7790132
:100AD300222518F582E43519F58322C2AF75D69F16
:100AE3000200002212080F0EE30212080F5BE40259
:100AF30012080FFEE40212080F45E60212080F6304
:100B0300E60212080FA4220012080FB622001208F0
:100B13000F08230012080F69230012080FF32300A4
:100B230012080F97240012080FEB240012080F0479
:100B3300250012080F2A250012080F652500120848
:100B43000FA9250012080FD0250012080F21260037
:100B530012080FD1260012080F89270012080F511F
:100B6300280012080F11290012080F552900120836
:100B73000F7A290012080FBD290012080F0A2A0054
:100B830012080F622B0012080FE82B0012080F0641
:100B93002C0012080F302C0012080F4A2C001208E8
:100BA3000F592C0012080F642C0012080F242D007B
:100BB30012080F7D2D0012080F3F2E0012080F4759
:100BC3002E0012080F0B2F0012080F772F001208A8
:100BD3000FA2300012080FC7300012080F3D31007A
:100BE30012080FCF310012080F8F320012080FAE18
:100BF300320012080FBD330012080FCF3300120862
:100C03000F3F340012080F69340012080FF7340045
:100C130012080F30350012080F7C350012080F98A8
:100C2300360012080FE1380012080FEC38001208E2
:100C33000FF7380012080F02390012080F0C3900A1
:100C430012080F17390012080F31390012080F3B31
:100C5300390012080F45390012080F5039001208E5
:100C63000F78390012080FD3390012080FDD39004D
:100C730012080F013A0012080F253A0012080F83D9
:100C83003A0012080FC73A0012080FE33A0012089D
:100C93000F5A3B0012080F923B0012080FDE3B0075
:100CA30012080F3B3C0012080FF53C0012080FD945
:100CB3003E0012080F323F0012080F624000120874
:100CC3000F88400012080F11420012080F8D4500D3
:100CD30012080F5F470012080F28490012080FD5AA
:100CE300490012080F404B0012080FDF4B00120897
:100CF3000F244C0012080F8E4C0012080F9D4C005D
:100D030012080F244F0012080FD6500012080F4389
:100D1300510012080F22520012080F3B5300120811
:100D23000FB8540012080FD7540012080F2C5500A7
:100D330012080F31560012080F59560012080FB14E
:100D4300560012080F90570012080FD457001208CC
:100D53000F1F580012080F8A580012080FCB5900B2
:100D630012080F2F5A0012080F7D5B0012080FDDC7
:100D73005D0012080F0E5E0012080FC65F00120816
:100D83000F1B600012080F1F610012080FBC6100E7
:100D930012080F15620012080FC8620012080F6ACA
:100DA300630012080F0A640012080FAF64001208F0
:100DB3000F25810112080F64810112080FAB830113
:100DC30012080FF5830112080F10850112080F781E
:100DD300850112080FAD850112080F218701120842
:100DE3000FA4890112080FCD8A0112080F638B012A
:100DF30012080F6B940112080F00950112080FE7F8
:100E0300970112080FDA980112080F489901120886
:100E13000F8E9A0112080F709B0112080F559D0146
:100E230012080F669F0112080FD09F0112080FA22C
:100E3300A00112080FD0A00112080F8DA101120802
:100E43000F64A20112080F2BA30112080FCFA301F5
:100E530012080FF8A30112080F1AA40112080F7049
:100E6300A60112080F48A70112080F8CA701120848
:100E73000FF4A70112080FACA80112080FDEA80196
:100E830012080F22A90112080F58A90112080FA472
:100E9300A90112080FF9A90112080FFEA9011208EE
:100EA3000F51AA0112080F76AA0112080F85AB0190
:100EB30012080FE9AB0112080F59AC0112080FE534
:100EC300AC0112080FB2AF0112080F96B00112085D
:100ED3000F19B20112080F4FB40112080FFDB4012C
:100EE30012080FADB50112080FEEB70112080F91EA
:100EF300B80112080FD8B80112080F84BA011208FA
:100F03000F98BA0112080FA2BA0112080FCABA0148
:100F130012080FD6BA0112080FF5BA0112080F15FD
:100F2300BD0112080F64BE0112080FA8BE0112080A
:100F33000F50BF0112080F33C00112080FDEC001AA
:100F430012080F2AC20112080F28C30112080FCE7C
:100F5300C30112080F5EC40112080F75C401120801
:100F63000FACC40112080FB6C40112080FC1C401AB
:100F730012080FDFC40112080F23C50112080F80E6
:100F8300C50112080FA5C50112080FBFC50112083C
:100F93000F4BC60112080F68C70112080FD5C7010E
:100FA30012080FBCC80112080FE3C80112080F573B
:100FB300C90112080FD2C90112080FD6CA011208BB
:100FC3000FCCCB0112080F7BCC0112080F8ECD0181
:100FD30012080F2ACE0112080FB7CE0112080F957F
:100FE300CF0112080FCDCF0112080F25D00112082F
:100FF3000FEED00112080F0FD10112080F96D10185
:1010030012080FBAD10112080FDCD10112080F2503
:10101300D20112080F3BD40112080F22D501120886
:101023000FD3D50112080F09D80112080F59D8019F
:1010330012080F99D80112080FDBD80112080F37D5
:10104300D90112080F65D90112080F89D9011208B5
:101053000FDCD90112080F0ADA0112080F43DA0173
:1010630012080F98DA0112080FFEDA0112080F5264
:10107300DC0112080F75DE0112080FE2DE0112080F
:101083000F0BDF0112080F96DF0112080FFDDF01BE
:1010930012080F48E00112080F6CE00112080F90CC
:1010A300E00112080FEBE00112080F06E10112083C
:1010B3000FBFE10112080F6FF30312080FAEF30322
:1010C30012080F78800212080FBE800212080F9ECA
:1010D300810212080FA0820212080FA383021208D2
:1010E3000F2F850212080F8D850212080F4A860200
:1010F30012080F68870212080FD9870212080F150A
:10110300880212080F63880212080F6D8802120802
:101113000FB1880212080F0D890212080FA8890265
:1011230012080F258A0212080FF48A0212080F8D83
:101133008B0212080FAD8B0212080FE38B02120809
:101143000F148C0212080FD58C0212080FE58C02C3
:1011530012080F398D0212080F548D0212080F6600
:101163008D0212080F6F8D0212080FC98D0212082B
:101173000F258E0212080F718E0212080F8C8E0239
:1011830012080FBD8E0212080FDA8E0212080FE644
:101193008E0212080F5A900212080F73900212085F
:1011A3000FDA900212080FED900212080FFB900263
:1011B30012080FAF910212080F93920212080F99AF
:1011C300930212080F23940212080F2D940212089F
:1011D3000F9A940212080FB1940212080FE39402BB
:1011E30012080F1C950212080F46950212080FA74A
:1011F300950212080FC7950212080FE5950212080F
:101203000F2B960212080F51970212080F9E970296
:1012130012080FCD970212080F43980212080F6BA2
:10122300980212080FA4980212080FB2980212082B
:101233000F0A990212080F59990212080F9899027E
:1012430012080FC8990212080FF4990212080FFF2F
:10125300990212080F1D9A0212080FDF9A02120850
:101263000FE99A0212080F2A9B0212080F7F9B02B2
:1012730012080F939B0212080FA19C0212080FB4CD
:101283009C0212080FC99C0212080F6B9D021208E0
:101293000FEE9D0212080FAC9E0212080FB79E02BA
:1012A30012080FE39F0212080FFF9F0212080F514B
:1012B300A00212080F90A00212080FA5A0021208A4
:1012C3000F07A10212080F96A10212080FE1A10253
:1012D30012080F32A40212080FB0A40212080F253D
:1012E300A50212080F47A70212080F5FA7021208F0
:1012F3000F62A70212080F6EA70212080F82A7023D
:1013030012080F8AA70212080FBDA70212080F6D59
:10131300A80212080FE3A80212080F56A902120826
:101323000F0AAA0212080FBFAA0212080FDEAA02AE
:1013330012080F84AB0212080FAFAB0212080FB2F0
:10134300AB0212080F1CAC0212080F44AD021208C4
:101353000F1CAE0212080FA7AE0212080FC0AF0295
:1013630012080F7DB00212080FB6B00212080FE781
:10137300B00212080FA5B10212080FD5B10212086C
:101383000FB0B20212080F49B30212080FD4B3020E
:1013930012080F85B40212080F08B50212080F3A9B
:1013A300B50212080F7BB50212080F83F50112086C
:1013B3000FE8F50112080F25F60112080F74F60164
:1013C30012080F8AF80112080F6DFA0112080FD7DD
:1013D300FD0112080F12FE0112080F34FE0112085C
:1013E3000F97FE0112080FCBFE0112080FEEFE014C
:1013F30012080F1BFF0112080F77FF0112080F1BC2
:101403008D0312080F998D0312080FCF8D03120855
:101413000F5BDA0212080FAE8F0312080FCA8F0395
:1014230012080F0F900312080F9D900312080FF676
:10143300900312080F23920312080F359303120827
:101443000F92930312080FFE930312080F5F940386
:1014530012080FA0940312080F4D950312080F5F93
:10146300960312080F8A960312080FD596031208E3
:101473000FB9E00212080FAE970312080F69980321
:1014830012080FF9D10312080F6CD20312080F7759
:10149300D20312080F98D20312080FA9A903120846
:1014A3000FF5A90312080F63AA0312080F84AA03F6
:1014B30012080F34AB0312080F3DAB0312080F9051
:1014C300AB0312080FB9AB0312080F20AC031208C9
:1014D3000FB1AC0312080FF3AC0312080F3DAD03B9
:1014E30012080F9CAD0312080FC8AD0312080F5961
:1014F300AE0312080F98AE0312080FD7AE031208FB
:101503000F0CAF0312080F1EAF0312080F30AF0307
:1015130012080F4FAF0312080F58AF0312080F0E34
:10152300B00312080F4EB00312080F27EF0312087F
:101533000F48E00312080F7EE00312080FC7E00311
:1015430012080F17E20312080FF9E10112080F380E
:10155300E30112080F74E30112080F33E5011208C7
:101563000F5CE50112080FEFE70112080F33E801E2
:1015730012080FBCE90112080F54EA0112080FBC4C
:10158300EA0112080F5DEB0112080F9FEB0112082D
:101593000FDFEB0112080F6AED0112080FDAEE01FB
:1015A30012080FFFF00112080F2DF10112080F545A
:1015B300F10112080F5DF10112080FE4F1011208A5
:1015C3000F02F50112080F4BF40312080F61F40325
:1015D30012080F24F30312080F68D50312080F7BB8
:1015E300D50312080F18D60312080F53D603120897
:1015F3000F6ED60312080F93D60312080FD8D60323
:1016030012080F09D70312080F3AD70312080FC0A5
:10161300D80312080FC5F00312080FFBF0031208DA
:101623000F17F10312080F59F10312080F69F103A1
:1016330012080F05F50212080FD5F50212080F0460
:10164300F90212080F53F90212080F9FF902120848
:101653000F60FD0212080FF9FD0212080F2AFE02A5
:1016630012080F3CFF0212080F00800312080F4CF0
:10167300800312080F35810312080FCE810312086D
:101683000F18820312080F75820312080F89820351
:1016930012080FBB820312080FB9830312080FFD50
:1016A300830312080F18840312080F6784031208B8
:1016B3000F7D840312080F8A840312080FBE84036C
:1016C30012080FD7840312080FA1850312080FFB1A
:1016D300850312080F49860312080F6B860312084D
:1016E3000FDF880312080F14890312080FA489035C
:1016F30012080F198A0312080F1E8A0312080F5AC1
:101703008A0312080FB08A0312080F748B0312089E
:101713000F998B0312080FA38B0312080FA68B03D9
:1017230012080F2F8C0312080F4A8C0312080F5D47
:101733008C0312080F988C0312080F9B8C0312085A
:101743000FA68C0312080FE28C0312080FACFF02E2
:1017530012080FC4FF0212080F65A20312080FB488
:10176300A20312080F56A40312080F12A6031208AD
:101773000F5AA60312080F42A70312080F73A803F8
:1017830012080F95A80312080FF1A80312080F758A
:10179300A90312080FFB640012080F1C650012084E
:1017A3000F99650012080F1E660012080F9A660053
:1017B30012080F03670012080F4F670012080FCEBD
:1017C300670012080F60680012080FEC6800120827
:1017D3000F2E690012080F776D0012080FF76E00C5
:1017E30012080FCD6F0012080FFC6F0012080FE7ED
:1017F300710012080F67740012080F207500120899
:101803000F3D760012080F94790012080FA4790097
:1018130012080F057B0012080F917B0012080FBA04
:101823007C0012080FAB7D0012080F2D7E001208FA
:101833000F8AE60212080F44E70212080FB6E70206
:1018430012080F52E80212080FC2E80212080F7BB7
:10185300EB0212080F52EC0212080FBFEC0212083F
:101863000F3CEE0212080F06EF0212080F76EF028A
:1018730012080F3FF10212080F52F20212080FEB87
:10188300F20212080FB1F30212080F55C703120830
:101893000FA9C70312080F01C80312080F4CC8038E
:1018A30012080FAEC80312080F1AC90312080FCD8E
:1018B300C90312080F0ECA0312080F24CA03120821
:1018C3000F80CA0312080FBECA0312080F7FE40376
:1018D30012080FB0E40312080F6AE50312080FD0D1
:1018E300E50312080FF3E20312080FFAEF031208DD
:1018F3000F0BF00312080FABF00312080F59E603A6
:1019030012080F67E60312080F85F40312080F137A
:10191300F20312080F23F20312080F3EF203120818
:101923000F9FF20312080F25EE0312080FAAEE030E
:1019330012080F0EEF0312080FE5E70312080F0753
:10194300E80312080F6DE80312080F8DE80312086D
:101953000FD3E80312080F2EE90312080FC6EA0398
:1019630012080FDBEA0312080F4FEB0312080F698B
:10197300EB0312080F7CEB0312080F8AEB03120828
:101983000FA4EB0312080FC4EB0312080FEFCA03F3
:1019930012080FFDCA0312080F77CB0312080F5B5F
:1019A300CC0312080F14CE0312080F29F4031208F4
:1019B3000F77B00312080FE3B00312080FA2B103AD
:1019C30012080FACB20312080F05B40312080F601C
:1019D300B40312080FB5B40312080FBEB403120800
:1019E3000FD0B40312080F3AB50312080F4EB50314
:1019F30012080F58B50312080F29BA0312080F7EF5
:101A0300BA0312080F7ABC0312080FACBC03120806
:101A13000FCEBC0312080FE7BC0312080F00BD036F
:101A230012080F0ABE0312080FA5BE0312080F65A2
:101A3300E90312080F89E90312080FA2E903120848
:101A43000FD5E90312080F06EA0312080F34EA035D
:101A530012080F96EA0312080FA5EA0312080FAF44
:101A6300EA0312080FBCEA0312080FD7D8031208BF
:101A73000FFDD80312080F3AD90312080F49D903EF
:101A830012080F68D90312080FD0D90312080FD90F
:101A9300D90312080F38DA0312080F5CDA031208AD
:101AA3000F1BDB0312080F28DB0312080F39DB03BC
:101AB30012080FC3FF0112080FE0FF0112080F1CE9
:101AC300BF0312080F74C00312080F81C00312086A
:101AD3000F94C00312080FB3C00312080FC9C00349
:101AE30012080FDDC00312080F52C10312080FB70B
:101AF300C10312080F67C20312080F3CC303120885
:101B03000F4CC30312080F5BC30312080F7AF103D0
:101B130012080F9EF10312080FC6F10312080FEE0D
:101B2300F10312080FE9DD0312080F10DE03120898
:101B33000F31DE0312080F96DE0312080F67DB0373
:101B430012080F80DB0312080F8CDB0312080FA0AF
:101B5300DB0312080FBEDB0312080FC8DB031208F6
:101B63000FD2DB0312080FE5DB0312080F47DC0378
:101B730012080F80DC0312080FAFDC0312080FFDFD
:101B8300DC0312080F4CDD0312080F67DD03120894
:101B93000F71DD0312080F98DD0312080FDEDD035A
:101BA30012080FA9F20312080FC5F20312080F6BF4
:101BB300F40312080FE0980312080F0A990312089E
:101BC3000F26990312080F39990312080F4F99032F
:101BD30012080FAC990312080FDF990312080F20A4
:101BE3009E0312080F749F0312080FA79F03120886
:101BF3000FF39F0312080F35A10312080F5DA10312
:101C030012080F72A10312080F82A10312080FC654
:101C1300A10312080F27A20312080F37A203120809
:101C23000FC57E0012080FE07E0012080F097F0027
:101C330012080F237F0012080F487F0012080F6756
:101C43007F0012080F7F7F0012080FAD7F0012087C
:101C53000FC77F0012080FB8F30312080F79CE03E2
:101C630012080F80CE0312080F8CCF0312080FBC8B
:101C7300CF0312080FE2CF0312080F05D003120897
:101C83000F27D00312080F61D00312080FC7D00328
:101C930012080F00D10312080F4CD10312080F7959
:101CA300D10312080F99D10312080FF9EB0312089D
:101CB3000F11EC0312080FF6EC0312080F0FED03DC
:101CC30012080F12ED0312080F84ED0312080FC25E
:101CD300ED0312080F03EE0312080F94C303120857
:101CE3000FB3C30312080F02C40312080F1EC40369
:101CF30012080F4FC40312080F5CC40312080F69C4
:101D0300C40312080F55C50312080F93C503120825
:101D13000FA3C60312080FAEC60312080FC0C603F3
:101D230012080FC9C60312080FD3C60312080F6C9B
:101D3300B50312080FB1B90312080FBFB903120894
:101D43000FFCF30312080FBDD70212080F86D60249
:101D530012080FDAD50212080F20D40212080FD08E
:101D6300D10212080F57D10212080FFED002120837
:101D73000F8ED00212080F65D00212080F45CE0253
:101D830012080F11CE0212080FDECD0212080FC285
:101D9300CD0212080FDBCC0212080F93CC021208FB
:101DA3000FDECA0212080F5ECA0212080F5BCA02D4
:101DB30012080F58C90212080F26C90212080F632E
:101DC300C80212080F8EC60212080F1FC60212089D
:101DD3000FD7DF0212080FBBDF0212080F3FDF022B
:101DE30012080FF6DE0212080FAEDE0212080FF120
:101DF300C50212080FEEC50212080FDBC502120856
:101E03000F86C50212080FFCDD0212080F75C5020A
:101E130012080F67C40212080F31C40212080FDF41
:101E2300C30212080F6EDD0212080F1C970312087B
:101E33000F80C30212080F4FC30212080F17C0020C
:101E430012080FD7BF0212080FCBBF0212080F2BC5
:101E5300BF0212080F6BBE0212080FEDBB0212087D
:101E63000F7EB90212080F3CB90212080F10B80214
:101E730012080FC5B70212080F04B70212080FD7D2
:101E8300B60212080F1AB60212080FB0B5021208F2
:101E93000FEAB50212080F61DD0212080F3B8E0331
:101EA30000000080FBE473000136360101000102EB
:101EB30001000103010001040106060502000007F9
:101EC3000100340801000F090401010D0100FF0E98
:101ED30008000017020000190100FF1A0100011B8E
:101EE3000100FE1C0100081D0200001F010001206B
:101EF300010001210200002301000F24020000263B
:101F030001000127010008280200FF2A0100072B16
:101F13000102402C0100002D0100012E0100012FC0
:101F23000100FF30010B1C310800003A0100083B9F
:101F330001000F2F010000010171010101010111D5
:101F43000101013101010101018001100161013B26
:101F53000014006301730172016201430100011364
:101F63000106013D013500040112010001000100D9
:101F730001000104010401330133013C0144013236
:101F830001360000010001650100013500810100F7
:101F9300010501820183010001030471040204604D
:101FA3000411047004020402040104020410046115
:101FB30004000414046304730472046204430400FD
:101FC30004130406040004000404041204000400BF
:101FD30004000400045104640000040004000444E9
:101FE30004000400040004000465040004350481B3
:101FF3000464000504000483040004030271023036
:102003000160021102700201020202020280021048
:102013000261023A004100630273027202620243E8
:10202300020002130238000002000204021202003E
:102033000200020002000204020402370037003CDF
:102043000244020002390000020002650200023568
:10205300028102000205028202830200020103716F
:10206300030103010301030103010322030203012B
:102073000310030003000300030003000300030035
:1020830003420300032403060300030003040312B3
:10209300032503230325032303040304030003008D
:1020A3000300034403000300032303000365032128
:1020B300003503810300030503000300030003034A
:1020C30000710030016000110070003102200350E4
:1020D30004800010006100000014006300730072AC
:1020E300006200430000001300060000000000042B
:1020F300001200000000000000000004000400378C
:102103000037003C024400000000000000000065AE
:10211300000000350081000000050000008300007E
:102123000036000100060000000F00000000000060
:102133000000000000000003FFFF00000403FFFF96
:102143000000FFFF0FF4010005C404032000010099
:10215300140B000000000000000003010F00004901
:10216300181300E917010049180200B3170300B957
:10217300170400BF170500C5170600D117FFFF009E
:102183000001F90D06290E08230E0B350E10750DEF
:1021930002FF0D05170E07050E0CDB0D0DED0DFFF0
:1021A30000000112311207120D122B121F12191205
:1021B30037123D1243124F121312FB11F511001681
:1021C3000F00000B150B020002220F32000006EB7A
:1021D30012FD120313CB110913C511D111140AE512
:1021E300D5C5B5A5A5958585756545136313691390
:1021F3004B13571351130511FF103B1141113511A7
:10220300ED1000011916181616152303000C0E0203
:102213000B040B0A0708000F303017181921301B65
:102223001D1F3000034948424D1817250502303061
:1022330016181920231A1C1E3000383C3E363B3B2F
:10224300352B432C251249125D1355125B1239139A
:102253000F13151321131B130204020101010109BA
:1022630002111117110B11471100000000000000AB
:10227300BE040A1D112F11FA06E02104007F00E8B5
:10228300030C000E00280000000000090108010CE7
:102293000A0308090004000CFF1E1E0508040310AE
:1022A30021C082C0838A828B83E0D2E7F0121717A2
:1022B30002341BC082C0837900122770125487C076
:1022C30082C08390033412420DD083D082C3E09C3A
:1022D300A3E09D500C125B5BFAA3E01222E76001BE
:1022E3000902341BFBEA75F00BA4FAA8F075F00B96
:1022F300EBA428FB900336E02AF8A3E03B8882F5A1
:1023030083E0540F2274F7120367890812277012AF
:102313002816ACF075F00BE9A42CF9900336E028ED
:10232300FEA3E039FF740165086006740265087056
:10233300208A828B831228021234E97402650870A2
:102343001B1226C112284970138E828F83E4F080FA
:102353000BEA2403FCEB1227E41227F0EEFAEFFB5F
:10236300120B0502345374F412036712648279006A
:102373008E828F83E06076890A890B8065E50A7512
:10238300F00BA4FAA8F075F00BE50B1222F47046DB
:10239300E50A75F00BA4F8AAF075F00BE50B12280B
:1023A300288E828F83E085088285098312290A8516
:1023B3000882850983A31234E9EE2403FCEF122774
:1023C300ED123422124F01AA08AB09120B05790151
:1023D300900334124916E50A2401F50AE50B34008B
:1023E300F50B1226C9E50A9AE50B9B40900236933A
:1023F30074F5120367EAFEEBFF740B120AD412346E
:1024030027750A01EC4D602BEC12649EED12548784
:102413001234E17901120B11E5084509606F850853
:1024230082850983A312648C7902AA08AB09120B73
:1024330011805AE5084509602B12548B123B551243
:102443003423122833700CEEFAEFFB120B17E9F565
:102453000A80CBEE2403FA12276B70317903EEFA6C
:10246300EFFB80CA8E828F83A3E064FE7003A3E038
:10247300F4700BEE24030A0A0A12276B700CEEFAAF
:10248300EFFB120B17E9F50A8003750A00A90A7F0F
:102493000302058174F7120367900334123463EA6D
:1024A3004B602FEA75F00BA4FAA8F075F00BEBA4C0
:1024B30028FBEAFEEBFF12153D90033612346390BE
:1024C300033612475B6012EEFCEFFD79001214A78E
:1024D3008007900336E4F0A3F002345390033412E0
:1024E3003EC5C3EE98EF9922C082C083EC4D6005D0
:1024F300121CD580097C087D0079001214A70234D0
:102503001B74F61203677900EA4B60187800880899
:102513001257CEEB125B5760047901780808E8C3C1
:10252300940840EA0234F274F712036774F3120852
:10253300EEECFEEDFF851882851983E4F004120AA0
:10254300D4EAF0A3EB124C877403120AD4AC82AD25
:1025530083EEFAEFFB120B29EEFAEFFB120B2F02BD
:10256300344E74F712036774F31208EEECFEEDFFBA
:10257300851882851983E4F0EAFCEBFD7403120AE3
:10258300D41229037401120AD41234DD8E828F838C
:102593001234E974FE68700374FF69600479018082
:1025A30002790002344E74F7120367EAFEEBFF125E
:1025B300260770141226128E828F83E0F4F88A8223
:1025C3008B83E058F0120B05A90802345374F712F9
:1025D3000367EAFEEBFF7508008E828F83E06022BB
:1025E300122607701D1226128A828B83E08F838E38
:1025F30082F8E058700CE0F88A828B83E048F0128E
:102603000B0580C4120B0BE9F5087401650822124F
:10261300649712281A12275CFAA3E039FB2274F498
:102623001203678A088B097C007D001226C11227DA
:10263300F01227811264897900850882850983A3B2
:10264300E064FE7003A3E0F460717E007F008062AB
:10265300EEFAEF1222E76057EEFAEFFBEA75F00BA2
:10266300A4FAA8F075F00BEBA428FB900336E02A3C
:10267300F50AA3E03BF50B850882850983A3124B7A
:10268300D5850A82850B83A3E06A7003A3E06B7090
:102693001EE50A2403FAE50B12276C700AE50A24E7
:1026A30003FCE50B1227ED122775790112549D12D5
:1026B30030601226C9EE9AEF9B4095023693EA24C6
:1026C300030A0A0AEB22900334125074C32274F3F0
:1026D3001203678A088B098A828B83A312648C1284
:1026E3002770126489750C001226C112276C70546E
:1026F3007E007F00804912274EFAA3E0398A82F5D3
:1027030083E0540F603612274EF50AA3E039F50B28
:10271300E50A2403FCE50B1227F73400FB121CCF58
:10272300E964017017850A82850B83A3125135A3CF
:102733001234E9122775750C0112549D1230601280
:1027430024DF40B2A90C7F05020581EEF8EFF9E81A
:1027530075F00BA4F812275C22AAF075F00BE9A41C
:102763002AF9900336E02822EF1228432212649DAF
:10277300EB22122781125498EEF0A3EFF022E50822
:1027830012649EE5092274F5120367EAFEEBFF8EDD
:10279300828F83A312648C7C007D00EE24030A0ADB
:1027A3000AEF1227F0EEFAEFFB120B0BE9F50A74AE
:1027B30001650A7029126497122816AAF075F00BA6
:1027C300E9122828850882F583122802122833701B
:1027D3000DE5082403FCE5091227E41227F002247F
:1027E300903400FDEE2403FAEF221227F73400FBA6
:1027F300120B29223400FDE5082403FAE50922A37C
:102803001228072212280B22E0F8A3E0F98E828F08
:1028130083A32212281A223400F583123EC9E875D5
:10282300F00BA4F822122762F508A3E039F5092278
:10283300E8F0A3E9F0E5082403FAE50912284322A6
:102843001228496401223400FB120B2FE92274F38E
:1028530012036774E61208EE126482750C017508A0
:1028630000750900750A00750B00851882851983A8
:10287300E4F0EE2403FCEF3400FD7403120AD412D7
:102883002903E964017023740B120AD41234E1742E
:1028930001120AD4124BD97003A3E0696051851861
:1028A30082851983858208858309740D120AD4E40D
:1028B30012290A740E120AD41234E9740D120AD4BE
:1028C300AA82AB83120B4DE96401700B740D120ADB
:1028D300D485820A85830B780A12082CAC08AD09CB
:1028E300EEFAEFFB120B1D7402120874E9F50CEEFD
:1028F300FAEFFB120B47A90C741A1208740227494A
:10290300122BD6120B532212345E123EC522C08202
:10291300C083780079008003122A011226C9E89A3D
:10292300E99B5029E8FAE9FBEA75F00BA4FAACF04D
:1029330075F00BEBA42CFB900336E02AFCA3E03BE1
:102943008C82F583E0540F70CF7900800279010205
:10295300341BC082C0839004E2123F1BEC75F0125B
:10296300A4FCA8F075F012EDA428FD79FF7AC27BD0
:102973000B1214A702341B74F7120367E9FEEAFF74
:102983007A007B00780079008028E8FCE9FDEC758B
:10299300F012A4FC85F00875F012EDA42508122EA0
:1029A30016C39E400AE0FCEFC39C4003122F35126E
:1029B3002A01122E0A40D3023453C082C083780006
:1029C30079008003122A011229F5501F122E1AF4DE
:1029D30070F2E875F012A4F8AAF075F012E9A42ACF
:1029E300F974C228FA740B39FB80047A007B000265
:1029F300341B9004E2122ECBC3E89AE99B22E8240D
:102A03000108E93400F92274F012036774F3120821
:102A1300EE8A0A8B0B8C0C8D0D8908EC450D601624
:102A2300AA0CAB0D120BA18A0E8B0FAE0EAF0FEEDD
:102A33004F6003022AC8120B778A0E8B0FA80EA9C8
:102A43000FE8FEE9FFE849607C90228C122B2A6094
:102A5300227403650860067404650870167A0479A5
:102A630003120B7190228C122B4140077A007B00DA
:102A7300022B2790228A122B2A601B74016508609F
:102A83000674026508700F7A027901120B719022A5
:102A93008A122B4150D68518828519837401F0124E
:102AA3000AD4124F01AC0CAD0D7403120AD4122BCD
:102AB300CF740B120AD412342F1238C9E4124EE920
:102AC3001210458004EE4F604A780074FF2508C356
:102AD3009404500278048E828F83124F018E828F6A
:102AE30083A3A3A3A3E508F0E88E828F83A3A3A304
:102AF300A3A3124F09120216122EE28E828F83A312
:102B0300A3A3A3A3A3A3F0122ED9120AB112548133
:102B1300120ABD122B2F400590109DE4F0120F1FD7
:102B2300EEFAEFFB023ECF12502349227A047900DA
:102B3300120B719004E2125B3DEA98EB9922122B7F
:102B43005A7583047582E2E493C398F8A3E49399D6
:102B5300F9C3EA98EB9922E493F8740193F9227488
:102B6300F212036774F31208EE8A088B09ECFEED88
:102B7300FF750A00EEFAEFFB120BA18A0C8B0DA86E
:102B83000CA90DE849603E88828983E065087004DA
:102B9300A3E06509602F88828983A3A3A3A3E0C36D
:102BA3009405502112532F8518828519837401F0DF
:102BB300120AD4125333EEFCEFFD7403120AD4123B
:102BC3002BCF750A01A90A740D0249CD122BD61217
:102BD3000B5F22AA82AB83120B2985188285198386
:102BE300AA82AB832274F6120367122C24600FA30C
:102BF300A3A3A3E014C394045004790180027900D1
:102C03000234F274F6120367122C24600FA3A3A3F9
:102C1300A3E014C3940250047901800279000234C2
:102C2300F2120B9B8A828B83E58245832274F61210
:102C33000367122C24600BA3A3A3A3E07004790100
:102C4300800279000234F2C082C083EAFCEBFD7A91
:102C5300007B00023418C082C0837C007D000234F4
:102C63001874F412036774F31208EEEAFEEBFF8C98
:102C73000A8D0BC3EC94F8ED94FF4007EE4F7003FD
:102C8300022D1D750800750900802E85188285198F
:102C9300837401F0123088120AD4123096601374D0
:102CA30003120AD4AC82AD83EEFAEFFB121CCFE918
:102CB3007049E5082401122EB69004E2E412502B69
:102CC300E50898E509995052E50875F012A4F8AAA9
:102CD300F075F012E509A42AF9125B7060D4EE4F87
:102CE30070A974FF650A700474FF650B60C4123029
:102CF30078650A7004A3E0650B70B7E50875F012F8
:102D0300A4F508A8F075F012E509A428F50974C222
:102D13002508FA740B3509FB80047A007B00023620
:102D23008E74F412036774F31208EE750800120B25
:102D3300A18A0A8B0BAE0AAF0BEE4F602A8518826D
:102D43008519837401123458F8A3E0F9740B120A3D
:102D5300D412356C120B417C127D0079FFEEFAEF31
:102D6300FB1214A7750801122B2F500990109D74A4
:102D730001F0120F1FA90802368E74F7120367E9D8
:102D8300FE74FE6A700374FF6B780079007005802F
:102D930052122A01122E0A504AE8FCE9FDEC75F0A2
:102DA30012A4FCAFF075F012EDA42F122E16F460EE
:102DB300E0E8FCE9FDEC75F012A4FC75F012EDA45B
:102DC3002FFD74C22CF582740B3DF583E06A70030A
:102DD300A3E06B70BC8009122E1A14C3940440172D
:102DE300122A011229F55018EE70EC122E1A640102
:102DF3006005E0640370E9123069FAA3E0FB800424
:102E03007AFE7BFF0234539004E2123F1FC3E89C17
:102E1300E99D22122F6A22E8FAE9FBEA75F012A46F
:102E2300FAACF075F012EBA42CFB74C62AF582748D
:102E33000B3BF583E022120BB302341BC082C08329
:102E4300790180F274F01203678A0A8B0B7A047992
:102E530001120B718A0C8B0DEA450D603EEAC333F8
:102E6300FAEB33FB12153D8A088B09AE08AF09EE66
:102E73004F60237AFE7BFF120BB974FE6A700374F2
:102E8300FF6B601B850882850983123463E5082480
:102E930002122EB680E1750C0080047E007F00854F
:102EA3000A82850B83E50CF0EEFAEFFB023ED4E5D4
:102EB300082407F508E5093400F509229004E21215
:102EC3003F1FC3EA9CEB9D22E493FA740193FB2218
:102ED30012149B740322125492E4F09080E922E8C6
:102EE3008E828F83A3A3A3A3A3A3A3A3122F0474EC
:102EF30001122F04A3F0EE2410125495E4F0A3F072
:102F0300221238D5A3A3A322C082C0837A007B00F8
:102F1300800419122F35122EBF5010122F54C39450
:102F23000550F0E970EC122F3E80047A007B00021A
:102F3300341BEA24010AEB3400FB22EA75F012A4E5
:102F4300FA75F012EBA428FB74C22AFA740B3BFB4C
:102F530022EAFCEBFDEC75F012A4FCA8F075F0126C
:102F6300EDA428122F6A22FD74C62CF582740B3D42
:102F7300F583E02274F712036774F31208EE7E0000
:102F83007F0002301CE50875F017A4F8A9F0125D64
:102F9300D1FAA3E0FBEEF8EFF9E875F012A4F8AC70
:102FA300F075F012E9A42C1230776A7003A3E06B7A
:102FB300603FE50875F017A4F8AAF0EA125DD0F8AF
:102FC300A3E0F97401120AD4E0687003A3E0696016
:102FD30020E50875F017A4F8EAF9741628FC740EB6
:102FE30039FD7403120AD4AA82AB83121CCFE960A1
:102FF30014E50875F017A4F8A9F0741428FA740EF0
:1030030039FB1210510508902291E493F8E508C3A7
:10301300985003022F881230609004E21261175017
:1030230039EEF8EFF9123069F47003A3E0F460E6C7
:103033008518828519837401F0EEF8EFF9E875F0CD
:1030430012A4F875F012E9A42AF9123088120AD4EE
:1030530012309660C175080080AD02344EEE240133
:103063000EEF3400FF22E875F012A4F8AAF075F011
:1030730012E9A42AF912307C2274C228F582740B57
:1030830039F583E02274C428F582740B39123EC3E8
:10309300740B22E8F0A3E9123574120B59E922C02C
:1030A30082C08390033D7411F0A3740EF090033F2C
:1030B300740BF0A3740EF0900343742BF0A3740C01
:1030C300F002341B74F7120367EAFEEBFF900377F9
:1030D300E06408601BE0640460168E828F83E05412
:1030E30003640170481234221239CAE06406703D49
:1030F3008E828F83A3A3E064FE7003A3E0F4602DAC
:103103008E828F83A3A31234DD900368E06870037B
:10311300A3E069700BEE2415F582EF125B5760088C
:10312300120EBFE9F5088008120EC580F67508C2B5
:10313300EEFAEFFB1215430225CB74F41203678AF0
:10314300088B098A828B83E0F8A3E0FAE82AFAE481
:103153003400FB12153D8A0A8B0BAE0AAF0BEE4F00
:103163006063850882850983E0FC7D007900121481
:10317300A78E828F83A3A312648C120F018E828F7A
:1031830083A3A3A3A3123463850882850983E0F88C
:10319300EE28F8EF34001234E5850882850983A30D
:1031A300E0C0E0EE240D125484D0E0F0120F13EED1
:1031B300240E125484E9124B36E0C0E0EE241112BF
:1031C3005484D0E0F0EEFAEFFB02369374F6120368
:1031D3006774EB1208EEEAFEEBFF12475860030236
:1031E30032737A077B0012153D9003391234631250
:1031F300475860788E828F83120AB190033A12394E
:10320300CD120ABD126350C0E012327FD0E0F0EE5F
:103213002405FAEF3400FB8A088B098A82F583E0E0
:10322300C0E012327AD0E012368AE0C0E012327A7D
:10323300A3D0E01234CF120AB18518828519831204
:103243000ABD88828983E0C0E07405120AD4D0E005
:10325300F0850882850983E0C0E07404120AD4D0A3
:10326300E0F07407120AD41233B580067910800295
:10327300790174150234EF12327FA322900339E0EF
:10328300FAA3E0F5838A82A3A3A3A322C082C08307
:10329300124758600D900339125062900339E4F0DD
:1032A300A3F0120E2F120FF102341B74F0120367F6
:1032B30074EB1208EEECFEEDFF89087425120AD4B4
:1032C300780C120A777429120AD4E0F9742A120AC4
:1032D300D4E0FC742B120AD4E0FD740F69700574FA
:1032E3000F6C60129006D0E06402700579C102335E
:1032F300B0E9C39C40F6900378780C120A95E50870
:1033030090037EF0E990037CF0ECA3F0ED90037F53
:10331300F074FF6A700374FF6B701D9010F2E0F499
:103323007003A3E0F470051214B3800C9010F21232
:103333003438E8F0A3E98007900375EAF0A3EBF0D3
:10334300EE4F6017EEFAEFFB1210B1E96401700B58
:10335300EEFCEFFD7A897B03121CD5900368E4F041
:10336300A3F090036BF0A3F0900388F09006D0E0F5
:103373006402700890037C740FF0A3F090037774D9
:1033830005F014120AD4E4F0900378120AB18518F8
:1033930082851983120ABD90037EE0C0E074051292
:1033A3000AD4D0E0F07407120AD41233B5741502AC
:1033B3003ED1E4123574121CFF22C082C0839003F5
:1033C30038E070031217E3120BFB804CC082C083FA
:1033D300900338E090109C7004E4F0802D7401F0A9
:1033E300900338E0F460237C41E0C394415002E051
:1033F300FCECF8E0C398F0EC75F0E8A4CCA8F07509
:10340300F003A428FD7A80123F277A9C7B10794130
:10341300121CED8003120BA7D083D08202080CEE9E
:1034230012549322E0F508A3E0F509221234332263
:1034330012280BA322123EC59003752274F71203C0
:1034430067EB90037FF0120E1D8005740D12087454
:103453007F0102058112345EA3E0221234CFA3223E
:10346300EAF0A3EBF02274F712036774F81208EE84
:10347300EAFEEBFF7900900377E064087044851857
:103483008285198374FDF0A374FFF0120EFB74029E
:10349300120AD41234637405120AD4E412345EE0BF
:1034A300C0E07404120AD4D0E01234CAC0E0740637
:1034B300120AD4D0E0F07407120AD4E41235701261
:1034C3000F3D74080234501234CFE022F08E828F05
:1034D3008322F085188285198322123EC522E0F8E3
:1034E300A3E0F9125492E8F0A3E9F0221208747FE2
:1034F30002020581C082C08390034974BBF0A374A8
:103503000CF09003EF7497F0A3740FF090034D74D5
:10351300F1F0A3740CF090034F74BBF0A3740CF0A0
:1035230090035174F7F0A3740CF002341B74F4127B
:10353300036774F91208EE8A088B098C0A8D0B85D0
:1035430018828519837808120A957404120AD4E93B
:10355300F07405120AD4E4F07406120AD4E41235A6
:1035630070120BE37407023690E8F0A3E912357486
:10357300221234D5AA82AB832274F41203678A0819
:103583008B098A828B831254A0EE4F700302368814
:1035930090031212475B60158A828B83A3A3E0F921
:1035A300EEFAEFFB9003131239CD121EA88E828F11
:1035B30083A3A3A3A3A3A3A3A3A3E0640270748E12
:1035C300828F83A3A3A3A3A3A3E0540270030236B1
:1035D3005A850882850983A3A3E064E960798E8212
:1035E3008F83A3A3A3A3A3A3A3A3A3A3E070149074
:1035F30010EAE0048E828F83A3A3A3A3A3A3A3A3B0
:10360300A3A3F08E828F83A3A3A3A3A3A3A3A3A3A4
:10361300A3E01412368AA3A3A37404F09010EB1250
:103623004EDBE8F0A3E9125FB48B0BEA450B7003A2
:103633001259928E828F83A3A3A3A3A3A3A3A3A3AD
:10364300E0640260128E828F83A3A3A3A3A3A3A328
:10365300A3A3E06406702E8E828F83A3A3A3A3A3E8
:10366300A3E0A2E0501F850882850983A3A3E0F9A4
:10367300EEFAEFFB121D898E828F83A3A3A3A3A36C
:10368300A3E054FEF080091238D122740D1208749D
:103693007F0402058174EC12036774DD1208EEEAFD
:1036A300FEEBFF8C088D097437120AD4780C120ACA
:1036B30077750A007405120AD4AC82AD83121471B3
:1036C3007412120AD4E070087415120AD4E0602050
:1036D3007405120AD4E0A2E6501E8E828F83A3A340
:1036E300A3A3A3A3A3A3A3124BD5120F73E960084B
:1036F3007903121CBD0238B77405120AD4E0540CC6
:1037030064047005750B018003750B00E0A2E5509E
:1037130035750A01E50BA2E0402C120F018A108BCC
:1037230011A810A911123422E0687003A3E06960A4
:10373300157405120AD4126493124BD1121D95E924
:103743006004790480AC7405120AD4E0A2E6502226
:103753007406120AD4E0540370187405120AD4E0F4
:10376300540C640C600CE0540C6408600575100183
:1037730080037510007405120AD4E05403F8740230
:1037830068700C126493124BD1120AF30238B774A7
:103793000168703AE510A2E050031238BF740512B5
:1037A3000AD4A882A9837403120AD4E8F0A3E91205
:1037B3003EB98518828519831238C9E0C0E07402C6
:1037C300120AD4D0E0123570121E790238B7E860BD
:1037D300030238B790035FE0640170108E828F8319
:1037E300A3A3A3A3A3A3E070030237457422120A81
:1037F300D47402123EB9741A120AD41234E9E510D1
:10380300A2E050087405120AD41238BFE50BA2E0F7
:10381300506AEE240FF582EF125B57C0E074171263
:103823000AD4D0E0F090031412475B70030238B758
:10383300120F018A128B13A812A913741A120AD435
:10384300E0687003A3E069706B780C120824780AAF
:10385300120830780812082CA910740C120AD4AC80
:1038630082AD837421120AD4AA82AB83900314120B
:1038730039CA121EA874071208748038780C12080B
:1038830024780A120830780812082C90037512065F
:1038930094EE2412F582EF1258857423120AD4ACE5
:1038A30082AD83740E120AD4AA82AB83121D7D7477
:1038B300091208747423120874025F7F126493124E
:1038C3005070120AE722E8F0A3E91238D122123825
:1038D300D522F08E828F83A3A3A3A3A3A32274F77D
:1038E3001203671216CF02345374F71203671216CA
:1038F300D502345374F71203671216E1023453C02E
:1039030082C0831216DB02341B74F712036712168C
:10391300E702345374F71203677409120AD4E0F50B
:103923000878081208301216F37401023450C0826A
:10393300C0831216FF02341BC082C0831217050214
:10394300341B74F712036712170B02345374F71204
:103953000367EAFEEBFF89087401650870147900B8
:10396300120D3390229CE493FC7900EEFAEFFB12E4
:103973000CA902345374F412036774F91208EEE9C4
:10398300FE8A088B098C0A8D0B7413120AD4124B0E
:10399300D590063112475B6027EE8518828519831F
:1039A300F07401120AD47808120A95EAF8EBF97454
:1039B30005120AD412356C9006311239CA121EA8A8
:1039C300023567FB90034BE0F8A3E0F5838882227E
:1039D300C082C08312173B02341B74F71203679033
:1039E300109FE0F97E00800B125B43540D6401705D
:1039F30001190E123BD75003E970ED02345374F7EB
:103A03001203679010A0E0F97E00800B125B435411
:103A13008D64817001190E123BD75003E970ED02DA
:103A2300345374F2120367890BE975F006A4240C6E
:103A3300F508E5F0122EBA8A0CE508250CFAE5091B
:103A43003400FB12153D8A0C8B0DAE0CAF0DEE4FFF
:103A53006027AC08AD0979001214A7123422E50BD4
:103A6300F0EE2508F8EF3509F98E828F83A3A3A31F
:103A7300A3A3A3A3A3A31234E9EEFAEFFB0249D055
:103A830074F6120367EAFEEBFF120C8590109EE0BA
:103A9300F8E9C3984009900345124BD5120C8BEEFD
:103AA3002402F8EF1251E590034712509F90034709
:103AB300E004F0EEFAEFFB120C918508828509838E
:103AC300E002569BC082C0837900900345800109C0
:103AD300124BD58A828B83E582458370F202341BB5
:103AE30074F7120367EAFEEBFFEE4F60569003454F
:103AF30012475B604E888289837A007B00EE658281
:103B03007003EF6583600FAA82AB83123B49E582A2
:103B13004583602F80E7900345123B55687002EFA1
:103B2300698E828F8370081234DD900345800312FF
:103B33005F911234E9EEFAEFFB121E49EEFAEFFB46
:103B4300121543023453123B4D22123EC988828917
:103B53008322123EC5EE22C082C0839003458004B7
:103B63008882898312475B600B8882898312420DA6
:103B7300EC4D70EC8A828B83E4F0A3F0E849600695
:103B830088828983800390034512346302341B7453
:103B9300F712036790034580048A828B83123BD21A
:103BA3004B60257E0080010E123BD750ECEE75F082
:103BB30006A4FCADF0EA2CFCEB3DFDEC2410F582F1
:103BC300ED123C2770E180047A007B00023453122B
:103BD3005074EA22123C30EEC3982274F712036742
:103BE3007D0080010D123C2CEDC3985034ED75F02F
:103BF30006A4FEA8F0E8FFEA2EFEEB3FFFEE24103A
:103C0300F582EF123C2770DCED75F006A4FEE8FFA9
:103C1300EA2EFAEB3FFBEA2411F582EB125B574CD9
:103C2300F0023453125B636922123C302212649D0A
:103C3300EB3400F583E0F82274F6120367120DAB40
:103C43007A007B008025EAF8EBF9E875F006A4F822
:103C5300ACF075F006E9A42C12504912635EA3E49C
:103C630012513FF0A31263641264DB902284122B7F
:103C73003940D37A007B00801C8A088B097403784F
:103C8300081209B7124AFDA374FEF0A304124F1FD2
:103C9300A3E41264DB902290123CDA40DC7A007BCE
:103CA30000801D8A088B09740378081209B774E32E
:103CB3001257CF740F12601674FEF0A3041264DB64
:103CC300902296123CDA40DB90228FE493900353C8
:103CD300F0123CE40234F2E493F8C3EA98EB940064
:103CE300227CE87D037A107B009003C2E0F9121571
:103CF300F72274F012036774F51208EE8A088B0931
:103D0300890A8C0BE9A2E050147508FC7509FFA21F
:103D1300E15005D2E4023DB7D2E3023DB71249BCFC
:103D23007003A3E06970057900023E84AC0A79024E
:103D3300AA08AB09120D87E960EDE50AF50C780CCA
:103D430012083079027CFE7DFFAA08AB09124737BF
:103D5300120874E96003023E82E50AC2E5F50A909F
:103D630003B5E07051E50AA2E6404B7403120AD48E
:103D7300AC82AD83AA08AB09120B35E9703212404D
:103D8300588A0C8B0DA80CA90DE8FEE9FFE84960E1
:103D930025EE24020A0AEF122849601AEE2402FCD7
:103DA300EF3400FD7403120AD4AA82AB83121CD52C
:103DB300E50AD2E5F50A900348E0F50C900368E0C4
:103DC300F50EA3E0F50F780E12082C7D017C009010
:103DD3000348E0F9AA0EAB0F120D3F7402120874E8
:103DE300E9F8900348E004F0E86003023E82E50A44
:103DF300A2E55004740E80027406C0E07401120A36
:103E0300D4D0E01254B18A0E8B0FAE0EAF0FEE4F2B
:103E13006069123EA2123EB9888289837401F074EC
:103E230078550AA31264A3E50C1264A3A3E508F072
:103E3300E509123E91E4F0E50AA2E5500F7403127E
:103E43000AD4AC82AD83E82406123E888E828F8327
:103E5300A3A374FDF0A374FFF0E50B601590229DFE
:103E6300E493F8E50BC3985009EE2413125484E548
:103E73000BF0EEFAEFFB120BD78006791080027974
:103E8300C7740B8049FAE93400FB121CD5228882DF
:103E93008983A3A3A3A3123E9D22125218A322EE49
:103EA30024171254957401F0120EFBEE241A1254C7
:103EB30095EAF0A3EB22F01264973400123EC3227A
:103EC300F583123EC922E0F8A3E0F922740D12082B
:103ED300747F0802058174F61203677A007B10125F
:103EE300599F60089003D47401F080299006D3E0B1
:103EF30064019010E87006E0FC79018004E0FC792D
:103F0300037A007B00120CA9902282123F1B7A00D5
:103F13007B10123F290234F2123F1F22E493FC74F8
:103F23000193FD227B009003C2E0F91215F1227484
:103F3300EC1203678A088B098C0C8D0D890E74149F
:103F4300120AD41249167416120AD4E0F510A3E02B
:103F5300F511120F73E960077AFF7BFF024055905A
:103F630006D0E0640260030240487900AA08AB0966
:103F7300120D8DA90E120D818A128B13AE12AF137F
:103F8300EE4F70030240308E828F83A3A3A3A3A3BB
:103F9300E064018E828F83A3A37069124BD58E8256
:103FA3008F83A3A3A3A3A3A3E05418604390229BEE
:103FB300E4938E828F83A3A3A3A3F0EA650C70031B
:103FC300EB650D6014EA650A7003EB650B600AEAA2
:103FD30065107003EB6511701F781012082CAC0A82
:103FE300AD0BAA0CAB0D12106F740212087480088B
:103FF300900367125989A3F074FE6A700374FF6B10
:10400300601D804EA3A3A3E0640360298E828F8387
:10401300A3A3A3A3A3E0640470057AFE023F5D8E0D
:10402300828F83A3A3A3A3A3E0640270089003B4C5
:10403300E0640270101240588B0BEA450B6006AA2D
:1040430008AB09800DAA08AB099003491239CA12BB
:104053001EA8025F7F90037512473D12103322742E
:10406300F7120367EAFEEBFF120B89E9700AEEFA17
:10407300EFFB120B95E96006EEFAEFFB80047AFE84
:104083007BFF02345374F01203678A0A8B0B8C0E86
:104093008D0F8909750800120F73E9790060030217
:1040A30041FFAA0AAB0B120D8DA909120D818A0CCF
:1040B3008B0DAE0CAF0DEE4F60198E828F83A3A3D1
:1040C300A3A3A3E0640270559003B4E064027003F9
:1040D3000241FDAA0AAB0B90034F1239CA121EA864
:1040E300120B9B8A0C8B0DA80CA90DE849700302D7
:1040F30041FD88828983A3A3A3A3A3E0A2E0400395
:104103000241FD750C01A2E150687901AC0AAD0BC7
:10411300AA0EAB0F120CD9E970640241FD8E828F97
:1041230083A3A3A3A3A3E064037005750C028052C9
:104133008E828F83A3A3A3A3A3E064016003024140
:10414300FD90037512420D8E828F831245628A0C95
:104153008B0DA80CA90DE84960D1902294E493FA41
:1041630088828983E0C39A50C2A3E060030241FDC1
:1041730080B988828983A3A3A3A3A3D2E1F0EE4FDE
:10418300603A8E828F83A3A3A3A3A3A3E0541860F2
:104193002B7508018E828F83A3A3120694750CFEE0
:1041A300750DFF780C12082C7900AC0AAD0BAA0E22
:1041B300AB0F120D9F7404120874803E900368E0E5
:1041C300650E7004A3E0650F701490229CE493FCC9
:1041D300A909AA0AAB0B120CA9750801801CA90C2A
:1041E300AC0AAD0BAA0EAB0F120CD9E9700C750813
:1041F30001A909AA0AAB0B120D33A908023ED4E5A3
:104203000C2415F582E50D125498124EF52274EA2A
:1042130012036774F01208EE8A0C8B0D8C088D095B
:104223007426120AD4E0F514A3E0F515751206906E
:1042330003F512475B602390037512420DAA08AB86
:104243000912105D8A108B11EA4511600D8A828B69
:1042530083A3E07005790002454AE50C241DF50EA1
:10426300E50D3400F50F850E82124747F51388825A
:104273008983A3A3A3E0FA88828983A3A3A3A3E0EA
:10428300F9EA2400FEE439FFAA08AB09120D3985C7
:104293000E82850F83124585E029F50BE50AA2E519
:1042A300500375120E7487550A70177418550A64F3
:1042B30018600FE50C2417F582E50D125B576512A4
:1042C30060077901121CBD808C530A78C3EE94F801
:1042D300EF94FF501D7900EEFAEFFB124554601284
:1042E30088828983A3A3A3A3A3A3E0541860030232
:1042F3004258780812082C7D00124578120874E998
:10430300F87403687003024258E860030243C374FD
:1043130018550A7003024478E50AD2E0F50AA2E4CC
:104323005004D2E1F50AA90A124BCE124554605348
:1043330088828983A3A3A3A3A3A3E054186044881A
:10434300828983A3A3A3A3A3E064017036E5104588
:1043530011603090037512420D8882898312456281
:104363008A0E8B0FA80EA90FE849601788828983EC
:10437300A3E0600F851082851183A31256A6500314
:10438300024258E50AF50E780E12083012456B12F8
:104393000874E9702B7C007D008514828515837475
:1043A300FFF0A3F0850C82850D83A3A3A3A3A3A38E
:1043B300A3A3E06003124202A90B124BCE1216F91B
:1043C300851482851583E0F47003A3E0F4603990CB
:1043D30003B4E064027003024258124907E0FAA3EF
:1043E300E01239C6121EA8EA65087003EB6509607E
:1043F30003024258EEFAEF1239C6121EA885148240
:10440300851583EAF0A3EBF0780812082C7D0112DE
:104413004578120874A90AEEFAEFFB120D8D8A088B
:104423008B09A808A909900368E0687003A3E069F1
:10443300600302453BEEFAEFFB120B9B8A088B09E4
:10444300A808A909E849606E88828983A3A3A3A366
:10445300E06401600D88828983A3A3A3A3E06402BF
:104463007054851882851983AC82AD83EEFAEFFB15
:10447300120B358055900361E0600FE50AF50E7865
:104483000E12083012456B120874E50AF50E780E09
:1044930012083079027CFE7DFFEEFAEFFB124737FC
:1044A300120874E960030243C3851482851583747B
:1044B300FFF0A302440A120EFBEAFCEBFD8518820F
:1044C300851983AA82AB83121CD5850C82850D8343
:1044D300A3A3A3A3A3A3A3A3E06401700F124202A7
:1044E3007408120AD4AA82AB83121CD51247111284
:1044F300531D4430F50878081208307401120AD4A9
:10450300858208858309780812082C740B120AD453
:10451300858208858309780812082CE513F5087845
:10452300081208307900EEFCEFFD124BCE120CD3CB
:104533007406120874024258124711125487124526
:1045430085E50BF0120F1374101208747F0E020529
:1045530081120D818A0E8B0FA80EA90FE84922A3A1
:10456300A312507412105D227901AC08AD091250E8
:104573006912473722AC0BA913125069120D3F740D
:104583000222125325A3A3A3A32274F01203677478
:10459300F01208EE8A0C8B0DECFAEDFB750F089008
:1045A30003F512475B601412569F8A828B83E58260
:1045B30045836007A3E0700302470C1247113400E0
:1045C300124747F50B8882898312471AE0FBEC24D4
:1045D30000FEE43BFF88828983A3A312471AA3A3A7
:1045E300E0FBECF508E43BF50988828983A3A3A3E8
:1045F300A3A3A3A3E0F50EE50AA2E45003750F10ED
:10460300A2E550067408250FF50F748F550A700F35
:10461300E50C2417F582E50D125B57650F600879E9
:1046230001121CBD02470C530A707800E50AA2E48C
:104633005022124711125B572408FCA3E03400FDFB
:104643007408120AD4AA82AB83121CD57808E50A2F
:10465300C2E4F50AE50AA2E55028124711125B5796
:1046630028F8A3E03400F9E82408FCE93400FD85C8
:104673001882851983AA82AB83121CD5E50AC2E589
:10468300F50AAC0EA90BEEFAEFFB120D45E9F8742F
:1046930003686075900368E06E7003A3E06F605E6B
:1046A300E87054E50AF50F780F1208301247281204
:1046B3000874E97054780A1208307401120AD48518
:1046C300820C85830D780C12082C740B120AD48586
:1046D300820C85830D780C12082CE50BF50A780AF9
:1046E300120830A90EAC08AD09EEFAEFFB120CD399
:1046F30074061208748012740468700D80B7780A07
:104703001208301247281208747410023ED1E50CC7
:10471300241DF582E50D22A3A3A3E0FC88828983EF
:10472300A3A3A3A322790112490E12549812473D61
:1047330012473722120CFD740122E0FCA3E0FDAA0C
:1047430008AB0922F583123B4DA3E0F50A88828961
:1047530083A3A3E0229003391250D02274E81203FA
:104763006774F51208EEEAFEEBFF8C088D098914D5
:104773007423120AD4E0F50F7424120AD4E0F5125C
:10478300A3E0F5137426120AD4E0F516A3E0F51797
:104793007428120AD4E0F50EA90F120D4B8A108B60
:1047A300117401120AD47408F0E50EA2E4500374E4
:1047B30010F0E50EA2E55004E02408F08518828588
:1047C3001983AA82AB83120F5B8A0C8B0DEA450D0A
:1047D30070030248EEEA2417F582EB124900120E29
:1047E300FBE50C241AF582E50D1254871234637429
:1047F30003120AD4AC82AD83AA10AB11120B35E9B4
:10480300601D1248F87403120AD4A882A983E50C28
:104813002418F582E50D125487E8F0A3E98024E516
:104823000EA2E4501FE5106E7003E5116F701512B0
:1048330048F8E50C2418F582E50D125487E512F0CB
:10484300A3E513F0124907124916850A82F583740A
:1048530002F0A3E50E12491EE50FF0EE850A8285EC
:104863000B83A3A3A3F0EF850A82850B83A3A3A3E2
:10487300A312491EA3A3A3E508F0E509850A8285CF
:104883000B83A3A3A3A3A3A3F0AA10AB11120D3907
:10489300E92514850A82850B83A3A3A3A3A3A3A35A
:1048A300F0750800E50EA2E45011AC12AD13E50A51
:1048B3002408FAE50B123E8A750808E50EA2E550B6
:1048C30014AC16AD17E50A2508F8E50B3400F9E832
:1048D3002408123E88850C82850D83A3A3E510F07E
:1048E300A3E511F0AA0CAB0D120BD7740B120874CD
:1048F3007F10020581E50C2416F582E50D1254980C
:104903007401F02212490E12549822E50C12649E8F
:10491300E50D22E0F50AA3E0F50B22F0850A828576
:104923000B83A3A32274F21203678A088B09ECFE9C
:10493300EDFF890A79001249BC7003A3E069700492
:1049430079018073750B01900368E065087004A317
:10495300E06509601F750B00780B120830A90AEE99
:10496300FCEFFDAA08AB09120FAF7401120874E93A
:10497300F50B80417900EEFAEFFB120D81EA4B60F3
:104983002B8A828B83A3A3A3A3A3A3E05418601C45
:104993007508FE7509FF780812082C8A828B83A399
:1049A300A31206941262B312087480097901EEFA15
:1049B300EFFB120C5BA90B8014120D8D8A0C8B0D6F
:1049C300A80CA90D900368E068221208747F060200
:1049D300058174F412036775082B75090E7A10129A
:1049E3005FBB8B0BEA450B7003123CE4900353E06F
:1049F30014F0700C90228FE493900353F0120D99EE
:104A03007E007F00806C850882850983A3A3A3A30E
:104A1300E06059F46056E5082404F582E50912596B
:104A2300837049850882850983A3A3A3A3A3E064B4
:104A3300037019790285088285098312420D85085E
:104A430082850983A3A3124BD5120CD985088285CD
:104A53000983A3A3A3A3A3E064016010850882854F
:104A6300098374FEF0A304124B2FE4F0123060129A
:104A73002EB2902288126117408C7E007F0080390D
:104A8300120EA18E088F09740378081209B774A354
:104A93002508FC740F3509FD7AE57B0C120E8FEAAD
:104AA3004B70DD8E088F09740378081209B7124A18
:104AB300FD12635EE4F0123060902290E493F8C339
:104AC300EE98EF9400501B8E088F09740378081238
:104AD30009B7124B05E82407F582E912598370D60A
:104AE30080A17E007F00800A124B10600214F01236
:104AF300306012611440F1023693124B05888289AB
:104B0300832274A32508F8740F3509F922EEF8EF10
:104B1300F9E875F006A4F8AAF075F006E9A42AF9F5
:104B2300744328F582740F39F583E022124B36A3C0
:104B3300A3A322F0850882850983A3A32274F71215
:104B4300036774E11208EEECFEEDFF750800EE4F0B
:104B530060728A828B83E0241C1259B412475B6013
:104B6300638A828B83124BD5851882851983AC8225
:104B7300AD83EA241BF582EB125885EA241CF582E7
:104B8300EB124BD1120EE3740B120AD4124BD970F1
:104B930003A3E069702E7402120AD4E06401702446
:104BA300741D120AD41239CAE064017017741D12FD
:104BB3000AD41239CCA3A3E0F88E828F83E0687005
:104BC30003750801A908741F02345012490E3400FA
:104BD300F58312507422122807E0682274F412033A
:104BE30067E97024790090034D1239CA121EA88A0E
:104BF3000A8B0BAE0AAF0B74FE6E700374FF6F70FB
:104C03001A902297E4936013790190034D1239CAE5
:104C1300121EA88A0A8B0BAE0AAF0B120F1F0231AA
:104C2300C874F612036774F31208EE1214B38A08F9
:104C33008B09AE08AF09900368E06E7003A3E06FC1
:104C430060E9120F07EA6E7002EB6F60DEEEFAEFB7
:104C5300FB120F73E970D4EE4F60D085188285196B
:104C630083E4F004120AD4EEF0A3EF124C87E97048
:104C7300BA74FE6E700374FF6F60B0EEFAEFFB74EC
:104C83000D0234EF123574120B4D22C082C0831211
:104C93000F1F02341B7F0A02058174F2120367EAB5
:104CA300FEEBFF8C0A8D0B8908740E120AD4E0F513
:104CB3000974FC6E700374FF6F700579000249D0AC
:104CC3007900120D8D8A0C8B0DAE0CAF0D9003681D
:104CD300E06E7003A3E06F7006E509A2E650DCA95D
:104CE300091261A1706179007AFE7BFF1261A170E4
:104CF30056741855097003024DD478007900800367
:104D0300122A019022881229F84003024DD4E8FAAE
:104D1300E9FBEA75F007A4FAACF075F007EBA42CF5
:104D2300FB74312AF582740E3BF583E0541870D07E
:104D3300E875F007A4F8AAF075F007E9A42AF97456
:104D43002B28F8740E39F988828983A3A3A3A3A31C
:104D5300A3E054186009741855097003024CBE8807
:104D6300828983EEF0A3EFF074FE650A700474FF8A
:104D7300650B6003124EFB88828983A3A3A3A3A3BD
:104D8300A3E509F0A2E0500D88828983A3A3A3A31E
:104D9300A3A3D2E2F07401650888828983A3A3A345
:104DA300A3A370387401124F1FE054186028902297
:104DB3009BE49388828983A3A3A3A3124EE91210D1
:104DC3005D8B0DEA450D6003024CBE7800790080CF
:104DD300397902024CC0900367E080D7E064017028
:104DE30003024CBE88828983A3A3A3A3A3A3E05495
:104DF30018600790229BE4938004900366E0123EC0
:104E030091E508F0024CBE122A01902291E493FA34
:104E1300C3E89AE994004003024CBE7A007B008009
:104E23004BEAFCEBFDEC75F007A4FCAEF075F00764
:104E3300EDA42EFD742D2CF582740E3DF5831254D2
:104E4300A0E8FCE9FDEC75F017A4FC85F00975F00A
:104E530017EDA42509FD74142CF582740E3DF5831A
:104E6300E06E7003A3E06F609E122F3590228812CC
:104E73002EC240AD123F1BEC6A7002ED6B7088E8E6
:104E830075F017A4F8AAF075F017E9A42AF97414B9
:104E930028FE740E39FF7C177D007900EEFAEFFBD4
:104EA3001214A78E828F83124F01900375124EDB6B
:104EB300A3A3A3A3A3A3E8F0A3E9124EE17401F013
:104EC300EE240E1254847401124F09120216EE24BA
:104ED3000D125484E8024E06123433A3A322F0EEDB
:104EE300240F12549522F0124EF2AA0AAB0B229011
:104EF3000375E0FCA3E0FD2288828983A3A3E50A6E
:104F0300F0A3E50BF022F0124F0E22902294E493CB
:104F13002401F8E43400F97A027B0022123E9DA3B7
:104F23002274ED1203678A088B09890E12505240CE
:104F3300057905025020121741AA08AB0912512422
:104F4300902284125023650A7003E9650B70077A77
:104F5300FE7BFF125124902284E412502BE50A9821
:104F6300E50B99400302501E12502F6012E50A759B
:104F7300F006A4F875F006E50B12507A121543E516
:104F83000E6018E50A75F006A4F8AAF075F006E5B8
:104F93000B1250A6701A7901025020E50A75F0062B
:104FA300A4F8AAF075F006E50B125087E4F0A3F01D
:104FB300E50A75F006A4F8AAF075F006E50B1250A1
:104FC30047A312533388828983A3AA82AB831250E7
:104FD300958A828B83E0603F12502F603A8E108F48
:104FE300117512007810120828E50EC333FCE43360
:104FF300FDE50A75F006A4F50AA8F075F006E50BC1
:10500300A428F50B7447250AF582740F350B124B50
:10501300D3122ED31208747900800279070261B784
:10502300122B5AE8229004E2125B3E22E50A75F045
:1050330006A4F8AAF075F006E50B125082F8A3E077
:10504300F9E84922A42A1251DB88828983A322EC3E
:10505300FEEDFF902292E493F8E9C39822F58312C0
:10506300507412154322E50C12649EE50D3400F5CD
:1050730083E0FAA3E0FB22125082FAA3E0FB2212A0
:105083005087E022A42AF9744728F582740F39F572
:105093008322E50EF09010E912509F22E088828966
:1050A30083F0221251FFF50CE93400F50DE50EC330
:1050B30033FAE433FB12153D850C82850D83EAF048
:1050C300A3EBF0850C82850D831250D022123EC9CA
:1050D300E8492274F4120367ECFEEDFF740C120A24
:1050E300D41234DD88088909125124AC0AAD0BECC3
:1050F300F8EDF990228412512C5021E875F006A4A2
:10510300F8AAF075F006E9125047E08E828F8312F9
:10511300513F1251351234E9790080027904023685
:1051230093120D0F8A0A8B0B22122ECBC3EC9AED2E
:105133009B22123EC58508828509832212521422BE
:1051430074F61203677E007F008028EEF8EFF9E81B
:1051530075F006A4F8ACF075F006E9A42CF97445D3
:1051630028F582740F125DC26A7003A3E06B605767
:1051730012306012611440D312610F7002E96F7034
:105183004674FE6A700374FF6B703C7E007F008080
:1051930003123060126114502E124B1070F3EEF8AC
:1051A300EFF9E875F006A4F81251D1125206601710
:1051B3001251EDF8E91251E5888212506085088298
:1051C300850983E4F0A3F0EEFAEFFB0234F275F005
:1051D30006E91251D922A42AF9744328F8740F3925
:1051E300F9223400F98808890922EEF8EFF9E87505
:1051F300F006A4F875F006E91251FF221251D9E81E
:10520300240422A3A374FE1252111250D022F0A33D
:105213000412521822F088828983A3A3A3A32274C1
:10522300F6120367EA241DF582EB12531DF9604B56
:10523300EA241DF582EB125B572402FCA3E0340041
:10524300FD1250564003025310780080298C828D42
:1052530083E0F508A3E0FFE5082400E43FF509E84F
:1052630033FEE433FF748B2EF582740F3FF5831204
:10527300533312531308E8C39940D28A828B83A312
:10528300A3A3A3A3A3A3A3A312420D900368E06C5B
:105293007003A3E06D700F7C8B7D0F122770124B90
:1052A300D1120D038067EA2411F582EB125B57607C
:1052B3005CFC74FF2CF0750801780812083075083F
:1052C3008B75090F780812082CE9F508780812087D
:1052D30030EA2412F582EB125B57F50878081208BE
:1052E30030EA2415F582EB125487120694ECF91276
:1052F300277012420A8A828B83A3A3A3A3A3A3A327
:10530300A3A3124BD5120D1B74071208740234F2B7
:10531300EC24020C0CED3400FD2212549812532598
:10532300E022E0F8A3E0F5838882A32288828983C0
:10533300E508F0A3E509F02274EA12036774FD128D
:1053430008EE8A148B158C0E8D0F890D7419120AB1
:10535300D41254A0741B120AD4E0F511741C120A5F
:10536300D4E0F50C741D120AD4124916741F120AE4
:10537300D4E0F5106008E50CC33324048002740202
:10538300C0E07401120AD4D0E01254B18A088B0928
:10539300EA4509700302547C8A828B83A3A3E51434
:1053A300F0A3E515125FAAE50EF0A3E50FF0EA24DA
:1053B30013F582EB125487E50DF0EA2414F582EB22
:1053C300125487E511F0EA2417F582EB125B576458
:1053D300017040120F018A0E8B0FA80EA90F8508CA
:1053E30082850983A3A3A3A3E0687003A3E0696094
:1053F30022EE4F6011E508241AF582E5091254875D
:10540300EEF0A3EF800CE5082417F582E5091254AA
:1054130087E4F012548B1254A08E828F837405F0AC
:10542300A3E5107004E50C80487401250C1254AAFE
:105433007A008028850A82850B83E01254A6850AA8
:1054430082850B83A3E08E828F83F0E50A2402F525
:105453000AE50B3400F50BA30EAF830AEAC3950CE0
:1054630040D2120F01EA1254A6120F01EB8E828F63
:1054730083F0AA08AB09120BD7740302454CEE2440
:105483000CF582EF1254982212278112549822EEBF
:10549300240BF582EF3400F58322900334E0FEA35E
:1054A300E0FF228E828F83F0A3AE82AF8322123578
:1054B30074120F5B22C082C083E9C333FCE433FD63
:1054C300EA2CFAEB3DFBEA24FEF582EB34FF124BA8
:1054D300D302341B74F212036789098A0A125052E9
:1054E30040047900804075080080020508E508C380
:1054F3009509502AE508C333F8E433F9EE28F58219
:10550300EF39F583C082C083120F018A0C8B0DD053
:1055130083D082E0650C7004A3E0650D70CDE50ACD
:10552300650870BE79010249D074F012036774F301
:105533001208EE8A088B098C0A8D0B890C750D00F5
:10554300120F73E97900600302562EAA08AB091201
:105553000D8DA90C120D818A0E8B0FAE0EAF0FEEBF
:105563004F700302562C8E828F83A3A3A3A3A3A3FE
:10557300E0A2E2400302562C120F01EA650A70030F
:10558300EB650B7011780D120830E4F50EF50F780A
:105593000E12082C8044AA0AAB0B120B8FE964018C
:1055A30070688518828519837404F07401120AD413
:1055B300124F01851882851983AA82AB83120B4D82
:1055C300E964017045750D01780D120830E4F50E9C
:1055D300F50F780E12082C750D00780D120830782F
:1055E3000D1208307408120AD485820E85830F7851
:1055F3000E12082C90229DE493F9AC0AAD0BAA0875
:10560300AB09120D1B74071208748E828F83A3A338
:10561300A3A3A3A3E0A2E1400D8E828F83A3A3A340
:10562300A3A3A3C2E2F0750D01A90D023ECF74F648
:10563300120367E9FE7900120D8DEEF9120D818ACE
:10564300088B09A808A909E84960061264E5F980EE
:105653000279040234F274F61203677E0790035C46
:10566300E0703412569F8A088B09A808A909E849F3
:105673006025900361E0640188828983A3A3700B92
:105683001256A6888289835001A3A3E0F912107BE6
:10569300E9FEEE70027E07EEF90234F2124EF212C8
:1056A300105D22E0FA88828983A3E0C39A2274EE14
:1056B300120367EAFEEBFF890A8C0C8D0B7412123E
:1056C3000AD412342712577B1250595051890E7540
:1056D3000F007403780E1209B774A9250EF58274AE
:1056E3000F350FF583E0F8E50CC398502DE50B60FB
:1056F30024751100740378101209B774A32510F8E8
:10570300740F3511F988828983A3A3A3A3A3A3E507
:105713000C125785F07900024C98790380F97900CF
:105723007AFE7BFF12577BE4936510700479028045
:10573300E6E50B60E0890E750F007403780E12091D
:10574300B774A3250EF8740F350FF988828983A3E4
:10575300EEF0A3EF125785124F1FE50C123E99741A
:10576300FF126364E50AF0900366E088828983A3ED
:10577300A3A3A3A3A3A3809C120D7BE9F5109022FE
:1057830090221264A7A3E508F0A3E5092274F61298
:105793000367ECFF120D7B9022901250595027891A
:1057A30008750900740378081209B774A81257CF53
:1057B300740F126016E0F8EFC3985006EFF079000B
:1057C30080067903800279040234F2EA2508F5821F
:1057D3002274F4120367EAFEEBFF120D7BE9F50A6C
:1057E3009022901250595019750B007403780A12C5
:1057F30009B774A6250AF582740F350B124BD380B3
:105803001890034B12475B600CEEFAEFFB1239CD95
:10581300121EA880047AFE7BFF02369374F61203ED
:10582300678A828B83A3A3A3A3A3E4F0F880010870
:10583300902296E493F9E8C399501E880812587D84
:105843008C828D83A3A3A3A3A3A3A3A3E06970DF87
:10585300ECFAEDFB120EA7801EE4936870198C829C
:105863008D83A3A3A3A3A3A3A3A3A37406F07A0086
:105873008C828D831259A80234F2742B2508F58289
:105883007410125B63F92274F4120367EAFEEBFFF0
:105893008E828F83A3A3E0141259BFA3E0F9120EE3
:1058A300838A088B09EA450970030259808E828F27
:1058B30083A3A3E070358A828B83A3A3A3A3A3A3AB
:1058C300A3A3A3E064028A828B83A3A3A3A3A3A3BA
:1058D300A3A3A360107406F07AF08508828B831269
:1058E30059A80259807406F00259808E828F83A3CF
:1058F300A3A3A3A3A3E060738E828F83A3A3A3A315
:10590300E0607AEE2403F582EF125983706F9003FF
:10591300551259891259BFE014125FA1E064037054
:105923005C8E828F83A3A3A3A3E0700DAC08AD09A3
:10593300EEFAEFFB120D5180448A828B83A3A3A35B
:10594300A3A3A3A3A3A37404F01214B3EA540F04F0
:10595300850882850983A3A3A3A3F0A3E4F07A2097
:10596300FB12599F701712599280128A828B83A35C
:10597300A3A3A3A3A3A3A3A3E0640360AF023693EB
:10598300125B6314F022E08E828F83A3A3A3227A97
:10599300207B009003C2E0F91214F522125FBD8B45
:1059A30009EA450922E0240C1259B4E0F9120DC9A1
:1059B30022F8A3E03400F988828983221259C4A310
:1059C300221234CFA3A3A32274F612036779007EB5
:1059D3000080258E08750900740378081209B774CE
:1059E300E32508FA740F3509FB8A828B83A3A3E0AE
:1059F3006005120D5779010E902296E493F8EEC3D9
:105A03009840D0E9A2E07A407B009003C2E0F950CD
:105A1300151216038B09EA4509700E7C647D007A22
:105A230040123CEA80031215FD0234F274F41203AF
:105A330067ECFEEDFF7508E375090F7C0080458573
:105A43000882850983A3A3A3A3A3A3A3E0F8EA245D
:105A530012F582EB125B5768701F850882850983F4
:105A63001234DD125B5B687003A3E069700B850879
:105A730082850983A3A3E070200CE5082408F8E5D8
:105A8300091251E5902296E493F8ECC39840B0E4F0
:105A9300936C70057900023693850882850983A388
:105AA300A3A3A3A3A3E07004790180EA1261AF1258
:105AB30010338B0BEA450B600F850882850983A39E
:105AC300A3A3A3A3A3E014F07C0080010C8C0A120F
:105AD3005B315020EC125B6960F21230786E700318
:105AE300A3E06F70E7850882850983A3A3A3A3A31B
:105AF300A3E014F0902291E493F89004E2E4932855
:105B0300F8A3E4933400F9850882850983A3A3A34A
:105B1300A3A3A3E0FAC3E89AE99400508B85088213
:105B2300850983A3A3A3A3A3A3E4F0025AAB900420
