:020000040000FA
:06000000020A670201B9CB
:03002B0002088E3A
:030033000206338F
:030043000207436E
:030053000200EABE
:03006B0002060D7D
:1000830002014E0101FF01010503010F10FEFFEB09
:1000930012EB12EB12EB12A711A111EB12B6200017
:1000A3000000005420000000000C0000000C0001C0
:1000B300FFFF80EE36004301010200F60500000059
:1000C30069066400020200080000050207051E021B
:1000D300051E020A0A03B80B02803E010201011445
:1000E30096511800020206C0E074F21203D2A2AFC6
:1000F300E433FED2AFE5A7FFE5A1F5085F54106036
:1001030006121A4D75A1EFE5085F54086008121A2C
:100113005375A1F7802BEFA2E0C0D0E508A2E092CF
:10012300F01209A4158182F05017906198E0F890BD
:100133000B47E0C398A2D265D0335002E8F075A113
:10014300FEEEA2E092AF7F01020431C0E074F2122E
:1001530003D2A2AFE433FED2AF9061A4E0F8759B63
:1001630000E59158540860087591F7121A9B802A8C
:10017300E59158541060087591EF121AA1801BE89D
:10018300A2E0C0D0E591A2E092F01209A415818209
:10019300F05007E0C2E0F0121BF19061A3E0F8E534
:1001A300E9585404600E121BC775E9FB906193E094
:1001B300A2E640F2808BC0E074F21203D2A2AFE455
:1001C30033FED2AF9061A5E0F8E5BF585404600652
:1001D30075BFFB121C09020144C3E498F8E499F9C2
:1001E30012021D8026C3E49AFAE49BFBE920E7E9A7
:1001F30012021DE498F8E499F922C3E498F8E4990B
:10020300F912021DE498F8E499F9C3E49AFAE49B1D
:10021300FB22EB20E7CFE920E7E0B90010BB0008A1
:10022300E88AF084F8AAF022E4FBC8FA22EB7022F1
:100233007B10C833C8C933C9335007C39AC3DBF231
:1002430080069A50012ADBEAC833F4C8C933F4C9DB
:10025300FA2275F008E4C833C8C933C933C99AC947
:100263009B5004C92AC93BD5F0ECFBC833F4C8E45E
:10027300C9FA22080808EAC0E0EBC0E086F0E7A468
:10028300FA180986F0E7A42AFA180986F0E7A42ADF
:10029300FA180986F0E7A42AFA1986F0E7A4FBE521
:1002A300F02AFA190886F0E7A42BFBE5F03AFA19CD
:1002B3000886F0E7A42BFBE5F03AFA18180986F054
:1002C300E7A4C5F02BFBE43AFA1908E7C5F0C6A486
:1002D30026F6E5F03BFBE43AFA1886F0E7A4F6E5E8
:1002E300F00826F6E43B08F6E43A08F6D0E0FBD043
:1002F300E0FA22E4CFC0E0E4CEC0E0E4CDC0E0E425
:10030300CCC0E075F020C3E633F608E633F608E622
:1003130033F608E633F6181818EC33FCED33FDEE2C
:1003230033FEEF33FFC3EC9709ED9709EE9709EF1F
:1003330097191919400FFFEC97FC09ED97FD09EE8A
:1003430097FE191906D5F0BEECF709EDF709EEF79C
:1003530009EFF7191919D0E0FCD0E0FDD0E0FED089
:10036300E0FF222518C582C0E0E51934FFC583C02C
:10037300E0E518C3958224F810AF088583198582B8
:10038300188008858319858218D2AFCEF0A3E520A3
:10039300F0A37808E608F0A3DEFAEFF0A3E58124E2
:1003A300FAF8E608F0A3E608F0A3E608F0A30808C5
:1003B300E608F0A3E608F0A315811581D0E0FED08E
:1003C300E0F8158115811581E8C0E0EEC0E022C098
:1003D300D02518C582C0E0E51934FFC583C0E0E528
:1003E30018C3958224F310AF08858319858218807A
:1003F30008858319858218D2AFC8F0A3E9F0A3EA70
:10040300F0A3EBF0A37908E709F0A3D8FAECF0A383
:10041300EDF0A3EEF0A3EFF0A3D0E0F0A3D0E0F073
:10042300A3D0E0F0A3E520F0A3E5F0F0A322851923
:1004330083851882E0C0E0A3E0F9A3E0FAA3E0FB20
:10044300A37808E0F608A3DFFAE0FCA3E0FDA3E04D
:10045300FEA3E0FFA3E0C0E0A3E0C0E0A3E0F5D08B
:10046300A3E0F520A3E0A3F5F010AF088583198579
:1004730082188008858319858218D2AFD082D083F1
:10048300D0E0F8D0E032120AC9B900030204CBE489
:10049300900301788E790E8002F0A3D8FCD9FA90EC
:1004A300108EAA82AB83900086786579018015E46B
:1004B30093A3AC82AD838A828B83F0A3AA82AB839E
:1004C3008C828D83D8E9D9E77582C97583E174037A
:1004D30012080675829775831E74001208062100A0
:1004E3000975F0108E1A8F1B85821F85831E851850
:1004F30082851983E0CEA3E0CF851F82851E83EB1F
:10050300C9EAC8EDCBECCAC3E833C8E933C9EA3357
:10051300CAEB33CBC3EA9EF51DEB9FF51CB3500426
:10052300AB1CAA1DEC33CCED33CDD5F0DAAE1AAF4C
:100533001B22D083D082ECC0E0EDC0E0E493A3FCA7
:10054300E493A3FDED4C600D120651EC24FFFCED8A
:1005530034FFFD80EFE493A3FCE493A3FDED4C6033
:100563000D1206EEEC24FFFCED34FFFD80EFD0E02E
:10057300FDD0E0FCE493A3C0E0E493C0E02285193E
:1005830083851882E0A3FEE0A3F5207808E0A3F6B4
:1005930008DFFAE0A3FFE0A3C0E0E0A3C0E0E0A32C
:1005A300C0E0E0A3C0E0E0A3C0E010AF088582187C
:1005B3008583198008858218858319D2AFD083D0AB
:1005C3008202080CD083D082E9C0E0E493A3C386FF
:1005D300F0C5F095F0F908E493A386F0C5F095F023
:1005E300700BE493A3C3994005E9048002A3E47567
:1005F300F002A42582F582E5F03583F583D0E0F996
:10060300E493A3C0E0E493C0E022C0E074F21203D9
:10061300D2A2AFE433FED2AFE589A2E150031219AF
:100623004B758900C2C5EEA2E092AF7F010204318F
:10063300C0E074F21203D2A2AFE433FED2AFE58B73
:10064300A2E0500312194B758B00C2E880D8C0E0BA
:10065300C3E49396087401939618400FE49366706D
:100663000808740193661870007019A3A3C3E49378
:1006730096087401939618A3A3400DD0E0D0E0D060
:10068300E0020571A3A3A3A3A3A3D0E02274048073
:100693000474028000CCC0E0EDC0E0E518C39CCC3C
:1006A300AD1950011D10AF068C188D1980068C18DA
:1006B3008D19D2AF120788D0E0FDD0E0FC2274027E
:1006C3008000CCC0E0EDC0E0E518C39CCCAD195070
:1006D300011D10AF068C188D1980068C188D19D248
:1006E300AF120766D0E0FDD0E0FC22C0E0C0F08886
:1006F300F0E4936670080874019366187000A8F01C
:10070300A3A3700BD0F0D0E0D0E0D0E0020571A33A
:10071300A3D0F0D0E022D083D082CCC0E0E493A376
:1007230060061207C81470FAE493A360061208D88F
:100733001470FAD0E0FCE493A3C0E0E493C0E02299
:10074300C0E074F21203D2A2AFE433FED2AFC2C050
:10075300E5D1A2E450031219C3EEA2E092AF7F01E8
:10076300020431CAC0E0E493A3C582CCC582C58329
:10077300CDC583F0A3C582CCC582C583CDC583DA3D
:10078300E5D0E0CA22CAC0E0E0A3C582CCC582C5D9
:1007930083CDC583F0A3C582CCC582C583CDC58374
:1007A300DAE6D0E0CA227009080808226016181891
:1007B30018C6C333C608C633C608C633C608C6330D
:1007C300C6D5E0EA22C0E0E493A3D39C5010E4939F
:1007D300A3C39C400AD0E0D0E0D0E0020736A3A335
:1007E300A3D0E022C008C3E096F50808A3E0964230
:1007F3000808A3E096420808A3E09645087001D3D1
:10080300D00822C09FF59FE473D09F22D083D0826B
:10081300C09FE493C0E0740193C0E0740293F59F1A
:10082300227404800A74038006740280027401C077
:10083300E0F40412083FD0E0120AA4222518F5823E
:1008430010AF08F518400215198008F51840021575
:1008530019D2AF85198322BB0102E722C082C0836C
:1008630089828A83BB0003E08002E493D083D08231
:1008730022C0D0251810AF08F518500205198008BA
:10088300F51850020519D2AFD0D022C0E0C0D0E88D
:10089300C0E0E5A8D2AFC2C7A2E792AFD0E0F8D0DC
:1008A300D0D0E0326016080808C6C313C618C613B2
:1008B300C618C613C618C613C6D5E0EA22C3E0C6D7
:1008C30096F608A3E0C696F608A3E0C696F608A334
:1008D300E0C696F622C0E0E493A36C7009D0E0D0A2
:1008E300E0D0E0020736A3A3D0E022251810AF081A
:1008F300F518400215198008F51840021519D2AFF2
:1009030022C3E09608A3E09608A3E09608A3E09626
:10091300A2D265D03322E066701008A3E066700AA5
:1009230008A3E066700408A3E06622E76670100877
:1009330009E766700A0809E76670040809E7662292
:10094300C3E697F60809E697F60809E697F6080955
:10095300E697F622C3E096F008A3E096F008A3E03A
:1009630096F008A3E096F022E627F60809E637F6A4
:100973000809E637F60809E637F622E026F608A363
:10098300E036F608A3E036F608A3E036F622E026C2
:10099300F008A3E036F008A3E036F008A3E036F051
:1009A30022C0E0E8C0E0E58124FCF8E6A2E7D0E05D
:1009B300F8D0E022700422600D18C6C333C608C6FF
:1009C30033C6D5E0F41822E657F60809E657F608C9
:1009D30009E657F60809E657F622E056F608A3E0BB
:1009E30056F608A3E056F608A3E056F622E056F0C2
:1009F30008A3E056F008A3E056F008A3E056F0225F
:100A0300E647F60809E647F60809E647F60809E661
:100A130047F622E4C396F608E496F608E496F60849
:100A2300E496F622C3E7960809E7960809E79608CD
:100A330009E79622C6F4C608C6F4C608C6F4C60873
:100A4300C6F4C622600D08C6A2E713C618C613C6AD
:100A5300D5E0F322C3E09608A3E09608A3E0960846
:100A6300A3E0962275D000758140751801751903AE
:100A730000020489E0F608A3E0F608A3E0F608A361
:100A8300E0F622600C08C6C313C618C613C6D5E029
:100A9300F422E6F008A3E6F008A3E6F008A3E6F0E4
:100AA30022CAC0E0E6F0A308DAFAD0E0FA22E0FABC
:100AB300A3E0FBA3E0FCA3E0FD22EAF0A3EBF0A399
:100AC300ECF0A3EDF022E5C754F84401F5C7790132
:100AD300222518F582E43519F58322C2AF75D69F16
:100AE3000200002212080F0EE30212080F5BE40259
:100AF30012080FFEE40212080F45E60212080F6304
:100B0300E60212080F97220012080FA9220012080A
:100B13000FFB220012080F5C230012080FE62300CC
:100B230012080F8A240012080FDE240012080FF7A0
:100B3300240012080F1D250012080F582500120863
:100B43000F9C250012080FC3250012080F1426005E
:100B530012080FC4260012080F7C270012080F4446
:100B6300280012080F04290012080F482900120850
:100B73000F6D290012080FB0290012080FFD29007C
:100B830012080F552B0012080FDB2B0012080FF968
:100B93002B0012080F232C0012080F3D2C00120803
:100BA3000F4C2C0012080F572C0012080F172D00A2
:100BB30012080F702D0012080F322E0012080F3A80
:100BC3002E0012080FFE2E0012080F6A2F001208C3
:100BD3000F95300012080FBA300012080F303100A1
:100BE30012080FC2310012080F82320012080FA13F
:100BF300320012080FB0330012080FC2330012087C
:100C03000F32340012080F5C340012080FEA34006C
:100C130012080F23350012080F6F350012080F8BCF
:100C2300360012080FD4380012080FDF38001208FC
:100C33000FEA380012080FF5380012080FFF3800CA
:100C430012080F0A390012080F24390012080F2E58
:100C5300390012080F38390012080F4339001208FF
:100C63000F6B390012080FC6390012080FD0390074
:100C730012080FF4390012080F183A0012080F7601
:100C83003A0012080FBA3A0012080FD63A001208B7
:100C93000F4D3B0012080F853B0012080FD13B009C
:100CA30012080F2E3C0012080FE83C0012080FCC6C
:100CB3003E0012080F253F0012080F55400012088E
:100CC3000F7B400012080F04420012080F804500FA
:100CD30012080F52470012080F1B490012080FC8D1
:100CE300490012080F334B0012080FD24B001208B1
:100CF3000F174C0012080F814C0012080F904C0084
:100D030012080F174F0012080FC9500012080F36B0
:100D1300510012080F15520012080F2E530012082B
:100D23000FAB540012080FCA540012080F1F5500CE
:100D330012080F24560012080F4C560012080FA475
:100D4300560012080F83570012080FC757001208E6
:100D53000F12580012080F7D580012080FBE5900D9
:100D630012080F225A0012080F705B0012080FD0EE
:100D73005D0012080F015E0012080FB95F00120830
:100D83000F0E600012080F12610012080FAF61000E
:100D930012080F08620012080FBB620012080F5DF1
:100DA300630012080FFD630012080FA2640012080B
:100DB3000FD1800112080F10810112080F57830110
:100DC30012080FA1830112080FBC840112080F241B
:100DD300850112080F59850112080FCD86011208EB
:100DE3000F50890112080F798A0112080F0F8B0126
:100DF30012080F17940112080FAC940112080F93F5
:100E0300970112080F86980112080FF4980112082F
:100E13000F3A9A0112080F1C9B0112080F019D0142
:100E230012080F129F0112080F7C9F0112080F4E28
:100E3300A00112080F7CA00112080F39A1011208AA
:100E43000F10A20112080FD7A20112080F7BA301F2
:100E530012080FA4A30112080FC6A30112080F1C46
:100E6300A60112080FF4A60112080F38A7011208F1
:100E73000FA0A70112080F58A80112080F8AA80192
:100E830012080FCEA80112080F04A90112080F506F
:100E9300A90112080FA5A90112080FAAA901120896
:100EA3000FFDA90112080F22AA0112080F31AB018D
:100EB30012080F95AB0112080F05AC0112080F9130
:100EC300AC0112080F5EAF0112080F42B001120805
:100ED3000FC5B10112080FFBB30112080FA9B4012A
:100EE30012080F59B50112080F9AB70112080F3DE6
:100EF300B80112080F84B80112080F30BA011208A2
:100F03000F44BA0112080F4EBA0112080F76BA0144
:100F130012080F82BA0112080FA1BA0112080FC1F9
:100F2300BC0112080F10BE0112080F54BE011208B3
:100F33000FFCBE0112080FDFBF0112080F8AC001A8
:100F430012080FD6C10112080FD4C20112080F7A7A
:100F5300C30112080F0AC40112080F21C4011208A9
:100F63000F58C40112080F62C40112080F6DC401A7
:100F730012080F8BC40112080FCFC40112080F2CE3
:100F8300C50112080F51C50112080F6BC5011208E4
:100F93000FF7C50112080F14C70112080F81C7010B
:100FA30012080F68C80112080F8FC80112080F0337
:100FB300C90112080F7EC90112080F82CA01120863
:100FC3000F78CB0112080F27CC0112080F3ACD017D
:100FD30012080FD6CD0112080F63CE0112080F417C
:100FE300CF0112080F79CF0112080FD1CF011208D8
:100FF3000F9AD00112080FBBD00112080F42D10182
:1010030012080F66D10112080F88D10112080FD1FF
:10101300D10112080FE7D30112080FCED401120831
:101023000F7FD50112080FB5D70112080F05D8019C
:1010330012080F45D80112080F87D80112080FE3D1
:10104300D80112080F11D90112080F35D90112085E
:101053000F88D90112080FB6D90112080FEFD90171
:1010630012080F44DA0112080FAADA0112080FFE60
:10107300DB0112080F21DE0112080F8EDE011208B8
:101083000FB7DE0112080F42DF0112080FA9DF01BB
:1010930012080FF4DF0112080F18E00112080F3CC9
:1010A300E00112080F97E00112080FB2E0011208E5
:1010B3000F6BE10112080F0DF10312080F4CF1033E
:1010C30012080F78800212080FBE800212080F9ECA
:1010D300810212080FA0820212080FA383021208D2
:1010E3000F2F850212080F8D850212080F4A860200
:1010F30012080F68870212080FD9870212080F150A
:10110300880212080F63880212080F6D8802120802
:101113000FB1880212080F0D890212080FA8890265
:1011230012080F258A0212080FF48A0212080F8D83
:101133008B0212080FAD8B0212080FE38B02120809
:101143000F148C0212080FD58C0212080FE58C02C3
:1011530012080F398D0212080F548D0212080F6600
:101163008D0212080F6F8D0212080FC98D0212082B
:101173000F258E0212080F718E0212080F8C8E0239
:1011830012080FBD8E0212080FDA8E0212080FE644
:101193008E0212080F5A900212080F73900212085F
:1011A3000FDA900212080FED900212080FFB900263
:1011B30012080FAF910212080F93920212080F99AF
:1011C300930212080F23940212080F2D940212089F
:1011D3000F9A940212080FB1940212080FE39402BB
:1011E30012080F1C950212080F46950212080FA74A
:1011F300950212080FC7950212080FE5950212080F
:101203000F2B960212080F51970212080F9E970296
:1012130012080FCD970212080F43980212080F6BA2
:10122300980212080FA4980212080FB2980212082B
:101233000F0A990212080F59990212080F9899027E
:1012430012080FC8990212080FF4990212080FFF2F
:10125300990212080F1D9A0212080FDF9A02120850
:101263000FE99A0212080F2A9B0212080F7F9B02B2
:1012730012080F939B0212080FA19C0212080FB4CD
:101283009C0212080FC99C0212080F6B9D021208E0
:101293000FEE9D0212080FAC9E0212080FB79E02BA
:1012A30012080FE39F0212080FFF9F0212080F514B
:1012B300A00212080F90A00212080FA5A0021208A4
:1012C3000F07A10212080F96A10212080FE1A10253
:1012D30012080F32A40212080FB0A40212080F253D
:1012E300A50212080F47A70212080F5FA7021208F0
:1012F3000F62A70212080F6EA70212080F82A7023D
:1013030012080F8AA70212080FBDA70212080F6D59
:10131300A80212080FE3A80212080F56A902120826
:101323000F0AAA0212080FBFAA0212080FDEAA02AE
:1013330012080F84AB0212080FAFAB0212080FB2F0
:10134300AB0212080F1CAC0212080F44AD021208C4
:101353000F1CAE0212080FA7AE0212080FC0AF0295
:1013630012080F7DB00212080FB6B00212080FE781
:10137300B00212080FA5B10212080FD5B10212086C
:101383000FB0B20212080F49B30212080FD4B3020E
:1013930012080F85B40212080F08B50212080F3A9B
:1013A300B50212080F7BB50212080F2FF5011208C0
:1013B3000F94F50112080FD1F50112080F20F60161
:1013C30012080F36F80112080F19FA0112080F83D9
:1013D300FD0112080FBEFD0112080FE0FD01120806
:1013E3000F43FE0112080F77FE0112080F9AFE0148
:1013F30012080FC7FE0112080F23FF0112080F1E68
:101403008D0312080F9C8D0312080F5BDA0212087A
:101413000F3E8E0312080FB18F0312080FCD8F03F7
:1014230012080F12900312080FA0900312080FF96D
:10143300900312080F26920312080F389303120821
:101443000F95930312080F01940312080F6294037C
:1014530012080FA3940312080F50950312080F628A
:10146300960312080F8D960312080FB9E0021208B3
:101473000F1F970312080FB1970312080F6C9803FD
:1014830012080F48D10312080FBBD10312080FC66D
:10149300D10312080FE7D10312080FF8A8031208AB
:1014A3000F44A90312080FB2A90312080FD3A9030B
:1014B30012080F83AA0312080F8CAA0312080FDF66
:1014C300AA0312080F08AB0312080F6FAB0312082D
:1014D3000F00AC0312080F42AC0312080F8CAC03CD
:1014E30012080FEBAC0312080F17AD0312080FA875
:1014F300AD0312080FE7AD0312080F26AE0312085F
:101503000F5BAE0312080F6DAE0312080F7FAE031D
:1015130012080F9EAE0312080FA7AE0312080F5D49
:10152300AF0312080F9DAF0312080FF3EC03120869
:101533000F97DF0312080FCDDF0312080F16E00326
:1015430012080F66E10312080FA5E10112080FE468
:10155300E20112080F20E30112080FDFE401120871
:101563000F08E50112080F9BE70112080FDFE701DF
:1015730012080F68E90112080F00EA0112080F6848
:10158300EA0112080F09EB0112080F4BEB011208D5
:101593000F8BEB0112080F16ED0112080F86EE01F7
:1015A30012080FABF00112080FD9F00112080F0057
:1015B300F10112080F09F10112080F90F10112084D
:1015C3000FAEF40112080F25F20312080F3BF203CA
:1015D30012080FC2F00312080FB7D40312080FCA80
:1015E300D40312080F67D50312080FA2D5031208FC
:1015F3000FBDD50312080FE2D50312080F27D60338
:1016030012080F58D60312080F89D60312080F0FBA
:10161300D80312080F91EE0312080FC7EE03120846
:101623000FE3EE0312080F25EF0312080F35EF0344
:1016330012080FE3980312080FB3990312080FE27D
:101643009C0312080F319D0312080F7D9D0312089E
:101653000F28A00312080F44A10312080F008003F0
:1016630012080F4C800312080F35810312080FCEA6
:10167300810312080F18820312080F7582031208E0
:101683000F89820312080FBB820312080FB9830369
:1016930012080FFD830312080F18840312080F6743
:1016A300840312080F7D840312080F8A840312082F
:1016B3000FBE840312080FD7840312080FA18503FA
:1016C30012080FFB850312080F49860312080F6BDC
:1016D300860312080FE2880312080F178903120802
:1016E3000FA7890312080F1C8A0312080F218A030C
:1016F30012080F5D8A0312080FB38A0312080F77CB
:101703008B0312080F9C8B0312080FA68B0312087E
:101713000FA98B0312080F328C0312080F4D8C0391
:1017230012080F608C0312080F9B8C0312080F9E84
:101733008C0312080FA98C0312080FE58C031208FF
:101743000F75F00312080F8DF00312080FB4A103F5
:1017530012080F03A20312080FA5A30312080F61B7
:10176300A50312080FA9A50312080F91A6031208D7
:101773000FC2A70312080FE4A70312080F40A80320
:1017830012080FC4A80312080FEE640012080F0F0B
:10179300650012080F8C650012080F11660012080D
:1017A3000F8D660012080FF6660012080F426700DD
:1017B30012080FC1670012080F53680012080FDFE9
:1017C300680012080F21690012080F6A6D001208E1
:1017D3000FEA6E0012080FC06F0012080FEF6F00C0
:1017E30012080FDA710012080F5A740012080F134F
:1017F300750012080F30760012080F87790012085F
:101803000F97790012080FF87A0012080F847B00F3
:1018130012080FAD7C0012080F9E7D0012080F20E6
:101823007E0012080F8AE60212080F44E70212082C
:101833000FB6E70212080F52E80212080FC2E802BD
:1018430012080F7BEB0212080F52EC0212080FBFB3
:10185300EC0212080F3CEE0212080F06EF02120808
:101863000F76EF0212080F3FF10212080F52F20235
:1018730012080FEBF20212080FB1F30212080FA4C1
:10188300C60312080FF8C60312080F50C703120845
:101893000F9BC70312080FFDC70312080F69C80384
:1018A30012080F1CC90312080F5DC90312080F7336
:1018B300C90312080FCFC90312080F0DCA03120878
:1018C3000FCEE30312080FFFE30312080FB9E4037B
:1018D30012080F1FE50312080F42E20312080FC696
:1018E300ED0312080FD7ED0312080F77EE0312086A
:1018F3000F5CFE0212080F6AFE0212080FEB7F0054
:1019030012080FDFEF0312080FEFEF0312080F0A9D
:10191300F00312080F6BF00312080FF1EB03120828
:101923000F76EC0312080FDAEC0312080FA8E50395
:1019330012080FCAE50312080F30E60312080F500E
:10194300E60312080F96E60312080FF1E6031208E6
:101953000F89E80312080F9EE80312080F12E90328
:1019630012080F2CE90312080F3FE90312080F4D69
:10197300E90312080F67E90312080F87E903120846
:101983000F3ECA0312080F4CCA0312080FC6CA033C
:1019930012080FAACB0312080F63CD0312080F031B
:1019A300F20312080FC6AF0312080F32B003120876
:1019B3000FF1B00312080FFBB10312080F54B30366
:1019C30012080FAFB30312080F04B40312080F0D6C
:1019D300B40312080F1FB40312080F89B4031208CB
:1019E3000F9DB40312080FA7B40312080F78B903AD
:1019F30012080FCDB90312080FC9BB0312080FFB5E
:101A0300BB0312080F1DBC0312080F36BC031208D8
:101A13000F4FBC0312080F59BD0312080FF4BD0387
:101A230012080F28E70312080F4CE70312080F658B
:101A3300E70312080F98E70312080FC9E703120818
:101A43000FF7E70312080F59E80312080F68E803BA
:101A530012080F72E80312080F7FE80312080F261B
:101A6300D80312080F4CD80312080F89D8031208A1
:101A73000F98D80312080FB7D80312080F1FD90302
:101A830012080F28D90312080F87D90312080FABC6
:101A9300D90312080F6ADA0312080F77DA03120860
:101AA3000F88DA0312080F9AF10312080FB7F10334
:101AB30012080F6BBE0312080FC3BF0312080FD027
:101AC300BF0312080FE3BF0312080F02C00312087B
:101AD3000F18C00312080F2CC00312080FA1C00374
:101AE30012080F06C10312080FB6C10312080F8BA9
:101AF300C20312080F9BC20312080FAAC2031208E3
:101B03000F46EF0312080F6AEF0312080F92EF0359
:101B130012080FBAEF0312080F38DD0312080F5F24
:101B2300DD0312080F80DD0312080FE5DD03120841
:101B33000FB6DA0312080FCFDA0312080FDBDA034A
:101B430012080FEFDA0312080F0DDB0312080F1749
:101B5300DB0312080F21DB0312080F34DB03120827
:101B63000F96DB0312080FCFDB0312080FFEDB0314
:101B730012080F4CDC0312080F9BDC0312080FB68C
:101B8300DC0312080FC0DC0312080FE7DC031208A2
:101B93000F2DDD0312080F6FFF0112080F8BFF01DA
:101BA30012080F45F20312080F05F50212080F2F52
:101BB300F50212080F4BF50212080F5EF502120828
:101BC3000F74F50212080FD1F50212080F04F60282
:101BD30012080F45FA0212080F6BFB0212080F9E40
:101BE300FB0212080FEAFB0212080F2CFD02120877
:101BF3000F54FD0212080F69FD0212080F79FD024E
:101C030012080FBDFD0212080F1EFE0212080F2E4E
:101C1300FE0212080FB87E0012080FD37E001208CE
:101C23000FFC7E0012080F167F0012080F3B7F0087
:101C330012080F5A7F0012080F727F0012080FA0BC
:101C43007F0012080FBA7F0012080F56F103120823
:101C53000FC8CD0312080FCFCD0312080FDBCE033D
:101C630012080F0BCF0312080F31CF0312080F54C2
:101C7300CF0312080F76CF0312080FB0CF03120859
:101C83000F16D00312080F4FD00312080F9BD00377
:101C930012080FC8D00312080FE8D00312080FBCB4
:101CA300E90312080FD4E90312080FC2EA0312086A
:101CB3000FDBEA0312080FDEEA0312080F50EB03EF
:101CC30012080F8EEB0312080FCFEB0312080FE37A
:101CD300C20312080F02C30312080F51C3031208F1
:101CE3000F6DC30312080F9EC30312080FABC30388
:101CF30012080FB8C30312080FA4C40312080FE29B
:101D0300C40312080FF2C50312080FFDC50312081E
:101D13000F0FC60312080F18C60312080F22C603BB
:101D230012080FBBB40312080F00B90312080F0EF9
:101D3300B90312080FD6F10312080FBDD702120818
:101D43000F86D60212080FDAD50212080F20D4022A
:101D530012080FD0D10212080F57D10212080FFE3A
:101D6300D00212080F8ED00212080F65D00212089B
:101D73000F45CE0212080F11CE0212080FDECD025C
:101D830012080FC2CD0212080FDBCC0212080F9308
:101D9300CC0212080FDECA0212080F5ECA02120832
:101DA3000F5BCA0212080F58C90212080F26C90294
:101DB30012080F63C80212080F8EC60212080F1F03
:101DC300C60212080FD7DF0212080FBBDF02120888
:101DD3000F3FDF0212080FF6DE0212080FAEDE021B
:101DE30012080FF1C50212080FEEC50212080FDB2D
:101DF300C50212080F86C50212080FFCDD02120885
:101E03000F75C50212080F67C40212080F31C4020E
:101E130012080FDFC30212080F6EDD0212080FD87B
:101E2300960312080F80C30212080F4FC302120851
:101E33000F17C00212080FD7BF0212080FCBBF0241
:101E430012080F2BBF0212080F6BBE0212080FED10
:101E5300BB0212080F7EB90212080F3CB902120826
:101E63000F10B80212080FC5B70212080F04B70209
:101E730012080FD7B60212080F1AB60212080FB0D3
:101E8300B50212080FEAB50212080F61DD0212084B
:101E93000FD28D0300000080FBE47300013636018E
:101EA300010001020100010301000104010606050E
:101EB300020000070100340801000F090401010DAD
:101EC3000100FF0E08000017020000190100FF1AAD
:101ED3000100011B0100FE1C0100081D0200001F80
:101EE30001000120010001210200002301000F2451
:101EF3000200002601000127010008280200FF2A32
:101F03000100072B0102402C0100002D0100012ECE
:101F13000100012F0100FF30010B1C310800003AC2
:101F23000100083B01000F2F0100000101710101B5
:101F330001010111010101310101010101800110C0
:101F43000161013B001400630173017201620143EB
:101F5300010001130106013D0135000401120100D6
:101F63000100010001000104010401330133013CBC
:101F73000144013201360000010001650100013511
:101F83000081010001050182018301000103047145
:101F93000402046004110470040204020401040234
:101FA30004100461040004140463047304720462DF
:101FB300044304000413040604000400040404128C
:101FC300040004000400040004510464000004003D
:101FD3000400044404000400040004000465040035
:101FE300043504810464000504000483040004032D
:101FF3000271023001600211027002010202020248
:10200300028002100261023A00410063027302720D
:1020130002620243020002130238000002000204BB
:10202300021202000200020002000204020402374C
:102033000037003C0244020002390000020002653E
:1020430002000235028102000205028202830200BD
:1020530002010371030103010301030103010322CD
:102063000302030103100300030003000300030042
:1020730003000300034203000324030603000300D9
:102083000304031203250323032503230304030487
:1020930003000300030003440300030003230300BE
:1020A30003650321003503810300030503000300D7
:1020B3000300030300710030016000110070003160
:1020C300022003500480001000610000001400632C
:1020D300007300720062004300000013000600005A
:1020E30000000004001200000000000000000004D3
:1020F300000400370037003C0244000000000000E9
:1021030000000065000000350081000000050000AC
:10211300008300000036000100060000000F0000ED
:10212300000000000000000000000003FFFF0000AB
:102133000403FFFF0000FFFF0FF4010005C40403C5
:1021430020000100140B0000000000000000030148
:102153000F00003D181300DD1701003D180200A712
:10216300170300AD170400B3170500B9170600C520
:1021730017FFFF000001F90D06290E08230E0B358A
:102183000E10750D02FF0D05170E07050E0CDB0D66
:102193000DED0DFF00000112311207120D122B126B
:1021A3001F12191237123D1243124F121312FB1151
:1021B300F51100160F00000B150B020002220F325F
:1021C300000006EB12FD120313CB110913C511D145
:1021D30011140AE5D5C5B5A5A5958585756545137E
:1021E300631369134B13571351130511FF103B115D
:1021F30041113511ED100001191618161615230398
:10220300000C0E020B040B0A0708000F30301718DE
:102213001921301B1D1F3000034948424D18172553
:102223000502303016181920231A1C1E3000383CC2
:102233003E363B3B352B432C251249125D13551279
:102243005B1239130F13151321131B13020402011D
:102253000101010902111117110B114711000000AF
:1022630000000000BE040A1D112F11FA06D4210438
:10227300007F00E8030C000E0028000000000001AE
:1022830008010C0A0308090004000CFF1E1E0508C0
:102293000403101BC082C0838A828B83E0D2E7F0E1
:1022A30012170B02340EC082C08379001227631207
:1022B300547AC082C083900334124200D083D08208
:1022C300C3E09CA3E09D500C125B4EFAA3E01222E4
:1022D300DA60010902340EFBEA75F00BA4FAA8F0E8
:1022E30075F00BEBA428FB900336E02AF8A3E03B40
:1022F3008882F583E0540F2274F71203668908126B
:102303002763122809ACF075F00BE9A42CF99003AC
:1023130036E028FEA3E039FF740165086006740205
:10232300650870208A828B831227F51234DC7402CD
:102333006508701B1226B412283C70138E828F839B
:10234300E4F0800BEA2403FCEB1227D71227E3EE19
:10235300FAEFFB120B0502344674F412036612649F
:102363007579008E828F83E06076890A890B806598
:10237300E50A75F00BA4FAA8F075F00BE50B122231
:10238300E77046E50A75F00BA4F8AAF075F00BE5C3
:102393000B12281B8E828F83E085088285098312A6
:1023A30028FD850882850983A31234DCEE2403FC0F
:1023B300EF1227E0123415124EF4AA08AB09120BE0
:1023C300057901900334124909E50A2401F50AE568
:1023D3000B3400F50B1226BCE50A9AE50B9B4090E3
:1023E30002368674F5120366EAFEEBFF740B120ADB
:1023F300D412341A750A01EC4D602BEC126491ED82
:1024030012547A1234D47901120B11E5084509608C
:102413006F850882850983A312647F7902AA08ABBA
:1024230009120B11805AE5084509602B12547E12DC
:102433003B48123416122826700CEEFAEFFB120BEF
:1024430017E9F50A80CBEE2403FA12275E7031797F
:1024530003EEFAEFFB80CA8E828F83A3E064FE70E3
:1024630003A3E0F4700BEE24030A0A0A12275E703A
:102473000CEEFAEFFB120B17E9F50A8003750A005D
:10248300A90A7F0302058174F712036690033412CD
:102493003456EA4B602FEA75F00BA4FAA8F075F0F6
:1024A3000BEBA428FBEAFEEBFF12153D900336125B
:1024B300345690033612474E6012EEFCEFFD79005E
:1024C3001214A78007900336E4F0A3F00234469079
:1024D3000334123EB8C3EE98EF9922C082C083EC56
:1024E3004D6005121CC980097C087D007900121417
:1024F300A702340E74F61203667900EA4B6018786B
:102503000088081257C1EB125B4A6004790178080E
:1025130008E8C3940840EA0234E574F712036674CA
:10252300F31208EEECFEEDFF851882851983E4F0C3
:1025330004120AD4EAF0A3EB124C7A7403120AD4FD
:10254300AC82AD83EEFAEFFB120B29EEFAEFFB122E
:102553000B2F02344174F712036674F31208EEEC86
:10256300FEEDFF851882851983E4F0EAFCEBFD7428
:1025730003120AD41228F67401120AD41234D08E2C
:10258300828F831234DC74FE68700374FF69600405
:1025930079018002790002344174F7120366EAFE7E
:1025A300EBFF1225FA70141226058E828F83E0F456
:1025B300F88A828B83E058F0120B05A9080234468F
:1025C30074F7120366EAFEEBFF7508008E828F83B1
:1025D300E060221225FA701D1226058A828B83E0A1
:1025E3008F838E82F8E058700CE0F88A828B83E048
:1025F30048F0120B0580C4120B0BE9F50874016552
:10260300082212648A12280D12274FFAA3E039FB1D
:102613002274F41203668A088B097C007D0012265B
:10262300B41227E312277412647C7900850882852B
:102633000983A3E064FE7003A3E0F460717E007F6E
:10264300008062EEFAEF1222DA6057EEFAEFFBEA4D
:1026530075F00BA4FAA8F075F00BEBA428FB90031C
:1026630036E02AF50AA3E03BF50B8508828509834A
:10267300A3124BC8850A82850B83A3E06A7003A368
:10268300E06B701EE50A2403FAE50B12275F700A5C
:10269300E50A2403FCE50B1227E0122768790112EF
:1026A30054901230531226BCEE9AEF9B409502369B
:1026B30086EA24030A0A0AEB22900334125067C302
:1026C3002274F31203668A088B098A828B83A3120E
:1026D300647F12276312647C750C001226B41227E0
:1026E3005F70547E007F008049122741FAA3E039CE
:1026F3008A82F583E0540F6036122741F50AA3E07E
:1027030039F50BE50A2403FCE50B1227EA3400FB39
:10271300121CC3E964017017850A82850B83A31217
:102723005128A31234DC122768750C01125490123D
:1027330030531224D240B2A90C7F05020581EEF872
:10274300EFF9E875F00BA4F812274F22AAF075F001
:102753000BE9A42AF9900336E02822EF1228362247
:10276300126490EB2212277412548BEEF0A3EFF055
:1027730022E508126491E5092274F5120366EAFE64
:10278300EBFF8E828F83A312647F7C007D00EE2497
:10279300030A0A0AEF1227E3EEFAEFFB120B0BE927
:1027A300F50A7401650A702912648A122809AAF0CD
:1027B30075F00BE912281B850882F5831227F512A1
:1027C3002826700DE5082403FCE5091227D71227F4
:1027D300E30224833400FDEE2403FAEF221227EAF6
:1027E3003400FB120B29223400FDE5082403FAE52B
:1027F3000922A31227FA221227FE22E0F8A3E0F906
:102803008E828F83A32212280D223400F583123E79
:10281300BCE875F00BA4F822122755F508A3E0399C
:10282300F50922E8F0A3E9F0E5082403FAE5091223
:1028330028362212283C6401223400FB120B2FE9B4
:102843002274F312036674E61208EE126475750CB3
:1028530001750800750900750A00750B008518825B
:10286300851983E4F0EE2403FCEF3400FD740312B6
:102873000AD41228F6E964017023740B120AD412E5
:1028830034D47401120AD4124BCC7003A3E06960F0
:1028930051851882851983858208858309740D12F1
:1028A3000AD4E41228FD740E120AD41234DC740D17
:1028B300120AD4AA82AB83120B4DE96401700B7424
:1028C3000D120AD485820A85830B780A12082CAC70
:1028D30008AD09EEFAEFFB120B1D7402120874E93E
:1028E300F50CEEFAEFFB120B47A90C741A120874DD
:1028F30002273C122BC9120B5322123451123EB839
:1029030022C082C0837800790080031229F4122642
:10291300BCE89AE99B5029E8FAE9FBEA75F00BA4B5
:10292300FAACF075F00BEBA42CFB900336E02AFC19
:10293300A3E03B8C82F583E0540F70CF79008002D3
:10294300790102340EC082C0839004E1123F0EEC81
:1029530075F012A4FCA8F075F012EDA428FD79FF20
:102963007AB77B0B1214A702340E74F7120366E9CD
:10297300FEEAFF7A007B00780079008028E8FCE912
:10298300FDEC75F012A4FC85F00875F012EDA4259A
:1029930008122E09C39E400AE0FCEFC39C400312B9
:1029A3002F281229F4122DFD40D3023446C082C0D1
:1029B300837800790080031229F41229E8501F124A
:1029C3002E0DF470F2E875F012A4F8AAF075F01267
:1029D300E9A42AF974B728FA740B39FB80047A0046
:1029E3007B0002340E9004E1122EBEC3E89AE99BE9
:1029F30022E8240108E93400F92274F01203667412
:102A0300F31208EE8A0A8B0B8C0C8D0D8908EC45AA
:102A13000D6016AA0CAB0D120BA18A0E8B0FAE0E16
:102A2300AF0FEE4F6003022ABB120B778A0E8B0F98
:102A3300A80EA90FE8FEE9FFE849607C9022801206
:102A43002B1D602274036508600674046508701604
:102A53007A047903120B71902280122B3440077A87
:102A6300007B00022B1A90227E122B1D601B740127
:102A73006508600674026508700F7A027901120B0B
:102A83007190227E122B3450D68518828519837457
:102A930001F0120AD4124EF4AC0CAD0D7403120AF9
:102AA300D4122BC2740B120AD41234221238BCE48F
:102AB300124EDC1210458004EE4F604A780074FF1A
:102AC3002508C39404500278048E828F83124EF437
:102AD3008E828F83A3A3A3A3E508F0E88E828F835E
:102AE300A3A3A3A3A3124EFC120215122ED58E820A
:102AF3008F83A3A3A3A3A3A3A3F0122ECC120AB183
:102B0300125474120ABD122B224005901092E4F065
:102B1300120F1FEEFAEFFB023EC212501649227A41
:102B2300047900120B719004E1125B30EA98EB997F
:102B330022122B4D7583047582E1E493C398F8A3A5
:102B4300E49399F9C3EA98EB9922E493F874019317
:102B5300F92274F212036674F31208EE8A088B09E1
:102B6300ECFEEDFF750A00EEFAEFFB120BA18A0CE7
:102B73008B0DA80CA90DE849603E88828983E06526
:102B8300087004A3E06509602F88828983A3A3A347
:102B9300A3E0C3940550211253228518828519831B
:102BA3007401F0120AD4125326EEFCEFFD740312E3
:102BB3000AD4122BC2750A01A90A740D0249C01264
:102BC3002BC9120B5F22AA82AB83120B29851882B1
:102BD300851983AA82AB832274F6120366122C171B
:102BE300600FA3A3A3A3E014C3940450047901804A
:102BF3000279000234E574F6120366122C17600F93
:102C0300A3A3A3A3E014C39402500479018002791F
:102C1300000234E5120B9B8A828B83E58245832273
:102C230074F6120366122C17600BA3A3A3A3E07020
:102C3300047901800279000234E5C082C083EAFC92
:102C4300EBFD7A007B0002340BC082C0837C007DE5
:102C53000002340B74F412036674F31208EEEAFEF6
:102C6300EBFF8C0A8D0BC3EC94F8ED94FF4007EE59
:102C73004F7003022D10750800750900802E85180A
:102C8300828519837401F012307B120AD4123089C1
:102C930060137403120AD4AC82AD83EEFAEFFB1215
:102CA3001CC3E97049E5082401122EA99004E1E44C
:102CB30012501EE50898E509995052E50875F0127F
:102CC300A4F8AAF075F012E509A42AF9125B63606F
:102CD300D4EE4F70A974FF650A700474FF650B602E
:102CE300C412306B650A7004A3E0650B70B7E50886
:102CF30075F012A4F508A8F075F012E509A428F5FB
:102D03000974B72508FA740B3509FB80047A007B34
:102D13000002368174F412036674F31208EE750828
:102D230000120BA18A0A8B0BAE0AAF0BEE4F602A7F
:102D3300851882851983740112344BF8A3E0F97462
:102D43000B120AD412355F120B417C127D0079FFFE
:102D5300EEFAEFFB1214A7750801122B225009900B
:102D630010927401F0120F1FA90802368174F71232
:102D73000366E9FE74FE6A700374FF6B78007900E2
:102D8300700580521229F4122DFD504AE8FCE9FD2A
:102D9300EC75F012A4FCAFF075F012EDA42F122E17
:102DA30009F460E0E8FCE9FDEC75F012A4FC75F0B1
:102DB30012EDA42FFD74B72CF582740B3DF583E05F
:102DC3006A7003A3E06B70BC8009122E0D14C394C8
:102DD3000440171229F41229E85018EE70EC122E51
:102DE3000D64016005E0640370E912305CFAA3E04E
:102DF300FB80047AFE7BFF0234469004E1123F120B
:102E0300C3E89CE99D22122F5D22E8FAE9FBEA75EB
:102E1300F012A4FAACF075F012EBA42CFB74BB2AED
:102E2300F582740B3BF583E022120BB302340EC020
:102E330082C083790180F274F01203668A0A8B0BD5
:102E43007A047901120B718A0C8B0DEA450D603EF1
:102E5300EAC333FAEB33FB12153D8A088B09AE083C
:102E6300AF09EE4F60237AFE7BFF120BB974FE6A43
:102E7300700374FF6B601B850882850983123456C7
:102E8300E5082402122EA980E1750C0080047E005F
:102E93007F00850A82850B83E50CF0EEFAEFFB02D7
:102EA3003EC7E5082407F508E5093400F509229033
:102EB30004E1123F12C3EA9CEB9D22E493FA7401EE
:102EC30093FB2212149B740322125485E4F0908026
:102ED3009722E88E828F83A3A3A3A3A3A3A3A31202
:102EE3002EF77401122EF7A3F0EE2410125488E487
:102EF300F0A3F0221238C8A3A3A322C082C0837A0E
:102F0300007B00800419122F28122EB25010122FAA
:102F130047C3940550F0E970EC122F3180047A0016
:102F23007B0002340EEA24010AEB3400FB22EA752B
:102F3300F012A4FA75F012EBA428FB74B72AFA7402
:102F43000B3BFB22EAFCEBFDEC75F012A4FCA8F0B2
:102F530075F012EDA428122F5D22FD74BB2CF582AF
:102F6300740B3DF583E02274F712036674F31208C1
:102F7300EE7E007F0002300FE50875F017A4F8A974
:102F8300F0125DC4FAA3E0FBEEF8EFF9E875F01276
:102F9300A4F8ACF075F012E9A42C12306A6A70033D
:102FA300A3E06B603FE50875F017A4F8AAF0EA12F6
:102FB3005DC3F8A3E0F97401120AD4E0687003A3B7
:102FC300E0696020E50875F017A4F8EAF9740B28A6
:102FD300FC740E39FD7403120AD4AA82AB83121C4B
:102FE300C3E96014E50875F017A4F8A9F07409287B
:102FF300FA740E39FB1210510508902284E493F8F9
:10300300E508C3985003022F7B1230539004E1125A
:10301300610A5039EEF8EFF912305CF47003A3E063
:10302300F460E68518828519837401F0EEF8EFF9F0
:10303300E875F012A4F875F012E9A42AF912307BAE
:10304300120AD412308960C175080080AD02344180
:10305300EE24010EEF3400FF22E875F012A4F8AA63
:10306300F075F012E9A42AF912306F2274B728F52B
:1030730082740B39F583E02274B928F582740B3915
:10308300123EB6740B22E8F0A3E9123567120B590E
:10309300E922C082C08390033D7411F0A3740EF043
:1030A30090033F740BF0A3740EF0900343742BF062
:1030B300A3740CF002340E74F7120366EAFEEBFFFE
:1030C300900377E06408601BE0640460168E828FCF
:1030D30083E05403640170481234151239BDE0646F
:1030E30006703D8E828F83A3A3E064FE7003A3E08A
:1030F300F4602D8E828F83A3A31234D0900368E0F3
:10310300687003A3E069700BEE2415F582EF125B80
:103113004A6008120EBFE9F5088008120EC580F652
:103123007508C2EEFAEFFB1215430225BE74F412C2
:1031330003668A088B098A828B83E0F8A3E0FAE8A6
:103143002AFAE43400FB12153D8A0A8B0BAE0AAF50
:103153000BEE4F6063850882850983E0FC7D00796F
:10316300001214A78E828F83A3A312647F120F0110
:103173008E828F83A3A3A3A3123456850882850965
:1031830083E0F8EE28F8EF34001234D885088285FE
:103193000983A3E0C0E0EE240D125477D0E0F012CF
:1031A3000F13EE240E125477E9124B29E0C0E0EE20
:1031B3002411125477D0E0F0EEFAEFFB0236867456
:1031C300F612036674EB1208EEEAFEEBFF12474BAE
:1031D30060030232667A077B0012153D90033912B1
:1031E300345612474B60788E828F83120AB1900354
:1031F3003A1239C0120ABD126343C0E0123272D0D0
:10320300E0F0EE2405FAEF3400FB8A088B098A828A
:10321300F583E0C0E012326DD0E012367DE0C0E00D
:1032230012326DA3D0E01234C2120AB1851882851E
:103233001983120ABD88828983E0C0E07405120AEB
:10324300D4D0E0F0850882850983E0C0E0740412DD
:103253000AD4D0E0F07407120AD41233A880067996
:10326300108002790174150234E2123272A32290A3
:103273000339E0FAA3E0F5838A82A3A3A3A322C0C0
:1032830082C08312474B600D90033912505590034F
:1032930039E4F0A3F0120E2F120FF102340E74F082
:1032A30012036674EB1208EEECFEEDFF8908742539
:1032B300120AD4780C120A777429120AD4E0F9742A
:1032C3002A120AD4E0FC742B120AD4E0FD740F69AD
:1032D3007005740F6C60129010DDE0640270057964
:1032E300C10233A3E9C39C40F6900378780C120A19
:1032F30095E50890037EF0E990037CF0ECA3F0EDF4
:1033030090037FF074FF6A700374FF6B701D90105D
:10331300E8E0F47003A3E0F470051214B3800C909A
:1033230010E812342BE8F0A3E98007900375EAF064
:10333300A3EBF0EE4F6017EEFAEFFB1210B1E96466
:1033430001700BEEFCEFFD7A897B03121CC990031D
:1033530068E4F0A3F090036BF0A3F0900388F0907F
:1033630010DDE06402700890037C740FF0A3F0900A
:1033730003777405F014120AD4E4F0900378120A68
:10338300B1851882851983120ABD90037EE0C0E0DF
:103393007405120AD4D0E0F07407120AD41233A8C9
:1033A3007415023EC4E4123567121CF322C082C0B6
:1033B30083900338E070031217D7120BFB804CC0C5
:1033C30082C083900338E09010917004E4F0802D64
:1033D3007401F0900338E0F460237C41E0C394412E
:1033E3005002E0FCECF8E0C398F0EC75F0E8A4CCF4
:1033F300A8F075F003A428FD7A80123F1A7A917B16
:10340300107941121CE18003120BA7D083D08202F2
:10341300080CEE12548622E0F508A3E0F509221207
:103423003426221227FEA322123EB890037522747B
:10343300F7120366EB90037FF0120E1D8005740DE7
:103443001208747F01020581123451A3E022123461
:10345300C2A322EAF0A3EBF02274F712036674F816
:103463001208EEEAFEEBFF7900900377E064087040
:103473004485188285198374FDF0A374FFF0120E3E
:10348300FB7402120AD41234567405120AD4E412DD
:103493003451E0C0E07404120AD4D0E01234BDC049
:1034A300E07406120AD4D0E0F07407120AD4E412CE
:1034B3003563120F3D74080234431234C2E022F024
:1034C3008E828F8322F085188285198322123EB85B
:1034D30022E0F8A3E0F9125485E8F0A3E9F0221200
:1034E30008747F02020581C082C08390034974BBC4
:1034F300F0A3740CF09003EF7497F0A3740FF090A3
:10350300034D74F1F0A3740CF090034F74BBF0A35C
:10351300740CF090035174F7F0A3740CF002340EA2
:1035230074F412036674F91208EE8A088B098C0A84
:103533008D0B8518828519837808120A95740412F5
:103543000AD4E9F07405120AD4E4F07406120AD41A
:10355300E4123563120BE37407023683E8F0A3E940
:10356300123567221234C8AA82AB832274F4120381
:10357300668A088B098A828B83125493EE4F7003F9
:1035830002367B90031212474E60158A828B83A307
:10359300A3E0F9EEFAEFFB9003131239C0121E9C5D
:1035A3008E828F83A3A3A3A3A3A3A3A3A3E06402F5
:1035B30070748E828F83A3A3A3A3A3A3E05402708A
:1035C3000302364D850882850983A3A3E064E9607D
:1035D300798E828F83A3A3A3A3A3A3A3A3A3A3E00F
:1035E30070149010E0E0048E828F83A3A3A3A3A39F
:1035F300A3A3A3A3A3F08E828F83A3A3A3A3A3A3B5
:10360300A3A3A3A3E01412367DA3A3A37404F09091
:1036130010E1124ECEE8F0A3E9125FA78B0BEA4547
:103623000B70031259858E828F83A3A3A3A3A3A335
:10363300A3A3A3E0640260128E828F83A3A3A3A338
:10364300A3A3A3A3A3E06406702E8E828F83A3A3F8
:10365300A3A3A3A3E0A2E0501F850882850983A347
:10366300A3E0F9EEFAEFFB121D7D8E828F83A3A3F5
:10367300A3A3A3A3E054FEF080091238C422740D5F
:103683001208747F0402058174EC12036674DD1260
:1036930008EEEAFEEBFF8C088D097437120AD47822
:1036A3000C120A77750A007405120AD4AC82AD8332
:1036B30012146B7412120AD4E070087415120AD42F
:1036C300E060207405120AD4E0A2E6501E8E828FB9
:1036D30083A3A3A3A3A3A3A3A3A3124BC8120F73F0
:1036E300E960087903121CB10238AA7405120AD4DE
:1036F300E0540C64047005750B018003750B00E046
:10370300A2E55035750A01E50BA2E0402C120F012A
:103713008A108B11A810A911123415E0687003A345
:10372300E06960157405120AD4126486124BC41240
:103733001D89E96004790480AC7405120AD4E0A2FF
:10374300E650227406120AD4E0540370187405126A
:103753000AD4E0540C640C600CE0540C640860055B
:1037630075100180037510007405120AD4E0540328
:10377300F8740268700C126486124BC4120AF302C6
:1037830038AA740168703AE510A2E050031238B207
:103793007405120AD4A882A9837403120AD4E8F028
:1037A300A3E9123EAC8518828519831238BCE0C0A8
:1037B300E07402120AD4D0E0123563121E6D02388F
:1037C300AAE860030238AA90035FE0640170108ED8
:1037D300828F83A3A3A3A3A3A3E070030237387448
:1037E30022120AD47402123EAC741A120AD412348E
:1037F300DCE510A2E050087405120AD41238B2E5D1
:103803000BA2E0506AEE240FF582EF125B4AC0E090
:103813007417120AD4D0E0F090031412474E7003C9
:103823000238AA120F018A128B13A812A913741A51
:10383300120AD4E0687003A3E069706B780C120875
:1038430024780A120830780812082CA910740C1274
:103853000AD4AC82AD837421120AD4AA82AB8390BA
:1038630003141239BD121E9C740712087480387831
:103873000C120824780A120830780812082C9003D6
:1038830075120694EE2412F582EF125878742312FF
:103893000AD4AC82AD83740E120AD4AA82AB83120B
:1038A3001D7174091208747423120874025F721272
:1038B3006486125063120AE722E8F0A3E91238C4BF
:1038C300221238C822F08E828F83A3A3A3A3A3A3BB
:1038D3002274F71203661216C302344674F71203F6
:1038E300661216C902344674F71203661216D5021D
:1038F3003446C082C0831216CF02340E74F712030B
:10390300661216DB02344674F71203667409120A50
:10391300D4E0F50878081208301216E7740102346F
:1039230043C082C0831216F302340EC082C08312D6
:1039330016F902340E74F71203661216FF023446A8
:1039430074F7120366EAFEEBFF89087401650870D9
:10395300147900120D3390228FE493FC7900EEFA70
:10396300EFFB120CA902344674F412036674F912C5
:1039730008EEE9FE8A088B098C0A8D0B7413120A70
:10398300D4124BC890062912474E6027EE85188241
:10399300851983F07401120AD47808120A95EAF89B
:1039A300EBF97405120AD412355F9006291239BD5A
:1039B300121E9C02355AFB90034BE0F8A3E0F583FB
:1039C300888222C082C08312172F02340E74F7122A
:1039D3000366901094E0F97E00800B125B36540D61
:1039E30064017001190E123BCA5003E970ED0234F1
:1039F3004674F7120366901095E0F97E00800B126F
:103A03005B36548D64817001190E123BCA5003E971
:103A130070ED02344674F2120366890BE975F00601
:103A2300A4240CF508E5F0122EAD8A0CE508250C4C
:103A3300FAE5093400FB12153D8A0C8B0DAE0CAF71
:103A43000DEE4F6027AC08AD0979001214A71234AC
:103A530015E50BF0EE2508F8EF3509F98E828F8313
:103A6300A3A3A3A3A3A3A3A3A31234DCEEFAEFFBA4
:103A73000249C374F6120366EAFEEBFF120C85904B
:103A83001093E0F8E9C3984009900345124BC8121C
:103A93000C8BEE2402F8EF1251D890034712509288
:103AA300900347E004F0EEFAEFFB120C91850882D5
:103AB300850983E002568EC082C083790090034556
:103AC300800109124BC88A828B83E582458370F299
:103AD30002340E74F7120366EAFEEBFFEE4F6056F4
:103AE30090034512474E604E888289837A007B009B
:103AF300EE65827003EF6583600FAA82AB83123B8E
:103B03003CE5824583602F80E7900345123B48687C
:103B13007002EF698E828F8370081234D090034550
:103B23008003125F841234DCEEFAEFFB121E3DEECB
:103B3300FAEFFB121543023446123B4022123EBCFD
:103B43008882898322123EB8EE22C082C08390030A
:103B53004580048882898312474E600B888289835B
:103B6300124200EC4D70EC8A828B83E4F0A3F0E800
:103B73004960068882898380039003451234560284
:103B8300340E74F712036690034580048A828B8394
:103B9300123BC54B60257E0080010E123BCA50ECE0
:103BA300EE75F006A4FCADF0EA2CFCEB3DFDEC2435
:103BB30010F582ED123C1A70E180047A007B00025A
:103BC3003446125067EA22123C23EEC3982274F75C
:103BD3001203667D0080010D123C1FEDC398503423
:103BE300ED75F006A4FEA8F0E8FFEA2EFEEB3FFF1A
:103BF300EE2410F582EF123C1A70DCED75F006A48A
:103C0300FEE8FFEA2EFAEB3FFBEA2411F582EB1202
:103C13005B4A4CF0023446125B566922123C232263
:103C2300126490EB3400F583E0F82274F612036615
:103C3300120DAB7A007B008025EAF8EBF9E875F00A
:103C430006A4F8ACF075F006E9A42C12503C1263FC
:103C530051A3E4125132F0A31263571264CE90229F
:103C630078122B2C40D37A007B00801C8A088B09A6
:103C7300740378081209B7124AF0A374FEF0A30480
:103C8300124F12A3E41264CE902283123CCD40DC87
:103C93007A007B00801D8A088B0974037808120957
:103CA300B774D81257C2740F12600974FEF0A304DC
:103CB3001264CE902289123CCD40DB902282E493A1
:103CC300900353F0123CD70234E5E493F8C3EA9827
:103CD300EB9400227CE87D037A107B009003C2E022
:103CE300F91215F72274F012036674F51208EE8ABE
:103CF300088B09890A8C0BE9A2E050147508FC753E
:103D030009FFA2E15005D2E4023DAAD2E3023DAA93
:103D13001249AF7003A3E06970057900023E77ACE6
:103D23000A7902AA08AB09120D87E960EDE50AF5E5
:103D33000C780C12083079027CFE7DFFAA08AB09CF
:103D430012472A120874E96003023E75E50AC2E5C8
:103D5300F50A9003B5E07051E50AA2E6404B7403FF
:103D6300120AD4AC82AD83AA08AB09120B35E970F1
:103D73003212404B8A0C8B0DA80CA90DE8FEE9FF0B
:103D8300E8496025EE24020A0AEF12283C601AEE85
:103D93002402FCEF3400FD7403120AD4AA82AB831D
:103DA300121CC9E50AD2E5F50A900348E0F50C9028
:103DB3000368E0F50EA3E0F50F780E12082C7D01E1
:103DC3007C00900348E0F9AA0EAB0F120D3F74027A
:103DD300120874E9F8900348E004F0E86003023E37
:103DE30075E50AA2E55004740E80027406C0E074FF
:103DF30001120AD4D0E01254A48A0E8B0FAE0EAF78
:103E03000FEE4F6069123E95123EAC88828983742F
:103E130001F07478550AA3126496E50C126496A314
:103E2300E508F0E509123E84E4F0E50AA2E5500F47
:103E33007403120AD4AC82AD83E82406123E7B8E4F
:103E4300828F83A3A374FDF0A374FFF0E50B6015C9
:103E5300902290E493F8E50BC3985009EE241312D3
:103E63005477E50BF0EEFAEFFB120BD780067910CF
:103E7300800279C7740B8049FAE93400FB121CC92C
:103E83002288828983A3A3A3A3123E902212520BFA
:103E9300A322EE24171254887401F0120EFBEE24B1
:103EA3001A125488EAF0A3EB22F012648A34001247
:103EB3003EB622F583123EBC22E0F8A3E0F9227459
:103EC3000D1208747F0802058174F61203667A00E6
:103ED3007B1012599260089003D47401F0802990EA
:103EE30006CAE064019010DE7006E0FC79018004EC
:103EF300E0FC79037A007B00120CA9902276123F32
:103F03000E7A007B10123F1C0234E5123F1222E4AA
:103F130093FC740193FD227B009003C2E0F9121518
:103F2300F12274EC1203668A088B098C0C8D0D89BF
:103F33000E7414120AD41249097416120AD4E0F545
:103F430010A3E0F511120F73E960077AFF7BFF02FC
:103F530040489010DDE06402600302403B7900AA10
:103F630008AB09120D8DA90E120D818A128B13AEA7
:103F730012AF13EE4F70030240238E828F83A3A3ED
:103F8300A3A3A3E064018E828F83A3A37069124B62
:103F9300C88E828F83A3A3A3A3A3A3E05418604373
:103FA30090228EE4938E828F83A3A3A3A3F0EA656A
:103FB3000C7003EB650D6014EA650A7003EB650B87
:103FC300600AEA65107003EB6511701F7810120820
:103FD3002CAC0AAD0BAA0CAB0D12106F74021208B5
:103FE30074800890036712597CA3F074FE6A70030F
:103FF30074FF6B601D804EA3A3A3E0640360298E4E
:10400300828F83A3A3A3A3A3E0640470057AFE02B3
:104013003F508E828F83A3A3A3A3A3E064027008FF
:104023009003B4E06402701012404B8B0BEA450B13
:104033006006AA08AB09800DAA08AB0990034912D0
:1040430039BD121E9C025F72900375124730121025
:10405300332274F7120366EAFEEBFF120B89E97051
:104063000AEEFAEFFB120B95E96006EEFAEFFB801E
:10407300047AFE7BFF02344674F01203668A0A8BCD
:104083000B8C0E8D0F8909750800120F73E97900E7
:1040930060030241F2AA0AAB0B120D8DA909120D9E
:1040A300818A0C8B0DAE0CAF0DEE4F60198E828F93
:1040B30083A3A3A3A3A3E0640270559003B4E064B5
:1040C3000270030241F0AA0AAB0B90034F1239BDF1
:1040D300121E9C120B9B8A0C8B0DA80CA90DE84990
:1040E30070030241F088828983A3A3A3A3A3E0A260
:1040F300E040030241F0750C01A2E150687901AC84
:104103000AAD0BAA0EAB0F120CD9E970640241F091
:104113008E828F83A3A3A3A3A3E064037005750C0E
:104123000280528E828F83A3A3A3A3A3E0640160C2
:10413300030241F09003751242008E828F83124571
:10414300558A0C8B0DA80CA90DE84960D1902287E4
:10415300E493FA88828983E0C39A50C2A3E06003A0
:104163000241F080B988828983A3A3A3A3A3D2E1E8
:10417300F0EE4F603A8E828F83A3A3A3A3A3A3E0A1
:104183005418602B7508018E828F83A3A3120694A3
:10419300750CFE750DFF780C12082C7900AC0AAD76
:1041A3000BAA0EAB0F120D9F7404120874803E907D
:1041B3000368E0650E7004A3E0650F701490228F0E
:1041C300E493FCA909AA0AAB0B120CA97508018098
:1041D3001CA90CAC0AAD0BAA0EAB0F120CD9E970DB
:1041E3000C750801A909AA0AAB0B120D33A9080221
:1041F3003EC7E50C2415F582E50D12548B124EE8EB
:104203002274EA12036674F01208EE8A0C8B0D8C8A
:10421300088D097426120AD4E0F514A3E0F5157588
:1042230012069003F512474E602390037512420065
:10423300AA08AB0912105D8A108B11EA4511600DB3
:104243008A828B83A3E07005790002453DE50C2447
:104253001DF50EE50D3400F50F850E8212473AF574
:104263001388828983A3A3A3E0FA88828983A3A303
:10427300A3A3E0F9EA2400FEE439FFAA08AB09127C
:104283000D39850E82850F83124578E029F50BE5FC
:104293000AA2E5500375120E7487550A7017741835
:1042A300550A6418600FE50C2417F582E50D125BBF
:1042B3004A651260077901121CB1808C530A78C3D6
:1042C300EE94F8EF94FF501D7900EEFAEFFB1245E0
:1042D30047601288828983A3A3A3A3A3A3E05418EE
:1042E300600302424B780812082C7D0012456B12C2
:1042F3000874E9F8740368700302424BE860030230
:1043030043B67418550A700302446BE50AD2E0F50C
:104313000AA2E45004D2E1F50AA90A124BC11245DC
:1043230047605388828983A3A3A3A3A3A3E054185C
:10433300604488828983A3A3A3A3A3E064017036A6
:10434300E51045116030900375124200888289831D
:104353001245558A0E8B0FA80EA90FE849601788DE
:10436300828983A3E0600F851082851183A312568F
:1043730099500302424BE50AF50E780E12083012EB
:10438300455E120874E9702B7C007D0085148285DC
:10439300158374FFF0A3F0850C82850D83A3A3A37B
:1043A300A3A3A3A3A3E060031241F5A90B124BC17E
:1043B3001216ED851482851583E0F47003A3E0F4EF
:1043C30060399003B4E06402700302424B1248FA6E
:1043D300E0FAA3E01239B9121E9CEA65087003EBF8
:1043E3006509600302424BEEFAEF1239B9121E9CC3
:1043F300851482851583EAF0A3EBF0780812082C64
:104403007D0112456B120874A90AEEFAEFFB120D37
:104413008D8A088B09A808A909900368E0687003CE
:10442300A3E069600302452EEEFAEFFB120B9B8AB1
:10443300088B09A808A909E849606E88828983A3C3
:10444300A3A3A3E06401600D88828983A3A3A3A32C
:10445300E064027054851882851983AC82AD83EEC3
:10446300FAEFFB120B358055900361E0600FE50A0C
:10447300F50E780E12083012455E120874E50AF53F
:104483000E780E12083079027CFE7DFFEEFAEFFB08
:1044930012472A120874E960030243B68514828521
:1044A300158374FFF0A30243FD120EFBEAFCEBFD40
:1044B300851882851983AA82AB83121CC9850C8255
:1044C300850D83A3A3A3A3A3A3A3A3E06401700FF8
:1044D3001241F57408120AD4AA82AB83121CC912C2
:1044E30047041253104430F5087808120830740159
:1044F300120AD4858208858309780812082C740B64
:10450300120AD4858208858309780812082CE513DA
:10451300F50878081208307900EEFCEFFD124BC164
:10452300120CD3740612087402424B12470412543D
:104533007A124578E50BF0120F1374101208747F8A
:104543000E020581120D818A0E8B0FA80EA90FE8AA
:104553004922A3A312506712105D227901AC08AD62
:104563000912505C12472A22AC0BA91312505C1299
:104573000D3F740222125318A3A3A3A32274F012B3
:10458300036674F01208EE8A0C8B0DECFAEDFB75E2
:104593000F089003F512474E60141256928A828BCD
:1045A30083E58245836007A3E070030246FF124759
:1045B30004340012473AF50B8882898312470DE0D1
:1045C300FBEC2400FEE43BFF88828983A3A312470C
:1045D3000DA3A3E0FBECF508E43BF509888289838E
:1045E300A3A3A3A3A3A3A3E0F50EE50AA2E45003A8
:1045F300750F10A2E550067408250FF50F748F553B
:104603000A700FE50C2417F582E50D125B4A650F5E
:1046130060087901121CB10246FF530A707800E565
:104623000AA2E45022124704125B4A2408FCA3E0C6
:104633003400FD7408120AD4AA82AB83121CC97811
:1046430008E50AC2E4F50AE50AA2E5502812470480
:10465300125B4A28F8A3E03400F9E82408FCE934A3
:1046630000FD851882851983AA82AB83121CC9E5D4
:104673000AC2E5F50AAC0EA90BEEFAEFFB120D45E3
:10468300E9F87403686075900368E06E7003A3E053
:104693006F605EE87054E50AF50F780F1208301268
:1046A300471B120874E97054780A12083074011217
:1046B3000AD485820C85830D780C12082C740B1296
:1046C3000AD485820C85830D780C12082CE50BF532
:1046D3000A780A120830A90EAC08AD09EEFAEFFB0E
:1046E300120CD374061208748012740468700D805F
:1046F300B7780A12083012471B1208747410023E6E
:10470300C4E50C241DF582E50D22A3A3A3E0FC88D8
:10471300828983A3A3A3A322790112490112548B93
:1047230012473012472A22120CFD740122E0FCA327
:10473300E0FDAA08AB0922F583123B40A3E0F50A8A
:1047430088828983A3A3E0229003391250C3227481
:10475300E812036674F51208EEEAFEEBFF8C088D8F
:104763000989147423120AD4E0F50F7424120AD4AD
:10477300E0F512A3E0F5137426120AD4E0F516A3AC
:10478300E0F5177428120AD4E0F50EA90F120D4BA9
:104793008A108B117401120AD47408F0E50EA2E496
:1047A30050037410F0E50EA2E55004E02408F085F0
:1047B3001882851983AA82AB83120F5B8A0C8B0D37
:1047C300EA450D70030248E1EA2417F582EB12482B
:1047D300F3120EFBE50C241AF582E50D12547A123E
:1047E30034567403120AD4AC82AD83AA10AB1112EF
:1047F3000B35E9601D1248EB7403120AD4A882A991
:1048030083E50C2418F582E50D12547AE8F0A3E948
:104813008024E50EA2E4501FE5106E7003E5116FCE
:1048230070151248EBE50C2418F582E50D12547A45
:10483300E512F0A3E513F01248FA124909850A823A
:10484300F5837402F0A3E50E124911E50FF0EE852E
:104853000A82850B83A3A3A3F0EF850A82850B83CA
:10486300A3A3A3A3124911A3A3A3E508F0E5098514
:104873000A82850B83A3A3A3A3A3A3F0AA10AB115E
:10488300120D39E92514850A82850B83A3A3A3A3FB
:10489300A3A3A3F0750800E50EA2E45011AC12AD7A
:1048A30013E50A2408FAE50B123E7D750808E50EA8
:1048B300A2E55014AC16AD17E50A2508F8E50B344C
:1048C30000F9E82408123E7B850C82850D83A3A39F
:1048D300E510F0A3E511F0AA0CAB0D120BD7740B86
:1048E3001208747F10020581E50C2416F582E50D8C
:1048F30012548B7401F02212490112548B22E50CDD
:10490300126491E50D22E0F50AA3E0F50B22F08590
:104913000A82850B83A3A32274F21203668A088B8F
:1049230009ECFEEDFF890A79001249AF7003A3E099
:1049330069700479018073750B01900368E0650861
:104943007004A3E06509601F750B00780B12083033
:10495300A90AEEFCEFFDAA08AB09120FAF7401120E
:104963000874E9F50B80417900EEFAEFFB120D8133
:10497300EA4B602B8A828B83A3A3A3A3A3A3E05454
:1049830018601C7508FE7509FF780812082C8A82C6
:104993008B83A3A31206941262A61208748009796A
:1049A30001EEFAEFFB120C5BA90B8014120D8D8A3A
:1049B3000C8B0DA80CA90D900368E06822120874F3
:1049C3007F0602058174F412036675082075090ECB
:1049D3007A10125FAE8B0BEA450B7003123CD79033
:1049E3000353E014F0700C902282E493900353F08D
:1049F300120D997E007F00806C850882850983A350
:104A0300A3A3A3E06059F46056E5082404F582E506
:104A1300091259767049850882850983A3A3A3A344
:104A2300A3E0640370197902850882850983124221
:104A330000850882850983A3A3124BC8120CD9856C
:104A43000882850983A3A3A3A3A3E064016010855F
:104A5300088285098374FEF0A304124B22E4F0124A
:104A63003053122EA590227C12610A408C7E007F67
:104A7300008039120EA18E088F0974037808120979
:104A8300B774982508FC740F3509FD7AE57B0C1281
:104A93000E8FEA4B70DD8E088F09740378081209B4
:104AA300B7124AF0126351E4F0123053902283E4B8
:104AB30093F8C3EE98EF9400501B8E088F0974038C
:104AC30078081209B7124AF8E82407F582E912595F
:104AD3007670D680A17E007F00800A124B036002AD
:104AE30014F012305312610740F1023686124AF86D
:104AF300888289832274982508F8740F3509F9226E
:104B0300EEF8EFF9E875F006A4F8AAF075F006E9F7
:104B1300A42AF9743828F582740F39F583E0221238
:104B23004B29A3A3A322F0850882850983A3A3228B
:104B330074F712036674E11208EEECFEEDFF7508DC
:104B430000EE4F60728A828B83E0241C1259A712F5
:104B5300474E60638A828B83124BC88518828519FE
:104B630083AC82AD83EA241BF582EB125878EA24E6
:104B73001CF582EB124BC4120EE3740B120AD4120F
:104B83004BCC7003A3E069702E7402120AD4E06464
:104B9300017024741D120AD41239BDE06401701728
:104BA300741D120AD41239BFA3A3E0F88E828F8337
:104BB300E0687003750801A908741F0234431249A1
:104BC300013400F583125067221227FAE068227439
:104BD300F4120366E97024790090034D1239BD1273
:104BE3001E9C8A0A8B0BAE0AAF0B74FE6E700374A5
:104BF300FF6F701A90228AE4936013790190034D3A
:104C03001239BD121E9C8A0A8B0BAE0AAF0B120F10
:104C13001F0231BB74F612036674F31208EE12140A
:104C2300B38A088B09AE08AF09900368E06E70037E
:104C3300A3E06F60E9120F07EA6E7002EB6F60DEAC
:104C4300EEFAEFFB120F73E970D4EE4F60D08518C4
:104C530082851983E4F004120AD4EEF0A3EF124C18
:104C63007AE970BA74FE6E700374FF6F60B0EEFA87
:104C7300EFFB740D0234E2123567120B4D22C08232
:104C8300C083120F1F02340E7F0A02058174F212D1
:104C93000366EAFEEBFF8C0A8D0B8908740E120A79
:104CA300D4E0F50974FC6E700374FF6F700579002E
:104CB3000249C37900120D8D8A0C8B0DAE0CAF0D1A
:104CC300900368E06E7003A3E06F7006E509A2E647
:104CD30050DCA909126194706179007AFE7BFF129E
:104CE30061947056741855097003024DC7780079A2
:104CF3000080031229F490227C1229EB4003024D19
:104D0300C7E8FAE9FBEA75F007A4FAACF075F00717
:104D1300EBA42CFB74262AF582740E3BF583E05436
:104D23001870D0E875F007A4F8AAF075F007E9A4A5
:104D33002AF9742028F8740E39F988828983A3A389
:104D4300A3A3A3A3E05418600974185509700302C0
:104D53004CB188828983EEF0A3EFF074FE650A708C
:104D63000474FF650B6003124EEE88828983A3A34C
:104D7300A3A3A3A3E509F0A2E0500D88828983A32E
:104D8300A3A3A3A3A3D2E2F0740165088882898355
:104D9300A3A3A3A3A370387401124F12E0541860A5
:104DA3002890228EE49388828983A3A3A3A3124E1F
:104DB300DC12105D8B0DEA450D6003024CB17800E7
:104DC300790080397902024CB3900367E080D7E021
:104DD30064017003024CB188828983A3A3A3A3A3B4
:104DE300A3E05418600790228EE493800490036636
:104DF300E0123E84E508F0024CB11229F4902284BB
:104E0300E493FAC3E89AE994004003024CB17A00B0
:104E13007B00804BEAFCEBFDEC75F007A4FCAEF0E5
:104E230075F007EDA42EFD74222CF582740E3DF56A
:104E330083125493E8FCE9FDEC75F017A4FC85F0AC
:104E43000975F017EDA42509FD74092CF582740E7C
:104E53003DF583E06E7003A3E06F609E122F2890F0
:104E6300227C122EB540AD123F0EEC6A7002ED6B40
:104E73007088E875F017A4F8AAF075F017E9A42A6A
:104E8300F9740928FE740E39FF7C177D007900EE52
:104E9300FAEFFB1214A78E828F83124EF4900375E0
:104EA300124ECEA3A3A3A3A3A3E8F0A3E9124ED467
:104EB3007401F0EE240E1254777401124EFC1202A8
:104EC30015EE240D125477E8024DF9123426A3A3EC
:104ED30022F0EE240F12548822F0124EE5AA0AABF8
:104EE3000B22900375E0FCA3E0FD2288828983A353
:104EF300A3E50AF0A3E50BF022F0124F0122902262
:104F030087E4932401F8E43400F97A027B00221247
:104F13003E90A32274ED1203668A088B09890E1250
:104F2300504540057905025013121735AA08AB09FD
:104F3300125117902278125016650A7003E9650B17
:104F430070077AFE7BFF125117902278E412501EED
:104F5300E50A98E50B9940030250111250226012A2
:104F6300E50A75F006A4F875F006E50B12506D120C
:104F73001543E50E6018E50A75F006A4F8AAF07566
:104F8300F006E50B125099701A7901025013E50AE5
:104F930075F006A4F8AAF075F006E50B12507AE452
:104FA300F0A3F0E50A75F006A4F8AAF075F006E59B
:104FB3000B12503AA312532688828983A3AA82AB89
:104FC300831250888A828B83E0603F125022603ABA
:104FD3008E108F117512007810120828E50EC33356
:104FE300FCE433FDE50A75F006A4F50AA8F075F0B4
:104FF30006E50BA428F50B743C250AF582740F35DE
:105003000B124BC6122EC612087479008002790760
:105013000261AA122B4DE8229004E1125B3122E5D2
:105023000A75F006A4F8AAF075F006E50B125075A0
:10503300F8A3E0F9E84922A42A1251CE8882898391
:10504300A322ECFEEDFF902285E493F8E9C39822B6
:10505300F58312506712154322E50C126491E50D96
:105063003400F583E0FAA3E0FB22125075FAA3E0C3
:10507300FB2212507AE022A42AF9743C28F58274A8
:105083000F39F58322E50EF09010DF12509222E0E3
:1050930088828983F0221251F2F50CE93400F50D70
:1050A300E50EC333FAE433FB12153D850C82850DFF
:1050B30083EAF0A3EBF0850C82850D831250C322A3
:1050C300123EBCE8492274F4120366ECFEEDFF7451
:1050D3000C120AD41234D088088909125117AC0A69
:1050E300AD0BECF8EDF990227812511F5021E875C1
:1050F300F006A4F8AAF075F006E912503AE08E82A1
:105103008F831251321251281234DC7900800279D4
:1051130004023686120D0F8A0A8B0B22122EBEC38F
:10512300EC9AED9B22123EB88508828509832212F0
:1051330052072274F61203667E007F008028EEF881
:10514300EFF9E875F006A4F8ACF075F006E9A42CC5
:10515300F9743A28F582740F125DB56A7003A3E0FF
:105163006B605712305312610740D3126102700211
:10517300E96F704674FE6A700374FF6B703C7E00C7
:105183007F008003123053126107502E124B0370BD
:10519300F3EEF8EFF9E875F006A4F81251C41251D2
:1051A300F960171251E0F8E91251D888821250536E
:1051B300850882850983E4F0A3F0EEFAEFFB02345D
:1051C300E575F006E91251CC22A42AF9743828F8BF
:1051D300740F39F9223400F98808890922EEF8EFAF
:1051E300F9E875F006A4F875F006E91251F22212F7
:1051F30051CCE8240422A3A374FE1252041250C318
:1052030022F0A30412520B22F088828983A3A3A362
:10521300A32274F6120366EA241DF582EB125310DF
:10522300F9604BEA241DF582EB125B4A2402FCA3CE
:10523300E03400FD125049400302530378008029F3
:105243008C828D83E0F508A3E0FFE5082400E43FAA
:10525300F509E833FEE433FF74802EF582740F3FC3
:10526300F58312532612530608E8C39940D28A8263
:105273008B83A3A3A3A3A3A3A3A3A312420090037B
:1052830068E06C7003A3E06D700F7C807D0F1227C4
:1052930063124BC4120D038067EA2411F582EB12EB
:1052A3005B4A605CFC74FF2CF075080178081208F7
:1052B3003075088075090F780812082CE9F508780D
:1052C30008120830EA2412F582EB125B4AF50878DB
:1052D30008120830EA2415F582EB12547A12069468
:1052E300ECF91227631241FD8A828B83A3A3A3A344
:1052F300A3A3A3A3A3124BC8120D1B740712087414
:105303000234E5EC24020C0CED3400FD2212548B24
:10531300125318E022E0F8A3E0F5838882A32288E1
:10532300828983E508F0A3E509F02274EA12036693
:1053330074FD1208EE8A148B158C0E8D0F890D7473
:1053430019120AD4125493741B120AD4E0F511747F
:105353001C120AD4E0F50C741D120AD41249097404
:105363001F120AD4E0F5106008E50CC3332404804F
:10537300027402C0E07401120AD4D0E01254A48A69
:10538300088B09EA4509700302546F8A828B83A351
:10539300A3E514F0A3E515125F9DE50EF0A3E50F59
:1053A300F0EA2413F582EB12547AE50DF0EA2414A3
:1053B300F582EB12547AE511F0EA2417F582EB1229
:1053C3005B4A64017040120F018A0E8B0FA80EA96D
:1053D3000F850882850983A3A3A3A3E0687003A3B1
:1053E300E0696022EE4F6011E508241AF582E509B1
:1053F30012547AEEF0A3EF800CE5082417F582E54A
:105403000912547AE4F012547E1254938E828F83DD
:105413007405F0A3E5107004E50C80487401250CB5
:1054230012549D7A008028850A82850B83E01254EA
:1054330099850A82850B83A3E08E828F83F0E50A28
:105443002402F50AE50B3400F50BA30EAF830AEA39
:10545300C3950C40D2120F01EA125499120F01EBBB
:105463008E828F83F0AA08AB09120BD7740302450F
:105473003FEE240CF582EF12548B22122774125440
:105483008B22EE240BF582EF3400F5832290033454
:10549300E0FEA3E0FF228E828F83F0A3AE82AF8370
:1054A30022123567120F5B22C082C083E9C333FC2B
:1054B300E433FDEA2CFAEB3DFBEA24FEF582EB3400
:1054C300FF124BC602340E74F212036689098A0A6C
:1054D3001250454004790080407508008002050899
:1054E300E508C39509502AE508C333F8E433F9EE18
:1054F30028F582EF39F583C082C083120F018A0C2D
:105503008B0DD083D082E0650C7004A3E0650D7031
:10551300CDE50A650870BE79010249C374F0120330
:105523006674F31208EE8A088B098C0A8D0B890CBA
:10553300750D00120F73E979006003025621AA0862
:10554300AB09120D8DA90C120D818A0E8B0FAE0EB5
:10555300AF0FEE4F700302561F8E828F83A3A3A358
:10556300A3A3A3E0A2E2400302561F120F01EA65C0
:105573000A7003EB650B7011780D120830E4F50E19
:10558300F50F780E12082C8044AA0AAB0B120B8F6E
:10559300E9640170688518828519837404F07401C5
:1055A300120AD4124EF4851882851983AA82AB831A
:1055B300120B4DE964017045750D01780D12083029
:1055C300E4F50EF50F780E12082C750D00780D1208
:1055D3000830780D1208307408120AD485820E85BB
:1055E300830F780E12082C902290E493F9AC0AAD45
:1055F3000BAA08AB09120D1B74071208748E828F55
:1056030083A3A3A3A3A3A3E0A2E1400D8E828F8370
:10561300A3A3A3A3A3A3C2E2F0750D01A90D023EA8
:10562300C274F6120366E9FE7900120D8DEEF912CB
:105633000D818A088B09A808A909E8496006126444
:10564300D8F9800279040234E574F61203667E0702
:1056530090035CE070341256928A088B09A808A95B
:1056630009E8496025900361E0640188828983A386
:10567300A3700B125699888289835001A3A3E0F982
:1056830012107BE9FEEE70027E07EEF90234E5129A
:105693004EE512105D22E0FA88828983A3E0C39A63
:1056A3002274EE120366EAFEEBFF890A8C0C8D0B63
:1056B3007412120AD412341A12576E12504C5051EB
:1056C300890E750F007403780E1209B7749E250EA8
:1056D300F582740F350FF583E0F8E50CC398502D70
:1056E300E50B6024751100740378101209B77498E0
:1056F3002510F8740F3511F988828983A3A3A3A316
:10570300A3A3E50C125778F07900024C8B79038040
:10571300F979007AFE7BFF12576EE49365107004EB
:10572300790280E6E50B60E0890E750F007403785B
:105733000E1209B77498250EF8740F350FF9888285
:105743008983A3EEF0A3EF125778124F12E50C12E0
:105753003E8C74FF126357E50AF0900366E088827B
:105763008983A3A3A3A3A3A3A3809C120D7BE9F521
:10577300109022832212649AA3E508F0A3E509227C
:1057830074F6120366ECFF120D7B90228312504CC9
:1057930050278908750900740378081209B7749DA6
:1057A3001257C2740F126009E0F8EFC3985006EF66
:1057B300F0790080067903800279040234E5EA2552
:1057C30008F5822274F4120366EAFEEBFF120D7BE6
:1057D300E9F50A90228312504C5019750B0074039B
:1057E300780A1209B7749B250AF582740F350B12D8
:1057F3004BC6801890034B12474E600CEEFAEFFB3A
:105803001239C0121E9C80047AFE7BFF0236867416
:10581300F61203668A828B83A3A3A3A3A3E4F0F8FF
:10582300800108902289E493F9E8C399501E8808FF
:105833001258708C828D83A3A3A3A3A3A3A3A3E075
:105843006970DFECFAEDFB120EA7801EE49368701B
:10585300198C828D83A3A3A3A3A3A3A3A3A37406D9
:10586300F07A008C828D8312599B0234E5742025D3
:1058730008F5827410125B56F92274F4120366EA77
:10588300FEEBFF8E828F83A3A3E0141259B2A3E031
:10589300F9120E838A088B09EA45097003025973CA
:1058A3008E828F83A3A3E070358A828B83A3A3A305
:1058B300A3A3A3A3A3A3E064028A828B83A3A3A3CA
:1058C300A3A3A3A3A3A360107406F07AF0850882B0
:1058D3008B8312599B0259737406F00259738E829B
:1058E3008F83A3A3A3A3A3A3E060738E828F83A359
:1058F300A3A3A3E0607AEE2403F582EF1259767036
:105903006F90035512597C1259B2E014125F94E060
:105913006403705C8E828F83A3A3A3A3E0700DAC9A
:1059230008AD09EEFAEFFB120D5180448A828B8396
:10593300A3A3A3A3A3A3A3A3A37404F01214B3EA7E
:10594300540F04850882850983A3A3A3A3F0A3E4CA
:10595300F07A20FB125992701712598580128A82AD
:105963008B83A3A3A3A3A3A3A3A3A3E0640360AF15
:10597300023686125B5614F022E08E828F83A3A335
:10598300A3227A207B009003C2E0F91214F52212BD
:105993005FB08B09EA450922E0240C1259A7E0F90C
:1059A300120DC922F8A3E03400F9888289832212F8
:1059B30059B7A3221234C2A3A3A32274F612036617
:1059C30079007E0080258E0875090074037808121B
:1059D30009B774D82508FA740F3509FB8A828B83BB
:1059E300A3A3E06005120D5779010E902289E49379
:1059F300F8EEC39840D0E9A2E07A407B009003C25E
:105A0300E0F950151216038B09EA4509700E7C6400
:105A13007D007A40123CDD80031215FD0234E574EB
:105A2300F4120366ECFEEDFF7508D875090F7C00D0
:105A33008045850882850983A3A3A3A3A3A3A3E029
:105A4300F8EA2412F582EB125B4A68701F8508821C
:105A53008509831234D0125B4E687003A3E069702A
:105A63000B850882850983A3A3E070200CE5082435
:105A730008F8E5091251D8902289E493F8ECC39809
:105A830040B0E4936C700579000236868508828500
:105A93000983A3A3A3A3A3A3E07004790180EA125B
:105AA30061A21210338B0BEA450B600F85088285C8
:105AB3000983A3A3A3A3A3A3E014F07C0080010C98
:105AC3008C0A125B245020EC125B5C60F212306B88
:105AD3006E7003A3E06F70E7850882850983A3A333
:105AE300A3A3A3A3E014F0902284E493F89004E129
:105AF300E49328F8A3E4933400F9850882850983A5
:105B0300A3A3A3A3A3A3E0FAC3E89AE99400508B49
:105B1300850882850983A3A3A3A3A3A3E4F0025A60
:105B23009E9004E1125B30E50A98E49922E4122B7B
